{
  "contractName": "Activity",
  "abi": [
    {
      "constant": false,
      "inputs": [
        {
          "name": "_ticket",
          "type": "bytes32"
        }
      ],
      "name": "halfTimeCheckOut",
      "outputs": [
        {
          "name": "",
          "type": "bool"
        }
      ],
      "payable": false,
      "stateMutability": "nonpayable",
      "type": "function"
    },
    {
      "constant": false,
      "inputs": [
        {
          "name": "_ticket",
          "type": "bytes32"
        }
      ],
      "name": "halfTimeCheckIn",
      "outputs": [
        {
          "name": "",
          "type": "bool"
        }
      ],
      "payable": false,
      "stateMutability": "nonpayable",
      "type": "function"
    },
    {
      "constant": false,
      "inputs": [
        {
          "name": "_from",
          "type": "address"
        },
        {
          "name": "_to",
          "type": "address"
        },
        {
          "name": "_ticket",
          "type": "bytes32"
        }
      ],
      "name": "assign",
      "outputs": [
        {
          "name": "",
          "type": "bool"
        }
      ],
      "payable": false,
      "stateMutability": "nonpayable",
      "type": "function"
    },
    {
      "constant": true,
      "inputs": [
        {
          "name": "_owner",
          "type": "address"
        }
      ],
      "name": "stakeOf",
      "outputs": [
        {
          "name": "",
          "type": "uint256"
        }
      ],
      "payable": false,
      "stateMutability": "view",
      "type": "function"
    },
    {
      "constant": false,
      "inputs": [
        {
          "name": "_ticket",
          "type": "bytes32"
        }
      ],
      "name": "checkIn",
      "outputs": [
        {
          "name": "",
          "type": "bool"
        }
      ],
      "payable": false,
      "stateMutability": "nonpayable",
      "type": "function"
    },
    {
      "constant": false,
      "inputs": [
        {
          "name": "_spender",
          "type": "address"
        },
        {
          "name": "_ticket",
          "type": "bytes32"
        }
      ],
      "name": "approve",
      "outputs": [
        {
          "name": "",
          "type": "bool"
        }
      ],
      "payable": false,
      "stateMutability": "nonpayable",
      "type": "function"
    },
    {
      "constant": false,
      "inputs": [
        {
          "name": "_from",
          "type": "address"
        },
        {
          "name": "_to",
          "type": "address"
        },
        {
          "name": "_ticket",
          "type": "bytes32"
        }
      ],
      "name": "deal",
      "outputs": [
        {
          "name": "",
          "type": "bool"
        }
      ],
      "payable": false,
      "stateMutability": "nonpayable",
      "type": "function"
    },
    {
      "constant": false,
      "inputs": [
        {
          "name": "_ticket",
          "type": "bytes32"
        }
      ],
      "name": "voidIt",
      "outputs": [
        {
          "name": "",
          "type": "bool"
        }
      ],
      "payable": false,
      "stateMutability": "nonpayable",
      "type": "function"
    },
    {
      "constant": false,
      "inputs": [
        {
          "name": "_value",
          "type": "uint256"
        },
        {
          "name": "_ticket",
          "type": "bytes32"
        },
        {
          "name": "_tHast",
          "type": "bytes32"
        }
      ],
      "name": "mint",
      "outputs": [
        {
          "name": "",
          "type": "bool"
        }
      ],
      "payable": false,
      "stateMutability": "nonpayable",
      "type": "function"
    },
    {
      "constant": false,
      "inputs": [
        {
          "name": "_ticket",
          "type": "bytes32"
        },
        {
          "name": "_to",
          "type": "address"
        }
      ],
      "name": "sell",
      "outputs": [
        {
          "name": "",
          "type": "bool"
        }
      ],
      "payable": false,
      "stateMutability": "nonpayable",
      "type": "function"
    },
    {
      "constant": false,
      "inputs": [
        {
          "name": "_ticket",
          "type": "bytes32"
        }
      ],
      "name": "reclaim",
      "outputs": [
        {
          "name": "",
          "type": "bool"
        }
      ],
      "payable": false,
      "stateMutability": "nonpayable",
      "type": "function"
    },
    {
      "constant": true,
      "inputs": [
        {
          "name": "_ticket",
          "type": "bytes32"
        },
        {
          "name": "_spender",
          "type": "address"
        }
      ],
      "name": "allowance",
      "outputs": [
        {
          "name": "",
          "type": "bool"
        }
      ],
      "payable": false,
      "stateMutability": "view",
      "type": "function"
    },
    {
      "inputs": [
        {
          "name": "_name",
          "type": "bytes32"
        },
        {
          "name": "_supervisor",
          "type": "address"
        },
        {
          "name": "_gs",
          "type": "address"
        }
      ],
      "payable": false,
      "stateMutability": "nonpayable",
      "type": "constructor"
    },
    {
      "payable": true,
      "stateMutability": "payable",
      "type": "fallback"
    },
    {
      "anonymous": false,
      "inputs": [
        {
          "indexed": false,
          "name": "_sender",
          "type": "address"
        },
        {
          "indexed": false,
          "name": "_value",
          "type": "uint256"
        },
        {
          "indexed": false,
          "name": "_ticket",
          "type": "bytes32"
        },
        {
          "indexed": false,
          "name": "_tHast",
          "type": "bytes32"
        }
      ],
      "name": "e_mint",
      "type": "event"
    },
    {
      "anonymous": false,
      "inputs": [
        {
          "indexed": false,
          "name": "_sender",
          "type": "address"
        },
        {
          "indexed": false,
          "name": "_ticket",
          "type": "bytes32"
        }
      ],
      "name": "e_voidIt",
      "type": "event"
    },
    {
      "anonymous": false,
      "inputs": [
        {
          "indexed": false,
          "name": "_sender",
          "type": "address"
        },
        {
          "indexed": false,
          "name": "_ticket",
          "type": "bytes32"
        },
        {
          "indexed": false,
          "name": "_to",
          "type": "address"
        }
      ],
      "name": "e_sell",
      "type": "event"
    },
    {
      "anonymous": false,
      "inputs": [
        {
          "indexed": false,
          "name": "_sender",
          "type": "address"
        },
        {
          "indexed": false,
          "name": "_ticket",
          "type": "bytes32"
        }
      ],
      "name": "e_reclaim",
      "type": "event"
    },
    {
      "anonymous": false,
      "inputs": [
        {
          "indexed": false,
          "name": "_sender",
          "type": "address"
        },
        {
          "indexed": false,
          "name": "_ticket",
          "type": "bytes32"
        }
      ],
      "name": "e_checkIn",
      "type": "event"
    },
    {
      "anonymous": false,
      "inputs": [
        {
          "indexed": false,
          "name": "_sender",
          "type": "address"
        },
        {
          "indexed": false,
          "name": "_ticket",
          "type": "bytes32"
        },
        {
          "indexed": false,
          "name": "_in",
          "type": "bool"
        }
      ],
      "name": "e_halfTime",
      "type": "event"
    },
    {
      "anonymous": false,
      "inputs": [
        {
          "indexed": false,
          "name": "_sender",
          "type": "address"
        },
        {
          "indexed": false,
          "name": "_from",
          "type": "address"
        },
        {
          "indexed": false,
          "name": "_to",
          "type": "address"
        },
        {
          "indexed": false,
          "name": "_ticket",
          "type": "bytes32"
        }
      ],
      "name": "e_assign",
      "type": "event"
    },
    {
      "anonymous": false,
      "inputs": [
        {
          "indexed": false,
          "name": "_sender",
          "type": "address"
        },
        {
          "indexed": false,
          "name": "_from",
          "type": "address"
        },
        {
          "indexed": false,
          "name": "_to",
          "type": "address"
        },
        {
          "indexed": false,
          "name": "_ticket",
          "type": "bytes32"
        }
      ],
      "name": "e_deal",
      "type": "event"
    },
    {
      "anonymous": false,
      "inputs": [
        {
          "indexed": false,
          "name": "_sender",
          "type": "address"
        },
        {
          "indexed": false,
          "name": "_spender",
          "type": "address"
        },
        {
          "indexed": false,
          "name": "_ticket",
          "type": "bytes32"
        }
      ],
      "name": "e_approve",
      "type": "event"
    }
  ],
  "bytecode": "0x6060604052341561000f57600080fd5b604051606080620068648339810160405280805190602001909190805190602001909190805190602001909190505080600560006101000a81548173ffffffffffffffffffffffffffffffffffffffff021916908373ffffffffffffffffffffffffffffffffffffffff160217905550336000806101000a81548173ffffffffffffffffffffffffffffffffffffffff021916908373ffffffffffffffffffffffffffffffffffffffff16021790555081600360006101000a81548173ffffffffffffffffffffffffffffffffffffffff021916908373ffffffffffffffffffffffffffffffffffffffff16021790555082600281600019169055507316bd98edbb26b6ac07a9641d0810ffb7684e2cf0600460006101000a81548173ffffffffffffffffffffffffffffffffffffffff021916908373ffffffffffffffffffffffffffffffffffffffff1602179055505050506166f180620001736000396000f300606060405260043610620000c7576000357c0100000000000000000000000000000000000000000000000000000000900463ffffffff168063072032cf14620000c95780630bd4d205146200010b57806318f9293c146200014d5780634262336014620001cd5780634662d1dd146200021d5780635cd2f4d3146200025f578063627b114914620002c05780636d66d1c31462000340578063936a9ade1462000382578063944dfc2a14620003da57806396afb365146200043b578063980c6621146200047d575b005b3415620000d557600080fd5b620000f1600480803560001916906020019091905050620004de565b604051808215151515815260200191505060405180910390f35b34156200011757600080fd5b62000133600480803560001916906020019091905050620007f2565b604051808215151515815260200191505060405180910390f35b34156200015957600080fd5b620001b3600480803573ffffffffffffffffffffffffffffffffffffffff1690602001909190803573ffffffffffffffffffffffffffffffffffffffff169060200190919080356000191690602001909190505062000b06565b604051808215151515815260200191505060405180910390f35b3415620001d957600080fd5b62000207600480803573ffffffffffffffffffffffffffffffffffffffff16906020019091905050620018ce565b6040518082815260200191505060405180910390f35b34156200022957600080fd5b6200024560048080356000191690602001909190505062001a26565b604051808215151515815260200191505060405180910390f35b34156200026b57600080fd5b620002a6600480803573ffffffffffffffffffffffffffffffffffffffff169060200190919080356000191690602001909190505062002078565b604051808215151515815260200191505060405180910390f35b3415620002cc57600080fd5b62000326600480803573ffffffffffffffffffffffffffffffffffffffff1690602001909190803573ffffffffffffffffffffffffffffffffffffffff1690602001909190803560001916906020019091905050620024d5565b604051808215151515815260200191505060405180910390f35b34156200034c57600080fd5b620003686004808035600019169060200190919050506200329d565b604051808215151515815260200191505060405180910390f35b34156200038e57600080fd5b620003c06004808035906020019091908035600019169060200190919080356000191690602001909190505062003c15565b604051808215151515815260200191505060405180910390f35b3415620003e657600080fd5b6200042160048080356000191690602001909190803573ffffffffffffffffffffffffffffffffffffffff1690602001909190505062004242565b604051808215151515815260200191505060405180910390f35b34156200044757600080fd5b6200046360048080356000191690602001909190505062004f05565b604051808215151515815260200191505060405180910390f35b34156200048957600080fd5b620004c460048080356000191690602001909190803573ffffffffffffffffffffffffffffffffffffffff1690602001909190505062005db3565b604051808215151515815260200191505060405180910390f35b600080600560009054906101000a900473ffffffffffffffffffffffffffffffffffffffff1673ffffffffffffffffffffffffffffffffffffffff16635480573d60405180807f4163746976697479000000000000000000000000000000000000000000000000815250600801807f5469636b6574000000000000000000000000000000000000000000000000000081525060060190506040518091039020856000604051602001526040518363ffffffff167c0100000000000000000000000000000000000000000000000000000000028152600401808360001916600019168152602001826000191660001916815260200192505050602060405180830381600087803b1515620005f057600080fd5b6102c65a03f115156200060257600080fd5b505050604051805190509050600460068111156200061c57fe5b620006af8273ffffffffffffffffffffffffffffffffffffffff16633bc21fcb6000604051602001526040518163ffffffff167c0100000000000000000000000000000000000000000000000000000000028152600401602060405180830381600087803b15156200068d57600080fd5b6102c65a03f115156200069f57600080fd5b5050506040518051905062005fb6565b6006811115620006bb57fe5b141515620006c857600080fd5b8073ffffffffffffffffffffffffffffffffffffffff1663f64532b9620006f0600362005fe7565b6000604051602001526040518263ffffffff167c010000000000000000000000000000000000000000000000000000000002815260040180828152602001915050602060405180830381600087803b15156200074b57600080fd5b6102c65a03f115156200075d57600080fd5b50505060405180519050507fa1115e024e2eb4af645b0cd37e4a3c6d4d78a450b32bb89cce69c320d6616ec433846000604051808473ffffffffffffffffffffffffffffffffffffffff1673ffffffffffffffffffffffffffffffffffffffff168152602001836000191660001916815260200182151515158152602001935050505060405180910390a16001915050919050565b600080600560009054906101000a900473ffffffffffffffffffffffffffffffffffffffff1673ffffffffffffffffffffffffffffffffffffffff16635480573d60405180807f4163746976697479000000000000000000000000000000000000000000000000815250600801807f5469636b6574000000000000000000000000000000000000000000000000000081525060060190506040518091039020856000604051602001526040518363ffffffff167c0100000000000000000000000000000000000000000000000000000000028152600401808360001916600019168152602001826000191660001916815260200192505050602060405180830381600087803b15156200090457600080fd5b6102c65a03f115156200091657600080fd5b505050604051805190509050600360068111156200093057fe5b620009c38273ffffffffffffffffffffffffffffffffffffffff16633bc21fcb6000604051602001526040518163ffffffff167c0100000000000000000000000000000000000000000000000000000000028152600401602060405180830381600087803b1515620009a157600080fd5b6102c65a03f11515620009b357600080fd5b5050506040518051905062005fb6565b6006811115620009cf57fe5b141515620009dc57600080fd5b8073ffffffffffffffffffffffffffffffffffffffff1663f64532b962000a04600462005fe7565b6000604051602001526040518263ffffffff167c010000000000000000000000000000000000000000000000000000000002815260040180828152602001915050602060405180830381600087803b151562000a5f57600080fd5b6102c65a03f1151562000a7157600080fd5b50505060405180519050507fa1115e024e2eb4af645b0cd37e4a3c6d4d78a450b32bb89cce69c320d6616ec433846001604051808473ffffffffffffffffffffffffffffffffffffffff1673ffffffffffffffffffffffffffffffffffffffff168152602001836000191660001916815260200182151515158152602001935050505060405180910390a16001915050919050565b60008060008073ffffffffffffffffffffffffffffffffffffffff168573ffffffffffffffffffffffffffffffffffffffff161415151562000b4757600080fd5b600073ffffffffffffffffffffffffffffffffffffffff168673ffffffffffffffffffffffffffffffffffffffff161415151562000b8457600080fd5b600560009054906101000a900473ffffffffffffffffffffffffffffffffffffffff1673ffffffffffffffffffffffffffffffffffffffff16635480573d60405180807f4163746976697479000000000000000000000000000000000000000000000000815250600801807f5469636b6574000000000000000000000000000000000000000000000000000081525060060190506040518091039020866000604051602001526040518363ffffffff167c0100000000000000000000000000000000000000000000000000000000028152600401808360001916600019168152602001826000191660001916815260200192505050602060405180830381600087803b151562000c9357600080fd5b6102c65a03f1151562000ca557600080fd5b5050506040518051905091506002600681111562000cbf57fe5b62000d528373ffffffffffffffffffffffffffffffffffffffff16633bc21fcb6000604051602001526040518163ffffffff167c0100000000000000000000000000000000000000000000000000000000028152600401602060405180830381600087803b151562000d3057600080fd5b6102c65a03f1151562000d4257600080fd5b5050506040518051905062005fb6565b600681111562000d5e57fe5b14151562000d6b57600080fd5b8573ffffffffffffffffffffffffffffffffffffffff168273ffffffffffffffffffffffffffffffffffffffff16630c4f65bd6000604051602001526040518163ffffffff167c0100000000000000000000000000000000000000000000000000000000028152600401602060405180830381600087803b151562000def57600080fd5b6102c65a03f1151562000e0157600080fd5b5050506040518051905073ffffffffffffffffffffffffffffffffffffffff1614151562000e2e57600080fd5b600560009054906101000a900473ffffffffffffffffffffffffffffffffffffffff1673ffffffffffffffffffffffffffffffffffffffff16633b600b6460405180807f4163746976697479000000000000000000000000000000000000000000000000815250600801807f6f776e657242616c616e63650000000000000000000000000000000000000000815250600c0190506040518091039020886000604051602001526040518363ffffffff167c01000000000000000000000000000000000000000000000000000000000281526004018083600019166000191681526020018273ffffffffffffffffffffffffffffffffffffffff1673ffffffffffffffffffffffffffffffffffffffff16815260200192505050602060405180830381600087803b151562000f6157600080fd5b6102c65a03f1151562000f7357600080fd5b5050506040518051905090506200101c8273ffffffffffffffffffffffffffffffffffffffff1663209652556000604051602001526040518163ffffffff167c0100000000000000000000000000000000000000000000000000000000028152600401602060405180830381600087803b151562000ff057600080fd5b6102c65a03f115156200100257600080fd5b505050604051805190508262005ffd90919063ffffffff16565b9050600560009054906101000a900473ffffffffffffffffffffffffffffffffffffffff1673ffffffffffffffffffffffffffffffffffffffff166316bb2ec660405180807f4163746976697479000000000000000000000000000000000000000000000000815250600801807f6f776e657242616c616e63650000000000000000000000000000000000000000815250600c019050604051809103902088846000604051602001526040518463ffffffff167c01000000000000000000000000000000000000000000000000000000000281526004018084600019166000191681526020018373ffffffffffffffffffffffffffffffffffffffff1673ffffffffffffffffffffffffffffffffffffffff1681526020018281526020019350505050602060405180830381600087803b15156200115957600080fd5b6102c65a03f115156200116b57600080fd5b5050506040518051905050600560009054906101000a900473ffffffffffffffffffffffffffffffffffffffff1673ffffffffffffffffffffffffffffffffffffffff16633b600b6460405180807f4163746976697479000000000000000000000000000000000000000000000000815250600801807f6f776e657242616c616e63650000000000000000000000000000000000000000815250600c0190506040518091039020876000604051602001526040518363ffffffff167c01000000000000000000000000000000000000000000000000000000000281526004018083600019166000191681526020018273ffffffffffffffffffffffffffffffffffffffff1673ffffffffffffffffffffffffffffffffffffffff16815260200192505050602060405180830381600087803b1515620012a957600080fd5b6102c65a03f11515620012bb57600080fd5b505050604051805190509050620013648273ffffffffffffffffffffffffffffffffffffffff1663209652556000604051602001526040518163ffffffff167c0100000000000000000000000000000000000000000000000000000000028152600401602060405180830381600087803b15156200133857600080fd5b6102c65a03f115156200134a57600080fd5b50505060405180519050826200601790919063ffffffff16565b9050600560009054906101000a900473ffffffffffffffffffffffffffffffffffffffff1673ffffffffffffffffffffffffffffffffffffffff166316bb2ec660405180807f4163746976697479000000000000000000000000000000000000000000000000815250600801807f6f776e657242616c616e63650000000000000000000000000000000000000000815250600c019050604051809103902087846000604051602001526040518463ffffffff167c01000000000000000000000000000000000000000000000000000000000281526004018084600019166000191681526020018373ffffffffffffffffffffffffffffffffffffffff1673ffffffffffffffffffffffffffffffffffffffff1681526020018281526020019350505050602060405180830381600087803b1515620014a157600080fd5b6102c65a03f11515620014b357600080fd5b50505060405180519050508173ffffffffffffffffffffffffffffffffffffffff1663c0e79a11600080604051602001526040518263ffffffff167c0100000000000000000000000000000000000000000000000000000000028152600401808273ffffffffffffffffffffffffffffffffffffffff1673ffffffffffffffffffffffffffffffffffffffff168152602001915050602060405180830381600087803b15156200156257600080fd5b6102c65a03f115156200157457600080fd5b50505060405180519050508173ffffffffffffffffffffffffffffffffffffffff1663331a6bf5866000604051602001526040518263ffffffff167c0100000000000000000000000000000000000000000000000000000000028152600401808273ffffffffffffffffffffffffffffffffffffffff1673ffffffffffffffffffffffffffffffffffffffff168152602001915050602060405180830381600087803b15156200162357600080fd5b6102c65a03f115156200163557600080fd5b50505060405180519050506000809054906101000a900473ffffffffffffffffffffffffffffffffffffffff1673ffffffffffffffffffffffffffffffffffffffff16635f52d44e87878573ffffffffffffffffffffffffffffffffffffffff1663209652556000604051602001526040518163ffffffff167c0100000000000000000000000000000000000000000000000000000000028152600401602060405180830381600087803b1515620016ec57600080fd5b6102c65a03f11515620016fe57600080fd5b505050604051805190506000604051602001526040518463ffffffff167c0100000000000000000000000000000000000000000000000000000000028152600401808473ffffffffffffffffffffffffffffffffffffffff1673ffffffffffffffffffffffffffffffffffffffff1681526020018373ffffffffffffffffffffffffffffffffffffffff1673ffffffffffffffffffffffffffffffffffffffff1681526020018281526020019350505050602060405180830381600087803b1515620017c957600080fd5b6102c65a03f11515620017db57600080fd5b50505060405180519050507f96b8a6c410b5fb9982069ad0a077972519f672d07600b773720ec5d9d0ac082933878787604051808573ffffffffffffffffffffffffffffffffffffffff1673ffffffffffffffffffffffffffffffffffffffff1681526020018473ffffffffffffffffffffffffffffffffffffffff1673ffffffffffffffffffffffffffffffffffffffff1681526020018373ffffffffffffffffffffffffffffffffffffffff1673ffffffffffffffffffffffffffffffffffffffff168152602001826000191660001916815260200194505050505060405180910390a16001925050509392505050565b6000600560009054906101000a900473ffffffffffffffffffffffffffffffffffffffff1673ffffffffffffffffffffffffffffffffffffffff16633b600b6460405180807f4163746976697479000000000000000000000000000000000000000000000000815250600801807f6f776e657242616c616e63650000000000000000000000000000000000000000815250600c0190506040518091039020846000604051602001526040518363ffffffff167c01000000000000000000000000000000000000000000000000000000000281526004018083600019166000191681526020018273ffffffffffffffffffffffffffffffffffffffff1673ffffffffffffffffffffffffffffffffffffffff16815260200192505050602060405180830381600087803b151562001a0357600080fd5b6102c65a03f1151562001a1557600080fd5b505050604051805190509050919050565b6000806000600560009054906101000a900473ffffffffffffffffffffffffffffffffffffffff1673ffffffffffffffffffffffffffffffffffffffff16635480573d60405180807f4163746976697479000000000000000000000000000000000000000000000000815250600801807f5469636b6574000000000000000000000000000000000000000000000000000081525060060190506040518091039020866000604051602001526040518363ffffffff167c0100000000000000000000000000000000000000000000000000000000028152600401808360001916600019168152602001826000191660001916815260200192505050602060405180830381600087803b151562001b3a57600080fd5b6102c65a03f1151562001b4c57600080fd5b5050506040518051905091506002600681111562001b6657fe5b62001bf98373ffffffffffffffffffffffffffffffffffffffff16633bc21fcb6000604051602001526040518163ffffffff167c0100000000000000000000000000000000000000000000000000000000028152600401602060405180830381600087803b151562001bd757600080fd5b6102c65a03f1151562001be957600080fd5b5050506040518051905062005fb6565b600681111562001c0557fe5b14151562001c1257600080fd5b600560009054906101000a900473ffffffffffffffffffffffffffffffffffffffff1673ffffffffffffffffffffffffffffffffffffffff16633b600b6460405180807f4163746976697479000000000000000000000000000000000000000000000000815250600801807f6f776e657242616c616e63650000000000000000000000000000000000000000815250600c0190506040518091039020336000604051602001526040518363ffffffff167c01000000000000000000000000000000000000000000000000000000000281526004018083600019166000191681526020018273ffffffffffffffffffffffffffffffffffffffff1673ffffffffffffffffffffffffffffffffffffffff16815260200192505050602060405180830381600087803b151562001d4557600080fd5b6102c65a03f1151562001d5757600080fd5b50505060405180519050905062001e008273ffffffffffffffffffffffffffffffffffffffff1663209652556000604051602001526040518163ffffffff167c0100000000000000000000000000000000000000000000000000000000028152600401602060405180830381600087803b151562001dd457600080fd5b6102c65a03f1151562001de657600080fd5b50505060405180519050826200601790919063ffffffff16565b9050600560009054906101000a900473ffffffffffffffffffffffffffffffffffffffff1673ffffffffffffffffffffffffffffffffffffffff166316bb2ec660405180807f4163746976697479000000000000000000000000000000000000000000000000815250600801807f6f776e657242616c616e63650000000000000000000000000000000000000000815250600c019050604051809103902033846000604051602001526040518463ffffffff167c01000000000000000000000000000000000000000000000000000000000281526004018084600019166000191681526020018373ffffffffffffffffffffffffffffffffffffffff1673ffffffffffffffffffffffffffffffffffffffff1681526020018281526020019350505050602060405180830381600087803b151562001f3d57600080fd5b6102c65a03f1151562001f4f57600080fd5b50505060405180519050508173ffffffffffffffffffffffffffffffffffffffff1663f64532b962001f82600462005fe7565b6000604051602001526040518263ffffffff167c010000000000000000000000000000000000000000000000000000000002815260040180828152602001915050602060405180830381600087803b151562001fdd57600080fd5b6102c65a03f1151562001fef57600080fd5b50505060405180519050507f3ae29c7ded755dbb36f6c5fb8eed2b4c409c22ecfc2215b4cfe4eca41d5bc8e43385604051808373ffffffffffffffffffffffffffffffffffffffff1673ffffffffffffffffffffffffffffffffffffffff16815260200182600019166000191681526020019250505060405180910390a1600192505050919050565b600080600073ffffffffffffffffffffffffffffffffffffffff168473ffffffffffffffffffffffffffffffffffffffff1614151515620020b857600080fd5b600560009054906101000a900473ffffffffffffffffffffffffffffffffffffffff1673ffffffffffffffffffffffffffffffffffffffff16635480573d60405180807f4163746976697479000000000000000000000000000000000000000000000000815250600801807f5469636b6574000000000000000000000000000000000000000000000000000081525060060190506040518091039020856000604051602001526040518363ffffffff167c0100000000000000000000000000000000000000000000000000000000028152600401808360001916600019168152602001826000191660001916815260200192505050602060405180830381600087803b1515620021c757600080fd5b6102c65a03f11515620021d957600080fd5b50505060405180519050905060026006811115620021f357fe5b620022868273ffffffffffffffffffffffffffffffffffffffff16633bc21fcb6000604051602001526040518163ffffffff167c0100000000000000000000000000000000000000000000000000000000028152600401602060405180830381600087803b15156200226457600080fd5b6102c65a03f115156200227657600080fd5b5050506040518051905062005fb6565b60068111156200229257fe5b1415156200229f57600080fd5b3373ffffffffffffffffffffffffffffffffffffffff168173ffffffffffffffffffffffffffffffffffffffff16630c4f65bd6000604051602001526040518163ffffffff167c0100000000000000000000000000000000000000000000000000000000028152600401602060405180830381600087803b15156200232357600080fd5b6102c65a03f115156200233557600080fd5b5050506040518051905073ffffffffffffffffffffffffffffffffffffffff161415156200236257600080fd5b8073ffffffffffffffffffffffffffffffffffffffff1663c0e79a11856000604051602001526040518263ffffffff167c0100000000000000000000000000000000000000000000000000000000028152600401808273ffffffffffffffffffffffffffffffffffffffff1673ffffffffffffffffffffffffffffffffffffffff168152602001915050602060405180830381600087803b15156200240657600080fd5b6102c65a03f115156200241857600080fd5b50505060405180519050507f491b563eb676a04115df2c230494e631273c17b95e69946ec2dd24367be1146b338585604051808473ffffffffffffffffffffffffffffffffffffffff1673ffffffffffffffffffffffffffffffffffffffff1681526020018373ffffffffffffffffffffffffffffffffffffffff1673ffffffffffffffffffffffffffffffffffffffff1681526020018260001916600019168152602001935050505060405180910390a1600191505092915050565b60008060008073ffffffffffffffffffffffffffffffffffffffff168573ffffffffffffffffffffffffffffffffffffffff16141515156200251657600080fd5b600073ffffffffffffffffffffffffffffffffffffffff168673ffffffffffffffffffffffffffffffffffffffff16141515156200255357600080fd5b600560009054906101000a900473ffffffffffffffffffffffffffffffffffffffff1673ffffffffffffffffffffffffffffffffffffffff16635480573d60405180807f4163746976697479000000000000000000000000000000000000000000000000815250600801807f5469636b6574000000000000000000000000000000000000000000000000000081525060060190506040518091039020866000604051602001526040518363ffffffff167c0100000000000000000000000000000000000000000000000000000000028152600401808360001916600019168152602001826000191660001916815260200192505050602060405180830381600087803b15156200266257600080fd5b6102c65a03f115156200267457600080fd5b505050604051805190509150600260068111156200268e57fe5b620027218373ffffffffffffffffffffffffffffffffffffffff16633bc21fcb6000604051602001526040518163ffffffff167c0100000000000000000000000000000000000000000000000000000000028152600401602060405180830381600087803b1515620026ff57600080fd5b6102c65a03f115156200271157600080fd5b5050506040518051905062005fb6565b60068111156200272d57fe5b1415156200273a57600080fd5b8573ffffffffffffffffffffffffffffffffffffffff168273ffffffffffffffffffffffffffffffffffffffff16630c4f65bd6000604051602001526040518163ffffffff167c0100000000000000000000000000000000000000000000000000000000028152600401602060405180830381600087803b1515620027be57600080fd5b6102c65a03f11515620027d057600080fd5b5050506040518051905073ffffffffffffffffffffffffffffffffffffffff16141515620027fd57600080fd5b600560009054906101000a900473ffffffffffffffffffffffffffffffffffffffff1673ffffffffffffffffffffffffffffffffffffffff16633b600b6460405180807f4163746976697479000000000000000000000000000000000000000000000000815250600801807f6f776e657242616c616e63650000000000000000000000000000000000000000815250600c0190506040518091039020886000604051602001526040518363ffffffff167c01000000000000000000000000000000000000000000000000000000000281526004018083600019166000191681526020018273ffffffffffffffffffffffffffffffffffffffff1673ffffffffffffffffffffffffffffffffffffffff16815260200192505050602060405180830381600087803b15156200293057600080fd5b6102c65a03f115156200294257600080fd5b505050604051805190509050620029eb8273ffffffffffffffffffffffffffffffffffffffff1663209652556000604051602001526040518163ffffffff167c0100000000000000000000000000000000000000000000000000000000028152600401602060405180830381600087803b1515620029bf57600080fd5b6102c65a03f11515620029d157600080fd5b505050604051805190508262005ffd90919063ffffffff16565b9050600560009054906101000a900473ffffffffffffffffffffffffffffffffffffffff1673ffffffffffffffffffffffffffffffffffffffff166316bb2ec660405180807f4163746976697479000000000000000000000000000000000000000000000000815250600801807f6f776e657242616c616e63650000000000000000000000000000000000000000815250600c019050604051809103902088846000604051602001526040518463ffffffff167c01000000000000000000000000000000000000000000000000000000000281526004018084600019166000191681526020018373ffffffffffffffffffffffffffffffffffffffff1673ffffffffffffffffffffffffffffffffffffffff1681526020018281526020019350505050602060405180830381600087803b151562002b2857600080fd5b6102c65a03f1151562002b3a57600080fd5b5050506040518051905050600560009054906101000a900473ffffffffffffffffffffffffffffffffffffffff1673ffffffffffffffffffffffffffffffffffffffff16633b600b6460405180807f4163746976697479000000000000000000000000000000000000000000000000815250600801807f6f776e657242616c616e63650000000000000000000000000000000000000000815250600c0190506040518091039020876000604051602001526040518363ffffffff167c01000000000000000000000000000000000000000000000000000000000281526004018083600019166000191681526020018273ffffffffffffffffffffffffffffffffffffffff1673ffffffffffffffffffffffffffffffffffffffff16815260200192505050602060405180830381600087803b151562002c7857600080fd5b6102c65a03f1151562002c8a57600080fd5b50505060405180519050905062002d338273ffffffffffffffffffffffffffffffffffffffff1663209652556000604051602001526040518163ffffffff167c0100000000000000000000000000000000000000000000000000000000028152600401602060405180830381600087803b151562002d0757600080fd5b6102c65a03f1151562002d1957600080fd5b50505060405180519050826200601790919063ffffffff16565b9050600560009054906101000a900473ffffffffffffffffffffffffffffffffffffffff1673ffffffffffffffffffffffffffffffffffffffff166316bb2ec660405180807f4163746976697479000000000000000000000000000000000000000000000000815250600801807f6f776e657242616c616e63650000000000000000000000000000000000000000815250600c019050604051809103902087846000604051602001526040518463ffffffff167c01000000000000000000000000000000000000000000000000000000000281526004018084600019166000191681526020018373ffffffffffffffffffffffffffffffffffffffff1673ffffffffffffffffffffffffffffffffffffffff1681526020018281526020019350505050602060405180830381600087803b151562002e7057600080fd5b6102c65a03f1151562002e8257600080fd5b50505060405180519050508173ffffffffffffffffffffffffffffffffffffffff1663c0e79a11600080604051602001526040518263ffffffff167c0100000000000000000000000000000000000000000000000000000000028152600401808273ffffffffffffffffffffffffffffffffffffffff1673ffffffffffffffffffffffffffffffffffffffff168152602001915050602060405180830381600087803b151562002f3157600080fd5b6102c65a03f1151562002f4357600080fd5b50505060405180519050508173ffffffffffffffffffffffffffffffffffffffff1663331a6bf5866000604051602001526040518263ffffffff167c0100000000000000000000000000000000000000000000000000000000028152600401808273ffffffffffffffffffffffffffffffffffffffff1673ffffffffffffffffffffffffffffffffffffffff168152602001915050602060405180830381600087803b151562002ff257600080fd5b6102c65a03f115156200300457600080fd5b50505060405180519050506000809054906101000a900473ffffffffffffffffffffffffffffffffffffffff1673ffffffffffffffffffffffffffffffffffffffff16636bce989b87878573ffffffffffffffffffffffffffffffffffffffff1663209652556000604051602001526040518163ffffffff167c0100000000000000000000000000000000000000000000000000000000028152600401602060405180830381600087803b1515620030bb57600080fd5b6102c65a03f11515620030cd57600080fd5b505050604051805190506000604051602001526040518463ffffffff167c0100000000000000000000000000000000000000000000000000000000028152600401808473ffffffffffffffffffffffffffffffffffffffff1673ffffffffffffffffffffffffffffffffffffffff1681526020018373ffffffffffffffffffffffffffffffffffffffff1673ffffffffffffffffffffffffffffffffffffffff1681526020018281526020019350505050602060405180830381600087803b15156200319857600080fd5b6102c65a03f11515620031aa57600080fd5b50505060405180519050507f3ac44f230c37732a0ef9da19c9a8af3a6c206ee7c3559064cb49454b5f67d9ee33878787604051808573ffffffffffffffffffffffffffffffffffffffff1673ffffffffffffffffffffffffffffffffffffffff1681526020018473ffffffffffffffffffffffffffffffffffffffff1673ffffffffffffffffffffffffffffffffffffffff1681526020018373ffffffffffffffffffffffffffffffffffffffff1673ffffffffffffffffffffffffffffffffffffffff168152602001826000191660001916815260200194505050505060405180910390a16001925050509392505050565b6000806000600560009054906101000a900473ffffffffffffffffffffffffffffffffffffffff1673ffffffffffffffffffffffffffffffffffffffff16635480573d60405180807f4163746976697479000000000000000000000000000000000000000000000000815250600801807f5469636b6574000000000000000000000000000000000000000000000000000081525060060190506040518091039020866000604051602001526040518363ffffffff167c0100000000000000000000000000000000000000000000000000000000028152600401808360001916600019168152602001826000191660001916815260200192505050602060405180830381600087803b1515620033b157600080fd5b6102c65a03f11515620033c357600080fd5b50505060405180519050915060016006811115620033dd57fe5b620034708373ffffffffffffffffffffffffffffffffffffffff16633bc21fcb6000604051602001526040518163ffffffff167c0100000000000000000000000000000000000000000000000000000000028152600401602060405180830381600087803b15156200344e57600080fd5b6102c65a03f115156200346057600080fd5b5050506040518051905062005fb6565b60068111156200347c57fe5b1415156200348957600080fd5b8173ffffffffffffffffffffffffffffffffffffffff1663331a6bf5600460009054906101000a900473ffffffffffffffffffffffffffffffffffffffff166000604051602001526040518263ffffffff167c0100000000000000000000000000000000000000000000000000000000028152600401808273ffffffffffffffffffffffffffffffffffffffff1673ffffffffffffffffffffffffffffffffffffffff168152602001915050602060405180830381600087803b15156200354f57600080fd5b6102c65a03f115156200356157600080fd5b50505060405180519050508173ffffffffffffffffffffffffffffffffffffffff1663c0e79a11600080604051602001526040518263ffffffff167c0100000000000000000000000000000000000000000000000000000000028152600401808273ffffffffffffffffffffffffffffffffffffffff1673ffffffffffffffffffffffffffffffffffffffff168152602001915050602060405180830381600087803b15156200361057600080fd5b6102c65a03f115156200362257600080fd5b50505060405180519050508173ffffffffffffffffffffffffffffffffffffffff1663f64532b962003655600562005fe7565b6000604051602001526040518263ffffffff167c010000000000000000000000000000000000000000000000000000000002815260040180828152602001915050602060405180830381600087803b1515620036b057600080fd5b6102c65a03f11515620036c257600080fd5b5050506040518051905050600560009054906101000a900473ffffffffffffffffffffffffffffffffffffffff1673ffffffffffffffffffffffffffffffffffffffff16633b600b6460405180807f4163746976697479000000000000000000000000000000000000000000000000815250600801807f6f776e657242616c616e63650000000000000000000000000000000000000000815250600c0190506040518091039020600460009054906101000a900473ffffffffffffffffffffffffffffffffffffffff166000604051602001526040518363ffffffff167c01000000000000000000000000000000000000000000000000000000000281526004018083600019166000191681526020018273ffffffffffffffffffffffffffffffffffffffff1673ffffffffffffffffffffffffffffffffffffffff16815260200192505050602060405180830381600087803b15156200382257600080fd5b6102c65a03f115156200383457600080fd5b505050604051805190509050620038dd8273ffffffffffffffffffffffffffffffffffffffff1663209652556000604051602001526040518163ffffffff167c0100000000000000000000000000000000000000000000000000000000028152600401602060405180830381600087803b1515620038b157600080fd5b6102c65a03f11515620038c357600080fd5b50505060405180519050826200601790919063ffffffff16565b9050600560009054906101000a900473ffffffffffffffffffffffffffffffffffffffff1673ffffffffffffffffffffffffffffffffffffffff166316bb2ec660405180807f4163746976697479000000000000000000000000000000000000000000000000815250600801807f6f776e657242616c616e63650000000000000000000000000000000000000000815250600c0190506040518091039020600460009054906101000a900473ffffffffffffffffffffffffffffffffffffffff16846000604051602001526040518463ffffffff167c01000000000000000000000000000000000000000000000000000000000281526004018084600019166000191681526020018373ffffffffffffffffffffffffffffffffffffffff1673ffffffffffffffffffffffffffffffffffffffff1681526020018281526020019350505050602060405180830381600087803b151562003a3c57600080fd5b6102c65a03f1151562003a4e57600080fd5b50505060405180519050506000809054906101000a900473ffffffffffffffffffffffffffffffffffffffff1673ffffffffffffffffffffffffffffffffffffffff16631eb4ea208373ffffffffffffffffffffffffffffffffffffffff1663209652556000604051602001526040518163ffffffff167c0100000000000000000000000000000000000000000000000000000000028152600401602060405180830381600087803b151562003b0357600080fd5b6102c65a03f1151562003b1557600080fd5b505050604051805190506000604051602001526040518263ffffffff167c010000000000000000000000000000000000000000000000000000000002815260040180828152602001915050602060405180830381600087803b151562003b7a57600080fd5b6102c65a03f1151562003b8c57600080fd5b50505060405180519050507fc517e35a8833a8227e066a130068d3c6a8d05c0ce1cd56b442a1ec7e611fe37d3385604051808373ffffffffffffffffffffffffffffffffffffffff1673ffffffffffffffffffffffffffffffffffffffff16815260200182600019166000191681526020019250505060405180910390a1600192505050919050565b6000806000338662003c28600162005fe7565b60008762003c3562006036565b808673ffffffffffffffffffffffffffffffffffffffff1673ffffffffffffffffffffffffffffffffffffffff1681526020018581526020018481526020018373ffffffffffffffffffffffffffffffffffffffff1673ffffffffffffffffffffffffffffffffffffffff168152602001826000191660001916815260200195505050505050604051809103906000f080151562003cd257600080fd5b9150600560009054906101000a900473ffffffffffffffffffffffffffffffffffffffff1673ffffffffffffffffffffffffffffffffffffffff1663923dec9a60405180807f4163746976697479000000000000000000000000000000000000000000000000815250600801807f5469636b657400000000000000000000000000000000000000000000000000008152506006019050604051809103902087856000604051602001526040518463ffffffff167c010000000000000000000000000000000000000000000000000000000002815260040180846000191660001916815260200183600019166000191681526020018273ffffffffffffffffffffffffffffffffffffffff1673ffffffffffffffffffffffffffffffffffffffff1681526020019350505050602060405180830381600087803b151562003e1757600080fd5b6102c65a03f1151562003e2957600080fd5b5050506040518051905050600560009054906101000a900473ffffffffffffffffffffffffffffffffffffffff1673ffffffffffffffffffffffffffffffffffffffff16633b600b6460405180807f4163746976697479000000000000000000000000000000000000000000000000815250600801807f6f776e657242616c616e63650000000000000000000000000000000000000000815250600c0190506040518091039020336000604051602001526040518363ffffffff167c01000000000000000000000000000000000000000000000000000000000281526004018083600019166000191681526020018273ffffffffffffffffffffffffffffffffffffffff1673ffffffffffffffffffffffffffffffffffffffff16815260200192505050602060405180830381600087803b151562003f6757600080fd5b6102c65a03f1151562003f7957600080fd5b50505060405180519050905062003f9a86826200601790919063ffffffff16565b9050600560009054906101000a900473ffffffffffffffffffffffffffffffffffffffff1673ffffffffffffffffffffffffffffffffffffffff166316bb2ec660405180807f4163746976697479000000000000000000000000000000000000000000000000815250600801807f6f776e657242616c616e63650000000000000000000000000000000000000000815250600c019050604051809103902033846000604051602001526040518463ffffffff167c01000000000000000000000000000000000000000000000000000000000281526004018084600019166000191681526020018373ffffffffffffffffffffffffffffffffffffffff1673ffffffffffffffffffffffffffffffffffffffff1681526020018281526020019350505050602060405180830381600087803b1515620040d757600080fd5b6102c65a03f11515620040e957600080fd5b50505060405180519050506000809054906101000a900473ffffffffffffffffffffffffffffffffffffffff1673ffffffffffffffffffffffffffffffffffffffff1663cc872b66876000604051602001526040518263ffffffff167c010000000000000000000000000000000000000000000000000000000002815260040180828152602001915050602060405180830381600087803b15156200418d57600080fd5b6102c65a03f115156200419f57600080fd5b50505060405180519050507f40646de06bf826d83057be741cda05a50f8402aee511c6211cdc15754c2ba76c33878787604051808573ffffffffffffffffffffffffffffffffffffffff1673ffffffffffffffffffffffffffffffffffffffff1681526020018481526020018360001916600019168152602001826000191660001916815260200194505050505060405180910390a16001925050509392505050565b6000806000600560009054906101000a900473ffffffffffffffffffffffffffffffffffffffff1673ffffffffffffffffffffffffffffffffffffffff16635480573d60405180807f4163746976697479000000000000000000000000000000000000000000000000815250600801807f5469636b6574000000000000000000000000000000000000000000000000000081525060060190506040518091039020876000604051602001526040518363ffffffff167c0100000000000000000000000000000000000000000000000000000000028152600401808360001916600019168152602001826000191660001916815260200192505050602060405180830381600087803b15156200435657600080fd5b6102c65a03f115156200436857600080fd5b505050604051805190509150600160068111156200438257fe5b620044158373ffffffffffffffffffffffffffffffffffffffff16633bc21fcb6000604051602001526040518163ffffffff167c0100000000000000000000000000000000000000000000000000000000028152600401602060405180830381600087803b1515620043f357600080fd5b6102c65a03f115156200440557600080fd5b5050506040518051905062005fb6565b60068111156200442157fe5b1415156200442e57600080fd5b8173ffffffffffffffffffffffffffffffffffffffff1663331a6bf5856000604051602001526040518263ffffffff167c0100000000000000000000000000000000000000000000000000000000028152600401808273ffffffffffffffffffffffffffffffffffffffff1673ffffffffffffffffffffffffffffffffffffffff168152602001915050602060405180830381600087803b1515620044d257600080fd5b6102c65a03f11515620044e457600080fd5b5050506040518051905050600560009054906101000a900473ffffffffffffffffffffffffffffffffffffffff1673ffffffffffffffffffffffffffffffffffffffff16633b600b6460405180807f4163746976697479000000000000000000000000000000000000000000000000815250600801807f6f776e657242616c616e63650000000000000000000000000000000000000000815250600c0190506040518091039020866000604051602001526040518363ffffffff167c01000000000000000000000000000000000000000000000000000000000281526004018083600019166000191681526020018273ffffffffffffffffffffffffffffffffffffffff1673ffffffffffffffffffffffffffffffffffffffff16815260200192505050602060405180830381600087803b15156200462257600080fd5b6102c65a03f115156200463457600080fd5b505050604051805190509050620046dd8273ffffffffffffffffffffffffffffffffffffffff1663209652556000604051602001526040518163ffffffff167c0100000000000000000000000000000000000000000000000000000000028152600401602060405180830381600087803b1515620046b157600080fd5b6102c65a03f11515620046c357600080fd5b50505060405180519050826200601790919063ffffffff16565b9050600560009054906101000a900473ffffffffffffffffffffffffffffffffffffffff1673ffffffffffffffffffffffffffffffffffffffff166316bb2ec660405180807f4163746976697479000000000000000000000000000000000000000000000000815250600801807f6f776e657242616c616e63650000000000000000000000000000000000000000815250600c019050604051809103902086846000604051602001526040518463ffffffff167c01000000000000000000000000000000000000000000000000000000000281526004018084600019166000191681526020018373ffffffffffffffffffffffffffffffffffffffff1673ffffffffffffffffffffffffffffffffffffffff1681526020018281526020019350505050602060405180830381600087803b15156200481a57600080fd5b6102c65a03f115156200482c57600080fd5b50505060405180519050508173ffffffffffffffffffffffffffffffffffffffff1663c0e79a11600080604051602001526040518263ffffffff167c0100000000000000000000000000000000000000000000000000000000028152600401808273ffffffffffffffffffffffffffffffffffffffff1673ffffffffffffffffffffffffffffffffffffffff168152602001915050602060405180830381600087803b1515620048db57600080fd5b6102c65a03f11515620048ed57600080fd5b50505060405180519050508173ffffffffffffffffffffffffffffffffffffffff1663f64532b962004920600262005fe7565b6000604051602001526040518263ffffffff167c010000000000000000000000000000000000000000000000000000000002815260040180828152602001915050602060405180830381600087803b15156200497b57600080fd5b6102c65a03f115156200498d57600080fd5b5050506040518051905050600560009054906101000a900473ffffffffffffffffffffffffffffffffffffffff1673ffffffffffffffffffffffffffffffffffffffff16633b600b6460405180807f4163746976697479000000000000000000000000000000000000000000000000815250600801807f6f776e657242616c616e63650000000000000000000000000000000000000000815250600c0190506040518091039020336000604051602001526040518363ffffffff167c01000000000000000000000000000000000000000000000000000000000281526004018083600019166000191681526020018273ffffffffffffffffffffffffffffffffffffffff1673ffffffffffffffffffffffffffffffffffffffff16815260200192505050602060405180830381600087803b151562004acb57600080fd5b6102c65a03f1151562004add57600080fd5b50505060405180519050905062004b868273ffffffffffffffffffffffffffffffffffffffff1663209652556000604051602001526040518163ffffffff167c0100000000000000000000000000000000000000000000000000000000028152600401602060405180830381600087803b151562004b5a57600080fd5b6102c65a03f1151562004b6c57600080fd5b50505060405180519050826200601790919063ffffffff16565b9050600560009054906101000a900473ffffffffffffffffffffffffffffffffffffffff1673ffffffffffffffffffffffffffffffffffffffff166316bb2ec660405180807f4163746976697479000000000000000000000000000000000000000000000000815250600801807f6f776e657242616c616e63650000000000000000000000000000000000000000815250600c019050604051809103902033846000604051602001526040518463ffffffff167c01000000000000000000000000000000000000000000000000000000000281526004018084600019166000191681526020018373ffffffffffffffffffffffffffffffffffffffff1673ffffffffffffffffffffffffffffffffffffffff1681526020018281526020019350505050602060405180830381600087803b151562004cc357600080fd5b6102c65a03f1151562004cd557600080fd5b50505060405180519050506000809054906101000a900473ffffffffffffffffffffffffffffffffffffffff1673ffffffffffffffffffffffffffffffffffffffff16638de93222858473ffffffffffffffffffffffffffffffffffffffff1663209652556000604051602001526040518163ffffffff167c0100000000000000000000000000000000000000000000000000000000028152600401602060405180830381600087803b151562004d8b57600080fd5b6102c65a03f1151562004d9d57600080fd5b505050604051805190506000604051602001526040518363ffffffff167c0100000000000000000000000000000000000000000000000000000000028152600401808373ffffffffffffffffffffffffffffffffffffffff1673ffffffffffffffffffffffffffffffffffffffff16815260200182815260200192505050602060405180830381600087803b151562004e3557600080fd5b6102c65a03f1151562004e4757600080fd5b50505060405180519050507f19dcd5290ce17ab00a2715af6871815c7967b0efdbdfe568197fef858a197a75338686604051808473ffffffffffffffffffffffffffffffffffffffff1673ffffffffffffffffffffffffffffffffffffffff16815260200183600019166000191681526020018273ffffffffffffffffffffffffffffffffffffffff1673ffffffffffffffffffffffffffffffffffffffff168152602001935050505060405180910390a160019250505092915050565b6000806000600560009054906101000a900473ffffffffffffffffffffffffffffffffffffffff1673ffffffffffffffffffffffffffffffffffffffff16635480573d60405180807f4163746976697479000000000000000000000000000000000000000000000000815250600801807f5469636b6574000000000000000000000000000000000000000000000000000081525060060190506040518091039020866000604051602001526040518363ffffffff167c0100000000000000000000000000000000000000000000000000000000028152600401808360001916600019168152602001826000191660001916815260200192505050602060405180830381600087803b15156200501957600080fd5b6102c65a03f115156200502b57600080fd5b505050604051805190509150600260068111156200504557fe5b620050d88373ffffffffffffffffffffffffffffffffffffffff16633bc21fcb6000604051602001526040518163ffffffff167c0100000000000000000000000000000000000000000000000000000000028152600401602060405180830381600087803b1515620050b657600080fd5b6102c65a03f11515620050c857600080fd5b5050506040518051905062005fb6565b6006811115620050e457fe5b141515620050f157600080fd5b600560009054906101000a900473ffffffffffffffffffffffffffffffffffffffff1673ffffffffffffffffffffffffffffffffffffffff16633b600b6460405180807f4163746976697479000000000000000000000000000000000000000000000000815250600801807f6f776e657242616c616e63650000000000000000000000000000000000000000815250600c01905060405180910390208473ffffffffffffffffffffffffffffffffffffffff16630c4f65bd6000604051602001526040518163ffffffff167c0100000000000000000000000000000000000000000000000000000000028152600401602060405180830381600087803b1515620051fa57600080fd5b6102c65a03f115156200520c57600080fd5b505050604051805190506000604051602001526040518363ffffffff167c01000000000000000000000000000000000000000000000000000000000281526004018083600019166000191681526020018273ffffffffffffffffffffffffffffffffffffffff1673ffffffffffffffffffffffffffffffffffffffff16815260200192505050602060405180830381600087803b1515620052ac57600080fd5b6102c65a03f11515620052be57600080fd5b505050604051805190509050620053678273ffffffffffffffffffffffffffffffffffffffff1663209652556000604051602001526040518163ffffffff167c0100000000000000000000000000000000000000000000000000000000028152600401602060405180830381600087803b15156200533b57600080fd5b6102c65a03f115156200534d57600080fd5b505050604051805190508262005ffd90919063ffffffff16565b9050600560009054906101000a900473ffffffffffffffffffffffffffffffffffffffff1673ffffffffffffffffffffffffffffffffffffffff166316bb2ec660405180807f4163746976697479000000000000000000000000000000000000000000000000815250600801807f6f776e657242616c616e63650000000000000000000000000000000000000000815250600c01905060405180910390208473ffffffffffffffffffffffffffffffffffffffff16630c4f65bd6000604051602001526040518163ffffffff167c0100000000000000000000000000000000000000000000000000000000028152600401602060405180830381600087803b15156200547257600080fd5b6102c65a03f115156200548457600080fd5b50505060405180519050846000604051602001526040518463ffffffff167c01000000000000000000000000000000000000000000000000000000000281526004018084600019166000191681526020018373ffffffffffffffffffffffffffffffffffffffff1673ffffffffffffffffffffffffffffffffffffffff1681526020018281526020019350505050602060405180830381600087803b15156200552c57600080fd5b6102c65a03f115156200553e57600080fd5b50505060405180519050506000809054906101000a900473ffffffffffffffffffffffffffffffffffffffff1673ffffffffffffffffffffffffffffffffffffffff16631e9a69508373ffffffffffffffffffffffffffffffffffffffff16630c4f65bd6000604051602001526040518163ffffffff167c0100000000000000000000000000000000000000000000000000000000028152600401602060405180830381600087803b1515620055f357600080fd5b6102c65a03f115156200560557600080fd5b505050604051805190508473ffffffffffffffffffffffffffffffffffffffff1663209652556000604051602001526040518163ffffffff167c0100000000000000000000000000000000000000000000000000000000028152600401602060405180830381600087803b15156200567c57600080fd5b6102c65a03f115156200568e57600080fd5b505050604051805190506000604051602001526040518363ffffffff167c0100000000000000000000000000000000000000000000000000000000028152600401808373ffffffffffffffffffffffffffffffffffffffff1673ffffffffffffffffffffffffffffffffffffffff16815260200182815260200192505050602060405180830381600087803b15156200572657600080fd5b6102c65a03f115156200573857600080fd5b50505060405180519050508173ffffffffffffffffffffffffffffffffffffffff1663c0e79a11600080604051602001526040518263ffffffff167c0100000000000000000000000000000000000000000000000000000000028152600401808273ffffffffffffffffffffffffffffffffffffffff1673ffffffffffffffffffffffffffffffffffffffff168152602001915050602060405180830381600087803b1515620057e757600080fd5b6102c65a03f11515620057f957600080fd5b50505060405180519050508173ffffffffffffffffffffffffffffffffffffffff1663f64532b96200582c600162005fe7565b6000604051602001526040518263ffffffff167c010000000000000000000000000000000000000000000000000000000002815260040180828152602001915050602060405180830381600087803b15156200588757600080fd5b6102c65a03f115156200589957600080fd5b50505060405180519050508173ffffffffffffffffffffffffffffffffffffffff1663331a6bf5336000604051602001526040518263ffffffff167c0100000000000000000000000000000000000000000000000000000000028152600401808273ffffffffffffffffffffffffffffffffffffffff1673ffffffffffffffffffffffffffffffffffffffff168152602001915050602060405180830381600087803b15156200594857600080fd5b6102c65a03f115156200595a57600080fd5b5050506040518051905050600560009054906101000a900473ffffffffffffffffffffffffffffffffffffffff1673ffffffffffffffffffffffffffffffffffffffff16633b600b6460405180807f4163746976697479000000000000000000000000000000000000000000000000815250600801807f6f776e657242616c616e63650000000000000000000000000000000000000000815250600c0190506040518091039020336000604051602001526040518363ffffffff167c01000000000000000000000000000000000000000000000000000000000281526004018083600019166000191681526020018273ffffffffffffffffffffffffffffffffffffffff1673ffffffffffffffffffffffffffffffffffffffff16815260200192505050602060405180830381600087803b151562005a9857600080fd5b6102c65a03f1151562005aaa57600080fd5b50505060405180519050905062005b538273ffffffffffffffffffffffffffffffffffffffff1663209652556000604051602001526040518163ffffffff167c0100000000000000000000000000000000000000000000000000000000028152600401602060405180830381600087803b151562005b2757600080fd5b6102c65a03f1151562005b3957600080fd5b50505060405180519050826200601790919063ffffffff16565b9050600560009054906101000a900473ffffffffffffffffffffffffffffffffffffffff1673ffffffffffffffffffffffffffffffffffffffff166316bb2ec660405180807f4163746976697479000000000000000000000000000000000000000000000000815250600801807f6f776e657242616c616e63650000000000000000000000000000000000000000815250600c0190506040518091039020338573ffffffffffffffffffffffffffffffffffffffff1663209652556000604051602001526040518163ffffffff167c0100000000000000000000000000000000000000000000000000000000028152600401602060405180830381600087803b151562005c5f57600080fd5b6102c65a03f1151562005c7157600080fd5b505050604051805190506000604051602001526040518463ffffffff167c01000000000000000000000000000000000000000000000000000000000281526004018084600019166000191681526020018373ffffffffffffffffffffffffffffffffffffffff1673ffffffffffffffffffffffffffffffffffffffff1681526020018281526020019350505050602060405180830381600087803b151562005d1857600080fd5b6102c65a03f1151562005d2a57600080fd5b50505060405180519050507f89f67af83d9df74c4ffd7d1b2cbe84847fb0305fed300d6377069e6a4adc55623385604051808373ffffffffffffffffffffffffffffffffffffffff1673ffffffffffffffffffffffffffffffffffffffff16815260200182600019166000191681526020019250505060405180910390a1600192505050919050565b600080600560009054906101000a900473ffffffffffffffffffffffffffffffffffffffff1673ffffffffffffffffffffffffffffffffffffffff16635480573d60405180807f4163746976697479000000000000000000000000000000000000000000000000815250600801807f5469636b6574000000000000000000000000000000000000000000000000000081525060060190506040518091039020866000604051602001526040518363ffffffff167c0100000000000000000000000000000000000000000000000000000000028152600401808360001916600019168152602001826000191660001916815260200192505050602060405180830381600087803b151562005ec557600080fd5b6102c65a03f1151562005ed757600080fd5b5050506040518051905090508273ffffffffffffffffffffffffffffffffffffffff168173ffffffffffffffffffffffffffffffffffffffff166303fced0c6000604051602001526040518163ffffffff167c0100000000000000000000000000000000000000000000000000000000028152600401602060405180830381600087803b151562005f6757600080fd5b6102c65a03f1151562005f7957600080fd5b5050506040518051905073ffffffffffffffffffffffffffffffffffffffff16141562005faa576001915062005faf565b600091505b5092915050565b600060068081111562005fc557fe5b8210151562005fd357600080fd5b81600681111562005fe057fe5b9050919050565b600081600681111562005ff657fe5b9050919050565b60008282111515156200600c57fe5b818303905092915050565b60008082840190508381101515156200602c57fe5b8091505092915050565b60405161067e80620060488339019056006060604052341561000f57600080fd5b60405160a08061067e8339810160405280805190602001909190805190602001909190805190602001909190805190602001909190805190602001909190505084600160006101000a81548173ffffffffffffffffffffffffffffffffffffffff021916908373ffffffffffffffffffffffffffffffffffffffff160217905550836002819055506100b38361012b640100000000026104bc176401000000009004565b600360006101000a81548160ff021916908360068111156100d057fe5b021790555081600360016101000a81548173ffffffffffffffffffffffffffffffffffffffff021916908373ffffffffffffffffffffffffffffffffffffffff16021790555080600481600019169055505050505050610159565b600060068081111561013957fe5b8210151561014657600080fd5b81600681111561015257fe5b9050919050565b610516806101686000396000f3006060604052600436106100a4576000357c0100000000000000000000000000000000000000000000000000000000900463ffffffff16806303fced0c146100a65780630c4c4285146100fb5780630c4f65bd1461013a578063209652551461018f578063331a6bf5146101b85780633bc21fcb146102095780635524107714610232578063c0e79a111461026d578063d13319c4146102be578063f64532b9146102ef575b005b34156100b157600080fd5b6100b961032a565b604051808273ffffffffffffffffffffffffffffffffffffffff1673ffffffffffffffffffffffffffffffffffffffff16815260200191505060405180910390f35b341561010657600080fd5b610120600480803560001916906020019091905050610354565b604051808215151515815260200191505060405180910390f35b341561014557600080fd5b61014d61036a565b604051808273ffffffffffffffffffffffffffffffffffffffff1673ffffffffffffffffffffffffffffffffffffffff16815260200191505060405180910390f35b341561019a57600080fd5b6101a2610394565b6040518082815260200191505060405180910390f35b34156101c357600080fd5b6101ef600480803573ffffffffffffffffffffffffffffffffffffffff1690602001909190505061039e565b604051808215151515815260200191505060405180910390f35b341561021457600080fd5b61021c6103ea565b6040518082815260200191505060405180910390f35b341561023d57600080fd5b6102536004808035906020019091905050610409565b604051808215151515815260200191505060405180910390f35b341561027857600080fd5b6102a4600480803573ffffffffffffffffffffffffffffffffffffffff1690602001909190505061041b565b604051808215151515815260200191505060405180910390f35b34156102c957600080fd5b6102d1610467565b60405180826000191660001916815260200191505060405180910390f35b34156102fa57600080fd5b6103106004808035906020019091905050610471565b604051808215151515815260200191505060405180910390f35b6000600360019054906101000a900473ffffffffffffffffffffffffffffffffffffffff16905090565b6000816004816000191690555060019050919050565b6000600160009054906101000a900473ffffffffffffffffffffffffffffffffffffffff16905090565b6000600254905090565b600081600160006101000a81548173ffffffffffffffffffffffffffffffffffffffff021916908373ffffffffffffffffffffffffffffffffffffffff16021790555060019050919050565b6000610404600360009054906101000a900460ff166104a7565b905090565b60008160028190555060019050919050565b600081600360016101000a81548173ffffffffffffffffffffffffffffffffffffffff021916908373ffffffffffffffffffffffffffffffffffffffff16021790555060019050919050565b6000600454905090565b600061047c826104bc565b600360006101000a81548160ff0219169083600681111561049957fe5b021790555060019050919050565b60008160068111156104b557fe5b9050919050565b60006006808111156104ca57fe5b821015156104d757600080fd5b8160068111156104e357fe5b90509190505600a165627a7a723058203056832bc341b8afebe13796c64acc96502cb7eed450045864a863eed6d3877c0029a165627a7a72305820d564f732b9e25e6c2bed32270be3132b6708545de05a7c7c44adc73f7cd8b2d00029",
  "source": "pragma solidity ^0.4.18;\n\nimport './SafeMath.sol';\nimport './Org.sol';\nimport './GeneralStorage.sol';\nimport './Platform.sol';\nimport './Ticket.sol';\n\ncontract Activity {\n    using SafeMath for uint256;\n\n    Org organization;\n    Platform platform;\n    bytes32 name;\n    address supervisor;\n    address voidHold;\n    GeneralStorage gs;\n\n    function Activity(bytes32 _name, address _supervisor, address _gs) public {\n        gs = GeneralStorage(_gs);\n        organization = Org(msg.sender);\n        //    platform = organization.getPlatform();\n        supervisor = _supervisor;\n        name = _name;\n        voidHold = address(0x16bd98edbb26b6ac07a9641d0810ffb7684e2cf0);\n    }\n    function() public payable { }\n\n\n    /*mapping(bytes32 => address) ticketOwnerAddress;\n    mapping(bytes32 => uint256) ticketValue;\n    mapping(bytes32 => Lifecycle) ticketStatus;\n    mapping(address => uint256) ownerBalance;//   \n    mapping(bytes32 => address) ticketAllowed;// the v_value is the _spender just allow one to one trade\n    mapping(bytes32 => bytes32) ticketHash;\n\n    gs.mapSetBytes32ToAddress(keccak256(\"Activity\",\"ticketOwnerAddress\"),ticket,address);\n    gs.mapSetBytes32ToUint(keccak256(\"Activity\",\"ticketValue\"),ticket,uint);\n    gs.mapSetBytes32ToUint(keccak256(\"Activity\",\"ticketStatus\"),ticket,uint);\n    gs.mapSetAddressToUint(keccak256(\"Activity\",\"ownerBalance\"),address,uint);//   \n    gs.mapSetBytes32ToAddress(keccak256(\"Activity\",\"ticketAllowed\"),ticket,address);\n    gs.mapSetBytes32Tobytes32(keccak256(\"Activity\",\"ticketHash\"),ticket,ticketHash);*/\n\n\n    //  gs.mapSetAddressToUint(keccak256(\"Activity\",\"ownerBalance\"),address,uint);//   \n\n    event e_mint(address _sender, uint256 _value , bytes32 _ticket, bytes32 _tHast);\n    // sender = mint\n    function mint(uint256 _value , bytes32 _ticket, bytes32 _tHast)  public returns (bool) {\n\n        Ticket TicketAddress = new Ticket(msg.sender,_value,Lib.interpretLifecycle(Lib.Lifecycle.Init),address(0),_tHast);\n        gs.mapSetBytes32ToAddress(keccak256(\"Activity\",\"Ticket\"),_ticket,TicketAddress);\n        uint256 ownerBalance = gs.mapReadAddressToUint(keccak256(\"Activity\",\"ownerBalance\"),msg.sender);\n        ownerBalance = ownerBalance.add(_value);\n        gs.mapUpdateAddressToUint(keccak256(\"Activity\",\"ownerBalance\"),msg.sender,ownerBalance);\n\n        /*ticketOwnerAddress[_ticket]=msg.sender;\n        ticketHash[_ticket] = _tHast;\n        ticketValue[_ticket]=_value;\n        ownerBalance[msg.sender]=ownerBalance[msg.sender].add(_value);//Minter\n        ticketAllowed[_ticket] = address(0);\n        ticketStatus[_ticket] = Lifecycle.Init;*/\n\n        organization.issue(_value);\n\n        e_mint(msg.sender,_value,_ticket,_tHast);\n        return true;\n    }\n\n    event e_voidIt(address _sender, bytes32 _ticket);\n    // sender = mint\n    function voidIt (bytes32 _ticket) public returns (bool){\n        //    require(ticketStatus[_ticket]==Lifecycle.Init);\n\n        Ticket TicketAddress = Ticket(gs.mapReadBytes32ToAddress(keccak256(\"Activity\",\"Ticket\"),_ticket));\n        require(Lib.explainLifecycle(TicketAddress.getTicketStatus())==Lib.Lifecycle.Init);\n        TicketAddress.setOwnerAddress(voidHold);\n        TicketAddress.setAllowed(address(0));\n        TicketAddress.setTicketStatus(Lib.interpretLifecycle(Lib.Lifecycle.Void));\n        uint256 ownerBalance = gs.mapReadAddressToUint(keccak256(\"Activity\",\"ownerBalance\"),voidHold);\n        ownerBalance = ownerBalance.add(TicketAddress.getValue());\n        gs.mapUpdateAddressToUint(keccak256(\"Activity\",\"ownerBalance\"),voidHold,ownerBalance);\n\n        /*ticketOwnerAddress[_ticket]=voidHold;\n        ownerBalance[voidHold] = ownerBalance[voidHold].add(ticketValue[_ticket]);//\n        delete ticketAllowed[_ticket];\n        ticketStatus[_ticket]=Lifecycle.Void;*/\n\n        organization.voidBack(TicketAddress.getValue());\n\n        e_voidIt(msg.sender, _ticket);\n        return true;\n    }\n\n    event e_sell(address _sender, bytes32 _ticket, address _to);\n    //sender = seller\n    function sell(bytes32 _ticket, address _to) public returns (bool) {\n        //    require(ticketStatus[_ticket] == Lifecycle.Init);\n        Ticket TicketAddress = Ticket(gs.mapReadBytes32ToAddress(keccak256(\"Activity\",\"Ticket\"),_ticket));\n        require(Lib.explainLifecycle(TicketAddress.getTicketStatus())==Lib.Lifecycle.Init);\n\n        TicketAddress.setOwnerAddress(_to);\n        uint256 ownerBalance = gs.mapReadAddressToUint(keccak256(\"Activity\",\"ownerBalance\"), _to);\n        ownerBalance = ownerBalance.add(TicketAddress.getValue());//\n        gs.mapUpdateAddressToUint(keccak256(\"Activity\",\"ownerBalance\"), _to,ownerBalance);\n        TicketAddress.setAllowed(address(0));\n        TicketAddress.setTicketStatus(Lib.interpretLifecycle(Lib.Lifecycle.Normal));\n        ownerBalance = gs.mapReadAddressToUint(keccak256(\"Activity\",\"ownerBalance\"), msg.sender);\n        ownerBalance = ownerBalance.add(TicketAddress.getValue());//\n        gs.mapUpdateAddressToUint(keccak256(\"Activity\",\"ownerBalance\"), msg.sender,ownerBalance);\n\n        /*ticketOwnerAddress[_ticket]=_to;\n        ownerBalance[_to]=ownerBalance[_to].add(ticketValue[_ticket]);\n        ticketAllowed[_ticket] = address(0);\n        ticketStatus[_ticket] = Lifecycle.Normal;*/\n\n        organization.purchase(_to,TicketAddress.getValue());\n\n        e_sell(msg.sender, _ticket, _to);\n        return true;\n    }\n\n    event e_reclaim(address _sender, bytes32 _ticket);\n    //sender = reclaim\n    function reclaim(bytes32 _ticket) public returns(bool){\n        //    require(ticketStatus[_ticket]==Lifecycle.Normal);\n\n        Ticket TicketAddress = Ticket(gs.mapReadBytes32ToAddress(keccak256(\"Activity\",\"Ticket\"),_ticket));\n        require(Lib.explainLifecycle(TicketAddress.getTicketStatus())==Lib.Lifecycle.Normal);\n        uint256 ownerBalance = gs.mapReadAddressToUint(keccak256(\"Activity\",\"ownerBalance\"), TicketAddress.getOwnerAddress());\n        ownerBalance = ownerBalance.sub(TicketAddress.getValue());//\n        gs.mapUpdateAddressToUint(keccak256(\"Activity\",\"ownerBalance\"), TicketAddress.getOwnerAddress(), ownerBalance);\n        organization.redeem(TicketAddress.getOwnerAddress(),TicketAddress.getValue());\n        TicketAddress.setAllowed(address(0));\n        TicketAddress.setTicketStatus(Lib.interpretLifecycle(Lib.Lifecycle.Init));\n        TicketAddress.setOwnerAddress(msg.sender);\n        ownerBalance = gs.mapReadAddressToUint(keccak256(\"Activity\",\"ownerBalance\"), msg.sender);\n        ownerBalance = ownerBalance.add(TicketAddress.getValue());//\n        gs.mapUpdateAddressToUint(keccak256(\"Activity\",\"ownerBalance\"), msg.sender, TicketAddress.getValue());\n\n\n        /*ownerBalance[ticketOwnerAddress[_ticket]]=ownerBalance[ticketOwnerAddress[_ticket]].sub(ticketValue[_ticket]);\n        organization.redeem(ticketOwnerAddress[_ticket],ticketValue[_ticket]);\n        ticketOwnerAddress[_ticket]=msg.sender;\n        delete ticketAllowed[_ticket];\n        ticketStatus[_ticket]=Lifecycle.Init;*/\n\n        e_reclaim(msg.sender, _ticket);\n        return true;\n\n    }\n\n    event e_checkIn(address _sender, bytes32 _ticket);\n    // sender =taker\n    function checkIn(bytes32 _ticket) public returns (bool){\n        //    require(ticketStatus[_ticket]==Lifecycle.Normal);\n\n        Ticket TicketAddress = Ticket(gs.mapReadBytes32ToAddress(keccak256(\"Activity\",\"Ticket\"),_ticket));\n        require(Lib.explainLifecycle(TicketAddress.getTicketStatus())==Lib.Lifecycle.Normal);\n        uint256 ownerBalance = gs.mapReadAddressToUint(keccak256(\"Activity\",\"ownerBalance\"), msg.sender);\n        ownerBalance = ownerBalance.add(TicketAddress.getValue());//\n        gs.mapUpdateAddressToUint(keccak256(\"Activity\",\"ownerBalance\"), msg.sender, ownerBalance);\n        //    TicketAddress.setOwnerAddress(msg.sender);\n        TicketAddress.setTicketStatus(Lib.interpretLifecycle(Lib.Lifecycle.Finished));\n\n        /*ticketOwnerAddress[_ticket]=msg.sender;\n        ownerBalance[msg.sender]=ownerBalance[msg.sender].add(ticketValue[_ticket]);//\n        ticketStatus[_ticket]=Lifecycle.Finished;*/\n\n        e_checkIn(msg.sender, _ticket);\n        return true;\n    }\n\n    event e_halfTime(address _sender, bytes32 _ticket, bool _in);\n    // sender =taker (take-out)\n    function halfTimeCheckOut(bytes32 _ticket) public returns (bool) {\n        //    require(ticketStatus[_ticket]==Lifecycle.Finished);\n\n        Ticket TicketAddress = Ticket(gs.mapReadBytes32ToAddress(keccak256(\"Activity\",\"Ticket\"),_ticket));\n        require(Lib.explainLifecycle(TicketAddress.getTicketStatus())==Lib.Lifecycle.Finished);\n        TicketAddress.setTicketStatus(Lib.interpretLifecycle(Lib.Lifecycle.Locked));\n\n        //    ticketStatus[_ticket]=Lifecycle.Locked;\n        e_halfTime(msg.sender,_ticket,false);\n        return true;\n    }\n\n    // sender =taker (take-in)\n    function halfTimeCheckIn(bytes32 _ticket) public returns (bool) {\n        //    require(ticketStatus[_ticket]==Lifecycle.Locked);\n\n        Ticket TicketAddress = Ticket(gs.mapReadBytes32ToAddress(keccak256(\"Activity\",\"Ticket\"),_ticket));\n        require(Lib.explainLifecycle(TicketAddress.getTicketStatus())==Lib.Lifecycle.Locked);\n        TicketAddress.setTicketStatus(Lib.interpretLifecycle(Lib.Lifecycle.Finished));\n\n        //    ticketStatus[_ticket]=Lifecycle.Finished;\n        e_halfTime(msg.sender,_ticket,true);\n        return true;\n    }\n\n    event e_assign(address _sender, address _from, address _to, bytes32 _ticket);\n    //() sender = system\n    function assign(address _from, address _to, bytes32 _ticket) public returns (bool) {\n        /*require(ticketStatus[_ticket] ==Lifecycle.Normal);\n        require(_to != address(0));\n        require(_from != address(0));\n        require(ticketOwnerAddress[_ticket] == _from);\n        require(ticketAllowed[_ticket] == _to);*/\n        require(_to != address(0));\n        require(_from != address(0));\n        Ticket TicketAddress = Ticket(gs.mapReadBytes32ToAddress(keccak256(\"Activity\",\"Ticket\"),_ticket));\n        require(Lib.explainLifecycle(TicketAddress.getTicketStatus())==Lib.Lifecycle.Normal);\n        require(TicketAddress.getOwnerAddress()==_from);\n\n        uint256 ownerBalance = gs.mapReadAddressToUint(keccak256(\"Activity\",\"ownerBalance\"), _from);\n        ownerBalance = ownerBalance.sub(TicketAddress.getValue());\n        gs.mapUpdateAddressToUint(keccak256(\"Activity\",\"ownerBalance\"), _from, ownerBalance);\n        ownerBalance = gs.mapReadAddressToUint(keccak256(\"Activity\",\"ownerBalance\"), _to);\n        ownerBalance = ownerBalance.add(TicketAddress.getValue());\n        gs.mapUpdateAddressToUint(keccak256(\"Activity\",\"ownerBalance\"), _to, ownerBalance);\n        TicketAddress.setAllowed(address(0));\n        TicketAddress.setOwnerAddress(_to);\n\n        /*ownerBalance[_from]=ownerBalance[_from].sub(ticketValue[_ticket]);\n        ownerBalance[_to]=ownerBalance[_to].add(ticketValue[_ticket]);\n        ticketOwnerAddress[_ticket] = _to;\n        delete ticketAllowed[_ticket];*/\n\n        organization.assign(_from,_to,TicketAddress.getValue());\n\n        e_assign(msg.sender,_from,_to,_ticket);\n        return true;\n    }\n\n    event e_deal(address _sender, address _from, address _to, bytes32 _ticket);\n    // sender = system\n    function deal(address _from, address _to, bytes32 _ticket) public returns (bool) {\n        /*require(ticketStatus[_ticket] ==Lifecycle.Normal);\n        require(_to != address(0));\n        require(_from != address(0));\n        require(ticketOwnerAddress[_ticket] == _from);\n        require(ticketAllowed[_ticket] == _to);*/\n        require(_to != address(0));\n        require(_from != address(0));\n        Ticket TicketAddress = Ticket(gs.mapReadBytes32ToAddress(keccak256(\"Activity\",\"Ticket\"),_ticket));\n        require(Lib.explainLifecycle(TicketAddress.getTicketStatus())==Lib.Lifecycle.Normal);\n        require(TicketAddress.getOwnerAddress()==_from);\n\n        uint256 ownerBalance = gs.mapReadAddressToUint(keccak256(\"Activity\",\"ownerBalance\"), _from);\n        ownerBalance = ownerBalance.sub(TicketAddress.getValue());\n        gs.mapUpdateAddressToUint(keccak256(\"Activity\",\"ownerBalance\"), _from, ownerBalance);\n        ownerBalance = gs.mapReadAddressToUint(keccak256(\"Activity\",\"ownerBalance\"), _to);\n        ownerBalance = ownerBalance.add(TicketAddress.getValue());\n        gs.mapUpdateAddressToUint(keccak256(\"Activity\",\"ownerBalance\"), _to, ownerBalance);\n        TicketAddress.setAllowed(address(0));\n        TicketAddress.setOwnerAddress(_to);\n\n        /*ownerBalance[_from]=ownerBalance[_from].sub(ticketValue[_ticket]);\n        ownerBalance[_to]=ownerBalance[_to].add(ticketValue[_ticket]);\n        ticketOwnerAddress[_ticket] = _to;\n        delete ticketAllowed[_ticket];*/\n\n        organization.deal(_from,_to,TicketAddress.getValue());\n\n        e_deal(msg.sender,_from,_to,_ticket);\n        return true;\n    }\n\n\n\n    event e_approve(address _sender,address _spender, bytes32 _ticket);\n    //sender = owner\n    function approve(address _spender, bytes32 _ticket) public returns (bool) {\n        /*require(_spender != address(0));\n        require(ticketOwnerAddress[_ticket] == msg.sender);\n        require(ticketStatus[_ticket] == Lifecycle.Normal);*/\n\n        require(_spender != address(0));\n        Ticket TicketAddress = Ticket(gs.mapReadBytes32ToAddress(keccak256(\"Activity\",\"Ticket\"),_ticket));\n        require(Lib.explainLifecycle(TicketAddress.getTicketStatus())==Lib.Lifecycle.Normal);\n        require(TicketAddress.getOwnerAddress()==msg.sender);\n\n        TicketAddress.setAllowed(_spender);\n        /*ticketAllowed[_ticket]=_spender;*/\n\n        e_approve(msg.sender,_spender,_ticket);\n        return true;\n    }\n\n    function allowance(bytes32 _ticket, address _spender) public constant returns (bool) {\n        Ticket TicketAddress = Ticket(gs.mapReadBytes32ToAddress(keccak256(\"Activity\",\"Ticket\"),_ticket));\n        if(TicketAddress.getAllowed() == _spender){\n            return true;\n        }\n        return false;\n    }\n\n    function stakeOf(address _owner) public constant returns (uint256) {\n        return gs.mapReadAddressToUint(keccak256(\"Activity\",\"ownerBalance\"), _owner);\n    }\n\n\n\n\n\n\n\n\n\n\n\n\n\n    /*\n\n    function addMintWhiteList(address _white) public returns (bool){\n        if(isMintWhiteList(_white) == true){\n            return true;\n        }\n        mintWhiteListIndex=mintWhiteListIndex.add(uint256(1));\n        mintWhiteList[keccak256(ticketSymbol,\"mintWhiteList\",mintWhiteListIndex)] = _white;\n        mintReverseWhiteList[_white] = mintWhiteListIndex;\n        return true;\n    }\n\n    function removeMintWhiteList(address _white) public returns(bool){\n        if(isMintWhiteList(_white) == false){\n            return true;\n        }\n        delete mintWhiteList[keccak256(ticketSymbol,\"mintWhiteList\",mintReverseWhiteList[_white])];\n        delete mintReverseWhiteList[_white];\n        mintWhiteListIndex=mintWhiteListIndex.sub(uint256(1));\n        return true;\n    }\n\n    function isMintWhiteList(address _white) public constant returns(bool){\n        uint256 ret = mintReverseWhiteList[_white];\n        if(ret!=uint256(0)){\n            return true;\n        }\n        return false;\n    }\n\n    function addSellerWhiteList(address _white) public returns (bool){\n        if(isSellerWhiteList(_white) == true){\n            return true;\n        }\n        sellerWhiteListIndex=sellerWhiteListIndex.add(uint256(1));\n        sellerWhiteList[keccak256(ticketSymbol,\"sellerWhiteList\",sellerWhiteListIndex)] = _white;\n        sellerReverseWhiteList[_white] = sellerWhiteListIndex;\n        return true;\n    }\n\n    function removeSellerWhiteList(address _white) public returns(bool){\n        if(isSellerWhiteList(_white) == false){\n            return true;\n        }\n        delete sellerWhiteList[keccak256(ticketSymbol,\"sellerWhiteList\",sellerReverseWhiteList[_white])];\n        delete sellerReverseWhiteList[_white];\n        sellerWhiteListIndex=sellerWhiteListIndex.sub(uint256(1));\n        return true;\n    }\n\n    function isSellerWhiteList(address _white) public constant returns(bool){\n        uint256 ret = sellerReverseWhiteList[_white];\n        if(ret!=uint256(0)){\n            return true;\n        }\n        return false;\n    }\n\n    function addTicketTakerWhiteList(address _white) public returns (bool){\n        if(isTicketTakerWhiteList(_white) == true){\n            return true;\n        }\n        ticketTakerWhiteListIndex=ticketTakerWhiteListIndex.add(uint256(1));\n        ticketTakerWhiteList[keccak256(ticketSymbol,\"ticketTakerWhiteList\",ticketTakerWhiteListIndex)] = _white;\n        ticketTakerReverseWhiteList[_white] = ticketTakerWhiteListIndex;\n        return true;\n    }\n\n    function removeTicketTakerWhiteList(address _white) public returns(bool){\n        if(isTicketTakerWhiteList(_white) == false){\n            return true;\n        }\n        delete ticketTakerWhiteList[keccak256(ticketSymbol,\"ticketTakerWhiteList\",ticketTakerReverseWhiteList[_white])];\n        delete ticketTakerReverseWhiteList[_white];\n        ticketTakerWhiteListIndex=ticketTakerWhiteListIndex.sub(uint256(1));\n        return true;\n    }\n\n    function isTicketTakerWhiteList(address _white) public constant returns(bool){\n        uint256 ret = ticketTakerReverseWhiteList[_white];\n        if(ret!=uint256(0)){\n            return true;\n        }\n        return false;\n    }\n*/\n}\n",
  "sourcePath": "/home/lycrus/IdeaProjects/live2/monolith/src/main/resources/truffle/contracts/Activity.sol",
  "compiler": {
    "name": "solc",
    "version": "0.4.18+commit.9cf6e910.Emscripten.clang"
  },
  "schemaVersion": "1.0.1",
  "updatedAt": "2017-12-07T09:28:47.458Z"
}