{
  "contractName": "GeneralMappingStorage",
  "abi": [
    {
      "constant": false,
      "inputs": [
        {
          "name": "_schema",
          "type": "bytes32"
        },
        {
          "name": "_address",
          "type": "address"
        },
        {
          "name": "_uint",
          "type": "uint256"
        }
      ],
      "name": "setAddressToUint",
      "outputs": [
        {
          "name": "",
          "type": "bool"
        }
      ],
      "payable": false,
      "stateMutability": "nonpayable",
      "type": "function"
    },
    {
      "constant": false,
      "inputs": [
        {
          "name": "_schema",
          "type": "bytes32"
        },
        {
          "name": "_bytes32",
          "type": "bytes32"
        },
        {
          "name": "_address",
          "type": "address"
        }
      ],
      "name": "createBytes32ToAddress",
      "outputs": [
        {
          "name": "",
          "type": "bool"
        }
      ],
      "payable": false,
      "stateMutability": "nonpayable",
      "type": "function"
    },
    {
      "constant": false,
      "inputs": [
        {
          "name": "_schema",
          "type": "bytes32"
        },
        {
          "name": "_bytes32",
          "type": "bytes32"
        },
        {
          "name": "_uint",
          "type": "uint256"
        }
      ],
      "name": "setBytes32ToUint",
      "outputs": [
        {
          "name": "",
          "type": "bool"
        }
      ],
      "payable": false,
      "stateMutability": "nonpayable",
      "type": "function"
    },
    {
      "constant": false,
      "inputs": [
        {
          "name": "_schema",
          "type": "bytes32"
        },
        {
          "name": "_address",
          "type": "address"
        },
        {
          "name": "_uint",
          "type": "uint256"
        }
      ],
      "name": "createAddressToUint",
      "outputs": [
        {
          "name": "",
          "type": "bool"
        }
      ],
      "payable": false,
      "stateMutability": "nonpayable",
      "type": "function"
    },
    {
      "constant": false,
      "inputs": [
        {
          "name": "_schema",
          "type": "bytes32"
        },
        {
          "name": "_bytes32",
          "type": "bytes32"
        },
        {
          "name": "_address",
          "type": "address"
        }
      ],
      "name": "updateBytes32ToAddress",
      "outputs": [
        {
          "name": "",
          "type": "bool"
        }
      ],
      "payable": false,
      "stateMutability": "nonpayable",
      "type": "function"
    },
    {
      "constant": true,
      "inputs": [
        {
          "name": "_schema",
          "type": "bytes32"
        },
        {
          "name": "_address",
          "type": "address"
        }
      ],
      "name": "readAddressToUint",
      "outputs": [
        {
          "name": "",
          "type": "uint256"
        }
      ],
      "payable": false,
      "stateMutability": "view",
      "type": "function"
    },
    {
      "constant": false,
      "inputs": [
        {
          "name": "_schema",
          "type": "bytes32"
        },
        {
          "name": "_bytes32",
          "type": "bytes32"
        }
      ],
      "name": "deleteBytes32ToAddress",
      "outputs": [
        {
          "name": "",
          "type": "bool"
        }
      ],
      "payable": false,
      "stateMutability": "nonpayable",
      "type": "function"
    },
    {
      "constant": false,
      "inputs": [
        {
          "name": "_schema",
          "type": "bytes32"
        },
        {
          "name": "_bytes32",
          "type": "bytes32"
        },
        {
          "name": "_address",
          "type": "address"
        }
      ],
      "name": "setBytes32ToAddress",
      "outputs": [
        {
          "name": "",
          "type": "bool"
        }
      ],
      "payable": false,
      "stateMutability": "nonpayable",
      "type": "function"
    },
    {
      "constant": false,
      "inputs": [
        {
          "name": "_schema",
          "type": "bytes32"
        },
        {
          "name": "_address",
          "type": "address"
        }
      ],
      "name": "deleteAddressToUint",
      "outputs": [
        {
          "name": "",
          "type": "bool"
        }
      ],
      "payable": false,
      "stateMutability": "nonpayable",
      "type": "function"
    },
    {
      "constant": false,
      "inputs": [
        {
          "name": "_schema",
          "type": "bytes32"
        },
        {
          "name": "_bytes32",
          "type": "bytes32"
        },
        {
          "name": "_uint",
          "type": "uint256"
        }
      ],
      "name": "createBytes32ToUint",
      "outputs": [
        {
          "name": "",
          "type": "bool"
        }
      ],
      "payable": false,
      "stateMutability": "nonpayable",
      "type": "function"
    },
    {
      "constant": false,
      "inputs": [
        {
          "name": "_schema",
          "type": "bytes32"
        },
        {
          "name": "_address",
          "type": "address"
        },
        {
          "name": "_uint",
          "type": "uint256"
        }
      ],
      "name": "updateAddressToUint",
      "outputs": [
        {
          "name": "",
          "type": "bool"
        }
      ],
      "payable": false,
      "stateMutability": "nonpayable",
      "type": "function"
    },
    {
      "constant": true,
      "inputs": [
        {
          "name": "_schema",
          "type": "bytes32"
        },
        {
          "name": "_bytes32",
          "type": "bytes32"
        }
      ],
      "name": "readBytes32ToAddress",
      "outputs": [
        {
          "name": "",
          "type": "address"
        }
      ],
      "payable": false,
      "stateMutability": "view",
      "type": "function"
    },
    {
      "constant": true,
      "inputs": [
        {
          "name": "_schema",
          "type": "bytes32"
        },
        {
          "name": "_bytes32",
          "type": "bytes32"
        }
      ],
      "name": "readBytes32ToUint",
      "outputs": [
        {
          "name": "",
          "type": "uint256"
        }
      ],
      "payable": false,
      "stateMutability": "view",
      "type": "function"
    },
    {
      "constant": false,
      "inputs": [
        {
          "name": "_schema",
          "type": "bytes32"
        },
        {
          "name": "_bytes32",
          "type": "bytes32"
        },
        {
          "name": "_uint",
          "type": "uint256"
        }
      ],
      "name": "updateBytes32ToUint",
      "outputs": [
        {
          "name": "",
          "type": "bool"
        }
      ],
      "payable": false,
      "stateMutability": "nonpayable",
      "type": "function"
    },
    {
      "constant": false,
      "inputs": [
        {
          "name": "_schema",
          "type": "bytes32"
        },
        {
          "name": "_bytes32",
          "type": "bytes32"
        }
      ],
      "name": "deleteBytes32ToUint",
      "outputs": [
        {
          "name": "",
          "type": "bool"
        }
      ],
      "payable": false,
      "stateMutability": "nonpayable",
      "type": "function"
    },
    {
      "inputs": [],
      "payable": false,
      "stateMutability": "nonpayable",
      "type": "constructor"
    }
  ],
  "bytecode": "0x6060604052341561000f57600080fd5b610fcd8061001e6000396000f3006060604052600436106100db576000357c0100000000000000000000000000000000000000000000000000000000900463ffffffff168063215669bb146100e05780634634c237146101475780634e200a8f146101b25780634e41b292146102075780634e7adfcc1461026e5780637b4a03b2146102d95780637ffb2efc1461033357806384f9ee891461037f5780639191c782146103ea5780639e49b57414610448578063b85b48bc1461049d578063bb5aa14414610504578063bec634f114610578578063c10fa408146105c0578063e860d14a14610615575b600080fd5b34156100eb57600080fd5b61012d60048080356000191690602001909190803573ffffffffffffffffffffffffffffffffffffffff16906020019091908035906020019091905050610661565b604051808215151515815260200191505060405180910390f35b341561015257600080fd5b6101986004808035600019169060200190919080356000191690602001909190803573ffffffffffffffffffffffffffffffffffffffff169060200190919050506106cb565b604051808215151515815260200191505060405180910390f35b34156101bd57600080fd5b6101ed600480803560001916906020019091908035600019169060200190919080359060200190919050506107d7565b604051808215151515815260200191505060405180910390f35b341561021257600080fd5b61025460048080356000191690602001909190803573ffffffffffffffffffffffffffffffffffffffff1690602001909190803590602001909190505061081d565b604051808215151515815260200191505060405180910390f35b341561027957600080fd5b6102bf6004808035600019169060200190919080356000191690602001909190803573ffffffffffffffffffffffffffffffffffffffff169060200190919050506108ed565b604051808215151515815260200191505060405180910390f35b34156102e457600080fd5b61031d60048080356000191690602001909190803573ffffffffffffffffffffffffffffffffffffffff169060200190919050506109fa565b6040518082815260200191505060405180910390f35b341561033e57600080fd5b61036560048080356000191690602001909190803560001916906020019091905050610a5d565b604051808215151515815260200191505060405180910390f35b341561038a57600080fd5b6103d06004808035600019169060200190919080356000191690602001909190803573ffffffffffffffffffffffffffffffffffffffff16906020019091905050610b4d565b604051808215151515815260200191505060405180910390f35b34156103f557600080fd5b61042e60048080356000191690602001909190803573ffffffffffffffffffffffffffffffffffffffff16906020019091905050610bcc565b604051808215151515815260200191505060405180910390f35b341561045357600080fd5b61048360048080356000191690602001909190803560001916906020019091908035906020019091905050610c9b565b604051808215151515815260200191505060405180910390f35b34156104a857600080fd5b6104ea60048080356000191690602001909190803573ffffffffffffffffffffffffffffffffffffffff16906020019091908035906020019091905050610d23565b604051808215151515815260200191505060405180910390f35b341561050f57600080fd5b61053660048080356000191690602001909190803560001916906020019091905050610df4565b604051808273ffffffffffffffffffffffffffffffffffffffff1673ffffffffffffffffffffffffffffffffffffffff16815260200191505060405180910390f35b341561058357600080fd5b6105aa60048080356000191690602001909190803560001916906020019091905050610e52565b6040518082815260200191505060405180910390f35b34156105cb57600080fd5b6105fb60048080356000191690602001909190803560001916906020019091908035906020019091905050610e91565b604051808215151515815260200191505060405180910390f35b341561062057600080fd5b61064760048080356000191690602001909190803560001916906020019091905050610f1a565b604051808215151515815260200191505060405180910390f35b60008160016000866000191660001916815260200190815260200160002060008573ffffffffffffffffffffffffffffffffffffffff1673ffffffffffffffffffffffffffffffffffffffff16815260200190815260200160002081905550600190509392505050565b60008073ffffffffffffffffffffffffffffffffffffffff1660008086600019166000191681526020019081526020016000206000856000191660001916815260200190815260200160002060009054906101000a900473ffffffffffffffffffffffffffffffffffffffff1673ffffffffffffffffffffffffffffffffffffffff1614151561075a57600080fd5b8160008086600019166000191681526020019081526020016000206000856000191660001916815260200190815260200160002060006101000a81548173ffffffffffffffffffffffffffffffffffffffff021916908373ffffffffffffffffffffffffffffffffffffffff160217905550600190509392505050565b6000816002600086600019166000191681526020019081526020016000206000856000191660001916815260200190815260200160002081905550600190509392505050565b60008060016000866000191660001916815260200190815260200160002060008573ffffffffffffffffffffffffffffffffffffffff1673ffffffffffffffffffffffffffffffffffffffff1681526020019081526020016000205414151561088557600080fd5b8160016000866000191660001916815260200190815260200160002060008573ffffffffffffffffffffffffffffffffffffffff1673ffffffffffffffffffffffffffffffffffffffff16815260200190815260200160002081905550600190509392505050565b60008073ffffffffffffffffffffffffffffffffffffffff1660008086600019166000191681526020019081526020016000206000856000191660001916815260200190815260200160002060009054906101000a900473ffffffffffffffffffffffffffffffffffffffff1673ffffffffffffffffffffffffffffffffffffffff161415151561097d57600080fd5b8160008086600019166000191681526020019081526020016000206000856000191660001916815260200190815260200160002060006101000a81548173ffffffffffffffffffffffffffffffffffffffff021916908373ffffffffffffffffffffffffffffffffffffffff160217905550600190509392505050565b600060016000846000191660001916815260200190815260200160002060008373ffffffffffffffffffffffffffffffffffffffff1673ffffffffffffffffffffffffffffffffffffffff16815260200190815260200160002054905092915050565b60008073ffffffffffffffffffffffffffffffffffffffff1660008085600019166000191681526020019081526020016000206000846000191660001916815260200190815260200160002060009054906101000a900473ffffffffffffffffffffffffffffffffffffffff1673ffffffffffffffffffffffffffffffffffffffff1614151515610aed57600080fd5b60008084600019166000191681526020019081526020016000206000836000191660001916815260200190815260200160002060006101000a81549073ffffffffffffffffffffffffffffffffffffffff02191690556001905092915050565b60008160008086600019166000191681526020019081526020016000206000856000191660001916815260200190815260200160002060006101000a81548173ffffffffffffffffffffffffffffffffffffffff021916908373ffffffffffffffffffffffffffffffffffffffff160217905550600190509392505050565b60008060016000856000191660001916815260200190815260200160002060008473ffffffffffffffffffffffffffffffffffffffff1673ffffffffffffffffffffffffffffffffffffffff1681526020019081526020016000205414151515610c3557600080fd5b60016000846000191660001916815260200190815260200160002060008373ffffffffffffffffffffffffffffffffffffffff1673ffffffffffffffffffffffffffffffffffffffff168152602001908152602001600020600090556001905092915050565b6000806002600086600019166000191681526020019081526020016000206000856000191660001916815260200190815260200160002054141515610cdf57600080fd5b816002600086600019166000191681526020019081526020016000206000856000191660001916815260200190815260200160002081905550600190509392505050565b60008060016000866000191660001916815260200190815260200160002060008573ffffffffffffffffffffffffffffffffffffffff1673ffffffffffffffffffffffffffffffffffffffff1681526020019081526020016000205414151515610d8c57600080fd5b8160016000866000191660001916815260200190815260200160002060008573ffffffffffffffffffffffffffffffffffffffff1673ffffffffffffffffffffffffffffffffffffffff16815260200190815260200160002081905550600190509392505050565b600080600084600019166000191681526020019081526020016000206000836000191660001916815260200190815260200160002060009054906101000a900473ffffffffffffffffffffffffffffffffffffffff16905092915050565b60006002600084600019166000191681526020019081526020016000206000836000191660001916815260200190815260200160002054905092915050565b600080600260008660001916600019168152602001908152602001600020600085600019166000191681526020019081526020016000205414151515610ed657600080fd5b816002600086600019166000191681526020019081526020016000206000856000191660001916815260200190815260200160002081905550600190509392505050565b600080600260008560001916600019168152602001908152602001600020600084600019166000191681526020019081526020016000205414151515610f5f57600080fd5b600260008460001916600019168152602001908152602001600020600083600019166000191681526020019081526020016000206000905560019050929150505600a165627a7a72305820e0a6b80a297e490a2f3af8fac09b7250ebdd94666239a3c2e2b047916d0002010029",
  "source": "pragma solidity ^0.4.18;\n\nimport './SafeMath.sol';\n\ncontract GeneralMappingStorage{\n    using SafeMath for uint256;\n\n    function GeneralMappingStorage(){\n\n    }\n    //bytes32 => address\n    mapping(bytes32 => mapping(bytes32 => address)) bytes32ToAddress;\n\n    function createBytes32ToAddress(bytes32 _schema, bytes32 _bytes32, address _address) public returns (bool){\n        require(bytes32ToAddress[_schema][_bytes32]==address(0));\n        bytes32ToAddress[_schema][_bytes32] = _address;\n        return true;\n    }\n\n    function readBytes32ToAddress(bytes32 _schema, bytes32 _bytes32) public constant returns (address ){\n        return bytes32ToAddress[_schema][_bytes32];\n    }\n\n    function updateBytes32ToAddress(bytes32 _schema, bytes32 _bytes32, address _address) public returns (bool){\n        require(bytes32ToAddress[_schema][_bytes32]!=address(0));\n        bytes32ToAddress[_schema][_bytes32] = _address;\n        return true;\n    }\n    function setBytes32ToAddress(bytes32 _schema, bytes32 _bytes32, address _address) public returns (bool){\n        //    require(bytes32ToAddress[_schema][_bytes32]!=address(0));\n        bytes32ToAddress[_schema][_bytes32] = _address;\n        return true;\n    }\n\n    function deleteBytes32ToAddress(bytes32 _schema, bytes32 _bytes32) public returns (bool){\n        require(bytes32ToAddress[_schema][_bytes32]!=address(0));\n        delete bytes32ToAddress[_schema][_bytes32];\n        return true;\n    }\n\n    //address => uint256\n    mapping(bytes32 => mapping(address => uint256)) addressToUint;\n\n    function createAddressToUint(bytes32 _schema, address _address, uint256 _uint) public returns (bool){\n        require(addressToUint[_schema][_address]==uint256(0));\n        addressToUint[_schema][_address] = _uint;\n        return true;\n    }\n\n    function readAddressToUint(bytes32 _schema, address _address) public constant returns (uint256 ){\n        return addressToUint[_schema][_address];\n    }\n\n    function updateAddressToUint(bytes32 _schema, address _address, uint256 _uint) public returns (bool){\n        require(addressToUint[_schema][_address]!=uint256(0));\n        addressToUint[_schema][_address] = _uint;\n        return true;\n    }\n\n    function setAddressToUint(bytes32 _schema, address _address, uint256 _uint) public returns (bool){\n        //    require(addressToUint[_schema][_address]!=uint256(0));\n        addressToUint[_schema][_address] = _uint;\n        return true;\n    }\n\n    function deleteAddressToUint(bytes32 _schema, address _address) public returns (bool){\n        require(addressToUint[_schema][_address]!=uint256(0));\n        delete addressToUint[_schema][_address];\n        return true;\n    }\n\n\n    //bytes32 => uint256\n    mapping(bytes32 => mapping(bytes32 => uint256)) bytes32ToUint;\n\n    function createBytes32ToUint(bytes32 _schema, bytes32 _bytes32, uint256 _uint) public returns (bool){\n        require(bytes32ToUint[_schema][_bytes32]==uint256(0));\n        bytes32ToUint[_schema][_bytes32] = _uint;\n        return true;\n    }\n\n    function readBytes32ToUint(bytes32 _schema, bytes32 _bytes32) public constant returns (uint256 ){\n        return bytes32ToUint[_schema][_bytes32];\n    }\n\n    function updateBytes32ToUint(bytes32 _schema, bytes32 _bytes32, uint256 _uint) public returns (bool){\n        require(bytes32ToUint[_schema][_bytes32]!=uint256(0));\n        bytes32ToUint[_schema][_bytes32] = _uint;\n        return true;\n    }\n\n    function setBytes32ToUint(bytes32 _schema, bytes32 _bytes32, uint256 _uint) public returns (bool){\n        //    require(bytes32ToUint[_schema][_address]!=uint256(0));\n        bytes32ToUint[_schema][_bytes32] = _uint;\n        return true;\n    }\n\n    function deleteBytes32ToUint(bytes32 _schema, bytes32 _bytes32) public returns (bool){\n        require(bytes32ToUint[_schema][_bytes32]!=uint256(0));\n        delete bytes32ToUint[_schema][_bytes32];\n        return true;\n    }\n\n}",
  "sourcePath": "/home/lycrus/IdeaProjects/live2/monolith/src/main/resources/truffle/contracts/GeneralMappingStorage.sol",
  "compiler": {
    "name": "solc",
    "version": "0.4.18+commit.9cf6e910.Emscripten.clang"
  },
  "schemaVersion": "1.0.1",
  "updatedAt": "2017-11-30T07:59:56.458Z"
}