{
  "contractName": "GeneralUniqueArrayStorage",
  "abi": [
    {
      "constant": true,
      "inputs": [
        {
          "name": "_schema",
          "type": "bytes32"
        }
      ],
      "name": "countAddress",
      "outputs": [
        {
          "name": "",
          "type": "uint256"
        }
      ],
      "payable": false,
      "stateMutability": "view",
      "type": "function"
    },
    {
      "constant": true,
      "inputs": [
        {
          "name": "_schema",
          "type": "bytes32"
        },
        {
          "name": "_bytes32",
          "type": "bytes32"
        }
      ],
      "name": "indexOfBytes32",
      "outputs": [
        {
          "name": "",
          "type": "uint256"
        }
      ],
      "payable": false,
      "stateMutability": "view",
      "type": "function"
    },
    {
      "constant": false,
      "inputs": [
        {
          "name": "_schema",
          "type": "bytes32"
        },
        {
          "name": "_index",
          "type": "uint256"
        }
      ],
      "name": "deleteAddress",
      "outputs": [
        {
          "name": "",
          "type": "bool"
        }
      ],
      "payable": false,
      "stateMutability": "nonpayable",
      "type": "function"
    },
    {
      "constant": true,
      "inputs": [
        {
          "name": "_schema",
          "type": "bytes32"
        }
      ],
      "name": "countUint",
      "outputs": [
        {
          "name": "",
          "type": "uint256"
        }
      ],
      "payable": false,
      "stateMutability": "view",
      "type": "function"
    },
    {
      "constant": true,
      "inputs": [
        {
          "name": "_schema",
          "type": "bytes32"
        },
        {
          "name": "_index",
          "type": "uint256"
        }
      ],
      "name": "readUint",
      "outputs": [
        {
          "name": "",
          "type": "uint256"
        }
      ],
      "payable": false,
      "stateMutability": "view",
      "type": "function"
    },
    {
      "constant": true,
      "inputs": [
        {
          "name": "_schema",
          "type": "bytes32"
        },
        {
          "name": "_index",
          "type": "uint256"
        }
      ],
      "name": "readAddress",
      "outputs": [
        {
          "name": "",
          "type": "address"
        }
      ],
      "payable": false,
      "stateMutability": "view",
      "type": "function"
    },
    {
      "constant": false,
      "inputs": [
        {
          "name": "_schema",
          "type": "bytes32"
        },
        {
          "name": "_bytes32",
          "type": "bytes32"
        }
      ],
      "name": "createBytes32",
      "outputs": [
        {
          "name": "",
          "type": "bool"
        }
      ],
      "payable": false,
      "stateMutability": "nonpayable",
      "type": "function"
    },
    {
      "constant": false,
      "inputs": [
        {
          "name": "_schema",
          "type": "bytes32"
        },
        {
          "name": "_index",
          "type": "uint256"
        },
        {
          "name": "_bytes32",
          "type": "bytes32"
        }
      ],
      "name": "updateBytes32",
      "outputs": [
        {
          "name": "",
          "type": "bool"
        }
      ],
      "payable": false,
      "stateMutability": "nonpayable",
      "type": "function"
    },
    {
      "constant": false,
      "inputs": [
        {
          "name": "_schema",
          "type": "bytes32"
        },
        {
          "name": "_index",
          "type": "uint256"
        },
        {
          "name": "_uint256",
          "type": "uint256"
        }
      ],
      "name": "updateUint",
      "outputs": [
        {
          "name": "",
          "type": "bool"
        }
      ],
      "payable": false,
      "stateMutability": "nonpayable",
      "type": "function"
    },
    {
      "constant": false,
      "inputs": [
        {
          "name": "_schema",
          "type": "bytes32"
        },
        {
          "name": "_address",
          "type": "address"
        }
      ],
      "name": "createAddress",
      "outputs": [
        {
          "name": "",
          "type": "bool"
        }
      ],
      "payable": false,
      "stateMutability": "nonpayable",
      "type": "function"
    },
    {
      "constant": false,
      "inputs": [
        {
          "name": "_schema",
          "type": "bytes32"
        },
        {
          "name": "_index",
          "type": "uint256"
        },
        {
          "name": "_address",
          "type": "address"
        }
      ],
      "name": "updateAddress",
      "outputs": [
        {
          "name": "",
          "type": "bool"
        }
      ],
      "payable": false,
      "stateMutability": "nonpayable",
      "type": "function"
    },
    {
      "constant": true,
      "inputs": [
        {
          "name": "_schema",
          "type": "bytes32"
        },
        {
          "name": "_uint256",
          "type": "uint256"
        }
      ],
      "name": "indexOfUint",
      "outputs": [
        {
          "name": "",
          "type": "uint256"
        }
      ],
      "payable": false,
      "stateMutability": "view",
      "type": "function"
    },
    {
      "constant": false,
      "inputs": [
        {
          "name": "_schema",
          "type": "bytes32"
        },
        {
          "name": "_uint256",
          "type": "uint256"
        }
      ],
      "name": "createUint",
      "outputs": [
        {
          "name": "",
          "type": "bool"
        }
      ],
      "payable": false,
      "stateMutability": "nonpayable",
      "type": "function"
    },
    {
      "constant": false,
      "inputs": [
        {
          "name": "_schema",
          "type": "bytes32"
        },
        {
          "name": "_index",
          "type": "uint256"
        }
      ],
      "name": "deleteBytes32",
      "outputs": [
        {
          "name": "",
          "type": "bool"
        }
      ],
      "payable": false,
      "stateMutability": "nonpayable",
      "type": "function"
    },
    {
      "constant": true,
      "inputs": [
        {
          "name": "_schema",
          "type": "bytes32"
        },
        {
          "name": "_index",
          "type": "uint256"
        }
      ],
      "name": "readBytes32",
      "outputs": [
        {
          "name": "",
          "type": "bytes32"
        }
      ],
      "payable": false,
      "stateMutability": "view",
      "type": "function"
    },
    {
      "constant": false,
      "inputs": [
        {
          "name": "_schema",
          "type": "bytes32"
        },
        {
          "name": "_index",
          "type": "uint256"
        }
      ],
      "name": "deleteUint",
      "outputs": [
        {
          "name": "",
          "type": "bool"
        }
      ],
      "payable": false,
      "stateMutability": "nonpayable",
      "type": "function"
    },
    {
      "constant": true,
      "inputs": [
        {
          "name": "_schema",
          "type": "bytes32"
        }
      ],
      "name": "countBytes32",
      "outputs": [
        {
          "name": "",
          "type": "uint256"
        }
      ],
      "payable": false,
      "stateMutability": "view",
      "type": "function"
    },
    {
      "constant": true,
      "inputs": [
        {
          "name": "_schema",
          "type": "bytes32"
        },
        {
          "name": "_address",
          "type": "address"
        }
      ],
      "name": "indexOfAddress",
      "outputs": [
        {
          "name": "",
          "type": "uint256"
        }
      ],
      "payable": false,
      "stateMutability": "view",
      "type": "function"
    },
    {
      "inputs": [],
      "payable": false,
      "stateMutability": "nonpayable",
      "type": "constructor"
    }
  ],
  "bytecode": "0x6060604052341561000f57600080fd5b6119708061001e6000396000f3006060604052600436106100fc576000357c0100000000000000000000000000000000000000000000000000000000900463ffffffff1680630de2212614610101578063120ca9151461013c578063360ecc821461018457806338b2c232146101cc5780634556b58c146102075780634fada9af1461024b578063532b5f86146102bb5780635bfdc2a514610307578063707832ea1461035c5780637b2e0046146103ad5780637d9d7d6c1461040b5780637e837d5714610472578063841ae516146104b6578063c86a1cc6146104fe578063d062412214610546578063d2dc7ef314610592578063e3206eca146105da578063f7f5303b14610615575b600080fd5b341561010c57600080fd5b61012660048080356000191690602001909190505061066f565b6040518082815260200191505060405180910390f35b341561014757600080fd5b61016e60048080356000191690602001909190803560001916906020019091905050610694565b6040518082815260200191505060405180910390f35b341561018f57600080fd5b6101b26004808035600019169060200190919080359060200190919050506106d3565b604051808215151515815260200191505060405180910390f35b34156101d757600080fd5b6101f1600480803560001916906020019091905050610a1e565b6040518082815260200191505060405180910390f35b341561021257600080fd5b610235600480803560001916906020019091908035906020019091905050610a43565b6040518082815260200191505060405180910390f35b341561025657600080fd5b610279600480803560001916906020019091908035906020019091905050610a7a565b604051808273ffffffffffffffffffffffffffffffffffffffff1673ffffffffffffffffffffffffffffffffffffffff16815260200191505060405180910390f35b34156102c657600080fd5b6102ed60048080356000191690602001909190803560001916906020019091905050610ad0565b604051808215151515815260200191505060405180910390f35b341561031257600080fd5b61034260048080356000191690602001909190803590602001909190803560001916906020019091905050610c05565b604051808215151515815260200191505060405180910390f35b341561036757600080fd5b610393600480803560001916906020019091908035906020019091908035906020019091905050610d50565b604051808215151515815260200191505060405180910390f35b34156103b857600080fd5b6103f160048080356000191690602001909190803573ffffffffffffffffffffffffffffffffffffffff16906020019091905050610e7f565b604051808215151515815260200191505060405180910390f35b341561041657600080fd5b61045860048080356000191690602001909190803590602001909190803573ffffffffffffffffffffffffffffffffffffffff16906020019091905050611031565b604051808215151515815260200191505060405180910390f35b341561047d57600080fd5b6104a060048080356000191690602001909190803590602001909190505061123c565b6040518082815260200191505060405180910390f35b34156104c157600080fd5b6104e4600480803560001916906020019091908035906020019091905050611273565b604051808215151515815260200191505060405180910390f35b341561050957600080fd5b61052c600480803560001916906020019091908035906020019091905050611394565b604051808215151515815260200191505060405180910390f35b341561055157600080fd5b6105746004808035600019169060200190919080359060200190919050506115e7565b60405180826000191660001916815260200191505060405180910390f35b341561059d57600080fd5b6105c060048080356000191690602001909190803590602001909190505061161e565b604051808215151515815260200191505060405180910390f35b34156105e557600080fd5b6105ff60048080356000191690602001909190505061185d565b6040518082815260200191505060405180910390f35b341561062057600080fd5b61065960048080356000191690602001909190803573ffffffffffffffffffffffffffffffffffffffff16906020019091905050611882565b6040518082815260200191505060405180910390f35b6000600160008360001916600019168152602001908152602001600020549050919050565b60006008600084600019166000191681526020019081526020016000206000836000191660001916815260200190815260200160002054905092915050565b60008060006001600086600019166000191681526020019081526020016000205411151561070057600080fd5b60016000856000191660001916815260200190815260200160002054831115151561072a57600080fd5b6000808560001916600019168152602001908152602001600020600084815260200190815260200160002060009054906101000a900473ffffffffffffffffffffffffffffffffffffffff16905082600260008660001916600019168152602001908152602001600020600080600088600019166000191681526020019081526020016000206000600160008a6000191660001916815260200190815260200160002054815260200190815260200160002060009054906101000a900473ffffffffffffffffffffffffffffffffffffffff1673ffffffffffffffffffffffffffffffffffffffff1673ffffffffffffffffffffffffffffffffffffffff1681526020019081526020016000208190555060026000856000191660001916815260200190815260200160002060008273ffffffffffffffffffffffffffffffffffffffff1673ffffffffffffffffffffffffffffffffffffffff168152602001908152602001600020600090556000808560001916600019168152602001908152602001600020600060016000876000191660001916815260200190815260200160002054815260200190815260200160002060009054906101000a900473ffffffffffffffffffffffffffffffffffffffff166000808660001916600019168152602001908152602001600020600085815260200190815260200160002060006101000a81548173ffffffffffffffffffffffffffffffffffffffff021916908373ffffffffffffffffffffffffffffffffffffffff1602179055506000808560001916600019168152602001908152602001600020600060016000876000191660001916815260200190815260200160002054815260200190815260200160002060006101000a81549073ffffffffffffffffffffffffffffffffffffffff02191690556109f4600160008660001916600019168152602001908152602001600020546118e5565b60016000866000191660001916815260200190815260200160002081905550600191505092915050565b6000600460008360001916600019168152602001908152602001600020549050919050565b6000600360008460001916600019168152602001908152602001600020600083815260200190815260200160002054905092915050565b60008060008460001916600019168152602001908152602001600020600083815260200190815260200160002060009054906101000a900473ffffffffffffffffffffffffffffffffffffffff16905092915050565b6000806008600085600019166000191681526020019081526020016000206000846000191660001916815260200190815260200160002054141515610b1457600080fd5b610b38600760008560001916600019168152602001908152602001600020546118f9565b6007600085600019166000191681526020019081526020016000208190555081600660008560001916600019168152602001908152602001600020600060076000876000191660001916815260200190815260200160002054815260200190815260200160002081600019169055506007600084600019166000191681526020019081526020016000205460086000856000191660001916815260200190815260200160002060008460001916600019168152602001908152602001600020819055506001905092915050565b6000806008600086600019166000191681526020019081526020016000206000846000191660001916815260200190815260200160002054141515610c4957600080fd5b600760008560001916600019168152602001908152602001600020548311151515610c7357600080fd5b600860008560001916600019168152602001908152602001600020600060066000876000191660001916815260200190815260200160002060008681526020019081526020016000205460001916600019168152602001908152602001600020600090558160066000866000191660001916815260200190815260200160002060008581526020019081526020016000208160001916905550826008600086600019166000191681526020019081526020016000206000846000191660001916815260200190815260200160002081905550600190509392505050565b600080600560008660001916600019168152602001908152602001600020600084815260200190815260200160002054141515610d8c57600080fd5b600460008560001916600019168152602001908152602001600020548311151515610db657600080fd5b60056000856000191660001916815260200190815260200160002060006003600087600019166000191681526020019081526020016000206000868152602001908152602001600020548152602001908152602001600020600090558160036000866000191660001916815260200190815260200160002060008581526020019081526020016000208190555082600560008660001916600019168152602001908152602001600020600084815260200190815260200160002081905550600190509392505050565b60008060026000856000191660001916815260200190815260200160002060008473ffffffffffffffffffffffffffffffffffffffff1673ffffffffffffffffffffffffffffffffffffffff16815260200190815260200160002054141515610ee757600080fd5b610f0b600160008560001916600019168152602001908152602001600020546118f9565b60016000856000191660001916815260200190815260200160002081905550816000808560001916600019168152602001908152602001600020600060016000876000191660001916815260200190815260200160002054815260200190815260200160002060006101000a81548173ffffffffffffffffffffffffffffffffffffffff021916908373ffffffffffffffffffffffffffffffffffffffff1602179055506001600084600019166000191681526020019081526020016000205460026000856000191660001916815260200190815260200160002060008473ffffffffffffffffffffffffffffffffffffffff1673ffffffffffffffffffffffffffffffffffffffff168152602001908152602001600020819055506001905092915050565b60008060026000866000191660001916815260200190815260200160002060008473ffffffffffffffffffffffffffffffffffffffff1673ffffffffffffffffffffffffffffffffffffffff1681526020019081526020016000205414151561109957600080fd5b6001600085600019166000191681526020019081526020016000205483111515156110c357600080fd5b60026000856000191660001916815260200190815260200160002060008060008760001916600019168152602001908152602001600020600086815260200190815260200160002060009054906101000a900473ffffffffffffffffffffffffffffffffffffffff1673ffffffffffffffffffffffffffffffffffffffff1673ffffffffffffffffffffffffffffffffffffffff16815260200190815260200160002060009055816000808660001916600019168152602001908152602001600020600085815260200190815260200160002060006101000a81548173ffffffffffffffffffffffffffffffffffffffff021916908373ffffffffffffffffffffffffffffffffffffffff1602179055508260026000866000191660001916815260200190815260200160002060008473ffffffffffffffffffffffffffffffffffffffff1673ffffffffffffffffffffffffffffffffffffffff16815260200190815260200160002081905550600190509392505050565b6000600560008460001916600019168152602001908152602001600020600083815260200190815260200160002054905092915050565b6000806005600085600019166000191681526020019081526020016000206000848152602001908152602001600020541415156112af57600080fd5b6112d3600460008560001916600019168152602001908152602001600020546118f9565b6004600085600019166000191681526020019081526020016000208190555081600360008560001916600019168152602001908152602001600020600060046000876000191660001916815260200190815260200160002054815260200190815260200160002081905550600460008460001916600019168152602001908152602001600020546005600085600019166000191681526020019081526020016000206000848152602001908152602001600020819055506001905092915050565b6000806000600760008660001916600019168152602001908152602001600020541115156113c157600080fd5b6007600085600019166000191681526020019081526020016000205483111515156113eb57600080fd5b60066000856000191660001916815260200190815260200160002060008481526020019081526020016000205490508260086000866000191660001916815260200190815260200160002060006006600088600019166000191681526020019081526020016000206000600760008a600019166000191681526020019081526020016000205481526020019081526020016000205460001916600019168152602001908152602001600020819055506008600085600019166000191681526020019081526020016000206000826000191660001916815260200190815260200160002060009055600660008560001916600019168152602001908152602001600020600060076000876000191660001916815260200190815260200160002054815260200190815260200160002054600660008660001916600019168152602001908152602001600020600085815260200190815260200160002081600019169055506006600085600019166000191681526020019081526020016000206000600760008760001916600019168152602001908152602001600020548152602001908152602001600020600090556115bd600760008660001916600019168152602001908152602001600020546118e5565b60076000866000191660001916815260200190815260200160002081905550600191505092915050565b6000600660008460001916600019168152602001908152602001600020600083815260200190815260200160002054905092915050565b60008060006004600086600019166000191681526020019081526020016000205411151561164b57600080fd5b60046000856000191660001916815260200190815260200160002054831115151561167557600080fd5b60036000856000191660001916815260200190815260200160002060008481526020019081526020016000205490508260056000866000191660001916815260200190815260200160002060006003600088600019166000191681526020019081526020016000206000600460008a6000191660001916815260200190815260200160002054815260200190815260200160002054815260200190815260200160002081905550600560008560001916600019168152602001908152602001600020600082815260200190815260200160002060009055600360008560001916600019168152602001908152602001600020600060046000876000191660001916815260200190815260200160002054815260200190815260200160002054600360008660001916600019168152602001908152602001600020600085815260200190815260200160002081905550600360008560001916600019168152602001908152602001600020600060046000876000191660001916815260200190815260200160002054815260200190815260200160002060009055611833600460008660001916600019168152602001908152602001600020546118e5565b60046000866000191660001916815260200190815260200160002081905550600191505092915050565b6000600760008360001916600019168152602001908152602001600020549050919050565b600060026000846000191660001916815260200190815260200160002060008373ffffffffffffffffffffffffffffffffffffffff1673ffffffffffffffffffffffffffffffffffffffff16815260200190815260200160002054905092915050565b60006118f282600161190d565b9050919050565b6000611906826001611926565b9050919050565b600082821115151561191b57fe5b818303905092915050565b600080828401905083811015151561193a57fe5b80915050929150505600a165627a7a7230582023a545a3423d33f07cf50a04386db68f1553ad3d988b757f7190a4861bd9f8480029",
  "source": "pragma solidity ^0.4.18;\n\nimport './SafeMath.sol';\n\ncontract GeneralUniqueArrayStorage{\n    using SafeMath for uint256;\n\n    //address\n\n    function GeneralUniqueArrayStorage (){\n\n    }\n\n    mapping(bytes32 => mapping(uint256 => address)) addressPayLoad;\n    mapping(bytes32 => uint256) addressCounter; //starts from 1, 0 means there is no content\n    mapping(bytes32 => mapping(address => uint256)) addressR;\n\n    function createAddress(bytes32 _schema, address _address) public returns(bool){\n        require(addressR[_schema][_address]==0);\n        addressCounter[_schema] = addressCounter[_schema].incr();\n        addressPayLoad[_schema][addressCounter[_schema]] = _address;\n        addressR[_schema][_address] = addressCounter[_schema];\n        return true;\n    }\n\n    function readAddress(bytes32 _schema, uint256 _index) public constant returns(address){\n        return addressPayLoad[_schema][_index];\n    }\n\n    function updateAddress(bytes32 _schema, uint256 _index, address _address) public returns (bool){\n        require(addressR[_schema][_address]==0);\n        require(_index <= addressCounter[_schema]);\n        delete addressR[_schema][addressPayLoad[_schema][_index]];\n        addressPayLoad[_schema][_index] = _address;\n        addressR[_schema][_address] = _index;\n        return true;\n    }\n\n    function deleteAddress(bytes32 _schema, uint256 _index) public returns (bool){\n        require(addressCounter[_schema]>0);\n        require(_index <= addressCounter[_schema]);\n\n        address temp = addressPayLoad[_schema][_index];\n        addressR[_schema][addressPayLoad[_schema][addressCounter[_schema]]] = _index;\n        delete addressR[_schema][temp];\n\n        addressPayLoad[_schema][_index] = addressPayLoad[_schema][addressCounter[_schema]];\n        delete addressPayLoad[_schema][addressCounter[_schema]];\n\n        addressCounter[_schema] = addressCounter[_schema].decr();\n        return true;\n    }\n\n    function countAddress(bytes32 _schema) public constant returns (uint256){\n        return addressCounter[_schema];\n    }\n\n    function indexOfAddress(bytes32 _schema, address _address) public constant returns (uint256){\n        return addressR[_schema][_address];\n    }\n\n    //uint256\n    //======================== index   => content\n    mapping(bytes32 => mapping(uint256 => uint256)) uintPayLoad;\n    mapping(bytes32 => uint256) uintCounter; //starts from 1, 0 means there is no content\n    mapping(bytes32 => mapping(uint256 => uint256)) uintR;\n\n    function createUint(bytes32 _schema, uint256 _uint256) public returns(bool){\n        require(uintR[_schema][_uint256]==0);\n        uintCounter[_schema] = uintCounter[_schema].incr();\n        uintPayLoad[_schema][uintCounter[_schema]] = _uint256;\n        uintR[_schema][_uint256] = uintCounter[_schema];\n        return true;\n    }\n\n    function readUint(bytes32 _schema, uint256 _index) public constant returns(uint256){\n        return uintPayLoad[_schema][_index];\n    }\n\n    function updateUint(bytes32 _schema, uint256 _index, uint256 _uint256) public returns (bool){\n        require(uintR[_schema][_uint256]==0);\n        require(_index <= uintCounter[_schema]);\n        delete uintR[_schema][uintPayLoad[_schema][_index]];\n        uintPayLoad[_schema][_index] = _uint256;\n        uintR[_schema][_uint256] = _index;\n        return true;\n    }\n\n    function deleteUint(bytes32 _schema, uint256 _index) public returns (bool){\n        require(uintCounter[_schema]>0);\n        require(_index <= uintCounter[_schema]);\n\n        uint256 temp = uintPayLoad[_schema][_index];\n        uintR[_schema][uintPayLoad[_schema][uintCounter[_schema]]] = _index;\n        delete uintR[_schema][temp];\n\n        uintPayLoad[_schema][_index] = uintPayLoad[_schema][uintCounter[_schema]];\n        delete uintPayLoad[_schema][uintCounter[_schema]];\n\n        uintCounter[_schema] = uintCounter[_schema].decr();\n        return true;\n    }\n\n    function countUint(bytes32 _schema) public constant returns (uint256){\n        return uintCounter[_schema];\n    }\n\n    function indexOfUint(bytes32 _schema, uint256 _uint256) public constant returns (uint256){\n        return uintR[_schema][_uint256];\n    }\n\n    //bytes32\n    //======================== index   => content\n    mapping(bytes32 => mapping(uint256 => bytes32)) bytes32PayLoad;\n    mapping(bytes32 => uint256) bytes32Counter; //starts from 1, 0 means there is no content\n    mapping(bytes32 => mapping(bytes32 => uint256)) bytes32R;\n\n    function createBytes32(bytes32 _schema, bytes32 _bytes32) public returns(bool){\n        require(bytes32R[_schema][_bytes32]==0);\n        bytes32Counter[_schema] = bytes32Counter[_schema].incr();\n        bytes32PayLoad[_schema][bytes32Counter[_schema]] = _bytes32;\n        bytes32R[_schema][_bytes32] = bytes32Counter[_schema];\n        return true;\n    }\n\n    function readBytes32(bytes32 _schema, uint256 _index) public constant returns(bytes32){\n        return bytes32PayLoad[_schema][_index];\n    }\n\n    function updateBytes32(bytes32 _schema, uint256 _index, bytes32 _bytes32) public returns (bool){\n        require(bytes32R[_schema][_bytes32]==0);\n        require(_index <= bytes32Counter[_schema]);\n        delete bytes32R[_schema][bytes32PayLoad[_schema][_index]];\n        bytes32PayLoad[_schema][_index] = _bytes32;\n        bytes32R[_schema][_bytes32] = _index;\n        return true;\n    }\n\n    function deleteBytes32(bytes32 _schema, uint256 _index) public returns (bool){\n        require(bytes32Counter[_schema]>0);\n        require(_index <= bytes32Counter[_schema]);\n\n        bytes32 temp = bytes32PayLoad[_schema][_index];\n        bytes32R[_schema][bytes32PayLoad[_schema][bytes32Counter[_schema]]] = _index;\n        delete bytes32R[_schema][temp];\n\n        bytes32PayLoad[_schema][_index] = bytes32PayLoad[_schema][bytes32Counter[_schema]];\n        delete bytes32PayLoad[_schema][bytes32Counter[_schema]];\n\n        bytes32Counter[_schema] = bytes32Counter[_schema].decr();\n        return true;\n    }\n\n    function countBytes32(bytes32 _schema) public constant returns (uint256){\n        return bytes32Counter[_schema];\n    }\n\n    function indexOfBytes32(bytes32 _schema, bytes32 _bytes32) public constant returns (uint256){\n        return bytes32R[_schema][_bytes32];\n    }\n}",
  "sourcePath": "/home/lycrus/IdeaProjects/live2/monolith/src/main/resources/truffle/contracts/GeneralUniqueArrayStorage.sol",
  "compiler": {
    "name": "solc",
    "version": "0.4.18+commit.9cf6e910.Emscripten.clang"
  },
  "schemaVersion": "1.0.1",
  "updatedAt": "2017-11-30T07:59:56.459Z"
}