{
  "contractName": "GeneralStorage",
  "abi": [
    {
      "constant": false,
      "inputs": [
        {
          "name": "_schema",
          "type": "bytes32"
        },
        {
          "name": "_address",
          "type": "address"
        },
        {
          "name": "_uint",
          "type": "uint256"
        }
      ],
      "name": "mapSetAddressToUint",
      "outputs": [
        {
          "name": "",
          "type": "bool"
        }
      ],
      "payable": false,
      "stateMutability": "nonpayable",
      "type": "function"
    },
    {
      "constant": true,
      "inputs": [
        {
          "name": "_schema",
          "type": "bytes32"
        },
        {
          "name": "_uint",
          "type": "uint256"
        }
      ],
      "name": "mapReadUintToBytes32",
      "outputs": [
        {
          "name": "",
          "type": "bytes32"
        }
      ],
      "payable": false,
      "stateMutability": "view",
      "type": "function"
    },
    {
      "constant": false,
      "inputs": [
        {
          "name": "_schema",
          "type": "bytes32"
        },
        {
          "name": "_address",
          "type": "address"
        },
        {
          "name": "_uint",
          "type": "uint256"
        }
      ],
      "name": "mapUpdateAddressToUint",
      "outputs": [
        {
          "name": "",
          "type": "bool"
        }
      ],
      "payable": false,
      "stateMutability": "nonpayable",
      "type": "function"
    },
    {
      "constant": false,
      "inputs": [
        {
          "name": "_schema",
          "type": "bytes32"
        },
        {
          "name": "_uint",
          "type": "uint256"
        },
        {
          "name": "_bool",
          "type": "bool"
        }
      ],
      "name": "mapSetUintToBool",
      "outputs": [
        {
          "name": "",
          "type": "bool"
        }
      ],
      "payable": false,
      "stateMutability": "nonpayable",
      "type": "function"
    },
    {
      "constant": false,
      "inputs": [
        {
          "name": "_schema",
          "type": "bytes32"
        },
        {
          "name": "_uint_k",
          "type": "uint256"
        },
        {
          "name": "_address",
          "type": "address"
        }
      ],
      "name": "mapSetUintToAddress",
      "outputs": [
        {
          "name": "",
          "type": "bool"
        }
      ],
      "payable": false,
      "stateMutability": "nonpayable",
      "type": "function"
    },
    {
      "constant": true,
      "inputs": [
        {
          "name": "_schema",
          "type": "bytes32"
        },
        {
          "name": "_uint256",
          "type": "uint256"
        }
      ],
      "name": "listIndexOfUint",
      "outputs": [
        {
          "name": "",
          "type": "uint256"
        }
      ],
      "payable": false,
      "stateMutability": "view",
      "type": "function"
    },
    {
      "constant": false,
      "inputs": [
        {
          "name": "_schema",
          "type": "bytes32"
        },
        {
          "name": "_uint_k",
          "type": "uint256"
        },
        {
          "name": "_address",
          "type": "address"
        }
      ],
      "name": "uniqueMapUpdateUintToAddress",
      "outputs": [
        {
          "name": "",
          "type": "bool"
        }
      ],
      "payable": false,
      "stateMutability": "nonpayable",
      "type": "function"
    },
    {
      "constant": false,
      "inputs": [
        {
          "name": "_schema",
          "type": "bytes32"
        },
        {
          "name": "_uint_k",
          "type": "uint256"
        },
        {
          "name": "_uint_v",
          "type": "uint256"
        }
      ],
      "name": "mapUpdateUintToUint",
      "outputs": [
        {
          "name": "",
          "type": "bool"
        }
      ],
      "payable": false,
      "stateMutability": "nonpayable",
      "type": "function"
    },
    {
      "constant": true,
      "inputs": [
        {
          "name": "_schema",
          "type": "bytes32"
        }
      ],
      "name": "listCountUint",
      "outputs": [
        {
          "name": "",
          "type": "uint256"
        }
      ],
      "payable": false,
      "stateMutability": "view",
      "type": "function"
    },
    {
      "constant": false,
      "inputs": [
        {
          "name": "_schema",
          "type": "bytes32"
        },
        {
          "name": "_uint",
          "type": "uint256"
        },
        {
          "name": "_bytes32",
          "type": "bytes32"
        }
      ],
      "name": "mapUpdateUintToBytes32",
      "outputs": [
        {
          "name": "",
          "type": "bool"
        }
      ],
      "payable": false,
      "stateMutability": "nonpayable",
      "type": "function"
    },
    {
      "constant": false,
      "inputs": [
        {
          "name": "_schema",
          "type": "bytes32"
        },
        {
          "name": "_bytes32",
          "type": "bytes32"
        }
      ],
      "name": "mapDeleteBytes32ToUint",
      "outputs": [
        {
          "name": "",
          "type": "bool"
        }
      ],
      "payable": false,
      "stateMutability": "nonpayable",
      "type": "function"
    },
    {
      "constant": true,
      "inputs": [
        {
          "name": "_schema",
          "type": "bytes32"
        },
        {
          "name": "_address",
          "type": "address"
        }
      ],
      "name": "mapReadAddressToUint",
      "outputs": [
        {
          "name": "",
          "type": "uint256"
        }
      ],
      "payable": false,
      "stateMutability": "view",
      "type": "function"
    },
    {
      "constant": false,
      "inputs": [
        {
          "name": "_schema",
          "type": "bytes32"
        },
        {
          "name": "_bytes32",
          "type": "bytes32"
        }
      ],
      "name": "mapDeleteBytes32ToAddress",
      "outputs": [
        {
          "name": "",
          "type": "bool"
        }
      ],
      "payable": false,
      "stateMutability": "nonpayable",
      "type": "function"
    },
    {
      "constant": true,
      "inputs": [
        {
          "name": "_schema",
          "type": "bytes32"
        },
        {
          "name": "_name",
          "type": "bytes32"
        }
      ],
      "name": "counterNow",
      "outputs": [
        {
          "name": "",
          "type": "uint256"
        }
      ],
      "payable": false,
      "stateMutability": "view",
      "type": "function"
    },
    {
      "constant": true,
      "inputs": [
        {
          "name": "_schema",
          "type": "bytes32"
        },
        {
          "name": "_uint_k",
          "type": "uint256"
        }
      ],
      "name": "mapReadUintToAddress",
      "outputs": [
        {
          "name": "",
          "type": "address"
        }
      ],
      "payable": false,
      "stateMutability": "view",
      "type": "function"
    },
    {
      "constant": false,
      "inputs": [
        {
          "name": "_schema",
          "type": "bytes32"
        },
        {
          "name": "_bytes32",
          "type": "bytes32"
        },
        {
          "name": "_uint",
          "type": "uint256"
        }
      ],
      "name": "mapSetBytes32ToUint",
      "outputs": [
        {
          "name": "",
          "type": "bool"
        }
      ],
      "payable": false,
      "stateMutability": "nonpayable",
      "type": "function"
    },
    {
      "constant": false,
      "inputs": [
        {
          "name": "_schema",
          "type": "bytes32"
        },
        {
          "name": "_uint256",
          "type": "uint256"
        }
      ],
      "name": "listCreateUint",
      "outputs": [
        {
          "name": "",
          "type": "bool"
        }
      ],
      "payable": false,
      "stateMutability": "nonpayable",
      "type": "function"
    },
    {
      "constant": false,
      "inputs": [
        {
          "name": "_schema",
          "type": "bytes32"
        },
        {
          "name": "_uint_k",
          "type": "uint256"
        }
      ],
      "name": "mapDeleteUintToUint",
      "outputs": [
        {
          "name": "",
          "type": "bool"
        }
      ],
      "payable": false,
      "stateMutability": "nonpayable",
      "type": "function"
    },
    {
      "constant": true,
      "inputs": [
        {
          "name": "_schema",
          "type": "bytes32"
        }
      ],
      "name": "listCountAddress",
      "outputs": [
        {
          "name": "",
          "type": "uint256"
        }
      ],
      "payable": false,
      "stateMutability": "view",
      "type": "function"
    },
    {
      "constant": false,
      "inputs": [
        {
          "name": "_schema",
          "type": "bytes32"
        },
        {
          "name": "_bytes32",
          "type": "bytes32"
        },
        {
          "name": "_uint",
          "type": "uint256"
        }
      ],
      "name": "mapUpdateBytes32ToUint",
      "outputs": [
        {
          "name": "",
          "type": "bool"
        }
      ],
      "payable": false,
      "stateMutability": "nonpayable",
      "type": "function"
    },
    {
      "constant": false,
      "inputs": [
        {
          "name": "_schema",
          "type": "bytes32"
        },
        {
          "name": "_uint_k",
          "type": "uint256"
        }
      ],
      "name": "mapDeleteUintToAddress",
      "outputs": [
        {
          "name": "",
          "type": "bool"
        }
      ],
      "payable": false,
      "stateMutability": "nonpayable",
      "type": "function"
    },
    {
      "constant": false,
      "inputs": [
        {
          "name": "_schema",
          "type": "bytes32"
        },
        {
          "name": "_index",
          "type": "uint256"
        },
        {
          "name": "_bytes32",
          "type": "bytes32"
        }
      ],
      "name": "listUpdateBytes32",
      "outputs": [
        {
          "name": "",
          "type": "bool"
        }
      ],
      "payable": false,
      "stateMutability": "nonpayable",
      "type": "function"
    },
    {
      "constant": true,
      "inputs": [
        {
          "name": "_schema",
          "type": "bytes32"
        },
        {
          "name": "_bytes32",
          "type": "bytes32"
        }
      ],
      "name": "mapReadBytes32ToAddress",
      "outputs": [
        {
          "name": "",
          "type": "address"
        }
      ],
      "payable": false,
      "stateMutability": "view",
      "type": "function"
    },
    {
      "constant": true,
      "inputs": [
        {
          "name": "_schema",
          "type": "bytes32"
        },
        {
          "name": "_bytes32",
          "type": "bytes32"
        }
      ],
      "name": "mapReadBytes32ToBool",
      "outputs": [
        {
          "name": "",
          "type": "bool"
        }
      ],
      "payable": false,
      "stateMutability": "view",
      "type": "function"
    },
    {
      "constant": true,
      "inputs": [
        {
          "name": "_schema",
          "type": "bytes32"
        },
        {
          "name": "_bytes32_k",
          "type": "bytes32"
        }
      ],
      "name": "mapReadBytes32Tobytes32",
      "outputs": [
        {
          "name": "",
          "type": "bytes32"
        }
      ],
      "payable": false,
      "stateMutability": "view",
      "type": "function"
    },
    {
      "constant": false,
      "inputs": [
        {
          "name": "_schema",
          "type": "bytes32"
        },
        {
          "name": "_bytes32",
          "type": "bytes32"
        },
        {
          "name": "_address",
          "type": "address"
        }
      ],
      "name": "mapUpdateBytes32ToAddress",
      "outputs": [
        {
          "name": "",
          "type": "bool"
        }
      ],
      "payable": false,
      "stateMutability": "nonpayable",
      "type": "function"
    },
    {
      "constant": false,
      "inputs": [
        {
          "name": "_schema",
          "type": "bytes32"
        },
        {
          "name": "_bytes32_k",
          "type": "bytes32"
        },
        {
          "name": "_bytes32_v",
          "type": "bytes32"
        }
      ],
      "name": "mapUpdateBytes32Tobytes32",
      "outputs": [
        {
          "name": "",
          "type": "bool"
        }
      ],
      "payable": false,
      "stateMutability": "nonpayable",
      "type": "function"
    },
    {
      "constant": false,
      "inputs": [
        {
          "name": "_schema",
          "type": "bytes32"
        },
        {
          "name": "_uint_k",
          "type": "uint256"
        },
        {
          "name": "_address",
          "type": "address"
        }
      ],
      "name": "uniqueMapSetUintToAddress",
      "outputs": [
        {
          "name": "",
          "type": "bool"
        }
      ],
      "payable": false,
      "stateMutability": "nonpayable",
      "type": "function"
    },
    {
      "constant": true,
      "inputs": [
        {
          "name": "_schema",
          "type": "bytes32"
        },
        {
          "name": "_index",
          "type": "uint256"
        }
      ],
      "name": "listValidateBytes32",
      "outputs": [
        {
          "name": "",
          "type": "bool"
        }
      ],
      "payable": false,
      "stateMutability": "view",
      "type": "function"
    },
    {
      "constant": true,
      "inputs": [
        {
          "name": "_schema",
          "type": "bytes32"
        },
        {
          "name": "_address",
          "type": "address"
        }
      ],
      "name": "listIndexOfAddress",
      "outputs": [
        {
          "name": "",
          "type": "uint256"
        }
      ],
      "payable": false,
      "stateMutability": "view",
      "type": "function"
    },
    {
      "constant": false,
      "inputs": [
        {
          "name": "_schema",
          "type": "bytes32"
        },
        {
          "name": "_bytes32_k",
          "type": "bytes32"
        },
        {
          "name": "_bytes32_v",
          "type": "bytes32"
        }
      ],
      "name": "mapSetBytes32Tobytes32",
      "outputs": [
        {
          "name": "",
          "type": "bool"
        }
      ],
      "payable": false,
      "stateMutability": "nonpayable",
      "type": "function"
    },
    {
      "constant": false,
      "inputs": [
        {
          "name": "_schema",
          "type": "bytes32"
        },
        {
          "name": "_bytes32",
          "type": "bytes32"
        },
        {
          "name": "_bool",
          "type": "bool"
        }
      ],
      "name": "mapSetBytes32ToBool",
      "outputs": [
        {
          "name": "",
          "type": "bool"
        }
      ],
      "payable": false,
      "stateMutability": "nonpayable",
      "type": "function"
    },
    {
      "constant": true,
      "inputs": [
        {
          "name": "_schema",
          "type": "bytes32"
        },
        {
          "name": "_index",
          "type": "uint256"
        }
      ],
      "name": "listReadUint",
      "outputs": [
        {
          "name": "",
          "type": "uint256"
        }
      ],
      "payable": false,
      "stateMutability": "view",
      "type": "function"
    },
    {
      "constant": false,
      "inputs": [
        {
          "name": "_schema",
          "type": "bytes32"
        },
        {
          "name": "_uint",
          "type": "uint256"
        }
      ],
      "name": "mapDeleteUintToBool",
      "outputs": [
        {
          "name": "",
          "type": "bool"
        }
      ],
      "payable": false,
      "stateMutability": "nonpayable",
      "type": "function"
    },
    {
      "constant": false,
      "inputs": [
        {
          "name": "_schema",
          "type": "bytes32"
        },
        {
          "name": "_bytes32",
          "type": "bytes32"
        },
        {
          "name": "_address",
          "type": "address"
        }
      ],
      "name": "mapCreateBytes32ToAddress",
      "outputs": [
        {
          "name": "",
          "type": "bool"
        }
      ],
      "payable": false,
      "stateMutability": "nonpayable",
      "type": "function"
    },
    {
      "constant": false,
      "inputs": [
        {
          "name": "_schema",
          "type": "bytes32"
        },
        {
          "name": "_bytes32_k",
          "type": "bytes32"
        },
        {
          "name": "_bytes32_v",
          "type": "bytes32"
        }
      ],
      "name": "mapCreateBytes32Tobytes32",
      "outputs": [
        {
          "name": "",
          "type": "bool"
        }
      ],
      "payable": false,
      "stateMutability": "nonpayable",
      "type": "function"
    },
    {
      "constant": false,
      "inputs": [
        {
          "name": "_schema",
          "type": "bytes32"
        },
        {
          "name": "_uint",
          "type": "uint256"
        },
        {
          "name": "_bool",
          "type": "bool"
        }
      ],
      "name": "mapCreateUintToBool",
      "outputs": [
        {
          "name": "",
          "type": "bool"
        }
      ],
      "payable": false,
      "stateMutability": "nonpayable",
      "type": "function"
    },
    {
      "constant": false,
      "inputs": [
        {
          "name": "_schema",
          "type": "bytes32"
        },
        {
          "name": "_uint_k",
          "type": "uint256"
        },
        {
          "name": "_address",
          "type": "address"
        }
      ],
      "name": "mapCreateUintToAddress",
      "outputs": [
        {
          "name": "",
          "type": "bool"
        }
      ],
      "payable": false,
      "stateMutability": "nonpayable",
      "type": "function"
    },
    {
      "constant": false,
      "inputs": [
        {
          "name": "_schema",
          "type": "bytes32"
        },
        {
          "name": "_bytes32",
          "type": "bytes32"
        }
      ],
      "name": "listCreateBytes32",
      "outputs": [
        {
          "name": "",
          "type": "bool"
        }
      ],
      "payable": false,
      "stateMutability": "nonpayable",
      "type": "function"
    },
    {
      "constant": false,
      "inputs": [
        {
          "name": "_schema",
          "type": "bytes32"
        },
        {
          "name": "_uint",
          "type": "uint256"
        },
        {
          "name": "_bytes32",
          "type": "bytes32"
        }
      ],
      "name": "mapCreateUintToBytes32",
      "outputs": [
        {
          "name": "",
          "type": "bool"
        }
      ],
      "payable": false,
      "stateMutability": "nonpayable",
      "type": "function"
    },
    {
      "constant": false,
      "inputs": [
        {
          "name": "_schema",
          "type": "bytes32"
        },
        {
          "name": "_address",
          "type": "address"
        },
        {
          "name": "_uint",
          "type": "uint256"
        }
      ],
      "name": "mapCreateAddressToUint",
      "outputs": [
        {
          "name": "",
          "type": "bool"
        }
      ],
      "payable": false,
      "stateMutability": "nonpayable",
      "type": "function"
    },
    {
      "constant": false,
      "inputs": [
        {
          "name": "_schema",
          "type": "bytes32"
        },
        {
          "name": "_index",
          "type": "uint256"
        },
        {
          "name": "_address",
          "type": "address"
        }
      ],
      "name": "listUpdateAddress",
      "outputs": [
        {
          "name": "",
          "type": "bool"
        }
      ],
      "payable": false,
      "stateMutability": "nonpayable",
      "type": "function"
    },
    {
      "constant": false,
      "inputs": [
        {
          "name": "_schema",
          "type": "bytes32"
        },
        {
          "name": "_index",
          "type": "uint256"
        }
      ],
      "name": "listDeleteUint",
      "outputs": [
        {
          "name": "",
          "type": "bool"
        }
      ],
      "payable": false,
      "stateMutability": "nonpayable",
      "type": "function"
    },
    {
      "constant": false,
      "inputs": [
        {
          "name": "_schema",
          "type": "bytes32"
        },
        {
          "name": "_uint_k",
          "type": "uint256"
        },
        {
          "name": "_uint_v",
          "type": "uint256"
        }
      ],
      "name": "mapSetUintToUint",
      "outputs": [
        {
          "name": "",
          "type": "bool"
        }
      ],
      "payable": false,
      "stateMutability": "nonpayable",
      "type": "function"
    },
    {
      "constant": false,
      "inputs": [
        {
          "name": "_schema",
          "type": "bytes32"
        },
        {
          "name": "_index",
          "type": "uint256"
        }
      ],
      "name": "listDeleteAddress",
      "outputs": [
        {
          "name": "",
          "type": "bool"
        }
      ],
      "payable": false,
      "stateMutability": "nonpayable",
      "type": "function"
    },
    {
      "constant": false,
      "inputs": [
        {
          "name": "_schema",
          "type": "bytes32"
        },
        {
          "name": "_uint",
          "type": "uint256"
        },
        {
          "name": "_bool",
          "type": "bool"
        }
      ],
      "name": "mapUpdateUintToBool",
      "outputs": [
        {
          "name": "",
          "type": "bool"
        }
      ],
      "payable": false,
      "stateMutability": "nonpayable",
      "type": "function"
    },
    {
      "constant": false,
      "inputs": [
        {
          "name": "_schema",
          "type": "bytes32"
        },
        {
          "name": "_bytes32",
          "type": "bytes32"
        },
        {
          "name": "_address",
          "type": "address"
        }
      ],
      "name": "mapSetBytes32ToAddress",
      "outputs": [
        {
          "name": "",
          "type": "bool"
        }
      ],
      "payable": false,
      "stateMutability": "nonpayable",
      "type": "function"
    },
    {
      "constant": true,
      "inputs": [
        {
          "name": "_schema",
          "type": "bytes32"
        },
        {
          "name": "_bytes32",
          "type": "bytes32"
        }
      ],
      "name": "listIndexOfBytes32",
      "outputs": [
        {
          "name": "",
          "type": "uint256"
        }
      ],
      "payable": false,
      "stateMutability": "view",
      "type": "function"
    },
    {
      "constant": false,
      "inputs": [
        {
          "name": "_schema",
          "type": "bytes32"
        },
        {
          "name": "_address",
          "type": "address"
        }
      ],
      "name": "listCreateAddress",
      "outputs": [
        {
          "name": "",
          "type": "bool"
        }
      ],
      "payable": false,
      "stateMutability": "nonpayable",
      "type": "function"
    },
    {
      "constant": false,
      "inputs": [
        {
          "name": "_schema",
          "type": "bytes32"
        },
        {
          "name": "_name",
          "type": "bytes32"
        }
      ],
      "name": "counterGet",
      "outputs": [
        {
          "name": "",
          "type": "uint256"
        }
      ],
      "payable": false,
      "stateMutability": "nonpayable",
      "type": "function"
    },
    {
      "constant": false,
      "inputs": [
        {
          "name": "_schema",
          "type": "bytes32"
        },
        {
          "name": "_bytes32",
          "type": "bytes32"
        },
        {
          "name": "_bool",
          "type": "bool"
        }
      ],
      "name": "mapUpdateBytes32ToBool",
      "outputs": [
        {
          "name": "",
          "type": "bool"
        }
      ],
      "payable": false,
      "stateMutability": "nonpayable",
      "type": "function"
    },
    {
      "constant": true,
      "inputs": [
        {
          "name": "_schema",
          "type": "bytes32"
        },
        {
          "name": "_uint_k",
          "type": "uint256"
        }
      ],
      "name": "mapReadUintToUint",
      "outputs": [
        {
          "name": "",
          "type": "uint256"
        }
      ],
      "payable": false,
      "stateMutability": "view",
      "type": "function"
    },
    {
      "constant": true,
      "inputs": [
        {
          "name": "_schema",
          "type": "bytes32"
        },
        {
          "name": "_index",
          "type": "uint256"
        }
      ],
      "name": "listReadBytes32",
      "outputs": [
        {
          "name": "",
          "type": "bytes32"
        }
      ],
      "payable": false,
      "stateMutability": "view",
      "type": "function"
    },
    {
      "constant": false,
      "inputs": [
        {
          "name": "_schema",
          "type": "bytes32"
        },
        {
          "name": "_uint",
          "type": "uint256"
        }
      ],
      "name": "mapDeleteUintToBytes32",
      "outputs": [
        {
          "name": "",
          "type": "bool"
        }
      ],
      "payable": false,
      "stateMutability": "nonpayable",
      "type": "function"
    },
    {
      "constant": false,
      "inputs": [
        {
          "name": "_schema",
          "type": "bytes32"
        },
        {
          "name": "_uint_k",
          "type": "uint256"
        }
      ],
      "name": "uniqueMapDeleteUintToAddress",
      "outputs": [
        {
          "name": "",
          "type": "bool"
        }
      ],
      "payable": false,
      "stateMutability": "nonpayable",
      "type": "function"
    },
    {
      "constant": true,
      "inputs": [
        {
          "name": "_schema",
          "type": "bytes32"
        },
        {
          "name": "_address",
          "type": "address"
        }
      ],
      "name": "uniqueMapIndexOfUintToAddress",
      "outputs": [
        {
          "name": "",
          "type": "uint256"
        }
      ],
      "payable": false,
      "stateMutability": "view",
      "type": "function"
    },
    {
      "constant": false,
      "inputs": [
        {
          "name": "_schema",
          "type": "bytes32"
        },
        {
          "name": "_index",
          "type": "uint256"
        }
      ],
      "name": "listDeleteBytes32",
      "outputs": [
        {
          "name": "",
          "type": "bool"
        }
      ],
      "payable": false,
      "stateMutability": "nonpayable",
      "type": "function"
    },
    {
      "constant": false,
      "inputs": [
        {
          "name": "_schema",
          "type": "bytes32"
        },
        {
          "name": "_bytes32_k",
          "type": "bytes32"
        }
      ],
      "name": "mapDeleteBytes32Tobytes32",
      "outputs": [
        {
          "name": "",
          "type": "bool"
        }
      ],
      "payable": false,
      "stateMutability": "nonpayable",
      "type": "function"
    },
    {
      "constant": true,
      "inputs": [
        {
          "name": "_schema",
          "type": "bytes32"
        },
        {
          "name": "_uint256",
          "type": "uint256"
        }
      ],
      "name": "listContainsUint",
      "outputs": [
        {
          "name": "",
          "type": "bool"
        }
      ],
      "payable": false,
      "stateMutability": "view",
      "type": "function"
    },
    {
      "constant": true,
      "inputs": [
        {
          "name": "_schema",
          "type": "bytes32"
        },
        {
          "name": "_uint_k",
          "type": "uint256"
        }
      ],
      "name": "uniqueMapReadUintToAddress",
      "outputs": [
        {
          "name": "",
          "type": "address"
        }
      ],
      "payable": false,
      "stateMutability": "view",
      "type": "function"
    },
    {
      "constant": false,
      "inputs": [
        {
          "name": "_schema",
          "type": "bytes32"
        },
        {
          "name": "_uint_k",
          "type": "uint256"
        },
        {
          "name": "_address",
          "type": "address"
        }
      ],
      "name": "mapUpdateUintToAddress",
      "outputs": [
        {
          "name": "",
          "type": "bool"
        }
      ],
      "payable": false,
      "stateMutability": "nonpayable",
      "type": "function"
    },
    {
      "constant": false,
      "inputs": [
        {
          "name": "_schema",
          "type": "bytes32"
        },
        {
          "name": "_uint_k",
          "type": "uint256"
        },
        {
          "name": "_uint_v",
          "type": "uint256"
        }
      ],
      "name": "mapCreateUintToUint",
      "outputs": [
        {
          "name": "",
          "type": "bool"
        }
      ],
      "payable": false,
      "stateMutability": "nonpayable",
      "type": "function"
    },
    {
      "constant": false,
      "inputs": [
        {
          "name": "_schema",
          "type": "bytes32"
        },
        {
          "name": "_index",
          "type": "uint256"
        },
        {
          "name": "_uint256",
          "type": "uint256"
        }
      ],
      "name": "listUpdateUint",
      "outputs": [
        {
          "name": "",
          "type": "bool"
        }
      ],
      "payable": false,
      "stateMutability": "nonpayable",
      "type": "function"
    },
    {
      "constant": false,
      "inputs": [
        {
          "name": "_schema",
          "type": "bytes32"
        },
        {
          "name": "_bytes32",
          "type": "bytes32"
        }
      ],
      "name": "mapDeleteBytes32ToBool",
      "outputs": [
        {
          "name": "",
          "type": "bool"
        }
      ],
      "payable": false,
      "stateMutability": "nonpayable",
      "type": "function"
    },
    {
      "constant": true,
      "inputs": [
        {
          "name": "_schema",
          "type": "bytes32"
        },
        {
          "name": "_bytes32",
          "type": "bytes32"
        }
      ],
      "name": "mapReadBytes32ToUint",
      "outputs": [
        {
          "name": "",
          "type": "uint256"
        }
      ],
      "payable": false,
      "stateMutability": "view",
      "type": "function"
    },
    {
      "constant": false,
      "inputs": [
        {
          "name": "_schema",
          "type": "bytes32"
        },
        {
          "name": "_bytes32",
          "type": "bytes32"
        },
        {
          "name": "_uint",
          "type": "uint256"
        }
      ],
      "name": "mapCreateBytes32ToUint",
      "outputs": [
        {
          "name": "",
          "type": "bool"
        }
      ],
      "payable": false,
      "stateMutability": "nonpayable",
      "type": "function"
    },
    {
      "constant": false,
      "inputs": [
        {
          "name": "_schema",
          "type": "bytes32"
        },
        {
          "name": "_uint_k",
          "type": "uint256"
        },
        {
          "name": "_address",
          "type": "address"
        }
      ],
      "name": "uniqueMapCreateUintToAddress",
      "outputs": [
        {
          "name": "",
          "type": "bool"
        }
      ],
      "payable": false,
      "stateMutability": "nonpayable",
      "type": "function"
    },
    {
      "constant": false,
      "inputs": [
        {
          "name": "_schema",
          "type": "bytes32"
        },
        {
          "name": "_bytes32",
          "type": "bytes32"
        },
        {
          "name": "_bool",
          "type": "bool"
        }
      ],
      "name": "mapCreateBytes32ToBool",
      "outputs": [
        {
          "name": "",
          "type": "bool"
        }
      ],
      "payable": false,
      "stateMutability": "nonpayable",
      "type": "function"
    },
    {
      "constant": true,
      "inputs": [
        {
          "name": "_schema",
          "type": "bytes32"
        },
        {
          "name": "_index",
          "type": "uint256"
        }
      ],
      "name": "listReadAddress",
      "outputs": [
        {
          "name": "",
          "type": "address"
        }
      ],
      "payable": false,
      "stateMutability": "view",
      "type": "function"
    },
    {
      "constant": true,
      "inputs": [
        {
          "name": "_schema",
          "type": "bytes32"
        },
        {
          "name": "_uint",
          "type": "uint256"
        }
      ],
      "name": "mapReadUintToBool",
      "outputs": [
        {
          "name": "",
          "type": "bool"
        }
      ],
      "payable": false,
      "stateMutability": "view",
      "type": "function"
    },
    {
      "constant": true,
      "inputs": [
        {
          "name": "_schema",
          "type": "bytes32"
        }
      ],
      "name": "listCountBytes32",
      "outputs": [
        {
          "name": "",
          "type": "uint256"
        }
      ],
      "payable": false,
      "stateMutability": "view",
      "type": "function"
    },
    {
      "constant": false,
      "inputs": [
        {
          "name": "_schema",
          "type": "bytes32"
        },
        {
          "name": "_address",
          "type": "address"
        }
      ],
      "name": "mapDeleteAddressToUint",
      "outputs": [
        {
          "name": "",
          "type": "bool"
        }
      ],
      "payable": false,
      "stateMutability": "nonpayable",
      "type": "function"
    },
    {
      "constant": false,
      "inputs": [
        {
          "name": "_schema",
          "type": "bytes32"
        },
        {
          "name": "_uint",
          "type": "uint256"
        },
        {
          "name": "_bytes32",
          "type": "bytes32"
        }
      ],
      "name": "mapSetUintToBytes32",
      "outputs": [
        {
          "name": "",
          "type": "bool"
        }
      ],
      "payable": false,
      "stateMutability": "nonpayable",
      "type": "function"
    }
  ],
  "bytecode": "0x6060604052341561000f57600080fd5b614e648061001e6000396000f300606060405260043610610359576000357c0100000000000000000000000000000000000000000000000000000000900463ffffffff1680630415c0881461035e57806308d4c24d146103c557806316bb2ec6146104115780631846ca8a1461047857806321227871146104cb578063263bc72914610532578063316aa06a1461057657806333964378146105dd57806334dca35d1461062e57806339a72bc0146106695780633a8c48de146106be5780633b600b641461070a5780633da70b3d146107645780633ed82f34146107b057806340562ef4146107f857806345147cde1461086857806345f859a5146108bd5780634967afbe146109055780634bac53531461094d5780634cc5c8a21461098857806350fa7e7d146109dd578063540ebaae14610a255780635480573d14610a7a5780635c0c4f8114610aee5780635eb834a114610b3a5780635ebf200c14610b8a57806363659f9d14610bf557806367f16e4214610c4e5780636f946de114610cb557806374faccd314610cfd578063756821a414610d5757806376d8e8ee14610db0578063778c997c14610e07578063790eab8614610e4b57806379311cc314610e935780637bcddbcd14610efe5780637e868a9c14610f575780637ed49c0d14610faa5780637fa92e0d14611011578063827c912c1461105d5780638344d6a3146110b257806386d7df821461111957806388c213ea146111805780638dc21218146111c85780638ec0671b1461121957806391664baf14611261578063923dec9a146112b457806393ec5bf21461131f57806394ec78571461136757806396be894f146113c55780639d8288c61461140d5780639e4b31be14611464578063a036d52d146114a8578063aa99290d146114f4578063aaaed1201461153c578063b3c7eebd14611584578063b6a73c81146115de578063b7e7780f14611626578063c37ca47d14611672578063c48d674c146116ba578063d51978381461172a578063d719e1d214611791578063dbe9c3c9146117e2578063dd237f1f14611833578063dd31acf81461187f578063dec8996b146118c7578063e5e170601461191c578063eb344de414611983578063ef8dc5d7146119da578063f02b27c114611a4a578063f1b519fd14611a92578063f57e4eb314611acd578063fe7735b514611b2b575b600080fd5b341561036957600080fd5b6103ab60048080356000191690602001909190803573ffffffffffffffffffffffffffffffffffffffff16906020019091908035906020019091905050611b80565b604051808215151515815260200191505060405180910390f35b34156103d057600080fd5b6103f3600480803560001916906020019091908035906020019091905050611bea565b60405180826000191660001916815260200191505060405180910390f35b341561041c57600080fd5b61045e60048080356000191690602001909190803573ffffffffffffffffffffffffffffffffffffffff16906020019091908035906020019091905050611c21565b604051808215151515815260200191505060405180910390f35b341561048357600080fd5b6104b16004808035600019169060200190919080359060200190919080351515906020019091905050611cf2565b604051808215151515815260200191505060405180910390f35b34156104d657600080fd5b61051860048080356000191690602001909190803590602001909190803573ffffffffffffffffffffffffffffffffffffffff16906020019091905050611d43565b604051808215151515815260200191505060405180910390f35b341561053d57600080fd5b610560600480803560001916906020019091908035906020019091905050611dbb565b6040518082815260200191505060405180910390f35b341561058157600080fd5b6105c360048080356000191690602001909190803590602001909190803573ffffffffffffffffffffffffffffffffffffffff16906020019091905050611df2565b604051808215151515815260200191505060405180910390f35b34156105e857600080fd5b610614600480803560001916906020019091908035906020019091908035906020019091905050611f2d565b604051808215151515815260200191505060405180910390f35b341561063957600080fd5b610653600480803560001916906020019091905050611fa6565b6040518082815260200191505060405180910390f35b341561067457600080fd5b6106a460048080356000191690602001909190803590602001909190803560001916906020019091905050611fcb565b604051808215151515815260200191505060405180910390f35b34156106c957600080fd5b6106f060048080356000191690602001909190803560001916906020019091905050612053565b604051808215151515815260200191505060405180910390f35b341561071557600080fd5b61074e60048080356000191690602001909190803573ffffffffffffffffffffffffffffffffffffffff169060200190919050506120da565b6040518082815260200191505060405180910390f35b341561076f57600080fd5b6107966004808035600019169060200190919080356000191690602001909190505061213d565b604051808215151515815260200191505060405180910390f35b34156107bb57600080fd5b6107e26004808035600019169060200190919080356000191690602001909190505061222f565b6040518082815260200191505060405180910390f35b341561080357600080fd5b61082660048080356000191690602001909190803590602001909190505061226e565b604051808273ffffffffffffffffffffffffffffffffffffffff1673ffffffffffffffffffffffffffffffffffffffff16815260200191505060405180910390f35b341561087357600080fd5b6108a3600480803560001916906020019091908035600019169060200190919080359060200190919050506122c5565b604051808215151515815260200191505060405180910390f35b34156108c857600080fd5b6108eb60048080356000191690602001909190803590602001909190505061230b565b604051808215151515815260200191505060405180910390f35b341561091057600080fd5b61093360048080356000191690602001909190803590602001909190505061242c565b604051808215151515815260200191505060405180910390f35b341561095857600080fd5b6109726004808035600019169060200190919050506124a3565b6040518082815260200191505060405180910390f35b341561099357600080fd5b6109c3600480803560001916906020019091908035600019169060200190919080359060200190919050506124c8565b604051808215151515815260200191505060405180910390f35b34156109e857600080fd5b610a0b600480803560001916906020019091908035906020019091905050612551565b604051808215151515815260200191505060405180910390f35b3415610a3057600080fd5b610a6060048080356000191690602001909190803590602001909190803560001916906020019091905050612633565b604051808215151515815260200191505060405180910390f35b3415610a8557600080fd5b610aac6004808035600019169060200190919080356000191690602001909190505061277e565b604051808273ffffffffffffffffffffffffffffffffffffffff1673ffffffffffffffffffffffffffffffffffffffff16815260200191505060405180910390f35b3415610af957600080fd5b610b20600480803560001916906020019091908035600019169060200190919050506127dd565b604051808215151515815260200191505060405180910390f35b3415610b4557600080fd5b610b6c60048080356000191690602001909190803560001916906020019091905050612829565b60405180826000191660001916815260200191505060405180910390f35b3415610b9557600080fd5b610bdb6004808035600019169060200190919080356000191690602001909190803573ffffffffffffffffffffffffffffffffffffffff16906020019091905050612868565b604051808215151515815260200191505060405180910390f35b3415610c0057600080fd5b610c346004808035600019169060200190919080356000191690602001909190803560001916906020019091905050612977565b604051808215151515815260200191505060405180910390f35b3415610c5957600080fd5b610c9b60048080356000191690602001909190803590602001909190803573ffffffffffffffffffffffffffffffffffffffff16906020019091905050612a0f565b604051808215151515815260200191505060405180910390f35b3415610cc057600080fd5b610ce3600480803560001916906020019091908035906020019091905050612b99565b604051808215151515815260200191505060405180910390f35b3415610d0857600080fd5b610d4160048080356000191690602001909190803573ffffffffffffffffffffffffffffffffffffffff16906020019091905050612bd3565b6040518082815260200191505060405180910390f35b3415610d6257600080fd5b610d966004808035600019169060200190919080356000191690602001909190803560001916906020019091905050612c36565b604051808215151515815260200191505060405180910390f35b3415610dbb57600080fd5b610ded600480803560001916906020019091908035600019169060200190919080351515906020019091905050612c80565b604051808215151515815260200191505060405180910390f35b3415610e1257600080fd5b610e35600480803560001916906020019091908035906020019091905050612cd9565b6040518082815260200191505060405180910390f35b3415610e5657600080fd5b610e79600480803560001916906020019091908035906020019091905050612d10565b604051808215151515815260200191505060405180910390f35b3415610e9e57600080fd5b610ee46004808035600019169060200190919080356000191690602001909190803573ffffffffffffffffffffffffffffffffffffffff16906020019091905050612da4565b604051808215151515815260200191505060405180910390f35b3415610f0957600080fd5b610f3d6004808035600019169060200190919080356000191690602001909190803560001916906020019091905050612eb2565b604051808215151515815260200191505060405180910390f35b3415610f6257600080fd5b610f906004808035600019169060200190919080359060200190919080351515906020019091905050612f49565b604051808215151515815260200191505060405180910390f35b3415610fb557600080fd5b610ff760048080356000191690602001909190803590602001909190803573ffffffffffffffffffffffffffffffffffffffff16906020019091905050612fe5565b604051808215151515815260200191505060405180910390f35b341561101c57600080fd5b611043600480803560001916906020019091908035600019169060200190919050506130e3565b604051808215151515815260200191505060405180910390f35b341561106857600080fd5b61109860048080356000191690602001909190803590602001909190803560001916906020019091905050613218565b604051808215151515815260200191505060405180910390f35b34156110bd57600080fd5b6110ff60048080356000191690602001909190803573ffffffffffffffffffffffffffffffffffffffff1690602001909190803590602001909190505061329f565b604051808215151515815260200191505060405180910390f35b341561112457600080fd5b61116660048080356000191690602001909190803590602001909190803573ffffffffffffffffffffffffffffffffffffffff1690602001909190505061336f565b604051808215151515815260200191505060405180910390f35b341561118b57600080fd5b6111ae60048080356000191690602001909190803590602001909190505061357a565b604051808215151515815260200191505060405180910390f35b34156111d357600080fd5b6111ff6004808035600019169060200190919080359060200190919080359060200190919050506137b9565b604051808215151515815260200191505060405180910390f35b341561122457600080fd5b6112476004808035600019169060200190919080359060200190919050506137f7565b604051808215151515815260200191505060405180910390f35b341561126c57600080fd5b61129a6004808035600019169060200190919080359060200190919080351515906020019091905050613b42565b604051808215151515815260200191505060405180910390f35b34156112bf57600080fd5b6113056004808035600019169060200190919080356000191690602001909190803573ffffffffffffffffffffffffffffffffffffffff16906020019091905050613bdf565b604051808215151515815260200191505060405180910390f35b341561132a57600080fd5b61135160048080356000191690602001909190803560001916906020019091905050613c5f565b6040518082815260200191505060405180910390f35b341561137257600080fd5b6113ab60048080356000191690602001909190803573ffffffffffffffffffffffffffffffffffffffff16906020019091905050613c9e565b604051808215151515815260200191505060405180910390f35b34156113d057600080fd5b6113f760048080356000191690602001909190803560001916906020019091905050613e50565b6040518082815260200191505060405180910390f35b341561141857600080fd5b61144a600480803560001916906020019091908035600019169060200190919080351515906020019091905050613f04565b604051808215151515815260200191505060405180910390f35b341561146f57600080fd5b611492600480803560001916906020019091908035906020019091905050613fb1565b6040518082815260200191505060405180910390f35b34156114b357600080fd5b6114d6600480803560001916906020019091908035906020019091905050613fe8565b60405180826000191660001916815260200191505060405180910390f35b34156114ff57600080fd5b61152260048080356000191690602001909190803590602001909190505061401f565b604051808215151515815260200191505060405180910390f35b341561154757600080fd5b61156a6004808035600019169060200190919080359060200190919050506140a1565b604051808215151515815260200191505060405180910390f35b341561158f57600080fd5b6115c860048080356000191690602001909190803573ffffffffffffffffffffffffffffffffffffffff169060200190919050506141e6565b6040518082815260200191505060405180910390f35b34156115e957600080fd5b61160c600480803560001916906020019091908035906020019091905050614249565b604051808215151515815260200191505060405180910390f35b341561163157600080fd5b6116586004808035600019169060200190919080356000191690602001909190505061449c565b604051808215151515815260200191505060405180910390f35b341561167d57600080fd5b6116a060048080356000191690602001909190803590602001909190505061452e565b604051808215151515815260200191505060405180910390f35b34156116c557600080fd5b6116e8600480803560001916906020019091908035906020019091905050614579565b604051808273ffffffffffffffffffffffffffffffffffffffff1673ffffffffffffffffffffffffffffffffffffffff16815260200191505060405180910390f35b341561173557600080fd5b61177760048080356000191690602001909190803590602001909190803573ffffffffffffffffffffffffffffffffffffffff169060200190919050506145cf565b604051808215151515815260200191505060405180910390f35b341561179c57600080fd5b6117c86004808035600019169060200190919080359060200190919080359060200190919050506146ce565b604051808215151515815260200191505060405180910390f35b34156117ed57600080fd5b611819600480803560001916906020019091908035906020019091908035906020019091905050614746565b604051808215151515815260200191505060405180910390f35b341561183e57600080fd5b61186560048080356000191690602001909190803560001916906020019091905050614875565b604051808215151515815260200191505060405180910390f35b341561188a57600080fd5b6118b160048080356000191690602001909190803560001916906020019091905050614919565b6040518082815260200191505060405180910390f35b34156118d257600080fd5b61190260048080356000191690602001909190803560001916906020019091908035906020019091905050614958565b604051808215151515815260200191505060405180910390f35b341561192757600080fd5b61196960048080356000191690602001909190803590602001909190803573ffffffffffffffffffffffffffffffffffffffff169060200190919050506149e0565b604051808215151515815260200191505060405180910390f35b341561198e57600080fd5b6119c0600480803560001916906020019091908035600019169060200190919080351515906020019091905050614b5d565b604051808215151515815260200191505060405180910390f35b34156119e557600080fd5b611a08600480803560001916906020019091908035906020019091905050614c09565b604051808273ffffffffffffffffffffffffffffffffffffffff1673ffffffffffffffffffffffffffffffffffffffff16815260200191505060405180910390f35b3415611a5557600080fd5b611a78600480803560001916906020019091908035906020019091905050614c5f565b604051808215151515815260200191505060405180910390f35b3415611a9d57600080fd5b611ab7600480803560001916906020019091905050614ca3565b6040518082815260200191505060405180910390f35b3415611ad857600080fd5b611b1160048080356000191690602001909190803573ffffffffffffffffffffffffffffffffffffffff16906020019091905050614cc8565b604051808215151515815260200191505060405180910390f35b3415611b3657600080fd5b611b6660048080356000191690602001909190803590602001909190803560001916906020019091905050614d97565b604051808215151515815260200191505060405180910390f35b600081600a6000866000191660001916815260200190815260200160002060008573ffffffffffffffffffffffffffffffffffffffff1673ffffffffffffffffffffffffffffffffffffffff16815260200190815260200160002081905550600190509392505050565b6000600e60008460001916600019168152602001908152602001600020600083815260200190815260200160002054905092915050565b600080600a6000866000191660001916815260200190815260200160002060008573ffffffffffffffffffffffffffffffffffffffff1673ffffffffffffffffffffffffffffffffffffffff1681526020019081526020016000205414151515611c8a57600080fd5b81600a6000866000191660001916815260200190815260200160002060008573ffffffffffffffffffffffffffffffffffffffff1673ffffffffffffffffffffffffffffffffffffffff16815260200190815260200160002081905550600190509392505050565b600081600f60008660001916600019168152602001908152602001600020600085815260200190815260200160002060006101000a81548160ff021916908315150217905550600190509392505050565b600081601160008660001916600019168152602001908152602001600020600085815260200190815260200160002060006101000a81548173ffffffffffffffffffffffffffffffffffffffff021916908373ffffffffffffffffffffffffffffffffffffffff160217905550600190509392505050565b6000600560008460001916600019168152602001908152602001600020600083815260200190815260200160002054905092915050565b60008060026000866000191660001916815260200190815260200160002060008473ffffffffffffffffffffffffffffffffffffffff1673ffffffffffffffffffffffffffffffffffffffff1681526020019081526020016000205414151515611e5b57600080fd5b816000808660001916600019168152602001908152602001600020600085815260200190815260200160002060006101000a81548173ffffffffffffffffffffffffffffffffffffffff021916908373ffffffffffffffffffffffffffffffffffffffff1602179055508260026000866000191660001916815260200190815260200160002060008473ffffffffffffffffffffffffffffffffffffffff1673ffffffffffffffffffffffffffffffffffffffff16815260200190815260200160002081905550600190509392505050565b60008060106000866000191660001916815260200190815260200160002060008581526020019081526020016000205414151515611f6a57600080fd5b81601060008660001916600019168152602001908152602001600020600085815260200190815260200160002081905550600190509392505050565b6000600460008360001916600019168152602001908152602001600020549050919050565b60008060010260001916600e60008660001916600019168152602001908152602001600020600085815260200190815260200160002054600019161415151561201357600080fd5b81600e6000866000191660001916815260200190815260200160002060008581526020019081526020016000208160001916905550600190509392505050565b600080600b6000856000191660001916815260200190815260200160002060008460001916600019168152602001908152602001600020541415151561209857600080fd5b600b6000846000191660001916815260200190815260200160002060008360001916600019168152602001908152602001600020600090556001905092915050565b6000600a6000846000191660001916815260200190815260200160002060008373ffffffffffffffffffffffffffffffffffffffff1673ffffffffffffffffffffffffffffffffffffffff16815260200190815260200160002054905092915050565b60008073ffffffffffffffffffffffffffffffffffffffff166009600085600019166000191681526020019081526020016000206000846000191660001916815260200190815260200160002060009054906101000a900473ffffffffffffffffffffffffffffffffffffffff1673ffffffffffffffffffffffffffffffffffffffff16141515156121ce57600080fd5b6009600084600019166000191681526020019081526020016000206000836000191660001916815260200190815260200160002060006101000a81549073ffffffffffffffffffffffffffffffffffffffff02191690556001905092915050565b6000600b600084600019166000191681526020019081526020016000206000836000191660001916815260200190815260200160002054905092915050565b6000601160008460001916600019168152602001908152602001600020600083815260200190815260200160002060009054906101000a900473ffffffffffffffffffffffffffffffffffffffff16905092915050565b600081600b600086600019166000191681526020019081526020016000206000856000191660001916815260200190815260200160002081905550600190509392505050565b60008060056000856000191660001916815260200190815260200160002060008481526020019081526020016000205414151561234757600080fd5b61236b60046000856000191660001916815260200190815260200160002054614dd9565b6004600085600019166000191681526020019081526020016000208190555081600360008560001916600019168152602001908152602001600020600060046000876000191660001916815260200190815260200160002054815260200190815260200160002081905550600460008460001916600019168152602001908152602001600020546005600085600019166000191681526020019081526020016000206000848152602001908152602001600020819055506001905092915050565b6000806010600085600019166000191681526020019081526020016000206000848152602001908152602001600020541415151561246957600080fd5b6010600084600019166000191681526020019081526020016000206000838152602001908152602001600020600090556001905092915050565b6000600160008360001916600019168152602001908152602001600020549050919050565b600080600b6000866000191660001916815260200190815260200160002060008560001916600019168152602001908152602001600020541415151561250d57600080fd5b81600b600086600019166000191681526020019081526020016000206000856000191660001916815260200190815260200160002081905550600190509392505050565b60008073ffffffffffffffffffffffffffffffffffffffff16601160008560001916600019168152602001908152602001600020600084815260200190815260200160002060009054906101000a900473ffffffffffffffffffffffffffffffffffffffff1673ffffffffffffffffffffffffffffffffffffffff16141515156125da57600080fd5b601160008460001916600019168152602001908152602001600020600083815260200190815260200160002060006101000a81549073ffffffffffffffffffffffffffffffffffffffff02191690556001905092915050565b600080600860008660001916600019168152602001908152602001600020600084600019166000191681526020019081526020016000205414151561267757600080fd5b6007600085600019166000191681526020019081526020016000205483111515156126a157600080fd5b600860008560001916600019168152602001908152602001600020600060066000876000191660001916815260200190815260200160002060008681526020019081526020016000205460001916600019168152602001908152602001600020600090558160066000866000191660001916815260200190815260200160002060008581526020019081526020016000208160001916905550826008600086600019166000191681526020019081526020016000206000846000191660001916815260200190815260200160002081905550600190509392505050565b60006009600084600019166000191681526020019081526020016000206000836000191660001916815260200190815260200160002060009054906101000a900473ffffffffffffffffffffffffffffffffffffffff16905092915050565b6000600c600084600019166000191681526020019081526020016000206000836000191660001916815260200190815260200160002060009054906101000a900460ff16905092915050565b6000600d600084600019166000191681526020019081526020016000206000836000191660001916815260200190815260200160002054905092915050565b60008073ffffffffffffffffffffffffffffffffffffffff166009600086600019166000191681526020019081526020016000206000856000191660001916815260200190815260200160002060009054906101000a900473ffffffffffffffffffffffffffffffffffffffff1673ffffffffffffffffffffffffffffffffffffffff16141515156128f957600080fd5b816009600086600019166000191681526020019081526020016000206000856000191660001916815260200190815260200160002060006101000a81548173ffffffffffffffffffffffffffffffffffffffff021916908373ffffffffffffffffffffffffffffffffffffffff160217905550600190509392505050565b60008060010260001916600d60008660001916600019168152602001908152602001600020600085600019166000191681526020019081526020016000205460001916141515156129c757600080fd5b81600d60008660001916600019168152602001908152602001600020600085600019166000191681526020019081526020016000208160001916905550600190509392505050565b60008060009050600060026000876000191660001916815260200190815260200160002060008573ffffffffffffffffffffffffffffffffffffffff1673ffffffffffffffffffffffffffffffffffffffff168152602001908152602001600020541415612a7c57600190505b826000808760001916600019168152602001908152602001600020600086815260200190815260200160002060006101000a81548173ffffffffffffffffffffffffffffffffffffffff021916908373ffffffffffffffffffffffffffffffffffffffff1602179055508360026000876000191660001916815260200190815260200160002060008573ffffffffffffffffffffffffffffffffffffffff1673ffffffffffffffffffffffffffffffffffffffff168152602001908152602001600020819055508015612b8d57612b6d60016000876000191660001916815260200190815260200160002054614dd9565b600160008760001916600019168152602001908152602001600020819055505b60019150509392505050565b60006007600084600019166000191681526020019081526020016000205482111515612bc85760019050612bcd565b600090505b92915050565b600060026000846000191660001916815260200190815260200160002060008373ffffffffffffffffffffffffffffffffffffffff1673ffffffffffffffffffffffffffffffffffffffff16815260200190815260200160002054905092915050565b600081600d60008660001916600019168152602001908152602001600020600085600019166000191681526020019081526020016000208160001916905550600190509392505050565b600081600c600086600019166000191681526020019081526020016000206000856000191660001916815260200190815260200160002060006101000a81548160ff021916908315150217905550600190509392505050565b6000600360008460001916600019168152602001908152602001600020600083815260200190815260200160002054905092915050565b6000801515600f60008560001916600019168152602001908152602001600020600084815260200190815260200160002060009054906101000a900460ff16151514151515612d5e57600080fd5b600f60008460001916600019168152602001908152602001600020600083815260200190815260200160002060006101000a81549060ff02191690556001905092915050565b60008073ffffffffffffffffffffffffffffffffffffffff166009600086600019166000191681526020019081526020016000206000856000191660001916815260200190815260200160002060009054906101000a900473ffffffffffffffffffffffffffffffffffffffff1673ffffffffffffffffffffffffffffffffffffffff16141515612e3457600080fd5b816009600086600019166000191681526020019081526020016000206000856000191660001916815260200190815260200160002060006101000a81548173ffffffffffffffffffffffffffffffffffffffff021916908373ffffffffffffffffffffffffffffffffffffffff160217905550600190509392505050565b60008060010260001916600d60008660001916600019168152602001908152602001600020600085600019166000191681526020019081526020016000205460001916141515612f0157600080fd5b81600d60008660001916600019168152602001908152602001600020600085600019166000191681526020019081526020016000208160001916905550600190509392505050565b6000801515600f60008660001916600019168152602001908152602001600020600085815260200190815260200160002060009054906101000a900460ff161515141515612f9657600080fd5b81600f60008660001916600019168152602001908152602001600020600085815260200190815260200160002060006101000a81548160ff021916908315150217905550600190509392505050565b60008073ffffffffffffffffffffffffffffffffffffffff16601160008660001916600019168152602001908152602001600020600085815260200190815260200160002060009054906101000a900473ffffffffffffffffffffffffffffffffffffffff1673ffffffffffffffffffffffffffffffffffffffff1614151561306d57600080fd5b81601160008660001916600019168152602001908152602001600020600085815260200190815260200160002060006101000a81548173ffffffffffffffffffffffffffffffffffffffff021916908373ffffffffffffffffffffffffffffffffffffffff160217905550600190509392505050565b600080600860008560001916600019168152602001908152602001600020600084600019166000191681526020019081526020016000205414151561312757600080fd5b61314b60076000856000191660001916815260200190815260200160002054614dd9565b6007600085600019166000191681526020019081526020016000208190555081600660008560001916600019168152602001908152602001600020600060076000876000191660001916815260200190815260200160002054815260200190815260200160002081600019169055506007600084600019166000191681526020019081526020016000205460086000856000191660001916815260200190815260200160002060008460001916600019168152602001908152602001600020819055506001905092915050565b60008060010260001916600e600086600019166000191681526020019081526020016000206000858152602001908152602001600020546000191614151561325f57600080fd5b81600e6000866000191660001916815260200190815260200160002060008581526020019081526020016000208160001916905550600190509392505050565b600080600a6000866000191660001916815260200190815260200160002060008573ffffffffffffffffffffffffffffffffffffffff1673ffffffffffffffffffffffffffffffffffffffff1681526020019081526020016000205414151561330757600080fd5b81600a6000866000191660001916815260200190815260200160002060008573ffffffffffffffffffffffffffffffffffffffff1673ffffffffffffffffffffffffffffffffffffffff16815260200190815260200160002081905550600190509392505050565b60008060026000866000191660001916815260200190815260200160002060008473ffffffffffffffffffffffffffffffffffffffff1673ffffffffffffffffffffffffffffffffffffffff168152602001908152602001600020541415156133d757600080fd5b60016000856000191660001916815260200190815260200160002054831115151561340157600080fd5b60026000856000191660001916815260200190815260200160002060008060008760001916600019168152602001908152602001600020600086815260200190815260200160002060009054906101000a900473ffffffffffffffffffffffffffffffffffffffff1673ffffffffffffffffffffffffffffffffffffffff1673ffffffffffffffffffffffffffffffffffffffff16815260200190815260200160002060009055816000808660001916600019168152602001908152602001600020600085815260200190815260200160002060006101000a81548173ffffffffffffffffffffffffffffffffffffffff021916908373ffffffffffffffffffffffffffffffffffffffff1602179055508260026000866000191660001916815260200190815260200160002060008473ffffffffffffffffffffffffffffffffffffffff1673ffffffffffffffffffffffffffffffffffffffff16815260200190815260200160002081905550600190509392505050565b6000806000600460008660001916600019168152602001908152602001600020541115156135a757600080fd5b6004600085600019166000191681526020019081526020016000205483111515156135d157600080fd5b60036000856000191660001916815260200190815260200160002060008481526020019081526020016000205490508260056000866000191660001916815260200190815260200160002060006003600088600019166000191681526020019081526020016000206000600460008a600019166000191681526020019081526020016000205481526020019081526020016000205481526020019081526020016000208190555060056000856000191660001916815260200190815260200160002060008281526020019081526020016000206000905560036000856000191660001916815260200190815260200160002060006004600087600019166000191681526020019081526020016000205481526020019081526020016000205460036000866000191660001916815260200190815260200160002060008581526020019081526020016000208190555060036000856000191660001916815260200190815260200160002060006004600087600019166000191681526020019081526020016000205481526020019081526020016000206000905561378f60046000866000191660001916815260200190815260200160002054614ded565b60046000866000191660001916815260200190815260200160002081905550600191505092915050565b600081601060008660001916600019168152602001908152602001600020600085815260200190815260200160002081905550600190509392505050565b60008060006001600086600019166000191681526020019081526020016000205411151561382457600080fd5b60016000856000191660001916815260200190815260200160002054831115151561384e57600080fd5b6000808560001916600019168152602001908152602001600020600084815260200190815260200160002060009054906101000a900473ffffffffffffffffffffffffffffffffffffffff16905082600260008660001916600019168152602001908152602001600020600080600088600019166000191681526020019081526020016000206000600160008a6000191660001916815260200190815260200160002054815260200190815260200160002060009054906101000a900473ffffffffffffffffffffffffffffffffffffffff1673ffffffffffffffffffffffffffffffffffffffff1673ffffffffffffffffffffffffffffffffffffffff1681526020019081526020016000208190555060026000856000191660001916815260200190815260200160002060008273ffffffffffffffffffffffffffffffffffffffff1673ffffffffffffffffffffffffffffffffffffffff168152602001908152602001600020600090556000808560001916600019168152602001908152602001600020600060016000876000191660001916815260200190815260200160002054815260200190815260200160002060009054906101000a900473ffffffffffffffffffffffffffffffffffffffff166000808660001916600019168152602001908152602001600020600085815260200190815260200160002060006101000a81548173ffffffffffffffffffffffffffffffffffffffff021916908373ffffffffffffffffffffffffffffffffffffffff1602179055506000808560001916600019168152602001908152602001600020600060016000876000191660001916815260200190815260200160002054815260200190815260200160002060006101000a81549073ffffffffffffffffffffffffffffffffffffffff0219169055613b1860016000866000191660001916815260200190815260200160002054614ded565b60016000866000191660001916815260200190815260200160002081905550600191505092915050565b6000801515600f60008660001916600019168152602001908152602001600020600085815260200190815260200160002060009054906101000a900460ff16151514151515613b9057600080fd5b81600f60008660001916600019168152602001908152602001600020600085815260200190815260200160002060006101000a81548160ff021916908315150217905550600190509392505050565b6000816009600086600019166000191681526020019081526020016000206000856000191660001916815260200190815260200160002060006101000a81548173ffffffffffffffffffffffffffffffffffffffff021916908373ffffffffffffffffffffffffffffffffffffffff160217905550600190509392505050565b60006008600084600019166000191681526020019081526020016000206000836000191660001916815260200190815260200160002054905092915050565b60008060026000856000191660001916815260200190815260200160002060008473ffffffffffffffffffffffffffffffffffffffff1673ffffffffffffffffffffffffffffffffffffffff16815260200190815260200160002054141515613d0657600080fd5b613d2a60016000856000191660001916815260200190815260200160002054614dd9565b60016000856000191660001916815260200190815260200160002081905550816000808560001916600019168152602001908152602001600020600060016000876000191660001916815260200190815260200160002054815260200190815260200160002060006101000a81548173ffffffffffffffffffffffffffffffffffffffff021916908373ffffffffffffffffffffffffffffffffffffffff1602179055506001600084600019166000191681526020019081526020016000205460026000856000191660001916815260200190815260200160002060008473ffffffffffffffffffffffffffffffffffffffff1673ffffffffffffffffffffffffffffffffffffffff168152602001908152602001600020819055506001905092915050565b6000613e8f600b600085600019166000191681526020019081526020016000206000846000191660001916815260200190815260200160002054614dd9565b600b600085600019166000191681526020019081526020016000206000846000191660001916815260200190815260200160002081905550600b600084600019166000191681526020019081526020016000206000836000191660001916815260200190815260200160002054905092915050565b6000801515600c600086600019166000191681526020019081526020016000206000856000191660001916815260200190815260200160002060009054906101000a900460ff16151514151515613f5a57600080fd5b81600c600086600019166000191681526020019081526020016000206000856000191660001916815260200190815260200160002060006101000a81548160ff021916908315150217905550600190509392505050565b6000601060008460001916600019168152602001908152602001600020600083815260200190815260200160002054905092915050565b6000600660008460001916600019168152602001908152602001600020600083815260200190815260200160002054905092915050565b60008060010260001916600e60008560001916600019168152602001908152602001600020600084815260200190815260200160002054600019161415151561406757600080fd5b600e600084600019166000191681526020019081526020016000206000838152602001908152602001600020600090556001905092915050565b60008073ffffffffffffffffffffffffffffffffffffffff166140c48484614579565b73ffffffffffffffffffffffffffffffffffffffff1614156140e957600190506141e0565b60026000846000191660001916815260200190815260200160002060006141108585614579565b73ffffffffffffffffffffffffffffffffffffffff1673ffffffffffffffffffffffffffffffffffffffff168152602001908152602001600020600090556000808460001916600019168152602001908152602001600020600083815260200190815260200160002060006101000a81549073ffffffffffffffffffffffffffffffffffffffff02191690556141c060016000856000191660001916815260200190815260200160002054614ded565b600160008560001916600019168152602001908152602001600020819055505b92915050565b600060026000846000191660001916815260200190815260200160002060008373ffffffffffffffffffffffffffffffffffffffff1673ffffffffffffffffffffffffffffffffffffffff16815260200190815260200160002054905092915050565b60008060006007600086600019166000191681526020019081526020016000205411151561427657600080fd5b6007600085600019166000191681526020019081526020016000205483111515156142a057600080fd5b60066000856000191660001916815260200190815260200160002060008481526020019081526020016000205490508260086000866000191660001916815260200190815260200160002060006006600088600019166000191681526020019081526020016000206000600760008a6000191660001916815260200190815260200160002054815260200190815260200160002054600019166000191681526020019081526020016000208190555060086000856000191660001916815260200190815260200160002060008260001916600019168152602001908152602001600020600090556006600085600019166000191681526020019081526020016000206000600760008760001916600019168152602001908152602001600020548152602001908152602001600020546006600086600019166000191681526020019081526020016000206000858152602001908152602001600020816000191690555060066000856000191660001916815260200190815260200160002060006007600087600019166000191681526020019081526020016000205481526020019081526020016000206000905561447260076000866000191660001916815260200190815260200160002054614ded565b60076000866000191660001916815260200190815260200160002081905550600191505092915050565b60008060010260001916600d60008560001916600019168152602001908152602001600020600084600019166000191681526020019081526020016000205460001916141515156144ec57600080fd5b600d6000846000191660001916815260200190815260200160002060008360001916600019168152602001908152602001600020600090556001905092915050565b60008060056000856000191660001916815260200190815260200160002060008481526020019081526020016000205414151561456e5760019050614573565b600090505b92915050565b60008060008460001916600019168152602001908152602001600020600083815260200190815260200160002060009054906101000a900473ffffffffffffffffffffffffffffffffffffffff16905092915050565b60008073ffffffffffffffffffffffffffffffffffffffff16601160008660001916600019168152602001908152602001600020600085815260200190815260200160002060009054906101000a900473ffffffffffffffffffffffffffffffffffffffff1673ffffffffffffffffffffffffffffffffffffffff161415151561465857600080fd5b81601160008660001916600019168152602001908152602001600020600085815260200190815260200160002060006101000a81548173ffffffffffffffffffffffffffffffffffffffff021916908373ffffffffffffffffffffffffffffffffffffffff160217905550600190509392505050565b60008060106000866000191660001916815260200190815260200160002060008581526020019081526020016000205414151561470a57600080fd5b81601060008660001916600019168152602001908152602001600020600085815260200190815260200160002081905550600190509392505050565b60008060056000866000191660001916815260200190815260200160002060008481526020019081526020016000205414151561478257600080fd5b6004600085600019166000191681526020019081526020016000205483111515156147ac57600080fd5b60056000856000191660001916815260200190815260200160002060006003600087600019166000191681526020019081526020016000206000868152602001908152602001600020548152602001908152602001600020600090558160036000866000191660001916815260200190815260200160002060008581526020019081526020016000208190555082600560008660001916600019168152602001908152602001600020600084815260200190815260200160002081905550600190509392505050565b6000801515600c600085600019166000191681526020019081526020016000206000846000191660001916815260200190815260200160002060009054906101000a900460ff161515141515156148cb57600080fd5b600c600084600019166000191681526020019081526020016000206000836000191660001916815260200190815260200160002060006101000a81549060ff02191690556001905092915050565b6000600b600084600019166000191681526020019081526020016000206000836000191660001916815260200190815260200160002054905092915050565b600080600b60008660001916600019168152602001908152602001600020600085600019166000191681526020019081526020016000205414151561499c57600080fd5b81600b600086600019166000191681526020019081526020016000206000856000191660001916815260200190815260200160002081905550600190509392505050565b60008060026000866000191660001916815260200190815260200160002060008473ffffffffffffffffffffffffffffffffffffffff1673ffffffffffffffffffffffffffffffffffffffff16815260200190815260200160002054141515614a4857600080fd5b816000808660001916600019168152602001908152602001600020600085815260200190815260200160002060006101000a81548173ffffffffffffffffffffffffffffffffffffffff021916908373ffffffffffffffffffffffffffffffffffffffff1602179055508260026000866000191660001916815260200190815260200160002060008473ffffffffffffffffffffffffffffffffffffffff1673ffffffffffffffffffffffffffffffffffffffff16815260200190815260200160002081905550614b3360016000866000191660001916815260200190815260200160002054614dd9565b60016000866000191660001916815260200190815260200160002081905550600190509392505050565b6000801515600c600086600019166000191681526020019081526020016000206000856000191660001916815260200190815260200160002060009054906101000a900460ff161515141515614bb257600080fd5b81600c600086600019166000191681526020019081526020016000206000856000191660001916815260200190815260200160002060006101000a81548160ff021916908315150217905550600190509392505050565b60008060008460001916600019168152602001908152602001600020600083815260200190815260200160002060009054906101000a900473ffffffffffffffffffffffffffffffffffffffff16905092915050565b6000600f60008460001916600019168152602001908152602001600020600083815260200190815260200160002060009054906101000a900460ff16905092915050565b6000600760008360001916600019168152602001908152602001600020549050919050565b600080600a6000856000191660001916815260200190815260200160002060008473ffffffffffffffffffffffffffffffffffffffff1673ffffffffffffffffffffffffffffffffffffffff1681526020019081526020016000205414151515614d3157600080fd5b600a6000846000191660001916815260200190815260200160002060008373ffffffffffffffffffffffffffffffffffffffff1673ffffffffffffffffffffffffffffffffffffffff168152602001908152602001600020600090556001905092915050565b600081600e6000866000191660001916815260200190815260200160002060008581526020019081526020016000208160001916905550600190509392505050565b6000614de6826001614e01565b9050919050565b6000614dfa826001614e1f565b9050919050565b6000808284019050838110151515614e1557fe5b8091505092915050565b6000828211151515614e2d57fe5b8183039050929150505600a165627a7a7230582029b841f8871b2ebde62ec44d021c2e6834b2162ab72af6d1de7329089cadfdb90029",
  "source": "pragma solidity ^0.4.18;\n\nimport './SafeMath.sol';\n\ncontract GeneralStorage{\n    using SafeMath for uint256;\n    //======================================================================List\n\n    //value is unique, key is managered automatically, it's more like set\n    //address\n    //======================== index   => content\n    mapping(bytes32 => mapping(uint256 => address)) listAddressPayload;\n    mapping(bytes32 => uint256) listAddressCounter; //starts from 1, 0 means there is no content\n    mapping(bytes32 => mapping(address => uint256)) listAddressPointer;\n\n    function listCreateAddress(bytes32 _schema, address _address) public returns(bool){\n        require(listAddressPointer[_schema][_address]==0);\n        listAddressCounter[_schema] = listAddressCounter[_schema].incr();\n        listAddressPayload[_schema][listAddressCounter[_schema]] = _address;\n        listAddressPointer[_schema][_address] = listAddressCounter[_schema];\n        return true;\n    }\n\n    function listReadAddress(bytes32 _schema, uint256 _index) public constant returns(address){\n        return listAddressPayload[_schema][_index];\n    }\n\n    function listUpdateAddress(bytes32 _schema, uint256 _index, address _address) public returns (bool){\n        require(listAddressPointer[_schema][_address]==0);\n        require(_index <= listAddressCounter[_schema]);\n        delete listAddressPointer[_schema][listAddressPayload[_schema][_index]];\n        listAddressPayload[_schema][_index] = _address;\n        listAddressPointer[_schema][_address] = _index;\n        return true;\n    }\n\n    function listDeleteAddress(bytes32 _schema, uint256 _index) public returns (bool){\n        require(listAddressCounter[_schema]>0);\n        require(_index <= listAddressCounter[_schema]);\n        //    require(listAddressPayload[_schema][_index]!=address(0));\n\n        address temp = listAddressPayload[_schema][_index];\n        listAddressPointer[_schema][listAddressPayload[_schema][listAddressCounter[_schema]]] = _index;\n        delete listAddressPointer[_schema][temp];\n\n        listAddressPayload[_schema][_index] = listAddressPayload[_schema][listAddressCounter[_schema]];\n        delete listAddressPayload[_schema][listAddressCounter[_schema]];\n\n        listAddressCounter[_schema] = listAddressCounter[_schema].decr();\n        return true;\n    }\n\n    function listCountAddress(bytes32 _schema) public constant returns (uint256){\n        return listAddressCounter[_schema];\n    }\n\n    function listIndexOfAddress(bytes32 _schema, address _address) public constant returns (uint256){\n        return listAddressPointer[_schema][_address];\n    }\n\n\n    //unique map address, key is unique and arbitary, value is unique,\n    //key should not be 0 cause 0 cann't tell it's null or iterally zero\n    function uniqueMapCreateUintToAddress(bytes32 _schema,uint256 _uint_k, address _address) public returns(bool){\n        require(listAddressPointer[_schema][_address]==uint256(0));\n        listAddressPayload[_schema][_uint_k] = _address;\n        listAddressPointer[_schema][_address] = _uint_k;\n        listAddressCounter[_schema] = listAddressCounter[_schema].incr();\n        return true;\n    }\n\n    function uniqueMapSetUintToAddress(bytes32 _schema,uint256 _uint_k, address _address) public returns(bool){\n        bool _new = false;\n        if(listAddressPointer[_schema][_address]==uint256(0)){\n            _new = true;\n        }\n        listAddressPayload[_schema][_uint_k] = _address;\n        listAddressPointer[_schema][_address] = _uint_k;\n        if(_new){\n            listAddressCounter[_schema] = listAddressCounter[_schema].incr();\n        }\n        return true;\n    }\n\n    function uniqueMapUpdateUintToAddress(bytes32 _schema,uint256 _uint_k, address _address) public returns(bool){\n        require(listAddressPointer[_schema][_address]!=uint256(0));\n        listAddressPayload[_schema][_uint_k] = _address;\n        listAddressPointer[_schema][_address] = _uint_k;\n        return true;\n    }\n\n    function uniqueMapReadUintToAddress(bytes32 _schema,uint256 _uint_k) public constant returns(address){\n        return listAddressPayload[_schema][_uint_k];\n    }\n\n    function uniqueMapDeleteUintToAddress(bytes32 _schema,uint256 _uint_k) public returns(bool){\n        if(uniqueMapReadUintToAddress(_schema, _uint_k) ==address(0)){\n            return true;\n        }\n        else{\n            delete listAddressPointer[_schema][uniqueMapReadUintToAddress(_schema, _uint_k)];\n            delete listAddressPayload[_schema][_uint_k];\n            listAddressCounter[_schema] = listAddressCounter[_schema].decr();\n        }\n    }\n\n    function uniqueMapIndexOfUintToAddress(bytes32 _schema, address _address) public constant returns(uint256){\n        return listAddressPointer[_schema][_address];\n    }\n\n\n\n    //uint256\n    //======================== index   => content\n    mapping(bytes32 => mapping(uint256 => uint256)) listUintPayload;\n    mapping(bytes32 => uint256) listUintCounter; //starts from 1, 0 means there is no content\n    mapping(bytes32 => mapping(uint256 => uint256)) listUintPointer;\n\n    function listCreateUint(bytes32 _schema, uint256 _uint256) public returns(bool){\n        require(listUintPointer[_schema][_uint256]==0);\n        listUintCounter[_schema] = listUintCounter[_schema].incr();\n        listUintPayload[_schema][listUintCounter[_schema]] = _uint256;\n        listUintPointer[_schema][_uint256] = listUintCounter[_schema];\n        return true;\n    }\n\n    function listReadUint(bytes32 _schema, uint256 _index) public constant returns(uint256){\n        return listUintPayload[_schema][_index];\n    }\n\n    function listUpdateUint(bytes32 _schema, uint256 _index, uint256 _uint256) public returns (bool){\n        require(listUintPointer[_schema][_uint256]==0);\n        require(_index <= listUintCounter[_schema]);\n        delete listUintPointer[_schema][listUintPayload[_schema][_index]];\n        listUintPayload[_schema][_index] = _uint256;\n        listUintPointer[_schema][_uint256] = _index;\n        return true;\n    }\n\n    function listDeleteUint(bytes32 _schema, uint256 _index) public returns (bool){\n        require(listUintCounter[_schema]>0);\n        require(_index <= listUintCounter[_schema]);\n\n        uint256 temp = listUintPayload[_schema][_index];\n        listUintPointer[_schema][listUintPayload[_schema][listUintCounter[_schema]]] = _index;\n        delete listUintPointer[_schema][temp];\n\n        listUintPayload[_schema][_index] = listUintPayload[_schema][listUintCounter[_schema]];\n        delete listUintPayload[_schema][listUintCounter[_schema]];\n\n        listUintCounter[_schema] = listUintCounter[_schema].decr();\n        return true;\n    }\n\n    function listCountUint(bytes32 _schema) public constant returns (uint256){\n        return listUintCounter[_schema];\n    }\n\n    function listIndexOfUint(bytes32 _schema, uint256 _uint256) public constant returns (uint256){\n        return listUintPointer[_schema][_uint256];\n    }\n\n    function listContainsUint(bytes32 _schema, uint256 _uint256) public constant returns (bool){\n        if(listUintPointer[_schema][_uint256]!=uint256(0)){\n            return true;\n        }\n        return false;\n    }\n    //bytes32\n    //======================== index   => content\n    mapping(bytes32 => mapping(uint256 => bytes32)) listBytes32Payload;\n    mapping(bytes32 => uint256) listBytes32Counter; //starts from 1, 0 means there is no content\n    mapping(bytes32 => mapping(bytes32 => uint256)) listBytes32Point;\n\n    function listCreateBytes32(bytes32 _schema, bytes32 _bytes32) public returns(bool){\n        require(listBytes32Point[_schema][_bytes32]==0);\n        listBytes32Counter[_schema] = listBytes32Counter[_schema].incr();\n        listBytes32Payload[_schema][listBytes32Counter[_schema]] = _bytes32;\n        listBytes32Point[_schema][_bytes32] = listBytes32Counter[_schema];\n        return true;\n    }\n\n    function listReadBytes32(bytes32 _schema, uint256 _index) public constant returns(bytes32){\n        return listBytes32Payload[_schema][_index];\n    }\n\n    function listUpdateBytes32(bytes32 _schema, uint256 _index, bytes32 _bytes32) public returns (bool){\n        require(listBytes32Point[_schema][_bytes32]==0);\n        require(_index <= listBytes32Counter[_schema]);\n        delete listBytes32Point[_schema][listBytes32Payload[_schema][_index]];\n        listBytes32Payload[_schema][_index] = _bytes32;\n        listBytes32Point[_schema][_bytes32] = _index;\n        return true;\n    }\n\n    function listDeleteBytes32(bytes32 _schema, uint256 _index) public returns (bool){\n        require(listBytes32Counter[_schema]>0);\n        require(_index <= listBytes32Counter[_schema]);\n\n        bytes32 temp = listBytes32Payload[_schema][_index];\n        listBytes32Point[_schema][listBytes32Payload[_schema][listBytes32Counter[_schema]]] = _index;\n        delete listBytes32Point[_schema][temp];\n\n        listBytes32Payload[_schema][_index] = listBytes32Payload[_schema][listBytes32Counter[_schema]];\n        delete listBytes32Payload[_schema][listBytes32Counter[_schema]];\n\n        listBytes32Counter[_schema] = listBytes32Counter[_schema].decr();\n        return true;\n    }\n\n    function listCountBytes32(bytes32 _schema) public constant returns (uint256){\n        return listBytes32Counter[_schema];\n    }\n\n    function listIndexOfBytes32(bytes32 _schema, bytes32 _bytes32) public constant returns (uint256){\n        return listBytes32Point[_schema][_bytes32];\n    }\n\n    function listValidateBytes32(bytes32 _schema, uint256 _index) public constant returns(bool){\n        if(_index <= listBytes32Counter[_schema]){\n            return true;\n        }\n        return false;\n    }\n\n    //======================================================================List\n\n\n    //======================================================================Map\n    //bytes32 => address\n    mapping(bytes32 => mapping(bytes32 => address)) mapBytes32ToAddress;\n\n    function mapCreateBytes32ToAddress(bytes32 _schema, bytes32 _bytes32, address _address) public returns (bool){\n        require(mapBytes32ToAddress[_schema][_bytes32]==address(0));\n        mapBytes32ToAddress[_schema][_bytes32] = _address;\n        return true;\n    }\n\n    function mapReadBytes32ToAddress(bytes32 _schema, bytes32 _bytes32) public constant returns (address ){\n        return mapBytes32ToAddress[_schema][_bytes32];\n    }\n\n    function mapUpdateBytes32ToAddress(bytes32 _schema, bytes32 _bytes32, address _address) public returns (bool){\n        require(mapBytes32ToAddress[_schema][_bytes32]!=address(0));\n        mapBytes32ToAddress[_schema][_bytes32] = _address;\n        return true;\n    }\n    function mapSetBytes32ToAddress(bytes32 _schema, bytes32 _bytes32, address _address) public returns (bool){\n        mapBytes32ToAddress[_schema][_bytes32] = _address;\n        return true;\n    }\n\n    function mapDeleteBytes32ToAddress(bytes32 _schema, bytes32 _bytes32) public returns (bool){\n        require(mapBytes32ToAddress[_schema][_bytes32]!=address(0));\n        delete mapBytes32ToAddress[_schema][_bytes32];\n        return true;\n    }\n\n    //address => uint256\n    mapping(bytes32 => mapping(address => uint256)) mapAddressToUint;\n\n    function mapCreateAddressToUint(bytes32 _schema, address _address, uint256 _uint) public returns (bool){\n        require(mapAddressToUint[_schema][_address]==uint256(0));\n        mapAddressToUint[_schema][_address] = _uint;\n        return true;\n    }\n\n    function mapReadAddressToUint(bytes32 _schema, address _address) public constant returns (uint256 ){\n        return mapAddressToUint[_schema][_address];\n    }\n\n    function mapUpdateAddressToUint(bytes32 _schema, address _address, uint256 _uint) public returns (bool){\n        require(mapAddressToUint[_schema][_address]!=uint256(0));\n        mapAddressToUint[_schema][_address] = _uint;\n        return true;\n    }\n\n    function mapSetAddressToUint(bytes32 _schema, address _address, uint256 _uint) public returns (bool){\n        //    require(mapAddressToUint[_schema][_address]!=uint256(0));\n        mapAddressToUint[_schema][_address] = _uint;\n        return true;\n    }\n\n    function mapDeleteAddressToUint(bytes32 _schema, address _address) public returns (bool){\n        require(mapAddressToUint[_schema][_address]!=uint256(0));\n        delete mapAddressToUint[_schema][_address];\n        return true;\n    }\n\n\n    //bytes32 => uint256\n    mapping(bytes32 => mapping(bytes32 => uint256)) mapBytes32ToUint;\n\n    function mapCreateBytes32ToUint(bytes32 _schema, bytes32 _bytes32, uint256 _uint) public returns (bool){\n        require(mapBytes32ToUint[_schema][_bytes32]==uint256(0));\n        mapBytes32ToUint[_schema][_bytes32] = _uint;\n        return true;\n    }\n\n    function mapReadBytes32ToUint(bytes32 _schema, bytes32 _bytes32) public constant returns (uint256 ){\n        return mapBytes32ToUint[_schema][_bytes32];\n    }\n\n    function mapUpdateBytes32ToUint(bytes32 _schema, bytes32 _bytes32, uint256 _uint) public returns (bool){\n        require(mapBytes32ToUint[_schema][_bytes32]!=uint256(0));\n        mapBytes32ToUint[_schema][_bytes32] = _uint;\n        return true;\n    }\n\n    function mapSetBytes32ToUint(bytes32 _schema, bytes32 _bytes32, uint256 _uint) public returns (bool){\n        //    require(mapBytes32ToUint[_schema][_address]!=uint256(0));\n        mapBytes32ToUint[_schema][_bytes32] = _uint;\n        return true;\n    }\n\n    function mapDeleteBytes32ToUint(bytes32 _schema, bytes32 _bytes32) public returns (bool){\n        require(mapBytes32ToUint[_schema][_bytes32]!=uint256(0));\n        delete mapBytes32ToUint[_schema][_bytes32];\n        return true;\n    }\n\n\n    //special counter\n\n    function counterNow(bytes32 _schema, bytes32 _name) public constant returns(uint256){\n        return mapBytes32ToUint[_schema][_name];\n    }\n\n    function counterGet(bytes32 _schema, bytes32 _name) public returns(uint256){\n        mapBytes32ToUint[_schema][_name]=mapBytes32ToUint[_schema][_name].incr();\n        return mapBytes32ToUint[_schema][_name];\n    }\n\n    //bytes32 => bool\n    mapping(bytes32 => mapping(bytes32 => bool)) mapBytes32ToBool;\n\n    function mapCreateBytes32ToBool(bytes32 _schema, bytes32 _bytes32, bool _bool) public returns (bool){\n        require(mapBytes32ToBool[_schema][_bytes32]==false);\n        mapBytes32ToBool[_schema][_bytes32] = _bool;\n        return true;\n    }\n\n    function mapReadBytes32ToBool(bytes32 _schema, bytes32 _bytes32) public constant returns (bool){\n        return mapBytes32ToBool[_schema][_bytes32];\n    }\n\n    function mapUpdateBytes32ToBool(bytes32 _schema, bytes32 _bytes32, bool _bool) public returns (bool){\n        require(mapBytes32ToBool[_schema][_bytes32]!=false);\n        mapBytes32ToBool[_schema][_bytes32] = _bool;\n        return true;\n    }\n\n    function mapSetBytes32ToBool(bytes32 _schema, bytes32 _bytes32, bool _bool) public returns (bool){\n        //    require(mapBytes32ToBool[_schema][_address]!=bool(0));\n        mapBytes32ToBool[_schema][_bytes32] = _bool;\n        return true;\n    }\n\n    function mapDeleteBytes32ToBool(bytes32 _schema, bytes32 _bytes32) public returns (bool){\n        require(mapBytes32ToBool[_schema][_bytes32]!=false);\n        delete mapBytes32ToBool[_schema][_bytes32];\n        return true;\n    }\n\n\n    //bytes32 => bytes32\n    mapping(bytes32 => mapping(bytes32 => bytes32)) mapBytes32ToBytes32;\n\n    function mapCreateBytes32Tobytes32(bytes32 _schema, bytes32 _bytes32_k, bytes32 _bytes32_v) public returns (bool){\n        require(mapBytes32ToBytes32[_schema][_bytes32_k]==bytes32(0));\n        mapBytes32ToBytes32[_schema][_bytes32_k] = _bytes32_v;\n        return true;\n    }\n\n    function mapReadBytes32Tobytes32(bytes32 _schema, bytes32 _bytes32_k) public constant returns (bytes32 ){\n        return mapBytes32ToBytes32[_schema][_bytes32_k];\n    }\n\n    function mapUpdateBytes32Tobytes32(bytes32 _schema, bytes32 _bytes32_k, bytes32 _bytes32_v) public returns (bool){\n        require(mapBytes32ToBytes32[_schema][_bytes32_k]!=bytes32(0));\n        mapBytes32ToBytes32[_schema][_bytes32_k] = _bytes32_v;\n        return true;\n    }\n\n    function mapSetBytes32Tobytes32(bytes32 _schema, bytes32 _bytes32_k, bytes32 _bytes32_v) public returns (bool){\n        mapBytes32ToBytes32[_schema][_bytes32_k] = _bytes32_v;\n        return true;\n    }\n\n    function mapDeleteBytes32Tobytes32(bytes32 _schema, bytes32 _bytes32_k) public returns (bool){\n        require(mapBytes32ToBytes32[_schema][_bytes32_k]!=bytes32(0));\n        delete mapBytes32ToBytes32[_schema][_bytes32_k];\n        return true;\n    }\n\n    //uint256 => bytes32\n    mapping(bytes32 => mapping(uint256 => bytes32)) mapUintToBytes32;\n\n    function mapCreateUintToBytes32(bytes32 _schema, uint256 _uint, bytes32 _bytes32) public returns (bool){\n        require(mapUintToBytes32[_schema][_uint]==bytes32(0));\n        mapUintToBytes32[_schema][_uint] = _bytes32;\n        return true;\n    }\n\n    function mapReadUintToBytes32(bytes32 _schema, uint256 _uint) public constant returns (bytes32 ){\n        return mapUintToBytes32[_schema][_uint];\n    }\n\n    function mapUpdateUintToBytes32(bytes32 _schema, uint256 _uint, bytes32 _bytes32) public returns (bool){\n        require(mapUintToBytes32[_schema][_uint]!=bytes32(0));\n        mapUintToBytes32[_schema][_uint] = _bytes32;\n        return true;\n    }\n\n    function mapSetUintToBytes32(bytes32 _schema, uint256 _uint, bytes32 _bytes32) public returns (bool){\n        mapUintToBytes32[_schema][_uint] = _bytes32;\n        return true;\n    }\n\n    function mapDeleteUintToBytes32(bytes32 _schema, uint256 _uint) public returns (bool){\n        require(mapUintToBytes32[_schema][_uint]!=bytes32(0));\n        delete mapUintToBytes32[_schema][_uint];\n        return true;\n    }\n\n    //uint256 => bool\n    mapping(bytes32 => mapping(uint256 => bool)) mapUintToBool;\n\n    function mapCreateUintToBool(bytes32 _schema, uint256 _uint, bool _bool) public returns (bool){\n        require(mapUintToBool[_schema][_uint]==false);\n        mapUintToBool[_schema][_uint] = _bool;\n        return true;\n    }\n\n    function mapReadUintToBool(bytes32 _schema, uint256 _uint) public constant returns (bool ){\n        return mapUintToBool[_schema][_uint];\n    }\n\n    function mapUpdateUintToBool(bytes32 _schema, uint256 _uint, bool _bool) public returns (bool){\n        require(mapUintToBool[_schema][_uint]!=false);\n        mapUintToBool[_schema][_uint] = _bool;\n        return true;\n    }\n\n    function mapSetUintToBool(bytes32 _schema, uint256 _uint, bool _bool) public returns (bool){\n        mapUintToBool[_schema][_uint] = _bool;\n        return true;\n    }\n\n    function mapDeleteUintToBool(bytes32 _schema, uint256 _uint) public returns (bool){\n        require(mapUintToBool[_schema][_uint]!=false);\n        delete mapUintToBool[_schema][_uint];\n        return true;\n    }\n\n    //uint256 => uint256\n    mapping(bytes32 => mapping(uint256 => uint256)) mapUintToUint;\n\n    function mapCreateUintToUint(bytes32 _schema, uint256 _uint_k, uint256 _uint_v) public returns (bool){\n        require(mapUintToUint[_schema][_uint_k]==uint256(0));\n        mapUintToUint[_schema][_uint_k] = _uint_v;\n        return true;\n    }\n\n    function mapReadUintToUint(bytes32 _schema, uint256 _uint_k) public constant returns (uint256 ){\n        return mapUintToUint[_schema][_uint_k];\n    }\n\n    function mapUpdateUintToUint(bytes32 _schema, uint256 _uint_k, uint256 _uint_v) public returns (bool){\n        require(mapUintToUint[_schema][_uint_k]!=uint256(0));\n        mapUintToUint[_schema][_uint_k] = _uint_v;\n        return true;\n    }\n\n    function mapSetUintToUint(bytes32 _schema, uint256 _uint_k, uint256 _uint_v) public returns (bool){\n        mapUintToUint[_schema][_uint_k] = _uint_v;\n        return true;\n    }\n\n    function mapDeleteUintToUint(bytes32 _schema, uint256 _uint_k) public returns (bool){\n        require(mapUintToUint[_schema][_uint_k]!=uint256(0));\n        delete mapUintToUint[_schema][_uint_k];\n        return true;\n    }\n\n    //uint256 => address\n    mapping(bytes32 => mapping(uint256 => address)) mapUintToAddress;\n\n    function mapCreateUintToAddress(bytes32 _schema, uint256 _uint_k, address _address) public returns (bool){\n        require(mapUintToAddress[_schema][_uint_k]==address(0));\n        mapUintToAddress[_schema][_uint_k] = _address;\n        return true;\n    }\n\n    function mapReadUintToAddress(bytes32 _schema, uint256 _uint_k) public constant returns (address ){\n        return mapUintToAddress[_schema][_uint_k];\n    }\n\n    function mapUpdateUintToAddress(bytes32 _schema, uint256 _uint_k, address _address) public returns (bool){\n        require(mapUintToAddress[_schema][_uint_k]!=address(0));\n        mapUintToAddress[_schema][_uint_k] = _address;\n        return true;\n    }\n\n    function mapSetUintToAddress(bytes32 _schema, uint256 _uint_k, address _address) public returns (bool){\n        mapUintToAddress[_schema][_uint_k] = _address;\n        return true;\n    }\n\n    function mapDeleteUintToAddress(bytes32 _schema, uint256 _uint_k) public returns (bool){\n        require(mapUintToAddress[_schema][_uint_k]!=address(0));\n        delete mapUintToAddress[_schema][_uint_k];\n        return true;\n    }\n\n    //======================================================================Map\n\n}",
  "sourcePath": "/home/lycrus/IdeaProjects/live2/monolith/src/main/resources/truffle/contracts/GeneralStorage.sol",
  "compiler": {
    "name": "solc",
    "version": "0.4.18+commit.9cf6e910.Emscripten.clang"
  },
  "schemaVersion": "1.0.1",
  "updatedAt": "2017-12-07T09:28:47.526Z"
}