{
  "contractName": "NamingService",
  "abi": [
    {
      "constant": true,
      "inputs": [],
      "name": "ping",
      "outputs": [
        {
          "name": "",
          "type": "bool"
        }
      ],
      "payable": false,
      "stateMutability": "view",
      "type": "function"
    },
    {
      "constant": false,
      "inputs": [
        {
          "name": "_address",
          "type": "address"
        }
      ],
      "name": "setStorage",
      "outputs": [
        {
          "name": "",
          "type": "bool"
        }
      ],
      "payable": false,
      "stateMutability": "nonpayable",
      "type": "function"
    },
    {
      "constant": false,
      "inputs": [
        {
          "name": "_name",
          "type": "bytes32"
        },
        {
          "name": "_address",
          "type": "address"
        }
      ],
      "name": "register",
      "outputs": [
        {
          "name": "",
          "type": "bool"
        }
      ],
      "payable": false,
      "stateMutability": "nonpayable",
      "type": "function"
    },
    {
      "constant": false,
      "inputs": [
        {
          "name": "_name",
          "type": "bytes32"
        }
      ],
      "name": "lookupSafe",
      "outputs": [
        {
          "name": "",
          "type": "address"
        }
      ],
      "payable": false,
      "stateMutability": "nonpayable",
      "type": "function"
    },
    {
      "constant": false,
      "inputs": [
        {
          "name": "_name",
          "type": "bytes32"
        },
        {
          "name": "_address",
          "type": "address"
        }
      ],
      "name": "eliminate",
      "outputs": [
        {
          "name": "",
          "type": "bool"
        }
      ],
      "payable": false,
      "stateMutability": "nonpayable",
      "type": "function"
    },
    {
      "constant": false,
      "inputs": [
        {
          "name": "_name",
          "type": "bytes32"
        }
      ],
      "name": "lookup",
      "outputs": [
        {
          "name": "",
          "type": "address"
        }
      ],
      "payable": false,
      "stateMutability": "nonpayable",
      "type": "function"
    },
    {
      "constant": true,
      "inputs": [],
      "name": "admin",
      "outputs": [
        {
          "name": "",
          "type": "address"
        }
      ],
      "payable": false,
      "stateMutability": "view",
      "type": "function"
    },
    {
      "inputs": [],
      "payable": false,
      "stateMutability": "nonpayable",
      "type": "constructor"
    },
    {
      "payable": true,
      "stateMutability": "payable",
      "type": "fallback"
    }
  ],
  "bytecode": "0x60606040527f4e616d696e675365727669636500000000000000000000000000000000000000600290600019169055341561003957600080fd5b33600160006101000a81548173ffffffffffffffffffffffffffffffffffffffff021916908373ffffffffffffffffffffffffffffffffffffffff160217905550610871806100896000396000f300606060405260043610610083576000357c0100000000000000000000000000000000000000000000000000000000900463ffffffff1680635c36b186146100855780639137c1a7146100b2578063d22057a914610103578063dbd2344e14610161578063eecd3866146101c8578063f39ec1f714610226578063f851a4401461028d575b005b341561009057600080fd5b6100986102e2565b604051808215151515815260200191505060405180910390f35b34156100bd57600080fd5b6100e9600480803573ffffffffffffffffffffffffffffffffffffffff169060200190919050506102eb565b604051808215151515815260200191505060405180910390f35b341561010e57600080fd5b61014760048080356000191690602001909190803573ffffffffffffffffffffffffffffffffffffffff16906020019091905050610392565b604051808215151515815260200191505060405180910390f35b341561016c57600080fd5b6101866004808035600019169060200190919050506104fc565b604051808273ffffffffffffffffffffffffffffffffffffffff1673ffffffffffffffffffffffffffffffffffffffff16815260200191505060405180910390f35b34156101d357600080fd5b61020c60048080356000191690602001909190803573ffffffffffffffffffffffffffffffffffffffff16906020019091905050610613565b604051808215151515815260200191505060405180910390f35b341561023157600080fd5b61024b600480803560001916906020019091905050610749565b604051808273ffffffffffffffffffffffffffffffffffffffff1673ffffffffffffffffffffffffffffffffffffffff16815260200191505060405180910390f35b341561029857600080fd5b6102a061081f565b604051808273ffffffffffffffffffffffffffffffffffffffff1673ffffffffffffffffffffffffffffffffffffffff16815260200191505060405180910390f35b60006001905090565b60003373ffffffffffffffffffffffffffffffffffffffff16600160009054906101000a900473ffffffffffffffffffffffffffffffffffffffff1673ffffffffffffffffffffffffffffffffffffffff1614151561034957600080fd5b816000806101000a81548173ffffffffffffffffffffffffffffffffffffffff021916908373ffffffffffffffffffffffffffffffffffffffff16021790555060019050919050565b60003373ffffffffffffffffffffffffffffffffffffffff16600160009054906101000a900473ffffffffffffffffffffffffffffffffffffffff1673ffffffffffffffffffffffffffffffffffffffff161415156103f057600080fd5b6000809054906101000a900473ffffffffffffffffffffffffffffffffffffffff1673ffffffffffffffffffffffffffffffffffffffff166384f9ee8960025485856000604051602001526040518463ffffffff167c010000000000000000000000000000000000000000000000000000000002815260040180846000191660001916815260200183600019166000191681526020018273ffffffffffffffffffffffffffffffffffffffff1673ffffffffffffffffffffffffffffffffffffffff1681526020019350505050602060405180830381600087803b15156104d657600080fd5b6102c65a03f115156104e757600080fd5b50505060405180519050506001905092915050565b6000806000809054906101000a900473ffffffffffffffffffffffffffffffffffffffff1673ffffffffffffffffffffffffffffffffffffffff1663bb5aa144600254856000604051602001526040518363ffffffff167c0100000000000000000000000000000000000000000000000000000000028152600401808360001916600019168152602001826000191660001916815260200192505050602060405180830381600087803b15156105b157600080fd5b6102c65a03f115156105c257600080fd5b505050604051805190509050600073ffffffffffffffffffffffffffffffffffffffff168173ffffffffffffffffffffffffffffffffffffffff161415151561060a57600080fd5b80915050919050565b60003373ffffffffffffffffffffffffffffffffffffffff16600160009054906101000a900473ffffffffffffffffffffffffffffffffffffffff1673ffffffffffffffffffffffffffffffffffffffff1614151561067157600080fd5b6000809054906101000a900473ffffffffffffffffffffffffffffffffffffffff1673ffffffffffffffffffffffffffffffffffffffff16637ffb2efc600254856000604051602001526040518363ffffffff167c0100000000000000000000000000000000000000000000000000000000028152600401808360001916600019168152602001826000191660001916815260200192505050602060405180830381600087803b151561072357600080fd5b6102c65a03f1151561073457600080fd5b50505060405180519050506001905092915050565b60008060009054906101000a900473ffffffffffffffffffffffffffffffffffffffff1673ffffffffffffffffffffffffffffffffffffffff1663bb5aa144600254846000604051602001526040518363ffffffff167c0100000000000000000000000000000000000000000000000000000000028152600401808360001916600019168152602001826000191660001916815260200192505050602060405180830381600087803b15156107fd57600080fd5b6102c65a03f1151561080e57600080fd5b505050604051805190509050919050565b600160009054906101000a900473ffffffffffffffffffffffffffffffffffffffff16815600a165627a7a72305820e2ac8e80ca80f3b1a16a0f7b16a15daa2976a5ea94dd711993492e06a7151a120029",
  "source": "pragma solidity ^0.4.18;\n\nimport './GeneralMappingStorage.sol';\n\ncontract NamingService{\n    GeneralMappingStorage dataStorage;\n    address public admin;\n    bytes32 schema = \"NamingService\";\n    function NamingService() public {admin = msg.sender;  }\n    function () public payable{}\n\n    function ping() public constant returns (bool){\n        return true;\n    }\n\n    function setStorage (address _address) public returns (bool){\n        require(admin == msg.sender);\n        dataStorage = GeneralMappingStorage(_address);\n        return true;\n    }\n\n    function register(bytes32 _name, address _address) public returns (bool){\n        require(admin == msg.sender);\n        dataStorage.setBytes32ToAddress(schema,_name,_address);\n        return true;\n    }\n    function eliminate(bytes32 _name, address _address) public returns (bool){\n        require(admin == msg.sender);\n        dataStorage.deleteBytes32ToAddress(schema,_name);\n        return true;\n    }\n    function lookup(bytes32 _name) public returns (address){\n\n        return dataStorage.readBytes32ToAddress(schema,_name);\n    }\n\n    function lookupSafe(bytes32 _name) public returns (address){\n\n        address temp;\n        temp = dataStorage.readBytes32ToAddress(schema,_name);\n        require(temp!= address(0));\n        return temp;\n    }\n}",
  "sourcePath": "/home/lycrus/IdeaProjects/live2/monolith/src/main/resources/truffle/contracts/NamingService.sol",
  "compiler": {
    "name": "solc",
    "version": "0.4.18+commit.9cf6e910.Emscripten.clang"
  },
  "schemaVersion": "1.0.1",
  "updatedAt": "2017-11-30T07:59:56.462Z"
}