{
  "contractName": "NonFungibleTicket",
  "abi": [
    {
      "constant": false,
      "inputs": [
        {
          "name": "_ticket",
          "type": "bytes32"
        }
      ],
      "name": "halfTimeCheckOut",
      "outputs": [
        {
          "name": "",
          "type": "bool"
        }
      ],
      "payable": false,
      "stateMutability": "nonpayable",
      "type": "function"
    },
    {
      "constant": false,
      "inputs": [
        {
          "name": "_ticket",
          "type": "bytes32"
        }
      ],
      "name": "halfTimeCheckIn",
      "outputs": [
        {
          "name": "",
          "type": "bool"
        }
      ],
      "payable": false,
      "stateMutability": "nonpayable",
      "type": "function"
    },
    {
      "constant": false,
      "inputs": [
        {
          "name": "_white",
          "type": "address"
        }
      ],
      "name": "removeMintWhiteList",
      "outputs": [
        {
          "name": "",
          "type": "bool"
        }
      ],
      "payable": false,
      "stateMutability": "nonpayable",
      "type": "function"
    },
    {
      "constant": false,
      "inputs": [
        {
          "name": "_white",
          "type": "address"
        }
      ],
      "name": "addMintWhiteList",
      "outputs": [
        {
          "name": "",
          "type": "bool"
        }
      ],
      "payable": false,
      "stateMutability": "nonpayable",
      "type": "function"
    },
    {
      "constant": false,
      "inputs": [
        {
          "name": "_ticket",
          "type": "bytes32"
        }
      ],
      "name": "checkIn",
      "outputs": [
        {
          "name": "",
          "type": "bool"
        }
      ],
      "payable": false,
      "stateMutability": "nonpayable",
      "type": "function"
    },
    {
      "constant": true,
      "inputs": [],
      "name": "version",
      "outputs": [
        {
          "name": "",
          "type": "uint256"
        }
      ],
      "payable": false,
      "stateMutability": "view",
      "type": "function"
    },
    {
      "constant": false,
      "inputs": [
        {
          "name": "_spender",
          "type": "address"
        },
        {
          "name": "_ticket",
          "type": "bytes32"
        }
      ],
      "name": "approve",
      "outputs": [
        {
          "name": "",
          "type": "bool"
        }
      ],
      "payable": false,
      "stateMutability": "nonpayable",
      "type": "function"
    },
    {
      "constant": false,
      "inputs": [
        {
          "name": "_ticket",
          "type": "bytes32"
        }
      ],
      "name": "voidIt",
      "outputs": [
        {
          "name": "",
          "type": "bool"
        }
      ],
      "payable": false,
      "stateMutability": "nonpayable",
      "type": "function"
    },
    {
      "constant": true,
      "inputs": [
        {
          "name": "_owner",
          "type": "address"
        }
      ],
      "name": "balanceOf",
      "outputs": [
        {
          "name": "",
          "type": "uint256"
        }
      ],
      "payable": false,
      "stateMutability": "view",
      "type": "function"
    },
    {
      "constant": false,
      "inputs": [
        {
          "name": "_white",
          "type": "address"
        }
      ],
      "name": "addTicketTakerWhiteList",
      "outputs": [
        {
          "name": "",
          "type": "bool"
        }
      ],
      "payable": false,
      "stateMutability": "nonpayable",
      "type": "function"
    },
    {
      "constant": true,
      "inputs": [
        {
          "name": "_white",
          "type": "address"
        }
      ],
      "name": "isTicketTakerWhiteList",
      "outputs": [
        {
          "name": "",
          "type": "bool"
        }
      ],
      "payable": false,
      "stateMutability": "view",
      "type": "function"
    },
    {
      "constant": true,
      "inputs": [
        {
          "name": "_white",
          "type": "address"
        }
      ],
      "name": "isSellerWhiteList",
      "outputs": [
        {
          "name": "",
          "type": "bool"
        }
      ],
      "payable": false,
      "stateMutability": "view",
      "type": "function"
    },
    {
      "constant": false,
      "inputs": [
        {
          "name": "_value",
          "type": "uint256"
        },
        {
          "name": "_ticket",
          "type": "bytes32"
        },
        {
          "name": "_tHast",
          "type": "bytes32"
        }
      ],
      "name": "mint",
      "outputs": [
        {
          "name": "",
          "type": "bool"
        }
      ],
      "payable": false,
      "stateMutability": "nonpayable",
      "type": "function"
    },
    {
      "constant": false,
      "inputs": [
        {
          "name": "_ticket",
          "type": "bytes32"
        },
        {
          "name": "_to",
          "type": "address"
        }
      ],
      "name": "sell",
      "outputs": [
        {
          "name": "",
          "type": "bool"
        }
      ],
      "payable": false,
      "stateMutability": "nonpayable",
      "type": "function"
    },
    {
      "constant": false,
      "inputs": [
        {
          "name": "_white",
          "type": "address"
        }
      ],
      "name": "removeSellerWhiteList",
      "outputs": [
        {
          "name": "",
          "type": "bool"
        }
      ],
      "payable": false,
      "stateMutability": "nonpayable",
      "type": "function"
    },
    {
      "constant": false,
      "inputs": [
        {
          "name": "_white",
          "type": "address"
        }
      ],
      "name": "addSellerWhiteList",
      "outputs": [
        {
          "name": "",
          "type": "bool"
        }
      ],
      "payable": false,
      "stateMutability": "nonpayable",
      "type": "function"
    },
    {
      "constant": false,
      "inputs": [
        {
          "name": "_ticket",
          "type": "bytes32"
        }
      ],
      "name": "reclaim",
      "outputs": [
        {
          "name": "",
          "type": "bool"
        }
      ],
      "payable": false,
      "stateMutability": "nonpayable",
      "type": "function"
    },
    {
      "constant": true,
      "inputs": [
        {
          "name": "_ticket",
          "type": "bytes32"
        },
        {
          "name": "_spender",
          "type": "address"
        }
      ],
      "name": "allowance",
      "outputs": [
        {
          "name": "",
          "type": "bool"
        }
      ],
      "payable": false,
      "stateMutability": "view",
      "type": "function"
    },
    {
      "constant": false,
      "inputs": [
        {
          "name": "_white",
          "type": "address"
        }
      ],
      "name": "removeTicketTakerWhiteList",
      "outputs": [
        {
          "name": "",
          "type": "bool"
        }
      ],
      "payable": false,
      "stateMutability": "nonpayable",
      "type": "function"
    },
    {
      "constant": false,
      "inputs": [
        {
          "name": "_from",
          "type": "address"
        },
        {
          "name": "_to",
          "type": "address"
        },
        {
          "name": "_ticket",
          "type": "bytes32"
        }
      ],
      "name": "transferFrom",
      "outputs": [
        {
          "name": "",
          "type": "bool"
        }
      ],
      "payable": false,
      "stateMutability": "nonpayable",
      "type": "function"
    },
    {
      "constant": true,
      "inputs": [
        {
          "name": "_white",
          "type": "address"
        }
      ],
      "name": "isMintWhiteList",
      "outputs": [
        {
          "name": "",
          "type": "bool"
        }
      ],
      "payable": false,
      "stateMutability": "view",
      "type": "function"
    },
    {
      "inputs": [
        {
          "name": "_ticketSymbol",
          "type": "bytes32"
        }
      ],
      "payable": false,
      "stateMutability": "nonpayable",
      "type": "constructor"
    },
    {
      "payable": true,
      "stateMutability": "payable",
      "type": "fallback"
    },
    {
      "anonymous": false,
      "inputs": [
        {
          "indexed": false,
          "name": "_sender",
          "type": "address"
        },
        {
          "indexed": false,
          "name": "_value",
          "type": "uint256"
        },
        {
          "indexed": false,
          "name": "_ticket",
          "type": "bytes32"
        },
        {
          "indexed": false,
          "name": "_tHast",
          "type": "bytes32"
        }
      ],
      "name": "e_mint",
      "type": "event"
    },
    {
      "anonymous": false,
      "inputs": [
        {
          "indexed": false,
          "name": "_sender",
          "type": "address"
        },
        {
          "indexed": false,
          "name": "_ticket",
          "type": "bytes32"
        }
      ],
      "name": "e_voidIt",
      "type": "event"
    },
    {
      "anonymous": false,
      "inputs": [
        {
          "indexed": false,
          "name": "_sender",
          "type": "address"
        },
        {
          "indexed": false,
          "name": "_ticket",
          "type": "bytes32"
        },
        {
          "indexed": false,
          "name": "_to",
          "type": "address"
        }
      ],
      "name": "e_sell",
      "type": "event"
    },
    {
      "anonymous": false,
      "inputs": [
        {
          "indexed": false,
          "name": "_sender",
          "type": "address"
        },
        {
          "indexed": false,
          "name": "_ticket",
          "type": "bytes32"
        }
      ],
      "name": "e_reclaim",
      "type": "event"
    },
    {
      "anonymous": false,
      "inputs": [
        {
          "indexed": false,
          "name": "_sender",
          "type": "address"
        },
        {
          "indexed": false,
          "name": "_ticket",
          "type": "bytes32"
        }
      ],
      "name": "e_checkIn",
      "type": "event"
    },
    {
      "anonymous": false,
      "inputs": [
        {
          "indexed": false,
          "name": "_sender",
          "type": "address"
        },
        {
          "indexed": false,
          "name": "_ticket",
          "type": "bytes32"
        },
        {
          "indexed": false,
          "name": "_in",
          "type": "bool"
        }
      ],
      "name": "e_halfTime",
      "type": "event"
    },
    {
      "anonymous": false,
      "inputs": [
        {
          "indexed": false,
          "name": "_sender",
          "type": "address"
        },
        {
          "indexed": false,
          "name": "_from",
          "type": "address"
        },
        {
          "indexed": false,
          "name": "_to",
          "type": "address"
        },
        {
          "indexed": false,
          "name": "_ticket",
          "type": "bytes32"
        }
      ],
      "name": "e_transfer",
      "type": "event"
    },
    {
      "anonymous": false,
      "inputs": [
        {
          "indexed": false,
          "name": "_sender",
          "type": "address"
        },
        {
          "indexed": false,
          "name": "_spender",
          "type": "address"
        },
        {
          "indexed": false,
          "name": "_ticket",
          "type": "bytes32"
        }
      ],
      "name": "e_approve",
      "type": "event"
    }
  ],
  "bytecode": "0x6060604052341561000f57600080fd5b604051602080612d788339810160405280805190602001909190505033600160006101000a81548173ffffffffffffffffffffffffffffffffffffffff021916908373ffffffffffffffffffffffffffffffffffffffff16021790555033600360006101000a81548173ffffffffffffffffffffffffffffffffffffffff021916908373ffffffffffffffffffffffffffffffffffffffff160217905550806002816000191690555050612cb0806100c86000396000f30060606040526004361061011d576000357c0100000000000000000000000000000000000000000000000000000000900463ffffffff168063072032cf1461011f5780630bd4d2051461015e57806312c2743e1461019d57806344f41dc0146101ee5780634662d1dd1461023f57806354fd4d501461027e5780635cd2f4d3146102a75780636d66d1c31461030557806370a0823114610344578063766661d5146103915780637d8176e8146103e25780637dd199fc14610433578063936a9ade14610484578063944dfc2a146104d95780639532244014610537578063960a79d71461058857806396afb365146105d9578063980c662114610618578063b1be506b14610676578063b3c06f50146106c7578063e6693d1914610744575b005b341561012a57600080fd5b610144600480803560001916906020019091905050610795565b604051808215151515815260200191505060405180910390f35b341561016957600080fd5b6101836004808035600019169060200190919050506108be565b604051808215151515815260200191505060405180910390f35b34156101a857600080fd5b6101d4600480803573ffffffffffffffffffffffffffffffffffffffff169060200190919050506109e7565b604051808215151515815260200191505060405180910390f35b34156101f957600080fd5b610225600480803573ffffffffffffffffffffffffffffffffffffffff16906020019091905050610b3b565b604051808215151515815260200191505060405180910390f35b341561024a57600080fd5b610264600480803560001916906020019091905050610c72565b604051808215151515815260200191505060405180910390f35b341561028957600080fd5b610291610e98565b6040518082815260200191505060405180910390f35b34156102b257600080fd5b6102eb600480803573ffffffffffffffffffffffffffffffffffffffff1690602001909190803560001916906020019091905050610e9e565b604051808215151515815260200191505060405180910390f35b341561031057600080fd5b61032a6004808035600019169060200190919050506110a8565b604051808215151515815260200191505060405180910390f35b341561034f57600080fd5b61037b600480803573ffffffffffffffffffffffffffffffffffffffff16906020019091905050611454565b6040518082815260200191505060405180910390f35b341561039c57600080fd5b6103c8600480803573ffffffffffffffffffffffffffffffffffffffff1690602001909190505061149d565b604051808215151515815260200191505060405180910390f35b34156103ed57600080fd5b610419600480803573ffffffffffffffffffffffffffffffffffffffff169060200190919050506115d4565b604051808215151515815260200191505060405180910390f35b341561043e57600080fd5b61046a600480803573ffffffffffffffffffffffffffffffffffffffff16906020019091905050611637565b604051808215151515815260200191505060405180910390f35b341561048f57600080fd5b6104bf6004808035906020019091908035600019169060200190919080356000191690602001909190505061169a565b604051808215151515815260200191505060405180910390f35b34156104e457600080fd5b61051d60048080356000191690602001909190803573ffffffffffffffffffffffffffffffffffffffff169060200190919050506119d8565b604051808215151515815260200191505060405180910390f35b341561054257600080fd5b61056e600480803573ffffffffffffffffffffffffffffffffffffffff16906020019091905050611d92565b604051808215151515815260200191505060405180910390f35b341561059357600080fd5b6105bf600480803573ffffffffffffffffffffffffffffffffffffffff16906020019091905050611ee6565b604051808215151515815260200191505060405180910390f35b34156105e457600080fd5b6105fe60048080356000191690602001909190505061201d565b604051808215151515815260200191505060405180910390f35b341561062357600080fd5b61065c60048080356000191690602001909190803573ffffffffffffffffffffffffffffffffffffffff16906020019091905050612436565b604051808215151515815260200191505060405180910390f35b341561068157600080fd5b6106ad600480803573ffffffffffffffffffffffffffffffffffffffff169060200190919050506124bb565b604051808215151515815260200191505060405180910390f35b34156106d257600080fd5b61072a600480803573ffffffffffffffffffffffffffffffffffffffff1690602001909190803573ffffffffffffffffffffffffffffffffffffffff169060200190919080356000191690602001909190505061260f565b604051808215151515815260200191505060405180910390f35b341561074f57600080fd5b61077b600480803573ffffffffffffffffffffffffffffffffffffffff16906020019091905050612bea565b604051808215151515815260200191505060405180910390f35b60006107a0336115d4565b15156107ab57600080fd5b600360048111156107b857fe5b60076000846000191660001916815260200190815260200160002060009054906101000a900460ff1660048111156107ec57fe5b1415156107f857600080fd5b600260076000846000191660001916815260200190815260200160002060006101000a81548160ff0219169083600481111561083057fe5b02179055507fa1115e024e2eb4af645b0cd37e4a3c6d4d78a450b32bb89cce69c320d6616ec433836000604051808473ffffffffffffffffffffffffffffffffffffffff1673ffffffffffffffffffffffffffffffffffffffff168152602001836000191660001916815260200182151515158152602001935050505060405180910390a160019050919050565b60006108c9336115d4565b15156108d457600080fd5b600260048111156108e157fe5b60076000846000191660001916815260200190815260200160002060009054906101000a900460ff16600481111561091557fe5b14151561092157600080fd5b600360076000846000191660001916815260200190815260200160002060006101000a81548160ff0219169083600481111561095957fe5b02179055507fa1115e024e2eb4af645b0cd37e4a3c6d4d78a450b32bb89cce69c320d6616ec433836001604051808473ffffffffffffffffffffffffffffffffffffffff1673ffffffffffffffffffffffffffffffffffffffff168152602001836000191660001916815260200182151515158152602001935050505060405180910390a160019050919050565b60008015156109f583612bea565b15151415610a065760019050610b36565b600b6000600254600c60008673ffffffffffffffffffffffffffffffffffffffff1673ffffffffffffffffffffffffffffffffffffffff16815260200190815260200160002054604051808360001916600019168152602001807f6d696e7457686974654c69737400000000000000000000000000000000000000815250600d018281526020019250505060405180910390206000191660001916815260200190815260200160002060006101000a81549073ffffffffffffffffffffffffffffffffffffffff0219169055600c60008373ffffffffffffffffffffffffffffffffffffffff1673ffffffffffffffffffffffffffffffffffffffff16815260200190815260200160002060009055610b2b6001600d54612c4d90919063ffffffff16565b600d81905550600190505b919050565b600060011515610b4a83612bea565b15151415610b5b5760019050610c6d565b610b716001600d54612c6690919063ffffffff16565b600d8190555081600b6000600254600d54604051808360001916600019168152602001807f6d696e7457686974654c69737400000000000000000000000000000000000000815250600d018281526020019250505060405180910390206000191660001916815260200190815260200160002060006101000a81548173ffffffffffffffffffffffffffffffffffffffff021916908373ffffffffffffffffffffffffffffffffffffffff160217905550600d54600c60008473ffffffffffffffffffffffffffffffffffffffff1673ffffffffffffffffffffffffffffffffffffffff16815260200190815260200160002081905550600190505b919050565b6000610c7d336115d4565b1515610c8857600080fd5b60016004811115610c9557fe5b60076000846000191660001916815260200190815260200160002060009054906101000a900460ff166004811115610cc957fe5b141515610cd557600080fd5b3360056000846000191660001916815260200190815260200160002060006101000a81548173ffffffffffffffffffffffffffffffffffffffff021916908373ffffffffffffffffffffffffffffffffffffffff160217905550610d9c60066000846000191660001916815260200190815260200160002054600860003373ffffffffffffffffffffffffffffffffffffffff1673ffffffffffffffffffffffffffffffffffffffff16815260200190815260200160002054612c6690919063ffffffff16565b600860003373ffffffffffffffffffffffffffffffffffffffff1673ffffffffffffffffffffffffffffffffffffffff16815260200190815260200160002081905550600360076000846000191660001916815260200190815260200160002060006101000a81548160ff02191690836004811115610e1757fe5b02179055507f3ae29c7ded755dbb36f6c5fb8eed2b4c409c22ecfc2215b4cfe4eca41d5bc8e43383604051808373ffffffffffffffffffffffffffffffffffffffff1673ffffffffffffffffffffffffffffffffffffffff16815260200182600019166000191681526020019250505060405180910390a160019050919050565b60005481565b60008073ffffffffffffffffffffffffffffffffffffffff168373ffffffffffffffffffffffffffffffffffffffff1614151515610edb57600080fd5b3373ffffffffffffffffffffffffffffffffffffffff1660056000846000191660001916815260200190815260200160002060009054906101000a900473ffffffffffffffffffffffffffffffffffffffff1673ffffffffffffffffffffffffffffffffffffffff16141515610f5057600080fd5b60016004811115610f5d57fe5b60076000846000191660001916815260200190815260200160002060009054906101000a900460ff166004811115610f9157fe5b141515610f9d57600080fd5b8260096000846000191660001916815260200190815260200160002060006101000a81548173ffffffffffffffffffffffffffffffffffffffff021916908373ffffffffffffffffffffffffffffffffffffffff1602179055507f491b563eb676a04115df2c230494e631273c17b95e69946ec2dd24367be1146b338484604051808473ffffffffffffffffffffffffffffffffffffffff1673ffffffffffffffffffffffffffffffffffffffff1681526020018373ffffffffffffffffffffffffffffffffffffffff1673ffffffffffffffffffffffffffffffffffffffff1681526020018260001916600019168152602001935050505060405180910390a16001905092915050565b60006110b333612bea565b15156110be57600080fd5b600060048111156110cb57fe5b60076000846000191660001916815260200190815260200160002060009054906101000a900460ff1660048111156110ff57fe5b14151561110b57600080fd5b600460009054906101000a900473ffffffffffffffffffffffffffffffffffffffff1660056000846000191660001916815260200190815260200160002060006101000a81548173ffffffffffffffffffffffffffffffffffffffff021916908373ffffffffffffffffffffffffffffffffffffffff1602179055506112166006600084600019166000191681526020019081526020016000205460086000600460009054906101000a900473ffffffffffffffffffffffffffffffffffffffff1673ffffffffffffffffffffffffffffffffffffffff1673ffffffffffffffffffffffffffffffffffffffff16815260200190815260200160002054612c6690919063ffffffff16565b60086000600460009054906101000a900473ffffffffffffffffffffffffffffffffffffffff1673ffffffffffffffffffffffffffffffffffffffff1673ffffffffffffffffffffffffffffffffffffffff1681526020019081526020016000208190555060096000836000191660001916815260200190815260200160002060006101000a81549073ffffffffffffffffffffffffffffffffffffffff0219169055600460076000846000191660001916815260200190815260200160002060006101000a81548160ff021916908360048111156112f157fe5b0217905550600160009054906101000a900473ffffffffffffffffffffffffffffffffffffffff1673ffffffffffffffffffffffffffffffffffffffff16631107de2a600254600660008660001916600019168152602001908152602001600020546000604051602001526040518363ffffffff167c010000000000000000000000000000000000000000000000000000000002815260040180836000191660001916815260200182815260200192505050602060405180830381600087803b15156113bc57600080fd5b6102c65a03f115156113cd57600080fd5b50505060405180519050507fc517e35a8833a8227e066a130068d3c6a8d05c0ce1cd56b442a1ec7e611fe37d3383604051808373ffffffffffffffffffffffffffffffffffffffff1673ffffffffffffffffffffffffffffffffffffffff16815260200182600019166000191681526020019250505060405180910390a160019050919050565b6000600860008373ffffffffffffffffffffffffffffffffffffffff1673ffffffffffffffffffffffffffffffffffffffff168152602001908152602001600020549050919050565b6000600115156114ac836115d4565b151514156114bd57600190506115cf565b6114d36001601054612c6690919063ffffffff16565b60108190555081600e6000600254601054604051808360001916600019168152602001807f7469636b657454616b657257686974654c6973740000000000000000000000008152506014018281526020019250505060405180910390206000191660001916815260200190815260200160002060006101000a81548173ffffffffffffffffffffffffffffffffffffffff021916908373ffffffffffffffffffffffffffffffffffffffff160217905550601054600f60008473ffffffffffffffffffffffffffffffffffffffff1673ffffffffffffffffffffffffffffffffffffffff16815260200190815260200160002081905550600190505b919050565b600080600f60008473ffffffffffffffffffffffffffffffffffffffff1673ffffffffffffffffffffffffffffffffffffffff16815260200190815260200160002054905060008114151561162c5760019150611631565b600091505b50919050565b600080601260008473ffffffffffffffffffffffffffffffffffffffff1673ffffffffffffffffffffffffffffffffffffffff16815260200190815260200160002054905060008114151561168f5760019150611694565b600091505b50919050565b60006116a533612bea565b15156116b057600080fd5b3360056000856000191660001916815260200190815260200160002060006101000a81548173ffffffffffffffffffffffffffffffffffffffff021916908373ffffffffffffffffffffffffffffffffffffffff16021790555081600a60008560001916600019168152602001908152602001600020816000191690555083600660008560001916600019168152602001908152602001600020819055506117a084600860003373ffffffffffffffffffffffffffffffffffffffff1673ffffffffffffffffffffffffffffffffffffffff16815260200190815260200160002054612c6690919063ffffffff16565b600860003373ffffffffffffffffffffffffffffffffffffffff1673ffffffffffffffffffffffffffffffffffffffff16815260200190815260200160002081905550600060096000856000191660001916815260200190815260200160002060006101000a81548173ffffffffffffffffffffffffffffffffffffffff021916908373ffffffffffffffffffffffffffffffffffffffff160217905550600060076000856000191660001916815260200190815260200160002060006101000a81548160ff0219169083600481111561187657fe5b0217905550600160009054906101000a900473ffffffffffffffffffffffffffffffffffffffff1673ffffffffffffffffffffffffffffffffffffffff1663a92abe37600254866000604051602001526040518363ffffffff167c010000000000000000000000000000000000000000000000000000000002815260040180836000191660001916815260200182815260200192505050602060405180830381600087803b151561192657600080fd5b6102c65a03f1151561193757600080fd5b50505060405180519050507f40646de06bf826d83057be741cda05a50f8402aee511c6211cdc15754c2ba76c33858585604051808573ffffffffffffffffffffffffffffffffffffffff1673ffffffffffffffffffffffffffffffffffffffff1681526020018481526020018360001916600019168152602001826000191660001916815260200194505050505060405180910390a1600190509392505050565b60006119e333611637565b15156119ee57600080fd5b600060048111156119fb57fe5b60076000856000191660001916815260200190815260200160002060009054906101000a900460ff166004811115611a2f57fe5b141515611a3b57600080fd5b8160056000856000191660001916815260200190815260200160002060006101000a81548173ffffffffffffffffffffffffffffffffffffffff021916908373ffffffffffffffffffffffffffffffffffffffff160217905550611b0260066000856000191660001916815260200190815260200160002054600860008573ffffffffffffffffffffffffffffffffffffffff1673ffffffffffffffffffffffffffffffffffffffff16815260200190815260200160002054612c6690919063ffffffff16565b600860008473ffffffffffffffffffffffffffffffffffffffff1673ffffffffffffffffffffffffffffffffffffffff16815260200190815260200160002081905550600060096000856000191660001916815260200190815260200160002060006101000a81548173ffffffffffffffffffffffffffffffffffffffff021916908373ffffffffffffffffffffffffffffffffffffffff160217905550600160076000856000191660001916815260200190815260200160002060006101000a81548160ff02191690836004811115611bd857fe5b0217905550600160009054906101000a900473ffffffffffffffffffffffffffffffffffffffff1673ffffffffffffffffffffffffffffffffffffffff16638de9322283600660008760001916600019168152602001908152602001600020546000604051602001526040518363ffffffff167c0100000000000000000000000000000000000000000000000000000000028152600401808373ffffffffffffffffffffffffffffffffffffffff1673ffffffffffffffffffffffffffffffffffffffff16815260200182815260200192505050602060405180830381600087803b1515611cc557600080fd5b6102c65a03f11515611cd657600080fd5b50505060405180519050507f19dcd5290ce17ab00a2715af6871815c7967b0efdbdfe568197fef858a197a75338484604051808473ffffffffffffffffffffffffffffffffffffffff1673ffffffffffffffffffffffffffffffffffffffff16815260200183600019166000191681526020018273ffffffffffffffffffffffffffffffffffffffff1673ffffffffffffffffffffffffffffffffffffffff168152602001935050505060405180910390a16001905092915050565b6000801515611da083611637565b15151415611db15760019050611ee1565b60116000600254601260008673ffffffffffffffffffffffffffffffffffffffff1673ffffffffffffffffffffffffffffffffffffffff16815260200190815260200160002054604051808360001916600019168152602001807f73656c6c657257686974654c6973740000000000000000000000000000000000815250600f018281526020019250505060405180910390206000191660001916815260200190815260200160002060006101000a81549073ffffffffffffffffffffffffffffffffffffffff0219169055601260008373ffffffffffffffffffffffffffffffffffffffff1673ffffffffffffffffffffffffffffffffffffffff16815260200190815260200160002060009055611ed66001601354612c4d90919063ffffffff16565b601381905550600190505b919050565b600060011515611ef583611637565b15151415611f065760019050612018565b611f1c6001601354612c6690919063ffffffff16565b6013819055508160116000600254601354604051808360001916600019168152602001807f73656c6c657257686974654c6973740000000000000000000000000000000000815250600f018281526020019250505060405180910390206000191660001916815260200190815260200160002060006101000a81548173ffffffffffffffffffffffffffffffffffffffff021916908373ffffffffffffffffffffffffffffffffffffffff160217905550601354601260008473ffffffffffffffffffffffffffffffffffffffff1673ffffffffffffffffffffffffffffffffffffffff16815260200190815260200160002081905550600190505b919050565b600061202833612bea565b151561203357600080fd5b6001600481111561204057fe5b60076000846000191660001916815260200190815260200160002060009054906101000a900460ff16600481111561207457fe5b14151561208057600080fd5b612128600660008460001916600019168152602001908152602001600020546008600060056000876000191660001916815260200190815260200160002060009054906101000a900473ffffffffffffffffffffffffffffffffffffffff1673ffffffffffffffffffffffffffffffffffffffff1673ffffffffffffffffffffffffffffffffffffffff16815260200190815260200160002054612c4d90919063ffffffff16565b6008600060056000866000191660001916815260200190815260200160002060009054906101000a900473ffffffffffffffffffffffffffffffffffffffff1673ffffffffffffffffffffffffffffffffffffffff1673ffffffffffffffffffffffffffffffffffffffff16815260200190815260200160002081905550600160009054906101000a900473ffffffffffffffffffffffffffffffffffffffff1673ffffffffffffffffffffffffffffffffffffffff16631e9a695060056000856000191660001916815260200190815260200160002060009054906101000a900473ffffffffffffffffffffffffffffffffffffffff16600660008660001916600019168152602001908152602001600020546000604051602001526040518363ffffffff167c0100000000000000000000000000000000000000000000000000000000028152600401808373ffffffffffffffffffffffffffffffffffffffff1673ffffffffffffffffffffffffffffffffffffffff16815260200182815260200192505050602060405180830381600087803b15156122c957600080fd5b6102c65a03f115156122da57600080fd5b50505060405180519050503360056000846000191660001916815260200190815260200160002060006101000a81548173ffffffffffffffffffffffffffffffffffffffff021916908373ffffffffffffffffffffffffffffffffffffffff16021790555060096000836000191660001916815260200190815260200160002060006101000a81549073ffffffffffffffffffffffffffffffffffffffff0219169055600060076000846000191660001916815260200190815260200160002060006101000a81548160ff021916908360048111156123b557fe5b02179055507f89f67af83d9df74c4ffd7d1b2cbe84847fb0305fed300d6377069e6a4adc55623383604051808373ffffffffffffffffffffffffffffffffffffffff1673ffffffffffffffffffffffffffffffffffffffff16815260200182600019166000191681526020019250505060405180910390a160019050919050565b60008173ffffffffffffffffffffffffffffffffffffffff1660096000856000191660001916815260200190815260200160002060009054906101000a900473ffffffffffffffffffffffffffffffffffffffff1673ffffffffffffffffffffffffffffffffffffffff1614156124b057600190506124b5565b600090505b92915050565b60008015156124c9836115d4565b151514156124da576001905061260a565b600e6000600254600f60008673ffffffffffffffffffffffffffffffffffffffff1673ffffffffffffffffffffffffffffffffffffffff16815260200190815260200160002054604051808360001916600019168152602001807f7469636b657454616b657257686974654c6973740000000000000000000000008152506014018281526020019250505060405180910390206000191660001916815260200190815260200160002060006101000a81549073ffffffffffffffffffffffffffffffffffffffff0219169055600f60008373ffffffffffffffffffffffffffffffffffffffff1673ffffffffffffffffffffffffffffffffffffffff168152602001908152602001600020600090556125ff6001601054612c4d90919063ffffffff16565b601081905550600190505b919050565b600061261a33612bea565b151561262557600080fd5b6001600481111561263257fe5b60076000846000191660001916815260200190815260200160002060009054906101000a900460ff16600481111561266657fe5b14151561267257600080fd5b600073ffffffffffffffffffffffffffffffffffffffff168373ffffffffffffffffffffffffffffffffffffffff16141515156126ae57600080fd5b600073ffffffffffffffffffffffffffffffffffffffff168473ffffffffffffffffffffffffffffffffffffffff16141515156126ea57600080fd5b8373ffffffffffffffffffffffffffffffffffffffff1660056000846000191660001916815260200190815260200160002060009054906101000a900473ffffffffffffffffffffffffffffffffffffffff1673ffffffffffffffffffffffffffffffffffffffff1614151561275f57600080fd5b8273ffffffffffffffffffffffffffffffffffffffff1660096000846000191660001916815260200190815260200160002060009054906101000a900473ffffffffffffffffffffffffffffffffffffffff1673ffffffffffffffffffffffffffffffffffffffff161415156127d457600080fd5b61284160066000846000191660001916815260200190815260200160002054600860008773ffffffffffffffffffffffffffffffffffffffff1673ffffffffffffffffffffffffffffffffffffffff16815260200190815260200160002054612c4d90919063ffffffff16565b600860008673ffffffffffffffffffffffffffffffffffffffff1673ffffffffffffffffffffffffffffffffffffffff168152602001908152602001600020819055506128f160066000846000191660001916815260200190815260200160002054600860008673ffffffffffffffffffffffffffffffffffffffff1673ffffffffffffffffffffffffffffffffffffffff16815260200190815260200160002054612c6690919063ffffffff16565b600860008573ffffffffffffffffffffffffffffffffffffffff1673ffffffffffffffffffffffffffffffffffffffff168152602001908152602001600020819055508260056000846000191660001916815260200190815260200160002060006101000a81548173ffffffffffffffffffffffffffffffffffffffff021916908373ffffffffffffffffffffffffffffffffffffffff16021790555060096000836000191660001916815260200190815260200160002060006101000a81549073ffffffffffffffffffffffffffffffffffffffff0219169055600160009054906101000a900473ffffffffffffffffffffffffffffffffffffffff1673ffffffffffffffffffffffffffffffffffffffff1663969e37568585600660008760001916600019168152602001908152602001600020546000604051602001526040518463ffffffff167c0100000000000000000000000000000000000000000000000000000000028152600401808473ffffffffffffffffffffffffffffffffffffffff1673ffffffffffffffffffffffffffffffffffffffff1681526020018373ffffffffffffffffffffffffffffffffffffffff1673ffffffffffffffffffffffffffffffffffffffff1681526020018281526020019350505050602060405180830381600087803b1515612ae857600080fd5b6102c65a03f11515612af957600080fd5b50505060405180519050507fab207e80265269785321495d72772d01c8e185514f18a3a85268589e93af893133858585604051808573ffffffffffffffffffffffffffffffffffffffff1673ffffffffffffffffffffffffffffffffffffffff1681526020018473ffffffffffffffffffffffffffffffffffffffff1673ffffffffffffffffffffffffffffffffffffffff1681526020018373ffffffffffffffffffffffffffffffffffffffff1673ffffffffffffffffffffffffffffffffffffffff168152602001826000191660001916815260200194505050505060405180910390a1600190509392505050565b600080600c60008473ffffffffffffffffffffffffffffffffffffffff1673ffffffffffffffffffffffffffffffffffffffff168152602001908152602001600020549050600081141515612c425760019150612c47565b600091505b50919050565b6000828211151515612c5b57fe5b818303905092915050565b6000808284019050838110151515612c7a57fe5b80915050929150505600a165627a7a723058208df6112e76260f88abacfa8827cc8900aa20847bfdb79594f809ac723741fe0b0029",
  "source": "pragma solidity ^0.4.18;\n\nimport './SafeMath.sol';\nimport './OrgToken.sol';\n\n//NonFungibleTicket can be used for ticket pool\n//MintableToken can be used for organization token\ncontract NonFungibleTicket {\n    using SafeMath for uint256;\n\n    function NonFungibleTicket(bytes32 _ticketSymbol) public {\n\n        organization = OrgToken(msg.sender);\n        supervisor = msg.sender;\n        ticketSymbol = _ticketSymbol;\n    }\n    function() payable { }\n    uint256 public version;\n\n    OrgToken organization;\n    bytes32 ticketSymbol;\n    address supervisor;\n    address voidHold;\n\n    enum Lifecycle{Init,Normal,Locked,Finished,Void}\n\n\n    //  mapping(address => uint256[]) ownerTokenID;\n    mapping(bytes32 => address) ticketOwnerAddress;\n    mapping(bytes32 => uint256) ticketValue;\n    mapping(bytes32 => Lifecycle) ticketStatus;\n    mapping(address => uint256) ownerBalance;//   \n    mapping(bytes32 => address) ticketAllowed;// the v_value is the _spender just allow one to one trade\n    mapping(bytes32 => bytes32) ticketHash;\n\n    mapping(bytes32 => address) mintWhiteList;\n    mapping(address => uint256) mintReverseWhiteList;\n    uint256 mintWhiteListIndex;\n\n    mapping(bytes32 => address) ticketTakerWhiteList;\n    mapping(address => uint256) ticketTakerReverseWhiteList;\n    uint256 ticketTakerWhiteListIndex;\n\n    mapping(bytes32 => address) sellerWhiteList;\n    mapping(address => uint256) sellerReverseWhiteList;\n    uint256 sellerWhiteListIndex;\n\n    event e_mint(address _sender, uint256 _value , bytes32 _ticket, bytes32 _tHast);\n    // sender = mint\n    function mint(uint256 _value , bytes32 _ticket, bytes32 _tHast)  public returns (bool) {\n        require(isMintWhiteList(msg.sender));\n        ticketOwnerAddress[_ticket]=msg.sender;\n        ticketHash[_ticket] = _tHast;\n        ticketValue[_ticket]=_value;\n        ownerBalance[msg.sender]=ownerBalance[msg.sender].add(_value);//Minter\n        ticketAllowed[_ticket] = address(0);\n        ticketStatus[_ticket] = Lifecycle.Init;\n\n        organization.issue(ticketSymbol,_value);\n\n        e_mint(msg.sender,_value,_ticket,_tHast);\n        return true;\n    }\n\n    event e_voidIt(address _sender, bytes32 _ticket);\n    // sender = mint\n    function voidIt (bytes32 _ticket) public returns (bool){\n        require(isMintWhiteList(msg.sender));\n        require(ticketStatus[_ticket]==Lifecycle.Init);\n\n        ticketOwnerAddress[_ticket]=voidHold;\n        ownerBalance[voidHold] = ownerBalance[voidHold].add(ticketValue[_ticket]);//\n        delete ticketAllowed[_ticket];\n        ticketStatus[_ticket]=Lifecycle.Void;\n\n        organization.melt(ticketSymbol,ticketValue[_ticket]);\n\n        e_voidIt(msg.sender, _ticket);\n        return true;\n    }\n\n    event e_sell(address _sender, bytes32 _ticket, address _to);\n    //sender = seller\n    function sell(bytes32 _ticket, address _to) public returns (bool) {\n        require(isSellerWhiteList(msg.sender));\n        require(ticketStatus[_ticket] == Lifecycle.Init);\n\n        ticketOwnerAddress[_ticket]=_to;\n        ownerBalance[_to]=ownerBalance[_to].add(ticketValue[_ticket]);\n        ticketAllowed[_ticket] = address(0);\n        ticketStatus[_ticket] = Lifecycle.Normal;\n\n        organization.purchase(_to,ticketValue[_ticket]);\n\n        e_sell(msg.sender, _ticket, _to);\n        return true;\n    }\n\n    event e_reclaim(address _sender, bytes32 _ticket);\n    //sender = mint\n    function reclaim(bytes32 _ticket) public returns(bool){\n        require(isMintWhiteList(msg.sender));\n        require(ticketStatus[_ticket]==Lifecycle.Normal);\n\n        ownerBalance[ticketOwnerAddress[_ticket]]=ownerBalance[ticketOwnerAddress[_ticket]].sub(ticketValue[_ticket]);\n\n        organization.redeem(ticketOwnerAddress[_ticket],ticketValue[_ticket]);\n\n        ticketOwnerAddress[_ticket]=msg.sender;\n        delete ticketAllowed[_ticket];\n        ticketStatus[_ticket]=Lifecycle.Init;\n\n        e_reclaim(msg.sender, _ticket);\n        return true;\n\n    }\n\n    event e_checkIn(address _sender, bytes32 _ticket);\n    // sender =taker\n    function checkIn(bytes32 _ticket) public returns (bool){\n        require(isTicketTakerWhiteList(msg.sender));\n        require(ticketStatus[_ticket]==Lifecycle.Normal);\n\n        ticketOwnerAddress[_ticket]=msg.sender;\n        ownerBalance[msg.sender]=ownerBalance[msg.sender].add(ticketValue[_ticket]);//\n        ticketStatus[_ticket]=Lifecycle.Finished;\n\n        e_checkIn(msg.sender, _ticket);\n        return true;\n    }\n\n    event e_halfTime(address _sender, bytes32 _ticket, bool _in);\n    // sender =taker\n    function halfTimeCheckOut(bytes32 _ticket) public returns (bool) {\n        require(isTicketTakerWhiteList(msg.sender));\n        require(ticketStatus[_ticket]==Lifecycle.Finished);\n\n        ticketStatus[_ticket]=Lifecycle.Locked;\n        e_halfTime(msg.sender,_ticket,false);\n        return true;\n    }\n\n    // sender =taker\n    function halfTimeCheckIn(bytes32 _ticket) public returns (bool) {\n        require(isTicketTakerWhiteList(msg.sender));\n        require(ticketStatus[_ticket]==Lifecycle.Locked);\n\n        ticketStatus[_ticket]=Lifecycle.Finished;\n        e_halfTime(msg.sender,_ticket,true);\n        return true;\n    }\n\n    event e_transfer(address _sender, address _from, address _to, bytes32 _ticket);\n    // sender = system\n    function transferFrom(address _from, address _to, bytes32 _ticket) public returns (bool) {\n        require(isMintWhiteList(msg.sender));\n        require(ticketStatus[_ticket] ==Lifecycle.Normal);\n\n        require(_to != address(0));\n        require(_from != address(0));\n        require(ticketOwnerAddress[_ticket] == _from);\n        require(ticketAllowed[_ticket] == _to);\n\n        ownerBalance[_from]=ownerBalance[_from].sub(ticketValue[_ticket]);\n        ownerBalance[_to]=ownerBalance[_to].add(ticketValue[_ticket]);\n        ticketOwnerAddress[_ticket] = _to;\n        delete ticketAllowed[_ticket];\n        organization.exchange(_from,_to,ticketValue[_ticket]);\n        e_transfer(msg.sender,_from,_to,_ticket);\n        return true;\n    }\n\n    event e_approve(address _sender,address _spender, bytes32 _ticket);\n    //sender = owner\n    function approve(address _spender, bytes32 _ticket) public returns (bool) {\n        require(_spender != address(0));\n        require(ticketOwnerAddress[_ticket] == msg.sender);\n        require(ticketStatus[_ticket] == Lifecycle.Normal);\n\n        ticketAllowed[_ticket]=_spender;\n\n        e_approve(msg.sender,_spender,_ticket);\n        return true;\n    }\n\n    function allowance(bytes32 _ticket, address _spender) public constant returns (bool) {\n        if(ticketAllowed[_ticket] == _spender){\n            return true;\n        }\n        return false;\n    }\n\n    function balanceOf(address _owner) public constant returns (uint256) {\n        return ownerBalance[_owner];\n    }\n\n\n\n    function addMintWhiteList(address _white) public returns (bool){\n        if(isMintWhiteList(_white) == true){\n            return true;\n        }\n        mintWhiteListIndex=mintWhiteListIndex.add(uint256(1));\n        mintWhiteList[keccak256(ticketSymbol,\"mintWhiteList\",mintWhiteListIndex)] = _white;\n        mintReverseWhiteList[_white] = mintWhiteListIndex;\n        return true;\n    }\n\n    function removeMintWhiteList(address _white) public returns(bool){\n        if(isMintWhiteList(_white) == false){\n            return true;\n        }\n        delete mintWhiteList[keccak256(ticketSymbol,\"mintWhiteList\",mintReverseWhiteList[_white])];\n        delete mintReverseWhiteList[_white];\n        mintWhiteListIndex=mintWhiteListIndex.sub(uint256(1));\n        return true;\n    }\n\n    function isMintWhiteList(address _white) public constant returns(bool){\n        uint256 ret = mintReverseWhiteList[_white];\n        if(ret!=uint256(0)){\n            return true;\n        }\n        return false;\n    }\n\n    function addSellerWhiteList(address _white) public returns (bool){\n        if(isSellerWhiteList(_white) == true){\n            return true;\n        }\n        sellerWhiteListIndex=sellerWhiteListIndex.add(uint256(1));\n        sellerWhiteList[keccak256(ticketSymbol,\"sellerWhiteList\",sellerWhiteListIndex)] = _white;\n        sellerReverseWhiteList[_white] = sellerWhiteListIndex;\n        return true;\n    }\n\n    function removeSellerWhiteList(address _white) public returns(bool){\n        if(isSellerWhiteList(_white) == false){\n            return true;\n        }\n        delete sellerWhiteList[keccak256(ticketSymbol,\"sellerWhiteList\",sellerReverseWhiteList[_white])];\n        delete sellerReverseWhiteList[_white];\n        sellerWhiteListIndex=sellerWhiteListIndex.sub(uint256(1));\n        return true;\n    }\n\n    function isSellerWhiteList(address _white) public constant returns(bool){\n        uint256 ret = sellerReverseWhiteList[_white];\n        if(ret!=uint256(0)){\n            return true;\n        }\n        return false;\n    }\n\n    function addTicketTakerWhiteList(address _white) public returns (bool){\n        if(isTicketTakerWhiteList(_white) == true){\n            return true;\n        }\n        ticketTakerWhiteListIndex=ticketTakerWhiteListIndex.add(uint256(1));\n        ticketTakerWhiteList[keccak256(ticketSymbol,\"ticketTakerWhiteList\",ticketTakerWhiteListIndex)] = _white;\n        ticketTakerReverseWhiteList[_white] = ticketTakerWhiteListIndex;\n        return true;\n    }\n\n    function removeTicketTakerWhiteList(address _white) public returns(bool){\n        if(isTicketTakerWhiteList(_white) == false){\n            return true;\n        }\n        delete ticketTakerWhiteList[keccak256(ticketSymbol,\"ticketTakerWhiteList\",ticketTakerReverseWhiteList[_white])];\n        delete ticketTakerReverseWhiteList[_white];\n        ticketTakerWhiteListIndex=ticketTakerWhiteListIndex.sub(uint256(1));\n        return true;\n    }\n\n    function isTicketTakerWhiteList(address _white) public constant returns(bool){\n        uint256 ret = ticketTakerReverseWhiteList[_white];\n        if(ret!=uint256(0)){\n            return true;\n        }\n        return false;\n    }\n\n}\n",
  "sourcePath": "/home/lycrus/IdeaProjects/live2/monolith/src/main/resources/truffle/contracts/NonFungibleTicket.sol",
  "compiler": {
    "name": "solc",
    "version": "0.4.18+commit.9cf6e910.Emscripten.clang"
  },
  "schemaVersion": "1.0.1",
  "updatedAt": "2017-11-30T07:59:56.462Z"
}