{
  "contractName": "Org",
  "abi": [
    {
      "constant": true,
      "inputs": [],
      "name": "gs",
      "outputs": [
        {
          "name": "",
          "type": "address"
        }
      ],
      "payable": false,
      "stateMutability": "view",
      "type": "function"
    },
    {
      "constant": true,
      "inputs": [],
      "name": "name",
      "outputs": [
        {
          "name": "",
          "type": "bytes32"
        }
      ],
      "payable": false,
      "stateMutability": "view",
      "type": "function"
    },
    {
      "constant": false,
      "inputs": [
        {
          "name": "_to",
          "type": "address"
        },
        {
          "name": "_amount",
          "type": "uint256"
        }
      ],
      "name": "redeem",
      "outputs": [
        {
          "name": "",
          "type": "uint256"
        }
      ],
      "payable": false,
      "stateMutability": "nonpayable",
      "type": "function"
    },
    {
      "constant": false,
      "inputs": [
        {
          "name": "_value",
          "type": "uint256"
        }
      ],
      "name": "voidBack",
      "outputs": [
        {
          "name": "",
          "type": "uint256"
        }
      ],
      "payable": false,
      "stateMutability": "nonpayable",
      "type": "function"
    },
    {
      "constant": false,
      "inputs": [
        {
          "name": "_name",
          "type": "bytes32"
        },
        {
          "name": "supervise",
          "type": "address"
        }
      ],
      "name": "openActivity",
      "outputs": [
        {
          "name": "",
          "type": "address"
        }
      ],
      "payable": false,
      "stateMutability": "nonpayable",
      "type": "function"
    },
    {
      "constant": true,
      "inputs": [],
      "name": "platform",
      "outputs": [
        {
          "name": "",
          "type": "address"
        }
      ],
      "payable": false,
      "stateMutability": "view",
      "type": "function"
    },
    {
      "constant": true,
      "inputs": [],
      "name": "supervisor",
      "outputs": [
        {
          "name": "",
          "type": "address"
        }
      ],
      "payable": false,
      "stateMutability": "view",
      "type": "function"
    },
    {
      "constant": false,
      "inputs": [
        {
          "name": "_from",
          "type": "address"
        },
        {
          "name": "_to",
          "type": "address"
        },
        {
          "name": "_amount",
          "type": "uint256"
        }
      ],
      "name": "assign",
      "outputs": [
        {
          "name": "",
          "type": "uint256"
        }
      ],
      "payable": false,
      "stateMutability": "nonpayable",
      "type": "function"
    },
    {
      "constant": false,
      "inputs": [
        {
          "name": "_from",
          "type": "address"
        },
        {
          "name": "_to",
          "type": "address"
        },
        {
          "name": "_amount",
          "type": "uint256"
        }
      ],
      "name": "deal",
      "outputs": [
        {
          "name": "",
          "type": "uint256"
        }
      ],
      "payable": false,
      "stateMutability": "nonpayable",
      "type": "function"
    },
    {
      "constant": false,
      "inputs": [
        {
          "name": "_to",
          "type": "address"
        },
        {
          "name": "_amount",
          "type": "uint256"
        }
      ],
      "name": "purchase",
      "outputs": [
        {
          "name": "",
          "type": "uint256"
        }
      ],
      "payable": false,
      "stateMutability": "nonpayable",
      "type": "function"
    },
    {
      "constant": true,
      "inputs": [],
      "name": "totalIssuedValue",
      "outputs": [
        {
          "name": "",
          "type": "uint256"
        }
      ],
      "payable": false,
      "stateMutability": "view",
      "type": "function"
    },
    {
      "constant": false,
      "inputs": [
        {
          "name": "_value",
          "type": "uint256"
        }
      ],
      "name": "issue",
      "outputs": [
        {
          "name": "",
          "type": "uint256"
        }
      ],
      "payable": false,
      "stateMutability": "nonpayable",
      "type": "function"
    },
    {
      "inputs": [
        {
          "name": "_name",
          "type": "bytes32"
        },
        {
          "name": "_supervisor",
          "type": "address"
        },
        {
          "name": "_gs",
          "type": "address"
        }
      ],
      "payable": false,
      "stateMutability": "nonpayable",
      "type": "constructor"
    },
    {
      "payable": true,
      "stateMutability": "payable",
      "type": "fallback"
    }
  ],
  "bytecode": "0x6060604052341561000f57600080fd5b60405160608061873483398101604052808051906020019091908051906020019091908051906020019091905050826001816000191690555081600260006101000a81548173ffffffffffffffffffffffffffffffffffffffff021916908373ffffffffffffffffffffffffffffffffffffffff16021790555080600360006101000a81548173ffffffffffffffffffffffffffffffffffffffff021916908373ffffffffffffffffffffffffffffffffffffffff16021790555033600460006101000a81548173ffffffffffffffffffffffffffffffffffffffff021916908373ffffffffffffffffffffffffffffffffffffffff1602179055505050506186178061011d6000396000f3006060604052600436106100b9576000357c0100000000000000000000000000000000000000000000000000000000900463ffffffff168062e71aaf146100bb57806306fdde03146101105780631e9a6950146101415780631eb4ea201461019757806337e11710146101ce5780634bde38c81461025457806356e4b68b146102a95780635f52d44e146102fe5780636bce989b146103735780638de93222146103e8578063cb53312e1461043e578063cc872b6614610467575b005b34156100c657600080fd5b6100ce61049e565b604051808273ffffffffffffffffffffffffffffffffffffffff1673ffffffffffffffffffffffffffffffffffffffff16815260200191505060405180910390f35b341561011b57600080fd5b6101236104c4565b60405180826000191660001916815260200191505060405180910390f35b341561014c57600080fd5b610181600480803573ffffffffffffffffffffffffffffffffffffffff169060200190919080359060200190919050506104ca565b6040518082815260200191505060405180910390f35b34156101a257600080fd5b6101b8600480803590602001909190505061084e565b6040518082815260200191505060405180910390f35b34156101d957600080fd5b61021260048080356000191690602001909190803573ffffffffffffffffffffffffffffffffffffffff1690602001909190505061092a565b604051808273ffffffffffffffffffffffffffffffffffffffff1673ffffffffffffffffffffffffffffffffffffffff16815260200191505060405180910390f35b341561025f57600080fd5b610267610c68565b604051808273ffffffffffffffffffffffffffffffffffffffff1673ffffffffffffffffffffffffffffffffffffffff16815260200191505060405180910390f35b34156102b457600080fd5b6102bc610c8e565b604051808273ffffffffffffffffffffffffffffffffffffffff1673ffffffffffffffffffffffffffffffffffffffff16815260200191505060405180910390f35b341561030957600080fd5b61035d600480803573ffffffffffffffffffffffffffffffffffffffff1690602001909190803573ffffffffffffffffffffffffffffffffffffffff16906020019091908035906020019091905050610cb4565b6040518082815260200191505060405180910390f35b341561037e57600080fd5b6103d2600480803573ffffffffffffffffffffffffffffffffffffffff1690602001909190803573ffffffffffffffffffffffffffffffffffffffff169060200190919080359060200190919050506112c7565b6040518082815260200191505060405180910390f35b34156103f357600080fd5b610428600480803573ffffffffffffffffffffffffffffffffffffffff169060200190919080359060200190919050506118da565b6040518082815260200191505060405180910390f35b341561044957600080fd5b610451611c5e565b6040518082815260200191505060405180910390f35b341561047257600080fd5b6104886004808035906020019091905050611c64565b6040518082815260200191505060405180910390f35b600360009054906101000a900473ffffffffffffffffffffffffffffffffffffffff1681565b60015481565b600080600360009054906101000a900473ffffffffffffffffffffffffffffffffffffffff1673ffffffffffffffffffffffffffffffffffffffff16633b600b6460015460405180807f4f7267000000000000000000000000000000000000000000000000000000000081525060030182600019166000191681526020019150506040518091039020866000604051602001526040518363ffffffff167c01000000000000000000000000000000000000000000000000000000000281526004018083600019166000191681526020018273ffffffffffffffffffffffffffffffffffffffff1673ffffffffffffffffffffffffffffffffffffffff16815260200192505050602060405180830381600087803b15156105e957600080fd5b6102c65a03f115156105fa57600080fd5b5050506040518051905090506106198382611d4090919063ffffffff16565b9050600360009054906101000a900473ffffffffffffffffffffffffffffffffffffffff1673ffffffffffffffffffffffffffffffffffffffff16630415c08860015460405180807f4f726700000000000000000000000000000000000000000000000000000000008152506003018260001916600019168152602001915050604051809103902086846000604051602001526040518463ffffffff167c01000000000000000000000000000000000000000000000000000000000281526004018084600019166000191681526020018373ffffffffffffffffffffffffffffffffffffffff1673ffffffffffffffffffffffffffffffffffffffff1681526020018281526020019350505050602060405180830381600087803b151561073f57600080fd5b6102c65a03f1151561075057600080fd5b5050506040518051905050600460009054906101000a900473ffffffffffffffffffffffffffffffffffffffff1673ffffffffffffffffffffffffffffffffffffffff16631e9a695085856000604051602001526040518363ffffffff167c0100000000000000000000000000000000000000000000000000000000028152600401808373ffffffffffffffffffffffffffffffffffffffff1673ffffffffffffffffffffffffffffffffffffffff16815260200182815260200192505050602060405180830381600087803b151561082857600080fd5b6102c65a03f1151561083957600080fd5b50505060405180519050508091505092915050565b600061086582600054611d4090919063ffffffff16565b600081905550600460009054906101000a900473ffffffffffffffffffffffffffffffffffffffff1673ffffffffffffffffffffffffffffffffffffffff16631eb4ea20836000604051602001526040518263ffffffff167c010000000000000000000000000000000000000000000000000000000002815260040180828152602001915050602060405180830381600087803b151561090457600080fd5b6102c65a03f1151561091557600080fd5b50505060405180519050506000549050919050565b6000806000600360009054906101000a900473ffffffffffffffffffffffffffffffffffffffff1673ffffffffffffffffffffffffffffffffffffffff166396be894f60405180807f4f72670000000000000000000000000000000000000000000000000000000000815250600301905060405180910390206000604051602001526040518263ffffffff167c0100000000000000000000000000000000000000000000000000000000028152600401808260001916600019168152602001807f706f696e74657200000000000000000000000000000000000000000000000000815250602001915050602060405180830381600087803b1515610a2d57600080fd5b6102c65a03f11515610a3e57600080fd5b5050506040518051905091508484600360009054906101000a900473ffffffffffffffffffffffffffffffffffffffff16610a77611d77565b8084600019166000191681526020018373ffffffffffffffffffffffffffffffffffffffff1673ffffffffffffffffffffffffffffffffffffffff1681526020018273ffffffffffffffffffffffffffffffffffffffff1673ffffffffffffffffffffffffffffffffffffffff1681526020019350505050604051809103906000f0801515610b0557600080fd5b9050600360009054906101000a900473ffffffffffffffffffffffffffffffffffffffff1673ffffffffffffffffffffffffffffffffffffffff166367f16e4260405180807f4f72670000000000000000000000000000000000000000000000000000000000815250600301807f41637469766974790000000000000000000000000000000000000000000000008152506008019050604051809103902084846000604051602001526040518463ffffffff167c01000000000000000000000000000000000000000000000000000000000281526004018084600019166000191681526020018381526020018273ffffffffffffffffffffffffffffffffffffffff1673ffffffffffffffffffffffffffffffffffffffff1681526020019350505050602060405180830381600087803b1515610c4157600080fd5b6102c65a03f11515610c5257600080fd5b5050506040518051905050809250505092915050565b600460009054906101000a900473ffffffffffffffffffffffffffffffffffffffff1681565b600260009054906101000a900473ffffffffffffffffffffffffffffffffffffffff1681565b600080600360009054906101000a900473ffffffffffffffffffffffffffffffffffffffff1673ffffffffffffffffffffffffffffffffffffffff16633b600b6460015460405180807f4f7267000000000000000000000000000000000000000000000000000000000081525060030182600019166000191681526020019150506040518091039020876000604051602001526040518363ffffffff167c01000000000000000000000000000000000000000000000000000000000281526004018083600019166000191681526020018273ffffffffffffffffffffffffffffffffffffffff1673ffffffffffffffffffffffffffffffffffffffff16815260200192505050602060405180830381600087803b1515610dd357600080fd5b6102c65a03f11515610de457600080fd5b505050604051805190509050610e038382611d4090919063ffffffff16565b9050600360009054906101000a900473ffffffffffffffffffffffffffffffffffffffff1673ffffffffffffffffffffffffffffffffffffffff16630415c08860015460405180807f4f726700000000000000000000000000000000000000000000000000000000008152506003018260001916600019168152602001915050604051809103902087846000604051602001526040518463ffffffff167c01000000000000000000000000000000000000000000000000000000000281526004018084600019166000191681526020018373ffffffffffffffffffffffffffffffffffffffff1673ffffffffffffffffffffffffffffffffffffffff1681526020018281526020019350505050602060405180830381600087803b1515610f2957600080fd5b6102c65a03f11515610f3a57600080fd5b5050506040518051905050600360009054906101000a900473ffffffffffffffffffffffffffffffffffffffff1673ffffffffffffffffffffffffffffffffffffffff16633b600b6460015460405180807f4f7267000000000000000000000000000000000000000000000000000000000081525060030182600019166000191681526020019150506040518091039020866000604051602001526040518363ffffffff167c01000000000000000000000000000000000000000000000000000000000281526004018083600019166000191681526020018273ffffffffffffffffffffffffffffffffffffffff1673ffffffffffffffffffffffffffffffffffffffff16815260200192505050602060405180830381600087803b151561106157600080fd5b6102c65a03f1151561107257600080fd5b5050506040518051905090506110918382611d5990919063ffffffff16565b9050600360009054906101000a900473ffffffffffffffffffffffffffffffffffffffff1673ffffffffffffffffffffffffffffffffffffffff16630415c08860015460405180807f4f726700000000000000000000000000000000000000000000000000000000008152506003018260001916600019168152602001915050604051809103902086846000604051602001526040518463ffffffff167c01000000000000000000000000000000000000000000000000000000000281526004018084600019166000191681526020018373ffffffffffffffffffffffffffffffffffffffff1673ffffffffffffffffffffffffffffffffffffffff1681526020018281526020019350505050602060405180830381600087803b15156111b757600080fd5b6102c65a03f115156111c857600080fd5b5050506040518051905050600460009054906101000a900473ffffffffffffffffffffffffffffffffffffffff1673ffffffffffffffffffffffffffffffffffffffff1663be76048885856000604051602001526040518363ffffffff167c0100000000000000000000000000000000000000000000000000000000028152600401808373ffffffffffffffffffffffffffffffffffffffff1673ffffffffffffffffffffffffffffffffffffffff16815260200182815260200192505050602060405180830381600087803b15156112a057600080fd5b6102c65a03f115156112b157600080fd5b5050506040518051905050829150509392505050565b600080600360009054906101000a900473ffffffffffffffffffffffffffffffffffffffff1673ffffffffffffffffffffffffffffffffffffffff16633b600b6460015460405180807f4f7267000000000000000000000000000000000000000000000000000000000081525060030182600019166000191681526020019150506040518091039020876000604051602001526040518363ffffffff167c01000000000000000000000000000000000000000000000000000000000281526004018083600019166000191681526020018273ffffffffffffffffffffffffffffffffffffffff1673ffffffffffffffffffffffffffffffffffffffff16815260200192505050602060405180830381600087803b15156113e657600080fd5b6102c65a03f115156113f757600080fd5b5050506040518051905090506114168382611d4090919063ffffffff16565b9050600360009054906101000a900473ffffffffffffffffffffffffffffffffffffffff1673ffffffffffffffffffffffffffffffffffffffff16630415c08860015460405180807f4f726700000000000000000000000000000000000000000000000000000000008152506003018260001916600019168152602001915050604051809103902087846000604051602001526040518463ffffffff167c01000000000000000000000000000000000000000000000000000000000281526004018084600019166000191681526020018373ffffffffffffffffffffffffffffffffffffffff1673ffffffffffffffffffffffffffffffffffffffff1681526020018281526020019350505050602060405180830381600087803b151561153c57600080fd5b6102c65a03f1151561154d57600080fd5b5050506040518051905050600360009054906101000a900473ffffffffffffffffffffffffffffffffffffffff1673ffffffffffffffffffffffffffffffffffffffff16633b600b6460015460405180807f4f7267000000000000000000000000000000000000000000000000000000000081525060030182600019166000191681526020019150506040518091039020866000604051602001526040518363ffffffff167c01000000000000000000000000000000000000000000000000000000000281526004018083600019166000191681526020018273ffffffffffffffffffffffffffffffffffffffff1673ffffffffffffffffffffffffffffffffffffffff16815260200192505050602060405180830381600087803b151561167457600080fd5b6102c65a03f1151561168557600080fd5b5050506040518051905090506116a48382611d5990919063ffffffff16565b9050600360009054906101000a900473ffffffffffffffffffffffffffffffffffffffff1673ffffffffffffffffffffffffffffffffffffffff16630415c08860015460405180807f4f726700000000000000000000000000000000000000000000000000000000008152506003018260001916600019168152602001915050604051809103902086846000604051602001526040518463ffffffff167c01000000000000000000000000000000000000000000000000000000000281526004018084600019166000191681526020018373ffffffffffffffffffffffffffffffffffffffff1673ffffffffffffffffffffffffffffffffffffffff1681526020018281526020019350505050602060405180830381600087803b15156117ca57600080fd5b6102c65a03f115156117db57600080fd5b5050506040518051905050600460009054906101000a900473ffffffffffffffffffffffffffffffffffffffff1673ffffffffffffffffffffffffffffffffffffffff1663be76048885856000604051602001526040518363ffffffff167c0100000000000000000000000000000000000000000000000000000000028152600401808373ffffffffffffffffffffffffffffffffffffffff1673ffffffffffffffffffffffffffffffffffffffff16815260200182815260200192505050602060405180830381600087803b15156118b357600080fd5b6102c65a03f115156118c457600080fd5b5050506040518051905050829150509392505050565b600080600360009054906101000a900473ffffffffffffffffffffffffffffffffffffffff1673ffffffffffffffffffffffffffffffffffffffff16633b600b6460015460405180807f4f7267000000000000000000000000000000000000000000000000000000000081525060030182600019166000191681526020019150506040518091039020866000604051602001526040518363ffffffff167c01000000000000000000000000000000000000000000000000000000000281526004018083600019166000191681526020018273ffffffffffffffffffffffffffffffffffffffff1673ffffffffffffffffffffffffffffffffffffffff16815260200192505050602060405180830381600087803b15156119f957600080fd5b6102c65a03f11515611a0a57600080fd5b505050604051805190509050611a298382611d5990919063ffffffff16565b9050600360009054906101000a900473ffffffffffffffffffffffffffffffffffffffff1673ffffffffffffffffffffffffffffffffffffffff16630415c08860015460405180807f4f726700000000000000000000000000000000000000000000000000000000008152506003018260001916600019168152602001915050604051809103902086846000604051602001526040518463ffffffff167c01000000000000000000000000000000000000000000000000000000000281526004018084600019166000191681526020018373ffffffffffffffffffffffffffffffffffffffff1673ffffffffffffffffffffffffffffffffffffffff1681526020018281526020019350505050602060405180830381600087803b1515611b4f57600080fd5b6102c65a03f11515611b6057600080fd5b5050506040518051905050600460009054906101000a900473ffffffffffffffffffffffffffffffffffffffff1673ffffffffffffffffffffffffffffffffffffffff16638de9322285856000604051602001526040518363ffffffff167c0100000000000000000000000000000000000000000000000000000000028152600401808373ffffffffffffffffffffffffffffffffffffffff1673ffffffffffffffffffffffffffffffffffffffff16815260200182815260200192505050602060405180830381600087803b1515611c3857600080fd5b6102c65a03f11515611c4957600080fd5b50505060405180519050508091505092915050565b60005481565b6000611c7b82600054611d5990919063ffffffff16565b600081905550600460009054906101000a900473ffffffffffffffffffffffffffffffffffffffff1673ffffffffffffffffffffffffffffffffffffffff1663cc872b66836000604051602001526040518263ffffffff167c010000000000000000000000000000000000000000000000000000000002815260040180828152602001915050602060405180830381600087803b1515611d1a57600080fd5b6102c65a03f11515611d2b57600080fd5b50505060405180519050506000549050919050565b6000828211151515611d4e57fe5b818303905092915050565b6000808284019050838110151515611d6d57fe5b8091505092915050565b60405161686480611d888339019056006060604052341561000f57600080fd5b604051606080620068648339810160405280805190602001909190805190602001909190805190602001909190505080600560006101000a81548173ffffffffffffffffffffffffffffffffffffffff021916908373ffffffffffffffffffffffffffffffffffffffff160217905550336000806101000a81548173ffffffffffffffffffffffffffffffffffffffff021916908373ffffffffffffffffffffffffffffffffffffffff16021790555081600360006101000a81548173ffffffffffffffffffffffffffffffffffffffff021916908373ffffffffffffffffffffffffffffffffffffffff16021790555082600281600019169055507316bd98edbb26b6ac07a9641d0810ffb7684e2cf0600460006101000a81548173ffffffffffffffffffffffffffffffffffffffff021916908373ffffffffffffffffffffffffffffffffffffffff1602179055505050506166f180620001736000396000f300606060405260043610620000c7576000357c0100000000000000000000000000000000000000000000000000000000900463ffffffff168063072032cf14620000c95780630bd4d205146200010b57806318f9293c146200014d5780634262336014620001cd5780634662d1dd146200021d5780635cd2f4d3146200025f578063627b114914620002c05780636d66d1c31462000340578063936a9ade1462000382578063944dfc2a14620003da57806396afb365146200043b578063980c6621146200047d575b005b3415620000d557600080fd5b620000f1600480803560001916906020019091905050620004de565b604051808215151515815260200191505060405180910390f35b34156200011757600080fd5b62000133600480803560001916906020019091905050620007f2565b604051808215151515815260200191505060405180910390f35b34156200015957600080fd5b620001b3600480803573ffffffffffffffffffffffffffffffffffffffff1690602001909190803573ffffffffffffffffffffffffffffffffffffffff169060200190919080356000191690602001909190505062000b06565b604051808215151515815260200191505060405180910390f35b3415620001d957600080fd5b62000207600480803573ffffffffffffffffffffffffffffffffffffffff16906020019091905050620018ce565b6040518082815260200191505060405180910390f35b34156200022957600080fd5b6200024560048080356000191690602001909190505062001a26565b604051808215151515815260200191505060405180910390f35b34156200026b57600080fd5b620002a6600480803573ffffffffffffffffffffffffffffffffffffffff169060200190919080356000191690602001909190505062002078565b604051808215151515815260200191505060405180910390f35b3415620002cc57600080fd5b62000326600480803573ffffffffffffffffffffffffffffffffffffffff1690602001909190803573ffffffffffffffffffffffffffffffffffffffff1690602001909190803560001916906020019091905050620024d5565b604051808215151515815260200191505060405180910390f35b34156200034c57600080fd5b620003686004808035600019169060200190919050506200329d565b604051808215151515815260200191505060405180910390f35b34156200038e57600080fd5b620003c06004808035906020019091908035600019169060200190919080356000191690602001909190505062003c15565b604051808215151515815260200191505060405180910390f35b3415620003e657600080fd5b6200042160048080356000191690602001909190803573ffffffffffffffffffffffffffffffffffffffff1690602001909190505062004242565b604051808215151515815260200191505060405180910390f35b34156200044757600080fd5b6200046360048080356000191690602001909190505062004f05565b604051808215151515815260200191505060405180910390f35b34156200048957600080fd5b620004c460048080356000191690602001909190803573ffffffffffffffffffffffffffffffffffffffff1690602001909190505062005db3565b604051808215151515815260200191505060405180910390f35b600080600560009054906101000a900473ffffffffffffffffffffffffffffffffffffffff1673ffffffffffffffffffffffffffffffffffffffff16635480573d60405180807f4163746976697479000000000000000000000000000000000000000000000000815250600801807f5469636b6574000000000000000000000000000000000000000000000000000081525060060190506040518091039020856000604051602001526040518363ffffffff167c0100000000000000000000000000000000000000000000000000000000028152600401808360001916600019168152602001826000191660001916815260200192505050602060405180830381600087803b1515620005f057600080fd5b6102c65a03f115156200060257600080fd5b505050604051805190509050600460068111156200061c57fe5b620006af8273ffffffffffffffffffffffffffffffffffffffff16633bc21fcb6000604051602001526040518163ffffffff167c0100000000000000000000000000000000000000000000000000000000028152600401602060405180830381600087803b15156200068d57600080fd5b6102c65a03f115156200069f57600080fd5b5050506040518051905062005fb6565b6006811115620006bb57fe5b141515620006c857600080fd5b8073ffffffffffffffffffffffffffffffffffffffff1663f64532b9620006f0600362005fe7565b6000604051602001526040518263ffffffff167c010000000000000000000000000000000000000000000000000000000002815260040180828152602001915050602060405180830381600087803b15156200074b57600080fd5b6102c65a03f115156200075d57600080fd5b50505060405180519050507fa1115e024e2eb4af645b0cd37e4a3c6d4d78a450b32bb89cce69c320d6616ec433846000604051808473ffffffffffffffffffffffffffffffffffffffff1673ffffffffffffffffffffffffffffffffffffffff168152602001836000191660001916815260200182151515158152602001935050505060405180910390a16001915050919050565b600080600560009054906101000a900473ffffffffffffffffffffffffffffffffffffffff1673ffffffffffffffffffffffffffffffffffffffff16635480573d60405180807f4163746976697479000000000000000000000000000000000000000000000000815250600801807f5469636b6574000000000000000000000000000000000000000000000000000081525060060190506040518091039020856000604051602001526040518363ffffffff167c0100000000000000000000000000000000000000000000000000000000028152600401808360001916600019168152602001826000191660001916815260200192505050602060405180830381600087803b15156200090457600080fd5b6102c65a03f115156200091657600080fd5b505050604051805190509050600360068111156200093057fe5b620009c38273ffffffffffffffffffffffffffffffffffffffff16633bc21fcb6000604051602001526040518163ffffffff167c0100000000000000000000000000000000000000000000000000000000028152600401602060405180830381600087803b1515620009a157600080fd5b6102c65a03f11515620009b357600080fd5b5050506040518051905062005fb6565b6006811115620009cf57fe5b141515620009dc57600080fd5b8073ffffffffffffffffffffffffffffffffffffffff1663f64532b962000a04600462005fe7565b6000604051602001526040518263ffffffff167c010000000000000000000000000000000000000000000000000000000002815260040180828152602001915050602060405180830381600087803b151562000a5f57600080fd5b6102c65a03f1151562000a7157600080fd5b50505060405180519050507fa1115e024e2eb4af645b0cd37e4a3c6d4d78a450b32bb89cce69c320d6616ec433846001604051808473ffffffffffffffffffffffffffffffffffffffff1673ffffffffffffffffffffffffffffffffffffffff168152602001836000191660001916815260200182151515158152602001935050505060405180910390a16001915050919050565b60008060008073ffffffffffffffffffffffffffffffffffffffff168573ffffffffffffffffffffffffffffffffffffffff161415151562000b4757600080fd5b600073ffffffffffffffffffffffffffffffffffffffff168673ffffffffffffffffffffffffffffffffffffffff161415151562000b8457600080fd5b600560009054906101000a900473ffffffffffffffffffffffffffffffffffffffff1673ffffffffffffffffffffffffffffffffffffffff16635480573d60405180807f4163746976697479000000000000000000000000000000000000000000000000815250600801807f5469636b6574000000000000000000000000000000000000000000000000000081525060060190506040518091039020866000604051602001526040518363ffffffff167c0100000000000000000000000000000000000000000000000000000000028152600401808360001916600019168152602001826000191660001916815260200192505050602060405180830381600087803b151562000c9357600080fd5b6102c65a03f1151562000ca557600080fd5b5050506040518051905091506002600681111562000cbf57fe5b62000d528373ffffffffffffffffffffffffffffffffffffffff16633bc21fcb6000604051602001526040518163ffffffff167c0100000000000000000000000000000000000000000000000000000000028152600401602060405180830381600087803b151562000d3057600080fd5b6102c65a03f1151562000d4257600080fd5b5050506040518051905062005fb6565b600681111562000d5e57fe5b14151562000d6b57600080fd5b8573ffffffffffffffffffffffffffffffffffffffff168273ffffffffffffffffffffffffffffffffffffffff16630c4f65bd6000604051602001526040518163ffffffff167c0100000000000000000000000000000000000000000000000000000000028152600401602060405180830381600087803b151562000def57600080fd5b6102c65a03f1151562000e0157600080fd5b5050506040518051905073ffffffffffffffffffffffffffffffffffffffff1614151562000e2e57600080fd5b600560009054906101000a900473ffffffffffffffffffffffffffffffffffffffff1673ffffffffffffffffffffffffffffffffffffffff16633b600b6460405180807f4163746976697479000000000000000000000000000000000000000000000000815250600801807f6f776e657242616c616e63650000000000000000000000000000000000000000815250600c0190506040518091039020886000604051602001526040518363ffffffff167c01000000000000000000000000000000000000000000000000000000000281526004018083600019166000191681526020018273ffffffffffffffffffffffffffffffffffffffff1673ffffffffffffffffffffffffffffffffffffffff16815260200192505050602060405180830381600087803b151562000f6157600080fd5b6102c65a03f1151562000f7357600080fd5b5050506040518051905090506200101c8273ffffffffffffffffffffffffffffffffffffffff1663209652556000604051602001526040518163ffffffff167c0100000000000000000000000000000000000000000000000000000000028152600401602060405180830381600087803b151562000ff057600080fd5b6102c65a03f115156200100257600080fd5b505050604051805190508262005ffd90919063ffffffff16565b9050600560009054906101000a900473ffffffffffffffffffffffffffffffffffffffff1673ffffffffffffffffffffffffffffffffffffffff166316bb2ec660405180807f4163746976697479000000000000000000000000000000000000000000000000815250600801807f6f776e657242616c616e63650000000000000000000000000000000000000000815250600c019050604051809103902088846000604051602001526040518463ffffffff167c01000000000000000000000000000000000000000000000000000000000281526004018084600019166000191681526020018373ffffffffffffffffffffffffffffffffffffffff1673ffffffffffffffffffffffffffffffffffffffff1681526020018281526020019350505050602060405180830381600087803b15156200115957600080fd5b6102c65a03f115156200116b57600080fd5b5050506040518051905050600560009054906101000a900473ffffffffffffffffffffffffffffffffffffffff1673ffffffffffffffffffffffffffffffffffffffff16633b600b6460405180807f4163746976697479000000000000000000000000000000000000000000000000815250600801807f6f776e657242616c616e63650000000000000000000000000000000000000000815250600c0190506040518091039020876000604051602001526040518363ffffffff167c01000000000000000000000000000000000000000000000000000000000281526004018083600019166000191681526020018273ffffffffffffffffffffffffffffffffffffffff1673ffffffffffffffffffffffffffffffffffffffff16815260200192505050602060405180830381600087803b1515620012a957600080fd5b6102c65a03f11515620012bb57600080fd5b505050604051805190509050620013648273ffffffffffffffffffffffffffffffffffffffff1663209652556000604051602001526040518163ffffffff167c0100000000000000000000000000000000000000000000000000000000028152600401602060405180830381600087803b15156200133857600080fd5b6102c65a03f115156200134a57600080fd5b50505060405180519050826200601790919063ffffffff16565b9050600560009054906101000a900473ffffffffffffffffffffffffffffffffffffffff1673ffffffffffffffffffffffffffffffffffffffff166316bb2ec660405180807f4163746976697479000000000000000000000000000000000000000000000000815250600801807f6f776e657242616c616e63650000000000000000000000000000000000000000815250600c019050604051809103902087846000604051602001526040518463ffffffff167c01000000000000000000000000000000000000000000000000000000000281526004018084600019166000191681526020018373ffffffffffffffffffffffffffffffffffffffff1673ffffffffffffffffffffffffffffffffffffffff1681526020018281526020019350505050602060405180830381600087803b1515620014a157600080fd5b6102c65a03f11515620014b357600080fd5b50505060405180519050508173ffffffffffffffffffffffffffffffffffffffff1663c0e79a11600080604051602001526040518263ffffffff167c0100000000000000000000000000000000000000000000000000000000028152600401808273ffffffffffffffffffffffffffffffffffffffff1673ffffffffffffffffffffffffffffffffffffffff168152602001915050602060405180830381600087803b15156200156257600080fd5b6102c65a03f115156200157457600080fd5b50505060405180519050508173ffffffffffffffffffffffffffffffffffffffff1663331a6bf5866000604051602001526040518263ffffffff167c0100000000000000000000000000000000000000000000000000000000028152600401808273ffffffffffffffffffffffffffffffffffffffff1673ffffffffffffffffffffffffffffffffffffffff168152602001915050602060405180830381600087803b15156200162357600080fd5b6102c65a03f115156200163557600080fd5b50505060405180519050506000809054906101000a900473ffffffffffffffffffffffffffffffffffffffff1673ffffffffffffffffffffffffffffffffffffffff16635f52d44e87878573ffffffffffffffffffffffffffffffffffffffff1663209652556000604051602001526040518163ffffffff167c0100000000000000000000000000000000000000000000000000000000028152600401602060405180830381600087803b1515620016ec57600080fd5b6102c65a03f11515620016fe57600080fd5b505050604051805190506000604051602001526040518463ffffffff167c0100000000000000000000000000000000000000000000000000000000028152600401808473ffffffffffffffffffffffffffffffffffffffff1673ffffffffffffffffffffffffffffffffffffffff1681526020018373ffffffffffffffffffffffffffffffffffffffff1673ffffffffffffffffffffffffffffffffffffffff1681526020018281526020019350505050602060405180830381600087803b1515620017c957600080fd5b6102c65a03f11515620017db57600080fd5b50505060405180519050507f96b8a6c410b5fb9982069ad0a077972519f672d07600b773720ec5d9d0ac082933878787604051808573ffffffffffffffffffffffffffffffffffffffff1673ffffffffffffffffffffffffffffffffffffffff1681526020018473ffffffffffffffffffffffffffffffffffffffff1673ffffffffffffffffffffffffffffffffffffffff1681526020018373ffffffffffffffffffffffffffffffffffffffff1673ffffffffffffffffffffffffffffffffffffffff168152602001826000191660001916815260200194505050505060405180910390a16001925050509392505050565b6000600560009054906101000a900473ffffffffffffffffffffffffffffffffffffffff1673ffffffffffffffffffffffffffffffffffffffff16633b600b6460405180807f4163746976697479000000000000000000000000000000000000000000000000815250600801807f6f776e657242616c616e63650000000000000000000000000000000000000000815250600c0190506040518091039020846000604051602001526040518363ffffffff167c01000000000000000000000000000000000000000000000000000000000281526004018083600019166000191681526020018273ffffffffffffffffffffffffffffffffffffffff1673ffffffffffffffffffffffffffffffffffffffff16815260200192505050602060405180830381600087803b151562001a0357600080fd5b6102c65a03f1151562001a1557600080fd5b505050604051805190509050919050565b6000806000600560009054906101000a900473ffffffffffffffffffffffffffffffffffffffff1673ffffffffffffffffffffffffffffffffffffffff16635480573d60405180807f4163746976697479000000000000000000000000000000000000000000000000815250600801807f5469636b6574000000000000000000000000000000000000000000000000000081525060060190506040518091039020866000604051602001526040518363ffffffff167c0100000000000000000000000000000000000000000000000000000000028152600401808360001916600019168152602001826000191660001916815260200192505050602060405180830381600087803b151562001b3a57600080fd5b6102c65a03f1151562001b4c57600080fd5b5050506040518051905091506002600681111562001b6657fe5b62001bf98373ffffffffffffffffffffffffffffffffffffffff16633bc21fcb6000604051602001526040518163ffffffff167c0100000000000000000000000000000000000000000000000000000000028152600401602060405180830381600087803b151562001bd757600080fd5b6102c65a03f1151562001be957600080fd5b5050506040518051905062005fb6565b600681111562001c0557fe5b14151562001c1257600080fd5b600560009054906101000a900473ffffffffffffffffffffffffffffffffffffffff1673ffffffffffffffffffffffffffffffffffffffff16633b600b6460405180807f4163746976697479000000000000000000000000000000000000000000000000815250600801807f6f776e657242616c616e63650000000000000000000000000000000000000000815250600c0190506040518091039020336000604051602001526040518363ffffffff167c01000000000000000000000000000000000000000000000000000000000281526004018083600019166000191681526020018273ffffffffffffffffffffffffffffffffffffffff1673ffffffffffffffffffffffffffffffffffffffff16815260200192505050602060405180830381600087803b151562001d4557600080fd5b6102c65a03f1151562001d5757600080fd5b50505060405180519050905062001e008273ffffffffffffffffffffffffffffffffffffffff1663209652556000604051602001526040518163ffffffff167c0100000000000000000000000000000000000000000000000000000000028152600401602060405180830381600087803b151562001dd457600080fd5b6102c65a03f1151562001de657600080fd5b50505060405180519050826200601790919063ffffffff16565b9050600560009054906101000a900473ffffffffffffffffffffffffffffffffffffffff1673ffffffffffffffffffffffffffffffffffffffff166316bb2ec660405180807f4163746976697479000000000000000000000000000000000000000000000000815250600801807f6f776e657242616c616e63650000000000000000000000000000000000000000815250600c019050604051809103902033846000604051602001526040518463ffffffff167c01000000000000000000000000000000000000000000000000000000000281526004018084600019166000191681526020018373ffffffffffffffffffffffffffffffffffffffff1673ffffffffffffffffffffffffffffffffffffffff1681526020018281526020019350505050602060405180830381600087803b151562001f3d57600080fd5b6102c65a03f1151562001f4f57600080fd5b50505060405180519050508173ffffffffffffffffffffffffffffffffffffffff1663f64532b962001f82600462005fe7565b6000604051602001526040518263ffffffff167c010000000000000000000000000000000000000000000000000000000002815260040180828152602001915050602060405180830381600087803b151562001fdd57600080fd5b6102c65a03f1151562001fef57600080fd5b50505060405180519050507f3ae29c7ded755dbb36f6c5fb8eed2b4c409c22ecfc2215b4cfe4eca41d5bc8e43385604051808373ffffffffffffffffffffffffffffffffffffffff1673ffffffffffffffffffffffffffffffffffffffff16815260200182600019166000191681526020019250505060405180910390a1600192505050919050565b600080600073ffffffffffffffffffffffffffffffffffffffff168473ffffffffffffffffffffffffffffffffffffffff1614151515620020b857600080fd5b600560009054906101000a900473ffffffffffffffffffffffffffffffffffffffff1673ffffffffffffffffffffffffffffffffffffffff16635480573d60405180807f4163746976697479000000000000000000000000000000000000000000000000815250600801807f5469636b6574000000000000000000000000000000000000000000000000000081525060060190506040518091039020856000604051602001526040518363ffffffff167c0100000000000000000000000000000000000000000000000000000000028152600401808360001916600019168152602001826000191660001916815260200192505050602060405180830381600087803b1515620021c757600080fd5b6102c65a03f11515620021d957600080fd5b50505060405180519050905060026006811115620021f357fe5b620022868273ffffffffffffffffffffffffffffffffffffffff16633bc21fcb6000604051602001526040518163ffffffff167c0100000000000000000000000000000000000000000000000000000000028152600401602060405180830381600087803b15156200226457600080fd5b6102c65a03f115156200227657600080fd5b5050506040518051905062005fb6565b60068111156200229257fe5b1415156200229f57600080fd5b3373ffffffffffffffffffffffffffffffffffffffff168173ffffffffffffffffffffffffffffffffffffffff16630c4f65bd6000604051602001526040518163ffffffff167c0100000000000000000000000000000000000000000000000000000000028152600401602060405180830381600087803b15156200232357600080fd5b6102c65a03f115156200233557600080fd5b5050506040518051905073ffffffffffffffffffffffffffffffffffffffff161415156200236257600080fd5b8073ffffffffffffffffffffffffffffffffffffffff1663c0e79a11856000604051602001526040518263ffffffff167c0100000000000000000000000000000000000000000000000000000000028152600401808273ffffffffffffffffffffffffffffffffffffffff1673ffffffffffffffffffffffffffffffffffffffff168152602001915050602060405180830381600087803b15156200240657600080fd5b6102c65a03f115156200241857600080fd5b50505060405180519050507f491b563eb676a04115df2c230494e631273c17b95e69946ec2dd24367be1146b338585604051808473ffffffffffffffffffffffffffffffffffffffff1673ffffffffffffffffffffffffffffffffffffffff1681526020018373ffffffffffffffffffffffffffffffffffffffff1673ffffffffffffffffffffffffffffffffffffffff1681526020018260001916600019168152602001935050505060405180910390a1600191505092915050565b60008060008073ffffffffffffffffffffffffffffffffffffffff168573ffffffffffffffffffffffffffffffffffffffff16141515156200251657600080fd5b600073ffffffffffffffffffffffffffffffffffffffff168673ffffffffffffffffffffffffffffffffffffffff16141515156200255357600080fd5b600560009054906101000a900473ffffffffffffffffffffffffffffffffffffffff1673ffffffffffffffffffffffffffffffffffffffff16635480573d60405180807f4163746976697479000000000000000000000000000000000000000000000000815250600801807f5469636b6574000000000000000000000000000000000000000000000000000081525060060190506040518091039020866000604051602001526040518363ffffffff167c0100000000000000000000000000000000000000000000000000000000028152600401808360001916600019168152602001826000191660001916815260200192505050602060405180830381600087803b15156200266257600080fd5b6102c65a03f115156200267457600080fd5b505050604051805190509150600260068111156200268e57fe5b620027218373ffffffffffffffffffffffffffffffffffffffff16633bc21fcb6000604051602001526040518163ffffffff167c0100000000000000000000000000000000000000000000000000000000028152600401602060405180830381600087803b1515620026ff57600080fd5b6102c65a03f115156200271157600080fd5b5050506040518051905062005fb6565b60068111156200272d57fe5b1415156200273a57600080fd5b8573ffffffffffffffffffffffffffffffffffffffff168273ffffffffffffffffffffffffffffffffffffffff16630c4f65bd6000604051602001526040518163ffffffff167c0100000000000000000000000000000000000000000000000000000000028152600401602060405180830381600087803b1515620027be57600080fd5b6102c65a03f11515620027d057600080fd5b5050506040518051905073ffffffffffffffffffffffffffffffffffffffff16141515620027fd57600080fd5b600560009054906101000a900473ffffffffffffffffffffffffffffffffffffffff1673ffffffffffffffffffffffffffffffffffffffff16633b600b6460405180807f4163746976697479000000000000000000000000000000000000000000000000815250600801807f6f776e657242616c616e63650000000000000000000000000000000000000000815250600c0190506040518091039020886000604051602001526040518363ffffffff167c01000000000000000000000000000000000000000000000000000000000281526004018083600019166000191681526020018273ffffffffffffffffffffffffffffffffffffffff1673ffffffffffffffffffffffffffffffffffffffff16815260200192505050602060405180830381600087803b15156200293057600080fd5b6102c65a03f115156200294257600080fd5b505050604051805190509050620029eb8273ffffffffffffffffffffffffffffffffffffffff1663209652556000604051602001526040518163ffffffff167c0100000000000000000000000000000000000000000000000000000000028152600401602060405180830381600087803b1515620029bf57600080fd5b6102c65a03f11515620029d157600080fd5b505050604051805190508262005ffd90919063ffffffff16565b9050600560009054906101000a900473ffffffffffffffffffffffffffffffffffffffff1673ffffffffffffffffffffffffffffffffffffffff166316bb2ec660405180807f4163746976697479000000000000000000000000000000000000000000000000815250600801807f6f776e657242616c616e63650000000000000000000000000000000000000000815250600c019050604051809103902088846000604051602001526040518463ffffffff167c01000000000000000000000000000000000000000000000000000000000281526004018084600019166000191681526020018373ffffffffffffffffffffffffffffffffffffffff1673ffffffffffffffffffffffffffffffffffffffff1681526020018281526020019350505050602060405180830381600087803b151562002b2857600080fd5b6102c65a03f1151562002b3a57600080fd5b5050506040518051905050600560009054906101000a900473ffffffffffffffffffffffffffffffffffffffff1673ffffffffffffffffffffffffffffffffffffffff16633b600b6460405180807f4163746976697479000000000000000000000000000000000000000000000000815250600801807f6f776e657242616c616e63650000000000000000000000000000000000000000815250600c0190506040518091039020876000604051602001526040518363ffffffff167c01000000000000000000000000000000000000000000000000000000000281526004018083600019166000191681526020018273ffffffffffffffffffffffffffffffffffffffff1673ffffffffffffffffffffffffffffffffffffffff16815260200192505050602060405180830381600087803b151562002c7857600080fd5b6102c65a03f1151562002c8a57600080fd5b50505060405180519050905062002d338273ffffffffffffffffffffffffffffffffffffffff1663209652556000604051602001526040518163ffffffff167c0100000000000000000000000000000000000000000000000000000000028152600401602060405180830381600087803b151562002d0757600080fd5b6102c65a03f1151562002d1957600080fd5b50505060405180519050826200601790919063ffffffff16565b9050600560009054906101000a900473ffffffffffffffffffffffffffffffffffffffff1673ffffffffffffffffffffffffffffffffffffffff166316bb2ec660405180807f4163746976697479000000000000000000000000000000000000000000000000815250600801807f6f776e657242616c616e63650000000000000000000000000000000000000000815250600c019050604051809103902087846000604051602001526040518463ffffffff167c01000000000000000000000000000000000000000000000000000000000281526004018084600019166000191681526020018373ffffffffffffffffffffffffffffffffffffffff1673ffffffffffffffffffffffffffffffffffffffff1681526020018281526020019350505050602060405180830381600087803b151562002e7057600080fd5b6102c65a03f1151562002e8257600080fd5b50505060405180519050508173ffffffffffffffffffffffffffffffffffffffff1663c0e79a11600080604051602001526040518263ffffffff167c0100000000000000000000000000000000000000000000000000000000028152600401808273ffffffffffffffffffffffffffffffffffffffff1673ffffffffffffffffffffffffffffffffffffffff168152602001915050602060405180830381600087803b151562002f3157600080fd5b6102c65a03f1151562002f4357600080fd5b50505060405180519050508173ffffffffffffffffffffffffffffffffffffffff1663331a6bf5866000604051602001526040518263ffffffff167c0100000000000000000000000000000000000000000000000000000000028152600401808273ffffffffffffffffffffffffffffffffffffffff1673ffffffffffffffffffffffffffffffffffffffff168152602001915050602060405180830381600087803b151562002ff257600080fd5b6102c65a03f115156200300457600080fd5b50505060405180519050506000809054906101000a900473ffffffffffffffffffffffffffffffffffffffff1673ffffffffffffffffffffffffffffffffffffffff16636bce989b87878573ffffffffffffffffffffffffffffffffffffffff1663209652556000604051602001526040518163ffffffff167c0100000000000000000000000000000000000000000000000000000000028152600401602060405180830381600087803b1515620030bb57600080fd5b6102c65a03f11515620030cd57600080fd5b505050604051805190506000604051602001526040518463ffffffff167c0100000000000000000000000000000000000000000000000000000000028152600401808473ffffffffffffffffffffffffffffffffffffffff1673ffffffffffffffffffffffffffffffffffffffff1681526020018373ffffffffffffffffffffffffffffffffffffffff1673ffffffffffffffffffffffffffffffffffffffff1681526020018281526020019350505050602060405180830381600087803b15156200319857600080fd5b6102c65a03f11515620031aa57600080fd5b50505060405180519050507f3ac44f230c37732a0ef9da19c9a8af3a6c206ee7c3559064cb49454b5f67d9ee33878787604051808573ffffffffffffffffffffffffffffffffffffffff1673ffffffffffffffffffffffffffffffffffffffff1681526020018473ffffffffffffffffffffffffffffffffffffffff1673ffffffffffffffffffffffffffffffffffffffff1681526020018373ffffffffffffffffffffffffffffffffffffffff1673ffffffffffffffffffffffffffffffffffffffff168152602001826000191660001916815260200194505050505060405180910390a16001925050509392505050565b6000806000600560009054906101000a900473ffffffffffffffffffffffffffffffffffffffff1673ffffffffffffffffffffffffffffffffffffffff16635480573d60405180807f4163746976697479000000000000000000000000000000000000000000000000815250600801807f5469636b6574000000000000000000000000000000000000000000000000000081525060060190506040518091039020866000604051602001526040518363ffffffff167c0100000000000000000000000000000000000000000000000000000000028152600401808360001916600019168152602001826000191660001916815260200192505050602060405180830381600087803b1515620033b157600080fd5b6102c65a03f11515620033c357600080fd5b50505060405180519050915060016006811115620033dd57fe5b620034708373ffffffffffffffffffffffffffffffffffffffff16633bc21fcb6000604051602001526040518163ffffffff167c0100000000000000000000000000000000000000000000000000000000028152600401602060405180830381600087803b15156200344e57600080fd5b6102c65a03f115156200346057600080fd5b5050506040518051905062005fb6565b60068111156200347c57fe5b1415156200348957600080fd5b8173ffffffffffffffffffffffffffffffffffffffff1663331a6bf5600460009054906101000a900473ffffffffffffffffffffffffffffffffffffffff166000604051602001526040518263ffffffff167c0100000000000000000000000000000000000000000000000000000000028152600401808273ffffffffffffffffffffffffffffffffffffffff1673ffffffffffffffffffffffffffffffffffffffff168152602001915050602060405180830381600087803b15156200354f57600080fd5b6102c65a03f115156200356157600080fd5b50505060405180519050508173ffffffffffffffffffffffffffffffffffffffff1663c0e79a11600080604051602001526040518263ffffffff167c0100000000000000000000000000000000000000000000000000000000028152600401808273ffffffffffffffffffffffffffffffffffffffff1673ffffffffffffffffffffffffffffffffffffffff168152602001915050602060405180830381600087803b15156200361057600080fd5b6102c65a03f115156200362257600080fd5b50505060405180519050508173ffffffffffffffffffffffffffffffffffffffff1663f64532b962003655600562005fe7565b6000604051602001526040518263ffffffff167c010000000000000000000000000000000000000000000000000000000002815260040180828152602001915050602060405180830381600087803b1515620036b057600080fd5b6102c65a03f11515620036c257600080fd5b5050506040518051905050600560009054906101000a900473ffffffffffffffffffffffffffffffffffffffff1673ffffffffffffffffffffffffffffffffffffffff16633b600b6460405180807f4163746976697479000000000000000000000000000000000000000000000000815250600801807f6f776e657242616c616e63650000000000000000000000000000000000000000815250600c0190506040518091039020600460009054906101000a900473ffffffffffffffffffffffffffffffffffffffff166000604051602001526040518363ffffffff167c01000000000000000000000000000000000000000000000000000000000281526004018083600019166000191681526020018273ffffffffffffffffffffffffffffffffffffffff1673ffffffffffffffffffffffffffffffffffffffff16815260200192505050602060405180830381600087803b15156200382257600080fd5b6102c65a03f115156200383457600080fd5b505050604051805190509050620038dd8273ffffffffffffffffffffffffffffffffffffffff1663209652556000604051602001526040518163ffffffff167c0100000000000000000000000000000000000000000000000000000000028152600401602060405180830381600087803b1515620038b157600080fd5b6102c65a03f11515620038c357600080fd5b50505060405180519050826200601790919063ffffffff16565b9050600560009054906101000a900473ffffffffffffffffffffffffffffffffffffffff1673ffffffffffffffffffffffffffffffffffffffff166316bb2ec660405180807f4163746976697479000000000000000000000000000000000000000000000000815250600801807f6f776e657242616c616e63650000000000000000000000000000000000000000815250600c0190506040518091039020600460009054906101000a900473ffffffffffffffffffffffffffffffffffffffff16846000604051602001526040518463ffffffff167c01000000000000000000000000000000000000000000000000000000000281526004018084600019166000191681526020018373ffffffffffffffffffffffffffffffffffffffff1673ffffffffffffffffffffffffffffffffffffffff1681526020018281526020019350505050602060405180830381600087803b151562003a3c57600080fd5b6102c65a03f1151562003a4e57600080fd5b50505060405180519050506000809054906101000a900473ffffffffffffffffffffffffffffffffffffffff1673ffffffffffffffffffffffffffffffffffffffff16631eb4ea208373ffffffffffffffffffffffffffffffffffffffff1663209652556000604051602001526040518163ffffffff167c0100000000000000000000000000000000000000000000000000000000028152600401602060405180830381600087803b151562003b0357600080fd5b6102c65a03f1151562003b1557600080fd5b505050604051805190506000604051602001526040518263ffffffff167c010000000000000000000000000000000000000000000000000000000002815260040180828152602001915050602060405180830381600087803b151562003b7a57600080fd5b6102c65a03f1151562003b8c57600080fd5b50505060405180519050507fc517e35a8833a8227e066a130068d3c6a8d05c0ce1cd56b442a1ec7e611fe37d3385604051808373ffffffffffffffffffffffffffffffffffffffff1673ffffffffffffffffffffffffffffffffffffffff16815260200182600019166000191681526020019250505060405180910390a1600192505050919050565b6000806000338662003c28600162005fe7565b60008762003c3562006036565b808673ffffffffffffffffffffffffffffffffffffffff1673ffffffffffffffffffffffffffffffffffffffff1681526020018581526020018481526020018373ffffffffffffffffffffffffffffffffffffffff1673ffffffffffffffffffffffffffffffffffffffff168152602001826000191660001916815260200195505050505050604051809103906000f080151562003cd257600080fd5b9150600560009054906101000a900473ffffffffffffffffffffffffffffffffffffffff1673ffffffffffffffffffffffffffffffffffffffff1663923dec9a60405180807f4163746976697479000000000000000000000000000000000000000000000000815250600801807f5469636b657400000000000000000000000000000000000000000000000000008152506006019050604051809103902087856000604051602001526040518463ffffffff167c010000000000000000000000000000000000000000000000000000000002815260040180846000191660001916815260200183600019166000191681526020018273ffffffffffffffffffffffffffffffffffffffff1673ffffffffffffffffffffffffffffffffffffffff1681526020019350505050602060405180830381600087803b151562003e1757600080fd5b6102c65a03f1151562003e2957600080fd5b5050506040518051905050600560009054906101000a900473ffffffffffffffffffffffffffffffffffffffff1673ffffffffffffffffffffffffffffffffffffffff16633b600b6460405180807f4163746976697479000000000000000000000000000000000000000000000000815250600801807f6f776e657242616c616e63650000000000000000000000000000000000000000815250600c0190506040518091039020336000604051602001526040518363ffffffff167c01000000000000000000000000000000000000000000000000000000000281526004018083600019166000191681526020018273ffffffffffffffffffffffffffffffffffffffff1673ffffffffffffffffffffffffffffffffffffffff16815260200192505050602060405180830381600087803b151562003f6757600080fd5b6102c65a03f1151562003f7957600080fd5b50505060405180519050905062003f9a86826200601790919063ffffffff16565b9050600560009054906101000a900473ffffffffffffffffffffffffffffffffffffffff1673ffffffffffffffffffffffffffffffffffffffff166316bb2ec660405180807f4163746976697479000000000000000000000000000000000000000000000000815250600801807f6f776e657242616c616e63650000000000000000000000000000000000000000815250600c019050604051809103902033846000604051602001526040518463ffffffff167c01000000000000000000000000000000000000000000000000000000000281526004018084600019166000191681526020018373ffffffffffffffffffffffffffffffffffffffff1673ffffffffffffffffffffffffffffffffffffffff1681526020018281526020019350505050602060405180830381600087803b1515620040d757600080fd5b6102c65a03f11515620040e957600080fd5b50505060405180519050506000809054906101000a900473ffffffffffffffffffffffffffffffffffffffff1673ffffffffffffffffffffffffffffffffffffffff1663cc872b66876000604051602001526040518263ffffffff167c010000000000000000000000000000000000000000000000000000000002815260040180828152602001915050602060405180830381600087803b15156200418d57600080fd5b6102c65a03f115156200419f57600080fd5b50505060405180519050507f40646de06bf826d83057be741cda05a50f8402aee511c6211cdc15754c2ba76c33878787604051808573ffffffffffffffffffffffffffffffffffffffff1673ffffffffffffffffffffffffffffffffffffffff1681526020018481526020018360001916600019168152602001826000191660001916815260200194505050505060405180910390a16001925050509392505050565b6000806000600560009054906101000a900473ffffffffffffffffffffffffffffffffffffffff1673ffffffffffffffffffffffffffffffffffffffff16635480573d60405180807f4163746976697479000000000000000000000000000000000000000000000000815250600801807f5469636b6574000000000000000000000000000000000000000000000000000081525060060190506040518091039020876000604051602001526040518363ffffffff167c0100000000000000000000000000000000000000000000000000000000028152600401808360001916600019168152602001826000191660001916815260200192505050602060405180830381600087803b15156200435657600080fd5b6102c65a03f115156200436857600080fd5b505050604051805190509150600160068111156200438257fe5b620044158373ffffffffffffffffffffffffffffffffffffffff16633bc21fcb6000604051602001526040518163ffffffff167c0100000000000000000000000000000000000000000000000000000000028152600401602060405180830381600087803b1515620043f357600080fd5b6102c65a03f115156200440557600080fd5b5050506040518051905062005fb6565b60068111156200442157fe5b1415156200442e57600080fd5b8173ffffffffffffffffffffffffffffffffffffffff1663331a6bf5856000604051602001526040518263ffffffff167c0100000000000000000000000000000000000000000000000000000000028152600401808273ffffffffffffffffffffffffffffffffffffffff1673ffffffffffffffffffffffffffffffffffffffff168152602001915050602060405180830381600087803b1515620044d257600080fd5b6102c65a03f11515620044e457600080fd5b5050506040518051905050600560009054906101000a900473ffffffffffffffffffffffffffffffffffffffff1673ffffffffffffffffffffffffffffffffffffffff16633b600b6460405180807f4163746976697479000000000000000000000000000000000000000000000000815250600801807f6f776e657242616c616e63650000000000000000000000000000000000000000815250600c0190506040518091039020866000604051602001526040518363ffffffff167c01000000000000000000000000000000000000000000000000000000000281526004018083600019166000191681526020018273ffffffffffffffffffffffffffffffffffffffff1673ffffffffffffffffffffffffffffffffffffffff16815260200192505050602060405180830381600087803b15156200462257600080fd5b6102c65a03f115156200463457600080fd5b505050604051805190509050620046dd8273ffffffffffffffffffffffffffffffffffffffff1663209652556000604051602001526040518163ffffffff167c0100000000000000000000000000000000000000000000000000000000028152600401602060405180830381600087803b1515620046b157600080fd5b6102c65a03f11515620046c357600080fd5b50505060405180519050826200601790919063ffffffff16565b9050600560009054906101000a900473ffffffffffffffffffffffffffffffffffffffff1673ffffffffffffffffffffffffffffffffffffffff166316bb2ec660405180807f4163746976697479000000000000000000000000000000000000000000000000815250600801807f6f776e657242616c616e63650000000000000000000000000000000000000000815250600c019050604051809103902086846000604051602001526040518463ffffffff167c01000000000000000000000000000000000000000000000000000000000281526004018084600019166000191681526020018373ffffffffffffffffffffffffffffffffffffffff1673ffffffffffffffffffffffffffffffffffffffff1681526020018281526020019350505050602060405180830381600087803b15156200481a57600080fd5b6102c65a03f115156200482c57600080fd5b50505060405180519050508173ffffffffffffffffffffffffffffffffffffffff1663c0e79a11600080604051602001526040518263ffffffff167c0100000000000000000000000000000000000000000000000000000000028152600401808273ffffffffffffffffffffffffffffffffffffffff1673ffffffffffffffffffffffffffffffffffffffff168152602001915050602060405180830381600087803b1515620048db57600080fd5b6102c65a03f11515620048ed57600080fd5b50505060405180519050508173ffffffffffffffffffffffffffffffffffffffff1663f64532b962004920600262005fe7565b6000604051602001526040518263ffffffff167c010000000000000000000000000000000000000000000000000000000002815260040180828152602001915050602060405180830381600087803b15156200497b57600080fd5b6102c65a03f115156200498d57600080fd5b5050506040518051905050600560009054906101000a900473ffffffffffffffffffffffffffffffffffffffff1673ffffffffffffffffffffffffffffffffffffffff16633b600b6460405180807f4163746976697479000000000000000000000000000000000000000000000000815250600801807f6f776e657242616c616e63650000000000000000000000000000000000000000815250600c0190506040518091039020336000604051602001526040518363ffffffff167c01000000000000000000000000000000000000000000000000000000000281526004018083600019166000191681526020018273ffffffffffffffffffffffffffffffffffffffff1673ffffffffffffffffffffffffffffffffffffffff16815260200192505050602060405180830381600087803b151562004acb57600080fd5b6102c65a03f1151562004add57600080fd5b50505060405180519050905062004b868273ffffffffffffffffffffffffffffffffffffffff1663209652556000604051602001526040518163ffffffff167c0100000000000000000000000000000000000000000000000000000000028152600401602060405180830381600087803b151562004b5a57600080fd5b6102c65a03f1151562004b6c57600080fd5b50505060405180519050826200601790919063ffffffff16565b9050600560009054906101000a900473ffffffffffffffffffffffffffffffffffffffff1673ffffffffffffffffffffffffffffffffffffffff166316bb2ec660405180807f4163746976697479000000000000000000000000000000000000000000000000815250600801807f6f776e657242616c616e63650000000000000000000000000000000000000000815250600c019050604051809103902033846000604051602001526040518463ffffffff167c01000000000000000000000000000000000000000000000000000000000281526004018084600019166000191681526020018373ffffffffffffffffffffffffffffffffffffffff1673ffffffffffffffffffffffffffffffffffffffff1681526020018281526020019350505050602060405180830381600087803b151562004cc357600080fd5b6102c65a03f1151562004cd557600080fd5b50505060405180519050506000809054906101000a900473ffffffffffffffffffffffffffffffffffffffff1673ffffffffffffffffffffffffffffffffffffffff16638de93222858473ffffffffffffffffffffffffffffffffffffffff1663209652556000604051602001526040518163ffffffff167c0100000000000000000000000000000000000000000000000000000000028152600401602060405180830381600087803b151562004d8b57600080fd5b6102c65a03f1151562004d9d57600080fd5b505050604051805190506000604051602001526040518363ffffffff167c0100000000000000000000000000000000000000000000000000000000028152600401808373ffffffffffffffffffffffffffffffffffffffff1673ffffffffffffffffffffffffffffffffffffffff16815260200182815260200192505050602060405180830381600087803b151562004e3557600080fd5b6102c65a03f1151562004e4757600080fd5b50505060405180519050507f19dcd5290ce17ab00a2715af6871815c7967b0efdbdfe568197fef858a197a75338686604051808473ffffffffffffffffffffffffffffffffffffffff1673ffffffffffffffffffffffffffffffffffffffff16815260200183600019166000191681526020018273ffffffffffffffffffffffffffffffffffffffff1673ffffffffffffffffffffffffffffffffffffffff168152602001935050505060405180910390a160019250505092915050565b6000806000600560009054906101000a900473ffffffffffffffffffffffffffffffffffffffff1673ffffffffffffffffffffffffffffffffffffffff16635480573d60405180807f4163746976697479000000000000000000000000000000000000000000000000815250600801807f5469636b6574000000000000000000000000000000000000000000000000000081525060060190506040518091039020866000604051602001526040518363ffffffff167c0100000000000000000000000000000000000000000000000000000000028152600401808360001916600019168152602001826000191660001916815260200192505050602060405180830381600087803b15156200501957600080fd5b6102c65a03f115156200502b57600080fd5b505050604051805190509150600260068111156200504557fe5b620050d88373ffffffffffffffffffffffffffffffffffffffff16633bc21fcb6000604051602001526040518163ffffffff167c0100000000000000000000000000000000000000000000000000000000028152600401602060405180830381600087803b1515620050b657600080fd5b6102c65a03f11515620050c857600080fd5b5050506040518051905062005fb6565b6006811115620050e457fe5b141515620050f157600080fd5b600560009054906101000a900473ffffffffffffffffffffffffffffffffffffffff1673ffffffffffffffffffffffffffffffffffffffff16633b600b6460405180807f4163746976697479000000000000000000000000000000000000000000000000815250600801807f6f776e657242616c616e63650000000000000000000000000000000000000000815250600c01905060405180910390208473ffffffffffffffffffffffffffffffffffffffff16630c4f65bd6000604051602001526040518163ffffffff167c0100000000000000000000000000000000000000000000000000000000028152600401602060405180830381600087803b1515620051fa57600080fd5b6102c65a03f115156200520c57600080fd5b505050604051805190506000604051602001526040518363ffffffff167c01000000000000000000000000000000000000000000000000000000000281526004018083600019166000191681526020018273ffffffffffffffffffffffffffffffffffffffff1673ffffffffffffffffffffffffffffffffffffffff16815260200192505050602060405180830381600087803b1515620052ac57600080fd5b6102c65a03f11515620052be57600080fd5b505050604051805190509050620053678273ffffffffffffffffffffffffffffffffffffffff1663209652556000604051602001526040518163ffffffff167c0100000000000000000000000000000000000000000000000000000000028152600401602060405180830381600087803b15156200533b57600080fd5b6102c65a03f115156200534d57600080fd5b505050604051805190508262005ffd90919063ffffffff16565b9050600560009054906101000a900473ffffffffffffffffffffffffffffffffffffffff1673ffffffffffffffffffffffffffffffffffffffff166316bb2ec660405180807f4163746976697479000000000000000000000000000000000000000000000000815250600801807f6f776e657242616c616e63650000000000000000000000000000000000000000815250600c01905060405180910390208473ffffffffffffffffffffffffffffffffffffffff16630c4f65bd6000604051602001526040518163ffffffff167c0100000000000000000000000000000000000000000000000000000000028152600401602060405180830381600087803b15156200547257600080fd5b6102c65a03f115156200548457600080fd5b50505060405180519050846000604051602001526040518463ffffffff167c01000000000000000000000000000000000000000000000000000000000281526004018084600019166000191681526020018373ffffffffffffffffffffffffffffffffffffffff1673ffffffffffffffffffffffffffffffffffffffff1681526020018281526020019350505050602060405180830381600087803b15156200552c57600080fd5b6102c65a03f115156200553e57600080fd5b50505060405180519050506000809054906101000a900473ffffffffffffffffffffffffffffffffffffffff1673ffffffffffffffffffffffffffffffffffffffff16631e9a69508373ffffffffffffffffffffffffffffffffffffffff16630c4f65bd6000604051602001526040518163ffffffff167c0100000000000000000000000000000000000000000000000000000000028152600401602060405180830381600087803b1515620055f357600080fd5b6102c65a03f115156200560557600080fd5b505050604051805190508473ffffffffffffffffffffffffffffffffffffffff1663209652556000604051602001526040518163ffffffff167c0100000000000000000000000000000000000000000000000000000000028152600401602060405180830381600087803b15156200567c57600080fd5b6102c65a03f115156200568e57600080fd5b505050604051805190506000604051602001526040518363ffffffff167c0100000000000000000000000000000000000000000000000000000000028152600401808373ffffffffffffffffffffffffffffffffffffffff1673ffffffffffffffffffffffffffffffffffffffff16815260200182815260200192505050602060405180830381600087803b15156200572657600080fd5b6102c65a03f115156200573857600080fd5b50505060405180519050508173ffffffffffffffffffffffffffffffffffffffff1663c0e79a11600080604051602001526040518263ffffffff167c0100000000000000000000000000000000000000000000000000000000028152600401808273ffffffffffffffffffffffffffffffffffffffff1673ffffffffffffffffffffffffffffffffffffffff168152602001915050602060405180830381600087803b1515620057e757600080fd5b6102c65a03f11515620057f957600080fd5b50505060405180519050508173ffffffffffffffffffffffffffffffffffffffff1663f64532b96200582c600162005fe7565b6000604051602001526040518263ffffffff167c010000000000000000000000000000000000000000000000000000000002815260040180828152602001915050602060405180830381600087803b15156200588757600080fd5b6102c65a03f115156200589957600080fd5b50505060405180519050508173ffffffffffffffffffffffffffffffffffffffff1663331a6bf5336000604051602001526040518263ffffffff167c0100000000000000000000000000000000000000000000000000000000028152600401808273ffffffffffffffffffffffffffffffffffffffff1673ffffffffffffffffffffffffffffffffffffffff168152602001915050602060405180830381600087803b15156200594857600080fd5b6102c65a03f115156200595a57600080fd5b5050506040518051905050600560009054906101000a900473ffffffffffffffffffffffffffffffffffffffff1673ffffffffffffffffffffffffffffffffffffffff16633b600b6460405180807f4163746976697479000000000000000000000000000000000000000000000000815250600801807f6f776e657242616c616e63650000000000000000000000000000000000000000815250600c0190506040518091039020336000604051602001526040518363ffffffff167c01000000000000000000000000000000000000000000000000000000000281526004018083600019166000191681526020018273ffffffffffffffffffffffffffffffffffffffff1673ffffffffffffffffffffffffffffffffffffffff16815260200192505050602060405180830381600087803b151562005a9857600080fd5b6102c65a03f1151562005aaa57600080fd5b50505060405180519050905062005b538273ffffffffffffffffffffffffffffffffffffffff1663209652556000604051602001526040518163ffffffff167c0100000000000000000000000000000000000000000000000000000000028152600401602060405180830381600087803b151562005b2757600080fd5b6102c65a03f1151562005b3957600080fd5b50505060405180519050826200601790919063ffffffff16565b9050600560009054906101000a900473ffffffffffffffffffffffffffffffffffffffff1673ffffffffffffffffffffffffffffffffffffffff166316bb2ec660405180807f4163746976697479000000000000000000000000000000000000000000000000815250600801807f6f776e657242616c616e63650000000000000000000000000000000000000000815250600c0190506040518091039020338573ffffffffffffffffffffffffffffffffffffffff1663209652556000604051602001526040518163ffffffff167c0100000000000000000000000000000000000000000000000000000000028152600401602060405180830381600087803b151562005c5f57600080fd5b6102c65a03f1151562005c7157600080fd5b505050604051805190506000604051602001526040518463ffffffff167c01000000000000000000000000000000000000000000000000000000000281526004018084600019166000191681526020018373ffffffffffffffffffffffffffffffffffffffff1673ffffffffffffffffffffffffffffffffffffffff1681526020018281526020019350505050602060405180830381600087803b151562005d1857600080fd5b6102c65a03f1151562005d2a57600080fd5b50505060405180519050507f89f67af83d9df74c4ffd7d1b2cbe84847fb0305fed300d6377069e6a4adc55623385604051808373ffffffffffffffffffffffffffffffffffffffff1673ffffffffffffffffffffffffffffffffffffffff16815260200182600019166000191681526020019250505060405180910390a1600192505050919050565b600080600560009054906101000a900473ffffffffffffffffffffffffffffffffffffffff1673ffffffffffffffffffffffffffffffffffffffff16635480573d60405180807f4163746976697479000000000000000000000000000000000000000000000000815250600801807f5469636b6574000000000000000000000000000000000000000000000000000081525060060190506040518091039020866000604051602001526040518363ffffffff167c0100000000000000000000000000000000000000000000000000000000028152600401808360001916600019168152602001826000191660001916815260200192505050602060405180830381600087803b151562005ec557600080fd5b6102c65a03f1151562005ed757600080fd5b5050506040518051905090508273ffffffffffffffffffffffffffffffffffffffff168173ffffffffffffffffffffffffffffffffffffffff166303fced0c6000604051602001526040518163ffffffff167c0100000000000000000000000000000000000000000000000000000000028152600401602060405180830381600087803b151562005f6757600080fd5b6102c65a03f1151562005f7957600080fd5b5050506040518051905073ffffffffffffffffffffffffffffffffffffffff16141562005faa576001915062005faf565b600091505b5092915050565b600060068081111562005fc557fe5b8210151562005fd357600080fd5b81600681111562005fe057fe5b9050919050565b600081600681111562005ff657fe5b9050919050565b60008282111515156200600c57fe5b818303905092915050565b60008082840190508381101515156200602c57fe5b8091505092915050565b60405161067e80620060488339019056006060604052341561000f57600080fd5b60405160a08061067e8339810160405280805190602001909190805190602001909190805190602001909190805190602001909190805190602001909190505084600160006101000a81548173ffffffffffffffffffffffffffffffffffffffff021916908373ffffffffffffffffffffffffffffffffffffffff160217905550836002819055506100b38361012b640100000000026104bc176401000000009004565b600360006101000a81548160ff021916908360068111156100d057fe5b021790555081600360016101000a81548173ffffffffffffffffffffffffffffffffffffffff021916908373ffffffffffffffffffffffffffffffffffffffff16021790555080600481600019169055505050505050610159565b600060068081111561013957fe5b8210151561014657600080fd5b81600681111561015257fe5b9050919050565b610516806101686000396000f3006060604052600436106100a4576000357c0100000000000000000000000000000000000000000000000000000000900463ffffffff16806303fced0c146100a65780630c4c4285146100fb5780630c4f65bd1461013a578063209652551461018f578063331a6bf5146101b85780633bc21fcb146102095780635524107714610232578063c0e79a111461026d578063d13319c4146102be578063f64532b9146102ef575b005b34156100b157600080fd5b6100b961032a565b604051808273ffffffffffffffffffffffffffffffffffffffff1673ffffffffffffffffffffffffffffffffffffffff16815260200191505060405180910390f35b341561010657600080fd5b610120600480803560001916906020019091905050610354565b604051808215151515815260200191505060405180910390f35b341561014557600080fd5b61014d61036a565b604051808273ffffffffffffffffffffffffffffffffffffffff1673ffffffffffffffffffffffffffffffffffffffff16815260200191505060405180910390f35b341561019a57600080fd5b6101a2610394565b6040518082815260200191505060405180910390f35b34156101c357600080fd5b6101ef600480803573ffffffffffffffffffffffffffffffffffffffff1690602001909190505061039e565b604051808215151515815260200191505060405180910390f35b341561021457600080fd5b61021c6103ea565b6040518082815260200191505060405180910390f35b341561023d57600080fd5b6102536004808035906020019091905050610409565b604051808215151515815260200191505060405180910390f35b341561027857600080fd5b6102a4600480803573ffffffffffffffffffffffffffffffffffffffff1690602001909190505061041b565b604051808215151515815260200191505060405180910390f35b34156102c957600080fd5b6102d1610467565b60405180826000191660001916815260200191505060405180910390f35b34156102fa57600080fd5b6103106004808035906020019091905050610471565b604051808215151515815260200191505060405180910390f35b6000600360019054906101000a900473ffffffffffffffffffffffffffffffffffffffff16905090565b6000816004816000191690555060019050919050565b6000600160009054906101000a900473ffffffffffffffffffffffffffffffffffffffff16905090565b6000600254905090565b600081600160006101000a81548173ffffffffffffffffffffffffffffffffffffffff021916908373ffffffffffffffffffffffffffffffffffffffff16021790555060019050919050565b6000610404600360009054906101000a900460ff166104a7565b905090565b60008160028190555060019050919050565b600081600360016101000a81548173ffffffffffffffffffffffffffffffffffffffff021916908373ffffffffffffffffffffffffffffffffffffffff16021790555060019050919050565b6000600454905090565b600061047c826104bc565b600360006101000a81548160ff0219169083600681111561049957fe5b021790555060019050919050565b60008160068111156104b557fe5b9050919050565b60006006808111156104ca57fe5b821015156104d757600080fd5b8160068111156104e357fe5b90509190505600a165627a7a723058203056832bc341b8afebe13796c64acc96502cb7eed450045864a863eed6d3877c0029a165627a7a72305820d564f732b9e25e6c2bed32270be3132b6708545de05a7c7c44adc73f7cd8b2d00029a165627a7a72305820e3012e7df084a4b1143d935cb024df2d33f62f5f03c7d88294a252b37a448ceb0029",
  "source": "pragma solidity ^0.4.18;\n\nimport './SafeMath.sol';\nimport './GeneralStorage.sol';\nimport './Platform.sol';\nimport './Activity.sol';\n\ncontract Org {\n    using SafeMath for uint256;\n    uint256 public totalIssuedValue;\n    bytes32 public name;\n    address public supervisor;\n    GeneralStorage public gs;\n    Platform public platform;\n\n    function Org(bytes32 _name, address _supervisor, address _gs) public {\n        name = _name;\n        supervisor = _supervisor;\n        gs = GeneralStorage(_gs);\n        platform = Platform(msg.sender);\n    }\n    function() payable public{ }\n\n    // air => totalIssuedValue\n    function issue(uint256 _value) public returns(uint256){\n        totalIssuedValue=totalIssuedValue.add(_value);\n        platform.issue(_value);\n        return totalIssuedValue;\n    }\n\n    //totalIssuedValue => air\n    function voidBack(uint256 _value) public returns(uint256){\n        totalIssuedValue=totalIssuedValue.sub(_value);\n        platform.voidBack(_value);\n        return totalIssuedValue;\n    }\n\n    // balances => stakes\n    function purchase(address _to, uint256 _amount) public returns (uint256){\n        uint256 stake = gs.mapReadAddressToUint(keccak256(\"Org\",name),_to);\n        stake=stake.add(_amount);\n        gs.mapSetAddressToUint(keccak256(\"Org\",name),_to,stake);\n        platform.purchase(_to,_amount);\n\n        return stake;\n    }\n\n    // stakes => balances\n    function redeem(address _to, uint256 _amount) public returns (uint256){\n        uint256 stake = gs.mapReadAddressToUint(keccak256(\"Org\",name),_to);\n        stake=stake.sub(_amount);\n        gs.mapSetAddressToUint(keccak256(\"Org\",name),_to,stake);\n        platform.redeem(_to,_amount);\n\n        return stake;\n    }\n\n    //stakes => stakes\n    function assign(address _from, address _to, uint256 _amount) public returns (uint256){\n        uint256 stake = gs.mapReadAddressToUint(keccak256(\"Org\",name),_from);\n        stake=stake.sub(_amount);\n        gs.mapSetAddressToUint(keccak256(\"Org\",name),_from,stake);\n        stake = gs.mapReadAddressToUint(keccak256(\"Org\",name),_to);\n        stake=stake.add(_amount);\n        gs.mapSetAddressToUint(keccak256(\"Org\",name),_to,stake);\n        platform.assign(_to,_amount);\n        return _amount;\n    }\n\n    //stakes => stakes balances => balances\n    function deal(address _from, address _to, uint256 _amount) public returns (uint256){\n        uint256 stake = gs.mapReadAddressToUint(keccak256(\"Org\",name),_from);\n        stake=stake.sub(_amount);\n        gs.mapSetAddressToUint(keccak256(\"Org\",name),_from,stake);\n        stake = gs.mapReadAddressToUint(keccak256(\"Org\",name),_to);\n        stake=stake.add(_amount);\n        gs.mapSetAddressToUint(keccak256(\"Org\",name),_to,stake);\n        platform.assign(_to,_amount);\n        return _amount;\n    }\n\n\n    function openActivity(bytes32 _name, address supervise) public returns (address){\n        uint256 pointer = gs.counterGet(keccak256(\"Org\"),\"pointer\");\n        address activity = new Activity(_name,supervise,address(gs));\n        gs.uniqueMapSetUintToAddress(keccak256(\"Org\",\"Activity\"),pointer,activity);\n        return activity;\n    }\n\n\n\n\n\n\n\n\n\n\n\n\n\n    /* //======================useless====================\n     //whiteList of org\n     function addOrgWhite(address _white) public returns (bool){\n         require(msg.sender == supervisor);\n         guasAddress.createAddress(orgSymbol,_white);\n         return true;\n     }\n\n     function removeOrgWhite(address _white) public returns(bool){\n         require(msg.sender == supervisor);\n         guasAddress.deleteAddress(orgSymbol,guasAddress.indexOfAddress(orgSymbol,_white));\n         return true;\n     }\n\n     function isOrgWhite(address _white) public constant returns(bool){\n         uint256 ret = guasAddress.indexOfAddress(orgSymbol,_white);\n         if(ret!=uint256(0)){\n             return true;\n         }\n         return false;\n     }\n\n     */\n\n\n}",
  "sourcePath": "/home/lycrus/IdeaProjects/live2/monolith/src/main/resources/truffle/contracts/Org.sol",
  "compiler": {
    "name": "solc",
    "version": "0.4.18+commit.9cf6e910.Emscripten.clang"
  },
  "schemaVersion": "1.0.1",
  "updatedAt": "2017-12-07T09:28:47.473Z"
}