{
  "contractName": "OrgToken",
  "abi": [
    {
      "constant": true,
      "inputs": [],
      "name": "mintingFinished",
      "outputs": [
        {
          "name": "",
          "type": "bool"
        }
      ],
      "payable": false,
      "stateMutability": "view",
      "type": "function"
    },
    {
      "constant": false,
      "inputs": [
        {
          "name": "_white",
          "type": "address"
        }
      ],
      "name": "removeOrgWhite",
      "outputs": [
        {
          "name": "",
          "type": "bool"
        }
      ],
      "payable": false,
      "stateMutability": "nonpayable",
      "type": "function"
    },
    {
      "constant": false,
      "inputs": [
        {
          "name": "_spender",
          "type": "address"
        },
        {
          "name": "_value",
          "type": "uint256"
        }
      ],
      "name": "approve",
      "outputs": [
        {
          "name": "",
          "type": "bool"
        }
      ],
      "payable": false,
      "stateMutability": "nonpayable",
      "type": "function"
    },
    {
      "constant": false,
      "inputs": [
        {
          "name": "_ticketSymbol",
          "type": "bytes32"
        },
        {
          "name": "_value",
          "type": "uint256"
        }
      ],
      "name": "melt",
      "outputs": [
        {
          "name": "",
          "type": "bool"
        }
      ],
      "payable": false,
      "stateMutability": "nonpayable",
      "type": "function"
    },
    {
      "constant": true,
      "inputs": [],
      "name": "totalSupply",
      "outputs": [
        {
          "name": "",
          "type": "uint256"
        }
      ],
      "payable": false,
      "stateMutability": "view",
      "type": "function"
    },
    {
      "constant": false,
      "inputs": [
        {
          "name": "_to",
          "type": "address"
        },
        {
          "name": "_value",
          "type": "uint256"
        }
      ],
      "name": "redeem",
      "outputs": [
        {
          "name": "",
          "type": "bool"
        }
      ],
      "payable": false,
      "stateMutability": "nonpayable",
      "type": "function"
    },
    {
      "constant": false,
      "inputs": [
        {
          "name": "_from",
          "type": "address"
        },
        {
          "name": "_to",
          "type": "address"
        },
        {
          "name": "_value",
          "type": "uint256"
        }
      ],
      "name": "transferFrom",
      "outputs": [
        {
          "name": "",
          "type": "bool"
        }
      ],
      "payable": false,
      "stateMutability": "nonpayable",
      "type": "function"
    },
    {
      "constant": false,
      "inputs": [
        {
          "name": "_to",
          "type": "address"
        },
        {
          "name": "_amount",
          "type": "uint256"
        }
      ],
      "name": "mint",
      "outputs": [
        {
          "name": "",
          "type": "bool"
        }
      ],
      "payable": false,
      "stateMutability": "nonpayable",
      "type": "function"
    },
    {
      "constant": false,
      "inputs": [
        {
          "name": "_spender",
          "type": "address"
        },
        {
          "name": "_subtractedValue",
          "type": "uint256"
        }
      ],
      "name": "decreaseApproval",
      "outputs": [
        {
          "name": "success",
          "type": "bool"
        }
      ],
      "payable": false,
      "stateMutability": "nonpayable",
      "type": "function"
    },
    {
      "constant": true,
      "inputs": [
        {
          "name": "_owner",
          "type": "address"
        }
      ],
      "name": "balanceOf",
      "outputs": [
        {
          "name": "balance",
          "type": "uint256"
        }
      ],
      "payable": false,
      "stateMutability": "view",
      "type": "function"
    },
    {
      "constant": true,
      "inputs": [
        {
          "name": "_ticketSymbol",
          "type": "bytes32"
        }
      ],
      "name": "getIssuedStakeValue",
      "outputs": [
        {
          "name": "",
          "type": "uint256"
        }
      ],
      "payable": false,
      "stateMutability": "view",
      "type": "function"
    },
    {
      "constant": false,
      "inputs": [],
      "name": "finishMinting",
      "outputs": [
        {
          "name": "",
          "type": "bool"
        }
      ],
      "payable": false,
      "stateMutability": "nonpayable",
      "type": "function"
    },
    {
      "constant": true,
      "inputs": [
        {
          "name": "_owner",
          "type": "address"
        }
      ],
      "name": "getOwnerStakeValue",
      "outputs": [
        {
          "name": "",
          "type": "uint256"
        }
      ],
      "payable": false,
      "stateMutability": "view",
      "type": "function"
    },
    {
      "constant": true,
      "inputs": [],
      "name": "owner",
      "outputs": [
        {
          "name": "",
          "type": "address"
        }
      ],
      "payable": false,
      "stateMutability": "view",
      "type": "function"
    },
    {
      "constant": false,
      "inputs": [
        {
          "name": "_to",
          "type": "address"
        },
        {
          "name": "_value",
          "type": "uint256"
        }
      ],
      "name": "purchase",
      "outputs": [
        {
          "name": "",
          "type": "bool"
        }
      ],
      "payable": false,
      "stateMutability": "nonpayable",
      "type": "function"
    },
    {
      "constant": false,
      "inputs": [
        {
          "name": "_from",
          "type": "address"
        },
        {
          "name": "_to",
          "type": "address"
        },
        {
          "name": "_value",
          "type": "uint256"
        }
      ],
      "name": "exchange",
      "outputs": [
        {
          "name": "",
          "type": "bool"
        }
      ],
      "payable": false,
      "stateMutability": "nonpayable",
      "type": "function"
    },
    {
      "constant": true,
      "inputs": [
        {
          "name": "_ticketSymbol",
          "type": "bytes32"
        }
      ],
      "name": "ticketPool",
      "outputs": [
        {
          "name": "",
          "type": "address"
        }
      ],
      "payable": false,
      "stateMutability": "view",
      "type": "function"
    },
    {
      "constant": false,
      "inputs": [
        {
          "name": "_to",
          "type": "address"
        },
        {
          "name": "_value",
          "type": "uint256"
        }
      ],
      "name": "transfer",
      "outputs": [
        {
          "name": "",
          "type": "bool"
        }
      ],
      "payable": false,
      "stateMutability": "nonpayable",
      "type": "function"
    },
    {
      "constant": false,
      "inputs": [
        {
          "name": "_ticketSymbol",
          "type": "bytes32"
        },
        {
          "name": "_value",
          "type": "uint256"
        }
      ],
      "name": "issue",
      "outputs": [
        {
          "name": "",
          "type": "bool"
        }
      ],
      "payable": false,
      "stateMutability": "nonpayable",
      "type": "function"
    },
    {
      "constant": false,
      "inputs": [
        {
          "name": "_white",
          "type": "address"
        }
      ],
      "name": "addOrgWhite",
      "outputs": [
        {
          "name": "",
          "type": "bool"
        }
      ],
      "payable": false,
      "stateMutability": "nonpayable",
      "type": "function"
    },
    {
      "constant": true,
      "inputs": [
        {
          "name": "_white",
          "type": "address"
        }
      ],
      "name": "isOrgWhite",
      "outputs": [
        {
          "name": "",
          "type": "bool"
        }
      ],
      "payable": false,
      "stateMutability": "view",
      "type": "function"
    },
    {
      "constant": false,
      "inputs": [
        {
          "name": "_ticketSymbol",
          "type": "bytes32"
        }
      ],
      "name": "issueTicketPool",
      "outputs": [
        {
          "name": "",
          "type": "address"
        }
      ],
      "payable": false,
      "stateMutability": "nonpayable",
      "type": "function"
    },
    {
      "constant": false,
      "inputs": [
        {
          "name": "_spender",
          "type": "address"
        },
        {
          "name": "_addedValue",
          "type": "uint256"
        }
      ],
      "name": "increaseApproval",
      "outputs": [
        {
          "name": "success",
          "type": "bool"
        }
      ],
      "payable": false,
      "stateMutability": "nonpayable",
      "type": "function"
    },
    {
      "constant": true,
      "inputs": [
        {
          "name": "_owner",
          "type": "address"
        },
        {
          "name": "_spender",
          "type": "address"
        }
      ],
      "name": "allowance",
      "outputs": [
        {
          "name": "remaining",
          "type": "uint256"
        }
      ],
      "payable": false,
      "stateMutability": "view",
      "type": "function"
    },
    {
      "constant": false,
      "inputs": [
        {
          "name": "newOwner",
          "type": "address"
        }
      ],
      "name": "transferOwnership",
      "outputs": [],
      "payable": false,
      "stateMutability": "nonpayable",
      "type": "function"
    },
    {
      "inputs": [
        {
          "name": "_orgSymbol",
          "type": "bytes32"
        },
        {
          "name": "_ns",
          "type": "address"
        }
      ],
      "payable": false,
      "stateMutability": "nonpayable",
      "type": "constructor"
    },
    {
      "payable": true,
      "stateMutability": "payable",
      "type": "fallback"
    },
    {
      "anonymous": false,
      "inputs": [
        {
          "indexed": true,
          "name": "to",
          "type": "address"
        },
        {
          "indexed": false,
          "name": "amount",
          "type": "uint256"
        }
      ],
      "name": "Mint",
      "type": "event"
    },
    {
      "anonymous": false,
      "inputs": [],
      "name": "MintFinished",
      "type": "event"
    },
    {
      "anonymous": false,
      "inputs": [
        {
          "indexed": true,
          "name": "previousOwner",
          "type": "address"
        },
        {
          "indexed": true,
          "name": "newOwner",
          "type": "address"
        }
      ],
      "name": "OwnershipTransferred",
      "type": "event"
    },
    {
      "anonymous": false,
      "inputs": [
        {
          "indexed": true,
          "name": "owner",
          "type": "address"
        },
        {
          "indexed": true,
          "name": "spender",
          "type": "address"
        },
        {
          "indexed": false,
          "name": "value",
          "type": "uint256"
        }
      ],
      "name": "Approval",
      "type": "event"
    },
    {
      "anonymous": false,
      "inputs": [
        {
          "indexed": true,
          "name": "from",
          "type": "address"
        },
        {
          "indexed": true,
          "name": "to",
          "type": "address"
        },
        {
          "indexed": false,
          "name": "value",
          "type": "uint256"
        }
      ],
      "name": "Transfer",
      "type": "event"
    }
  ],
  "bytecode": "0x60606040526000600360146101000a81548160ff02191690831515021790555034156200002b57600080fd5b604051604080620061f683398101604052808051906020019091908051906020019091905050600033600360006101000a81548173ffffffffffffffffffffffffffffffffffffffff021916908373ffffffffffffffffffffffffffffffffffffffff1602179055508173ffffffffffffffffffffffffffffffffffffffff16635c36b1866000604051602001526040518163ffffffff167c0100000000000000000000000000000000000000000000000000000000028152600401602060405180830381600087803b15156200010157600080fd5b6102c65a03f115156200011357600080fd5b5050506040518051905015156200012957600080fd5b81600560006101000a81548173ffffffffffffffffffffffffffffffffffffffff021916908373ffffffffffffffffffffffffffffffffffffffff160217905550600560009054906101000a900473ffffffffffffffffffffffffffffffffffffffff1673ffffffffffffffffffffffffffffffffffffffff1663dbd2344e6000604051602001526040518163ffffffff167c010000000000000000000000000000000000000000000000000000000002815260040180807f47656e6572616c556e69717565417272617953746f72616765000000000000008152506020019050602060405180830381600087803b15156200022457600080fd5b6102c65a03f115156200023657600080fd5b50505060405180519050905080600660006101000a81548173ffffffffffffffffffffffffffffffffffffffff021916908373ffffffffffffffffffffffffffffffffffffffff160217905550600560009054906101000a900473ffffffffffffffffffffffffffffffffffffffff1673ffffffffffffffffffffffffffffffffffffffff1663dbd2344e6000604051602001526040518163ffffffff167c010000000000000000000000000000000000000000000000000000000002815260040180807f47656e6572616c4d617070696e6753746f7261676500000000000000000000008152506020019050602060405180830381600087803b15156200033d57600080fd5b6102c65a03f115156200034f57600080fd5b50505060405180519050905080600760006101000a81548173ffffffffffffffffffffffffffffffffffffffff021916908373ffffffffffffffffffffffffffffffffffffffff160217905550600060048190555033600860006101000a81548173ffffffffffffffffffffffffffffffffffffffff021916908373ffffffffffffffffffffffffffffffffffffffff160217905550826009816000191690555082604051808260001916600019168152602001807f7469636b65744164647265737300000000000000000000000000000000000000815250600d019150506040518091039020600a816000191690555082604051808260001916600019168152602001807f6f776e65725374616b6556616c75650000000000000000000000000000000000815250600f019150506040518091039020600b816000191690555082604051808260001916600019168152602001807f6973737565645374616b6556616c7565000000000000000000000000000000008152506010019150506040518091039020600c8160001916905550505050615d0380620004f36000396000f300606060405260043610610149576000357c0100000000000000000000000000000000000000000000000000000000900463ffffffff16806305d2035b1461014b578063084063dc14610178578063095ea7b3146101c95780631107de2a1461022357806318160ddd1461026b5780631e9a69501461029457806323b872dd146102ee57806340c10f191461036757806366188463146103c157806370a082311461041b57806379eca5af146104685780637d64bcb4146104a35780638298a812146104d05780638da5cb5b1461051d5780638de9322214610572578063969e3756146105cc5780639cfc0b3314610645578063a9059cbb146106ac578063a92abe3714610706578063c3909a821461074e578063ca6f379d1461079f578063d35a56de146107f0578063d73dd62314610857578063dd62ed3e146108b1578063f2fde38b1461091d575b005b341561015657600080fd5b61015e610956565b604051808215151515815260200191505060405180910390f35b341561018357600080fd5b6101af600480803573ffffffffffffffffffffffffffffffffffffffff16906020019091905050610969565b604051808215151515815260200191505060405180910390f35b34156101d457600080fd5b610209600480803573ffffffffffffffffffffffffffffffffffffffff16906020019091908035906020019091905050610b88565b604051808215151515815260200191505060405180910390f35b341561022e57600080fd5b610251600480803560001916906020019091908035906020019091905050610c7a565b604051808215151515815260200191505060405180910390f35b341561027657600080fd5b61027e610e44565b6040518082815260200191505060405180910390f35b341561029f57600080fd5b6102d4600480803573ffffffffffffffffffffffffffffffffffffffff16906020019091908035906020019091905050610e4a565b604051808215151515815260200191505060405180910390f35b34156102f957600080fd5b61034d600480803573ffffffffffffffffffffffffffffffffffffffff1690602001909190803573ffffffffffffffffffffffffffffffffffffffff169060200190919080359060200190919050506110f1565b604051808215151515815260200191505060405180910390f35b341561037257600080fd5b6103a7600480803573ffffffffffffffffffffffffffffffffffffffff169060200190919080359060200190919050506113dd565b604051808215151515815260200191505060405180910390f35b34156103cc57600080fd5b610401600480803573ffffffffffffffffffffffffffffffffffffffff169060200190919080359060200190919050506115af565b604051808215151515815260200191505060405180910390f35b341561042657600080fd5b610452600480803573ffffffffffffffffffffffffffffffffffffffff16906020019091905050611840565b6040518082815260200191505060405180910390f35b341561047357600080fd5b61048d600480803560001916906020019091905050611889565b6040518082815260200191505060405180910390f35b34156104ae57600080fd5b6104b6611960565b604051808215151515815260200191505060405180910390f35b34156104db57600080fd5b610507600480803573ffffffffffffffffffffffffffffffffffffffff16906020019091905050611a0c565b6040518082815260200191505060405180910390f35b341561052857600080fd5b610530611b07565b604051808273ffffffffffffffffffffffffffffffffffffffff1673ffffffffffffffffffffffffffffffffffffffff16815260200191505060405180910390f35b341561057d57600080fd5b6105b2600480803573ffffffffffffffffffffffffffffffffffffffff16906020019091908035906020019091905050611b2d565b604051808215151515815260200191505060405180910390f35b34156105d757600080fd5b61062b600480803573ffffffffffffffffffffffffffffffffffffffff1690602001909190803573ffffffffffffffffffffffffffffffffffffffff16906020019091908035906020019091905050611dd4565b604051808215151515815260200191505060405180910390f35b341561065057600080fd5b61066a600480803560001916906020019091905050612315565b604051808273ffffffffffffffffffffffffffffffffffffffff1673ffffffffffffffffffffffffffffffffffffffff16815260200191505060405180910390f35b34156106b757600080fd5b6106ec600480803573ffffffffffffffffffffffffffffffffffffffff169060200190919080359060200190919050506123ec565b604051808215151515815260200191505060405180910390f35b341561071157600080fd5b6107346004808035600019169060200190919080359060200190919050506125c2565b604051808215151515815260200191505060405180910390f35b341561075957600080fd5b610785600480803573ffffffffffffffffffffffffffffffffffffffff1690602001909190505061278c565b604051808215151515815260200191505060405180910390f35b34156107aa57600080fd5b6107d6600480803573ffffffffffffffffffffffffffffffffffffffff169060200190919050506128e6565b604051808215151515815260200191505060405180910390f35b34156107fb57600080fd5b6108156004808035600019169060200190919050506129fb565b604051808273ffffffffffffffffffffffffffffffffffffffff1673ffffffffffffffffffffffffffffffffffffffff16815260200191505060405180910390f35b341561086257600080fd5b610897600480803573ffffffffffffffffffffffffffffffffffffffff16906020019091908035906020019091905050612b3d565b604051808215151515815260200191505060405180910390f35b34156108bc57600080fd5b610907600480803573ffffffffffffffffffffffffffffffffffffffff1690602001909190803573ffffffffffffffffffffffffffffffffffffffff16906020019091905050612d39565b6040518082815260200191505060405180910390f35b341561092857600080fd5b610954600480803573ffffffffffffffffffffffffffffffffffffffff16906020019091905050612dc0565b005b600360149054906101000a900460ff1681565b6000600860009054906101000a900473ffffffffffffffffffffffffffffffffffffffff1673ffffffffffffffffffffffffffffffffffffffff163373ffffffffffffffffffffffffffffffffffffffff161415156109c757600080fd5b600660009054906101000a900473ffffffffffffffffffffffffffffffffffffffff1673ffffffffffffffffffffffffffffffffffffffff1663360ecc82600954600660009054906101000a900473ffffffffffffffffffffffffffffffffffffffff1673ffffffffffffffffffffffffffffffffffffffff1663f7f5303b600954876000604051602001526040518363ffffffff167c01000000000000000000000000000000000000000000000000000000000281526004018083600019166000191681526020018273ffffffffffffffffffffffffffffffffffffffff1673ffffffffffffffffffffffffffffffffffffffff16815260200192505050602060405180830381600087803b1515610adf57600080fd5b6102c65a03f11515610af057600080fd5b505050604051805190506000604051602001526040518363ffffffff167c010000000000000000000000000000000000000000000000000000000002815260040180836000191660001916815260200182815260200192505050602060405180830381600087803b1515610b6357600080fd5b6102c65a03f11515610b7457600080fd5b505050604051805190505060019050919050565b600081600260003373ffffffffffffffffffffffffffffffffffffffff1673ffffffffffffffffffffffffffffffffffffffff16815260200190815260200160002060008573ffffffffffffffffffffffffffffffffffffffff1673ffffffffffffffffffffffffffffffffffffffff168152602001908152602001600020819055508273ffffffffffffffffffffffffffffffffffffffff163373ffffffffffffffffffffffffffffffffffffffff167f8c5be1e5ebec7d5bd14f71427d1e84f3dd0314c0f7b2291e5b200ac8c7c3b925846040518082815260200191505060405180910390a36001905092915050565b600080600760009054906101000a900473ffffffffffffffffffffffffffffffffffffffff1673ffffffffffffffffffffffffffffffffffffffff1663bec634f1600c54866000604051602001526040518363ffffffff167c0100000000000000000000000000000000000000000000000000000000028152600401808360001916600019168152602001826000191660001916815260200192505050602060405180830381600087803b1515610d3057600080fd5b6102c65a03f11515610d4157600080fd5b505050604051805190509050610d608382612f1890919063ffffffff16565b9050600760009054906101000a900473ffffffffffffffffffffffffffffffffffffffff1673ffffffffffffffffffffffffffffffffffffffff16634e200a8f600c5486846000604051602001526040518463ffffffff167c010000000000000000000000000000000000000000000000000000000002815260040180846000191660001916815260200183600019166000191681526020018281526020019350505050602060405180830381600087803b1515610e1d57600080fd5b6102c65a03f11515610e2e57600080fd5b5050506040518051905050600191505092915050565b60005481565b600080600760009054906101000a900473ffffffffffffffffffffffffffffffffffffffff1673ffffffffffffffffffffffffffffffffffffffff16637b4a03b2600b54866000604051602001526040518363ffffffff167c01000000000000000000000000000000000000000000000000000000000281526004018083600019166000191681526020018273ffffffffffffffffffffffffffffffffffffffff1673ffffffffffffffffffffffffffffffffffffffff16815260200192505050602060405180830381600087803b1515610f2457600080fd5b6102c65a03f11515610f3557600080fd5b505050604051805190509050610f548382612f1890919063ffffffff16565b9050600760009054906101000a900473ffffffffffffffffffffffffffffffffffffffff1673ffffffffffffffffffffffffffffffffffffffff1663215669bb600b5486846000604051602001526040518463ffffffff167c01000000000000000000000000000000000000000000000000000000000281526004018084600019166000191681526020018373ffffffffffffffffffffffffffffffffffffffff1673ffffffffffffffffffffffffffffffffffffffff1681526020018281526020019350505050602060405180830381600087803b151561103557600080fd5b6102c65a03f1151561104657600080fd5b50505060405180519050506110a383600160008773ffffffffffffffffffffffffffffffffffffffff1673ffffffffffffffffffffffffffffffffffffffff16815260200190815260200160002054612f3190919063ffffffff16565b600160008673ffffffffffffffffffffffffffffffffffffffff1673ffffffffffffffffffffffffffffffffffffffff16815260200190815260200160002081905550600191505092915050565b600080600073ffffffffffffffffffffffffffffffffffffffff168473ffffffffffffffffffffffffffffffffffffffff161415151561113057600080fd5b600260008673ffffffffffffffffffffffffffffffffffffffff1673ffffffffffffffffffffffffffffffffffffffff16815260200190815260200160002060003373ffffffffffffffffffffffffffffffffffffffff1673ffffffffffffffffffffffffffffffffffffffff16815260200190815260200160002054905061120183600160008873ffffffffffffffffffffffffffffffffffffffff1673ffffffffffffffffffffffffffffffffffffffff16815260200190815260200160002054612f1890919063ffffffff16565b600160008773ffffffffffffffffffffffffffffffffffffffff1673ffffffffffffffffffffffffffffffffffffffff1681526020019081526020016000208190555061129683600160008773ffffffffffffffffffffffffffffffffffffffff1673ffffffffffffffffffffffffffffffffffffffff16815260200190815260200160002054612f3190919063ffffffff16565b600160008673ffffffffffffffffffffffffffffffffffffffff1673ffffffffffffffffffffffffffffffffffffffff168152602001908152602001600020819055506112ec8382612f1890919063ffffffff16565b600260008773ffffffffffffffffffffffffffffffffffffffff1673ffffffffffffffffffffffffffffffffffffffff16815260200190815260200160002060003373ffffffffffffffffffffffffffffffffffffffff1673ffffffffffffffffffffffffffffffffffffffff168152602001908152602001600020819055508373ffffffffffffffffffffffffffffffffffffffff168573ffffffffffffffffffffffffffffffffffffffff167fddf252ad1be2c89b69c2b068fc378daa952ba7f163c4a11628f55a4df523b3ef856040518082815260200191505060405180910390a360019150509392505050565b6000600360009054906101000a900473ffffffffffffffffffffffffffffffffffffffff1673ffffffffffffffffffffffffffffffffffffffff163373ffffffffffffffffffffffffffffffffffffffff1614151561143b57600080fd5b600360149054906101000a900460ff1615151561145757600080fd5b61146c82600054612f3190919063ffffffff16565b6000819055506114c482600160008673ffffffffffffffffffffffffffffffffffffffff1673ffffffffffffffffffffffffffffffffffffffff16815260200190815260200160002054612f3190919063ffffffff16565b600160008573ffffffffffffffffffffffffffffffffffffffff1673ffffffffffffffffffffffffffffffffffffffff168152602001908152602001600020819055508273ffffffffffffffffffffffffffffffffffffffff167f0f6798a560793a54c3bcfe86a93cde1e73087d944c0ea20544137d4121396885836040518082815260200191505060405180910390a28273ffffffffffffffffffffffffffffffffffffffff1660007fddf252ad1be2c89b69c2b068fc378daa952ba7f163c4a11628f55a4df523b3ef846040518082815260200191505060405180910390a36001905092915050565b600080600260003373ffffffffffffffffffffffffffffffffffffffff1673ffffffffffffffffffffffffffffffffffffffff16815260200190815260200160002060008573ffffffffffffffffffffffffffffffffffffffff1673ffffffffffffffffffffffffffffffffffffffff168152602001908152602001600020549050808311156116c0576000600260003373ffffffffffffffffffffffffffffffffffffffff1673ffffffffffffffffffffffffffffffffffffffff16815260200190815260200160002060008673ffffffffffffffffffffffffffffffffffffffff1673ffffffffffffffffffffffffffffffffffffffff16815260200190815260200160002081905550611754565b6116d38382612f1890919063ffffffff16565b600260003373ffffffffffffffffffffffffffffffffffffffff1673ffffffffffffffffffffffffffffffffffffffff16815260200190815260200160002060008673ffffffffffffffffffffffffffffffffffffffff1673ffffffffffffffffffffffffffffffffffffffff168152602001908152602001600020819055505b8373ffffffffffffffffffffffffffffffffffffffff163373ffffffffffffffffffffffffffffffffffffffff167f8c5be1e5ebec7d5bd14f71427d1e84f3dd0314c0f7b2291e5b200ac8c7c3b925600260003373ffffffffffffffffffffffffffffffffffffffff1673ffffffffffffffffffffffffffffffffffffffff16815260200190815260200160002060008873ffffffffffffffffffffffffffffffffffffffff1673ffffffffffffffffffffffffffffffffffffffff168152602001908152602001600020546040518082815260200191505060405180910390a3600191505092915050565b6000600160008373ffffffffffffffffffffffffffffffffffffffff1673ffffffffffffffffffffffffffffffffffffffff168152602001908152602001600020549050919050565b6000600760009054906101000a900473ffffffffffffffffffffffffffffffffffffffff1673ffffffffffffffffffffffffffffffffffffffff1663bec634f1600c54846000604051602001526040518363ffffffff167c0100000000000000000000000000000000000000000000000000000000028152600401808360001916600019168152602001826000191660001916815260200192505050602060405180830381600087803b151561193e57600080fd5b6102c65a03f1151561194f57600080fd5b505050604051805190509050919050565b6000600360009054906101000a900473ffffffffffffffffffffffffffffffffffffffff1673ffffffffffffffffffffffffffffffffffffffff163373ffffffffffffffffffffffffffffffffffffffff161415156119be57600080fd5b6001600360146101000a81548160ff0219169083151502179055507fae5184fba832cb2b1f702aca6117b8d265eaf03ad33eb133f19dde0f5920fa0860405160405180910390a16001905090565b6000600760009054906101000a900473ffffffffffffffffffffffffffffffffffffffff1673ffffffffffffffffffffffffffffffffffffffff16637b4a03b2600b54846000604051602001526040518363ffffffff167c01000000000000000000000000000000000000000000000000000000000281526004018083600019166000191681526020018273ffffffffffffffffffffffffffffffffffffffff1673ffffffffffffffffffffffffffffffffffffffff16815260200192505050602060405180830381600087803b1515611ae557600080fd5b6102c65a03f11515611af657600080fd5b505050604051805190509050919050565b600360009054906101000a900473ffffffffffffffffffffffffffffffffffffffff1681565b600080600760009054906101000a900473ffffffffffffffffffffffffffffffffffffffff1673ffffffffffffffffffffffffffffffffffffffff16637b4a03b2600b54866000604051602001526040518363ffffffff167c01000000000000000000000000000000000000000000000000000000000281526004018083600019166000191681526020018273ffffffffffffffffffffffffffffffffffffffff1673ffffffffffffffffffffffffffffffffffffffff16815260200192505050602060405180830381600087803b1515611c0757600080fd5b6102c65a03f11515611c1857600080fd5b505050604051805190509050611c378382612f3190919063ffffffff16565b9050600760009054906101000a900473ffffffffffffffffffffffffffffffffffffffff1673ffffffffffffffffffffffffffffffffffffffff1663215669bb600b5486846000604051602001526040518463ffffffff167c01000000000000000000000000000000000000000000000000000000000281526004018084600019166000191681526020018373ffffffffffffffffffffffffffffffffffffffff1673ffffffffffffffffffffffffffffffffffffffff1681526020018281526020019350505050602060405180830381600087803b1515611d1857600080fd5b6102c65a03f11515611d2957600080fd5b5050506040518051905050611d8683600160008773ffffffffffffffffffffffffffffffffffffffff1673ffffffffffffffffffffffffffffffffffffffff16815260200190815260200160002054612f1890919063ffffffff16565b600160008673ffffffffffffffffffffffffffffffffffffffff1673ffffffffffffffffffffffffffffffffffffffff16815260200190815260200160002081905550600191505092915050565b600080600760009054906101000a900473ffffffffffffffffffffffffffffffffffffffff1673ffffffffffffffffffffffffffffffffffffffff16637b4a03b2600b54876000604051602001526040518363ffffffff167c01000000000000000000000000000000000000000000000000000000000281526004018083600019166000191681526020018273ffffffffffffffffffffffffffffffffffffffff1673ffffffffffffffffffffffffffffffffffffffff16815260200192505050602060405180830381600087803b1515611eae57600080fd5b6102c65a03f11515611ebf57600080fd5b505050604051805190509050611ede8382612f1890919063ffffffff16565b9050600760009054906101000a900473ffffffffffffffffffffffffffffffffffffffff1673ffffffffffffffffffffffffffffffffffffffff1663215669bb600b5486846000604051602001526040518463ffffffff167c01000000000000000000000000000000000000000000000000000000000281526004018084600019166000191681526020018373ffffffffffffffffffffffffffffffffffffffff1673ffffffffffffffffffffffffffffffffffffffff1681526020018281526020019350505050602060405180830381600087803b1515611fbf57600080fd5b6102c65a03f11515611fd057600080fd5b505050604051805190505061202d83600160008873ffffffffffffffffffffffffffffffffffffffff1673ffffffffffffffffffffffffffffffffffffffff16815260200190815260200160002054612f3190919063ffffffff16565b600160008773ffffffffffffffffffffffffffffffffffffffff1673ffffffffffffffffffffffffffffffffffffffff16815260200190815260200160002081905550600760009054906101000a900473ffffffffffffffffffffffffffffffffffffffff1673ffffffffffffffffffffffffffffffffffffffff16637b4a03b2600b54866000604051602001526040518363ffffffff167c01000000000000000000000000000000000000000000000000000000000281526004018083600019166000191681526020018273ffffffffffffffffffffffffffffffffffffffff1673ffffffffffffffffffffffffffffffffffffffff16815260200192505050602060405180830381600087803b151561214757600080fd5b6102c65a03f1151561215857600080fd5b5050506040518051905090506121778382612f3190919063ffffffff16565b9050600760009054906101000a900473ffffffffffffffffffffffffffffffffffffffff1673ffffffffffffffffffffffffffffffffffffffff1663215669bb600b5486846000604051602001526040518463ffffffff167c01000000000000000000000000000000000000000000000000000000000281526004018084600019166000191681526020018373ffffffffffffffffffffffffffffffffffffffff1673ffffffffffffffffffffffffffffffffffffffff1681526020018281526020019350505050602060405180830381600087803b151561225857600080fd5b6102c65a03f1151561226957600080fd5b50505060405180519050506122c683600160008773ffffffffffffffffffffffffffffffffffffffff1673ffffffffffffffffffffffffffffffffffffffff16815260200190815260200160002054612f3190919063ffffffff16565b600160008673ffffffffffffffffffffffffffffffffffffffff1673ffffffffffffffffffffffffffffffffffffffff1681526020019081526020016000208190555060019150509392505050565b6000600760009054906101000a900473ffffffffffffffffffffffffffffffffffffffff1673ffffffffffffffffffffffffffffffffffffffff1663bb5aa144600a54846000604051602001526040518363ffffffff167c0100000000000000000000000000000000000000000000000000000000028152600401808360001916600019168152602001826000191660001916815260200192505050602060405180830381600087803b15156123ca57600080fd5b6102c65a03f115156123db57600080fd5b505050604051805190509050919050565b60008073ffffffffffffffffffffffffffffffffffffffff168373ffffffffffffffffffffffffffffffffffffffff161415151561242957600080fd5b61247b82600160003373ffffffffffffffffffffffffffffffffffffffff1673ffffffffffffffffffffffffffffffffffffffff16815260200190815260200160002054612f1890919063ffffffff16565b600160003373ffffffffffffffffffffffffffffffffffffffff1673ffffffffffffffffffffffffffffffffffffffff1681526020019081526020016000208190555061251082600160008673ffffffffffffffffffffffffffffffffffffffff1673ffffffffffffffffffffffffffffffffffffffff16815260200190815260200160002054612f3190919063ffffffff16565b600160008573ffffffffffffffffffffffffffffffffffffffff1673ffffffffffffffffffffffffffffffffffffffff168152602001908152602001600020819055508273ffffffffffffffffffffffffffffffffffffffff163373ffffffffffffffffffffffffffffffffffffffff167fddf252ad1be2c89b69c2b068fc378daa952ba7f163c4a11628f55a4df523b3ef846040518082815260200191505060405180910390a36001905092915050565b600080600760009054906101000a900473ffffffffffffffffffffffffffffffffffffffff1673ffffffffffffffffffffffffffffffffffffffff1663bec634f1600c54866000604051602001526040518363ffffffff167c0100000000000000000000000000000000000000000000000000000000028152600401808360001916600019168152602001826000191660001916815260200192505050602060405180830381600087803b151561267857600080fd5b6102c65a03f1151561268957600080fd5b5050506040518051905090506126a88382612f3190919063ffffffff16565b9050600760009054906101000a900473ffffffffffffffffffffffffffffffffffffffff1673ffffffffffffffffffffffffffffffffffffffff16634e200a8f600c5486846000604051602001526040518463ffffffff167c010000000000000000000000000000000000000000000000000000000002815260040180846000191660001916815260200183600019166000191681526020018281526020019350505050602060405180830381600087803b151561276557600080fd5b6102c65a03f1151561277657600080fd5b5050506040518051905050600191505092915050565b6000600860009054906101000a900473ffffffffffffffffffffffffffffffffffffffff1673ffffffffffffffffffffffffffffffffffffffff163373ffffffffffffffffffffffffffffffffffffffff161415156127ea57600080fd5b600660009054906101000a900473ffffffffffffffffffffffffffffffffffffffff1673ffffffffffffffffffffffffffffffffffffffff16637b2e0046600954846000604051602001526040518363ffffffff167c01000000000000000000000000000000000000000000000000000000000281526004018083600019166000191681526020018273ffffffffffffffffffffffffffffffffffffffff1673ffffffffffffffffffffffffffffffffffffffff16815260200192505050602060405180830381600087803b15156128c157600080fd5b6102c65a03f115156128d257600080fd5b505050604051805190505060019050919050565b600080600660009054906101000a900473ffffffffffffffffffffffffffffffffffffffff1673ffffffffffffffffffffffffffffffffffffffff1663f7f5303b600954856000604051602001526040518363ffffffff167c01000000000000000000000000000000000000000000000000000000000281526004018083600019166000191681526020018273ffffffffffffffffffffffffffffffffffffffff1673ffffffffffffffffffffffffffffffffffffffff16815260200192505050602060405180830381600087803b15156129c057600080fd5b6102c65a03f115156129d157600080fd5b5050506040518051905090506000811415156129f057600191506129f5565b600091505b50919050565b60008082612a07612f4f565b808260001916600019168152602001915050604051809103906000f0801515612a2f57600080fd5b9050600760009054906101000a900473ffffffffffffffffffffffffffffffffffffffff1673ffffffffffffffffffffffffffffffffffffffff16634634c237600a5485846000604051602001526040518463ffffffff167c010000000000000000000000000000000000000000000000000000000002815260040180846000191660001916815260200183600019166000191681526020018273ffffffffffffffffffffffffffffffffffffffff1673ffffffffffffffffffffffffffffffffffffffff1681526020019350505050602060405180830381600087803b1515612b1857600080fd5b6102c65a03f11515612b2957600080fd5b505050604051805190505080915050919050565b6000612bce82600260003373ffffffffffffffffffffffffffffffffffffffff1673ffffffffffffffffffffffffffffffffffffffff16815260200190815260200160002060008673ffffffffffffffffffffffffffffffffffffffff1673ffffffffffffffffffffffffffffffffffffffff16815260200190815260200160002054612f3190919063ffffffff16565b600260003373ffffffffffffffffffffffffffffffffffffffff1673ffffffffffffffffffffffffffffffffffffffff16815260200190815260200160002060008573ffffffffffffffffffffffffffffffffffffffff1673ffffffffffffffffffffffffffffffffffffffff168152602001908152602001600020819055508273ffffffffffffffffffffffffffffffffffffffff163373ffffffffffffffffffffffffffffffffffffffff167f8c5be1e5ebec7d5bd14f71427d1e84f3dd0314c0f7b2291e5b200ac8c7c3b925600260003373ffffffffffffffffffffffffffffffffffffffff1673ffffffffffffffffffffffffffffffffffffffff16815260200190815260200160002060008773ffffffffffffffffffffffffffffffffffffffff1673ffffffffffffffffffffffffffffffffffffffff168152602001908152602001600020546040518082815260200191505060405180910390a36001905092915050565b6000600260008473ffffffffffffffffffffffffffffffffffffffff1673ffffffffffffffffffffffffffffffffffffffff16815260200190815260200160002060008373ffffffffffffffffffffffffffffffffffffffff1673ffffffffffffffffffffffffffffffffffffffff16815260200190815260200160002054905092915050565b600360009054906101000a900473ffffffffffffffffffffffffffffffffffffffff1673ffffffffffffffffffffffffffffffffffffffff163373ffffffffffffffffffffffffffffffffffffffff16141515612e1c57600080fd5b600073ffffffffffffffffffffffffffffffffffffffff168173ffffffffffffffffffffffffffffffffffffffff1614151515612e5857600080fd5b8073ffffffffffffffffffffffffffffffffffffffff16600360009054906101000a900473ffffffffffffffffffffffffffffffffffffffff1673ffffffffffffffffffffffffffffffffffffffff167f8be0079c531659141344cd1fd0a4f28419497f9722a3daafe3b4186f6b6457e060405160405180910390a380600360006101000a81548173ffffffffffffffffffffffffffffffffffffffff021916908373ffffffffffffffffffffffffffffffffffffffff16021790555050565b6000828211151515612f2657fe5b818303905092915050565b6000808284019050838110151515612f4557fe5b8091505092915050565b604051612d7880612f608339019056006060604052341561000f57600080fd5b604051602080612d788339810160405280805190602001909190505033600160006101000a81548173ffffffffffffffffffffffffffffffffffffffff021916908373ffffffffffffffffffffffffffffffffffffffff16021790555033600360006101000a81548173ffffffffffffffffffffffffffffffffffffffff021916908373ffffffffffffffffffffffffffffffffffffffff160217905550806002816000191690555050612cb0806100c86000396000f30060606040526004361061011d576000357c0100000000000000000000000000000000000000000000000000000000900463ffffffff168063072032cf1461011f5780630bd4d2051461015e57806312c2743e1461019d57806344f41dc0146101ee5780634662d1dd1461023f57806354fd4d501461027e5780635cd2f4d3146102a75780636d66d1c31461030557806370a0823114610344578063766661d5146103915780637d8176e8146103e25780637dd199fc14610433578063936a9ade14610484578063944dfc2a146104d95780639532244014610537578063960a79d71461058857806396afb365146105d9578063980c662114610618578063b1be506b14610676578063b3c06f50146106c7578063e6693d1914610744575b005b341561012a57600080fd5b610144600480803560001916906020019091905050610795565b604051808215151515815260200191505060405180910390f35b341561016957600080fd5b6101836004808035600019169060200190919050506108be565b604051808215151515815260200191505060405180910390f35b34156101a857600080fd5b6101d4600480803573ffffffffffffffffffffffffffffffffffffffff169060200190919050506109e7565b604051808215151515815260200191505060405180910390f35b34156101f957600080fd5b610225600480803573ffffffffffffffffffffffffffffffffffffffff16906020019091905050610b3b565b604051808215151515815260200191505060405180910390f35b341561024a57600080fd5b610264600480803560001916906020019091905050610c72565b604051808215151515815260200191505060405180910390f35b341561028957600080fd5b610291610e98565b6040518082815260200191505060405180910390f35b34156102b257600080fd5b6102eb600480803573ffffffffffffffffffffffffffffffffffffffff1690602001909190803560001916906020019091905050610e9e565b604051808215151515815260200191505060405180910390f35b341561031057600080fd5b61032a6004808035600019169060200190919050506110a8565b604051808215151515815260200191505060405180910390f35b341561034f57600080fd5b61037b600480803573ffffffffffffffffffffffffffffffffffffffff16906020019091905050611454565b6040518082815260200191505060405180910390f35b341561039c57600080fd5b6103c8600480803573ffffffffffffffffffffffffffffffffffffffff1690602001909190505061149d565b604051808215151515815260200191505060405180910390f35b34156103ed57600080fd5b610419600480803573ffffffffffffffffffffffffffffffffffffffff169060200190919050506115d4565b604051808215151515815260200191505060405180910390f35b341561043e57600080fd5b61046a600480803573ffffffffffffffffffffffffffffffffffffffff16906020019091905050611637565b604051808215151515815260200191505060405180910390f35b341561048f57600080fd5b6104bf6004808035906020019091908035600019169060200190919080356000191690602001909190505061169a565b604051808215151515815260200191505060405180910390f35b34156104e457600080fd5b61051d60048080356000191690602001909190803573ffffffffffffffffffffffffffffffffffffffff169060200190919050506119d8565b604051808215151515815260200191505060405180910390f35b341561054257600080fd5b61056e600480803573ffffffffffffffffffffffffffffffffffffffff16906020019091905050611d92565b604051808215151515815260200191505060405180910390f35b341561059357600080fd5b6105bf600480803573ffffffffffffffffffffffffffffffffffffffff16906020019091905050611ee6565b604051808215151515815260200191505060405180910390f35b34156105e457600080fd5b6105fe60048080356000191690602001909190505061201d565b604051808215151515815260200191505060405180910390f35b341561062357600080fd5b61065c60048080356000191690602001909190803573ffffffffffffffffffffffffffffffffffffffff16906020019091905050612436565b604051808215151515815260200191505060405180910390f35b341561068157600080fd5b6106ad600480803573ffffffffffffffffffffffffffffffffffffffff169060200190919050506124bb565b604051808215151515815260200191505060405180910390f35b34156106d257600080fd5b61072a600480803573ffffffffffffffffffffffffffffffffffffffff1690602001909190803573ffffffffffffffffffffffffffffffffffffffff169060200190919080356000191690602001909190505061260f565b604051808215151515815260200191505060405180910390f35b341561074f57600080fd5b61077b600480803573ffffffffffffffffffffffffffffffffffffffff16906020019091905050612bea565b604051808215151515815260200191505060405180910390f35b60006107a0336115d4565b15156107ab57600080fd5b600360048111156107b857fe5b60076000846000191660001916815260200190815260200160002060009054906101000a900460ff1660048111156107ec57fe5b1415156107f857600080fd5b600260076000846000191660001916815260200190815260200160002060006101000a81548160ff0219169083600481111561083057fe5b02179055507fa1115e024e2eb4af645b0cd37e4a3c6d4d78a450b32bb89cce69c320d6616ec433836000604051808473ffffffffffffffffffffffffffffffffffffffff1673ffffffffffffffffffffffffffffffffffffffff168152602001836000191660001916815260200182151515158152602001935050505060405180910390a160019050919050565b60006108c9336115d4565b15156108d457600080fd5b600260048111156108e157fe5b60076000846000191660001916815260200190815260200160002060009054906101000a900460ff16600481111561091557fe5b14151561092157600080fd5b600360076000846000191660001916815260200190815260200160002060006101000a81548160ff0219169083600481111561095957fe5b02179055507fa1115e024e2eb4af645b0cd37e4a3c6d4d78a450b32bb89cce69c320d6616ec433836001604051808473ffffffffffffffffffffffffffffffffffffffff1673ffffffffffffffffffffffffffffffffffffffff168152602001836000191660001916815260200182151515158152602001935050505060405180910390a160019050919050565b60008015156109f583612bea565b15151415610a065760019050610b36565b600b6000600254600c60008673ffffffffffffffffffffffffffffffffffffffff1673ffffffffffffffffffffffffffffffffffffffff16815260200190815260200160002054604051808360001916600019168152602001807f6d696e7457686974654c69737400000000000000000000000000000000000000815250600d018281526020019250505060405180910390206000191660001916815260200190815260200160002060006101000a81549073ffffffffffffffffffffffffffffffffffffffff0219169055600c60008373ffffffffffffffffffffffffffffffffffffffff1673ffffffffffffffffffffffffffffffffffffffff16815260200190815260200160002060009055610b2b6001600d54612c4d90919063ffffffff16565b600d81905550600190505b919050565b600060011515610b4a83612bea565b15151415610b5b5760019050610c6d565b610b716001600d54612c6690919063ffffffff16565b600d8190555081600b6000600254600d54604051808360001916600019168152602001807f6d696e7457686974654c69737400000000000000000000000000000000000000815250600d018281526020019250505060405180910390206000191660001916815260200190815260200160002060006101000a81548173ffffffffffffffffffffffffffffffffffffffff021916908373ffffffffffffffffffffffffffffffffffffffff160217905550600d54600c60008473ffffffffffffffffffffffffffffffffffffffff1673ffffffffffffffffffffffffffffffffffffffff16815260200190815260200160002081905550600190505b919050565b6000610c7d336115d4565b1515610c8857600080fd5b60016004811115610c9557fe5b60076000846000191660001916815260200190815260200160002060009054906101000a900460ff166004811115610cc957fe5b141515610cd557600080fd5b3360056000846000191660001916815260200190815260200160002060006101000a81548173ffffffffffffffffffffffffffffffffffffffff021916908373ffffffffffffffffffffffffffffffffffffffff160217905550610d9c60066000846000191660001916815260200190815260200160002054600860003373ffffffffffffffffffffffffffffffffffffffff1673ffffffffffffffffffffffffffffffffffffffff16815260200190815260200160002054612c6690919063ffffffff16565b600860003373ffffffffffffffffffffffffffffffffffffffff1673ffffffffffffffffffffffffffffffffffffffff16815260200190815260200160002081905550600360076000846000191660001916815260200190815260200160002060006101000a81548160ff02191690836004811115610e1757fe5b02179055507f3ae29c7ded755dbb36f6c5fb8eed2b4c409c22ecfc2215b4cfe4eca41d5bc8e43383604051808373ffffffffffffffffffffffffffffffffffffffff1673ffffffffffffffffffffffffffffffffffffffff16815260200182600019166000191681526020019250505060405180910390a160019050919050565b60005481565b60008073ffffffffffffffffffffffffffffffffffffffff168373ffffffffffffffffffffffffffffffffffffffff1614151515610edb57600080fd5b3373ffffffffffffffffffffffffffffffffffffffff1660056000846000191660001916815260200190815260200160002060009054906101000a900473ffffffffffffffffffffffffffffffffffffffff1673ffffffffffffffffffffffffffffffffffffffff16141515610f5057600080fd5b60016004811115610f5d57fe5b60076000846000191660001916815260200190815260200160002060009054906101000a900460ff166004811115610f9157fe5b141515610f9d57600080fd5b8260096000846000191660001916815260200190815260200160002060006101000a81548173ffffffffffffffffffffffffffffffffffffffff021916908373ffffffffffffffffffffffffffffffffffffffff1602179055507f491b563eb676a04115df2c230494e631273c17b95e69946ec2dd24367be1146b338484604051808473ffffffffffffffffffffffffffffffffffffffff1673ffffffffffffffffffffffffffffffffffffffff1681526020018373ffffffffffffffffffffffffffffffffffffffff1673ffffffffffffffffffffffffffffffffffffffff1681526020018260001916600019168152602001935050505060405180910390a16001905092915050565b60006110b333612bea565b15156110be57600080fd5b600060048111156110cb57fe5b60076000846000191660001916815260200190815260200160002060009054906101000a900460ff1660048111156110ff57fe5b14151561110b57600080fd5b600460009054906101000a900473ffffffffffffffffffffffffffffffffffffffff1660056000846000191660001916815260200190815260200160002060006101000a81548173ffffffffffffffffffffffffffffffffffffffff021916908373ffffffffffffffffffffffffffffffffffffffff1602179055506112166006600084600019166000191681526020019081526020016000205460086000600460009054906101000a900473ffffffffffffffffffffffffffffffffffffffff1673ffffffffffffffffffffffffffffffffffffffff1673ffffffffffffffffffffffffffffffffffffffff16815260200190815260200160002054612c6690919063ffffffff16565b60086000600460009054906101000a900473ffffffffffffffffffffffffffffffffffffffff1673ffffffffffffffffffffffffffffffffffffffff1673ffffffffffffffffffffffffffffffffffffffff1681526020019081526020016000208190555060096000836000191660001916815260200190815260200160002060006101000a81549073ffffffffffffffffffffffffffffffffffffffff0219169055600460076000846000191660001916815260200190815260200160002060006101000a81548160ff021916908360048111156112f157fe5b0217905550600160009054906101000a900473ffffffffffffffffffffffffffffffffffffffff1673ffffffffffffffffffffffffffffffffffffffff16631107de2a600254600660008660001916600019168152602001908152602001600020546000604051602001526040518363ffffffff167c010000000000000000000000000000000000000000000000000000000002815260040180836000191660001916815260200182815260200192505050602060405180830381600087803b15156113bc57600080fd5b6102c65a03f115156113cd57600080fd5b50505060405180519050507fc517e35a8833a8227e066a130068d3c6a8d05c0ce1cd56b442a1ec7e611fe37d3383604051808373ffffffffffffffffffffffffffffffffffffffff1673ffffffffffffffffffffffffffffffffffffffff16815260200182600019166000191681526020019250505060405180910390a160019050919050565b6000600860008373ffffffffffffffffffffffffffffffffffffffff1673ffffffffffffffffffffffffffffffffffffffff168152602001908152602001600020549050919050565b6000600115156114ac836115d4565b151514156114bd57600190506115cf565b6114d36001601054612c6690919063ffffffff16565b60108190555081600e6000600254601054604051808360001916600019168152602001807f7469636b657454616b657257686974654c6973740000000000000000000000008152506014018281526020019250505060405180910390206000191660001916815260200190815260200160002060006101000a81548173ffffffffffffffffffffffffffffffffffffffff021916908373ffffffffffffffffffffffffffffffffffffffff160217905550601054600f60008473ffffffffffffffffffffffffffffffffffffffff1673ffffffffffffffffffffffffffffffffffffffff16815260200190815260200160002081905550600190505b919050565b600080600f60008473ffffffffffffffffffffffffffffffffffffffff1673ffffffffffffffffffffffffffffffffffffffff16815260200190815260200160002054905060008114151561162c5760019150611631565b600091505b50919050565b600080601260008473ffffffffffffffffffffffffffffffffffffffff1673ffffffffffffffffffffffffffffffffffffffff16815260200190815260200160002054905060008114151561168f5760019150611694565b600091505b50919050565b60006116a533612bea565b15156116b057600080fd5b3360056000856000191660001916815260200190815260200160002060006101000a81548173ffffffffffffffffffffffffffffffffffffffff021916908373ffffffffffffffffffffffffffffffffffffffff16021790555081600a60008560001916600019168152602001908152602001600020816000191690555083600660008560001916600019168152602001908152602001600020819055506117a084600860003373ffffffffffffffffffffffffffffffffffffffff1673ffffffffffffffffffffffffffffffffffffffff16815260200190815260200160002054612c6690919063ffffffff16565b600860003373ffffffffffffffffffffffffffffffffffffffff1673ffffffffffffffffffffffffffffffffffffffff16815260200190815260200160002081905550600060096000856000191660001916815260200190815260200160002060006101000a81548173ffffffffffffffffffffffffffffffffffffffff021916908373ffffffffffffffffffffffffffffffffffffffff160217905550600060076000856000191660001916815260200190815260200160002060006101000a81548160ff0219169083600481111561187657fe5b0217905550600160009054906101000a900473ffffffffffffffffffffffffffffffffffffffff1673ffffffffffffffffffffffffffffffffffffffff1663a92abe37600254866000604051602001526040518363ffffffff167c010000000000000000000000000000000000000000000000000000000002815260040180836000191660001916815260200182815260200192505050602060405180830381600087803b151561192657600080fd5b6102c65a03f1151561193757600080fd5b50505060405180519050507f40646de06bf826d83057be741cda05a50f8402aee511c6211cdc15754c2ba76c33858585604051808573ffffffffffffffffffffffffffffffffffffffff1673ffffffffffffffffffffffffffffffffffffffff1681526020018481526020018360001916600019168152602001826000191660001916815260200194505050505060405180910390a1600190509392505050565b60006119e333611637565b15156119ee57600080fd5b600060048111156119fb57fe5b60076000856000191660001916815260200190815260200160002060009054906101000a900460ff166004811115611a2f57fe5b141515611a3b57600080fd5b8160056000856000191660001916815260200190815260200160002060006101000a81548173ffffffffffffffffffffffffffffffffffffffff021916908373ffffffffffffffffffffffffffffffffffffffff160217905550611b0260066000856000191660001916815260200190815260200160002054600860008573ffffffffffffffffffffffffffffffffffffffff1673ffffffffffffffffffffffffffffffffffffffff16815260200190815260200160002054612c6690919063ffffffff16565b600860008473ffffffffffffffffffffffffffffffffffffffff1673ffffffffffffffffffffffffffffffffffffffff16815260200190815260200160002081905550600060096000856000191660001916815260200190815260200160002060006101000a81548173ffffffffffffffffffffffffffffffffffffffff021916908373ffffffffffffffffffffffffffffffffffffffff160217905550600160076000856000191660001916815260200190815260200160002060006101000a81548160ff02191690836004811115611bd857fe5b0217905550600160009054906101000a900473ffffffffffffffffffffffffffffffffffffffff1673ffffffffffffffffffffffffffffffffffffffff16638de9322283600660008760001916600019168152602001908152602001600020546000604051602001526040518363ffffffff167c0100000000000000000000000000000000000000000000000000000000028152600401808373ffffffffffffffffffffffffffffffffffffffff1673ffffffffffffffffffffffffffffffffffffffff16815260200182815260200192505050602060405180830381600087803b1515611cc557600080fd5b6102c65a03f11515611cd657600080fd5b50505060405180519050507f19dcd5290ce17ab00a2715af6871815c7967b0efdbdfe568197fef858a197a75338484604051808473ffffffffffffffffffffffffffffffffffffffff1673ffffffffffffffffffffffffffffffffffffffff16815260200183600019166000191681526020018273ffffffffffffffffffffffffffffffffffffffff1673ffffffffffffffffffffffffffffffffffffffff168152602001935050505060405180910390a16001905092915050565b6000801515611da083611637565b15151415611db15760019050611ee1565b60116000600254601260008673ffffffffffffffffffffffffffffffffffffffff1673ffffffffffffffffffffffffffffffffffffffff16815260200190815260200160002054604051808360001916600019168152602001807f73656c6c657257686974654c6973740000000000000000000000000000000000815250600f018281526020019250505060405180910390206000191660001916815260200190815260200160002060006101000a81549073ffffffffffffffffffffffffffffffffffffffff0219169055601260008373ffffffffffffffffffffffffffffffffffffffff1673ffffffffffffffffffffffffffffffffffffffff16815260200190815260200160002060009055611ed66001601354612c4d90919063ffffffff16565b601381905550600190505b919050565b600060011515611ef583611637565b15151415611f065760019050612018565b611f1c6001601354612c6690919063ffffffff16565b6013819055508160116000600254601354604051808360001916600019168152602001807f73656c6c657257686974654c6973740000000000000000000000000000000000815250600f018281526020019250505060405180910390206000191660001916815260200190815260200160002060006101000a81548173ffffffffffffffffffffffffffffffffffffffff021916908373ffffffffffffffffffffffffffffffffffffffff160217905550601354601260008473ffffffffffffffffffffffffffffffffffffffff1673ffffffffffffffffffffffffffffffffffffffff16815260200190815260200160002081905550600190505b919050565b600061202833612bea565b151561203357600080fd5b6001600481111561204057fe5b60076000846000191660001916815260200190815260200160002060009054906101000a900460ff16600481111561207457fe5b14151561208057600080fd5b612128600660008460001916600019168152602001908152602001600020546008600060056000876000191660001916815260200190815260200160002060009054906101000a900473ffffffffffffffffffffffffffffffffffffffff1673ffffffffffffffffffffffffffffffffffffffff1673ffffffffffffffffffffffffffffffffffffffff16815260200190815260200160002054612c4d90919063ffffffff16565b6008600060056000866000191660001916815260200190815260200160002060009054906101000a900473ffffffffffffffffffffffffffffffffffffffff1673ffffffffffffffffffffffffffffffffffffffff1673ffffffffffffffffffffffffffffffffffffffff16815260200190815260200160002081905550600160009054906101000a900473ffffffffffffffffffffffffffffffffffffffff1673ffffffffffffffffffffffffffffffffffffffff16631e9a695060056000856000191660001916815260200190815260200160002060009054906101000a900473ffffffffffffffffffffffffffffffffffffffff16600660008660001916600019168152602001908152602001600020546000604051602001526040518363ffffffff167c0100000000000000000000000000000000000000000000000000000000028152600401808373ffffffffffffffffffffffffffffffffffffffff1673ffffffffffffffffffffffffffffffffffffffff16815260200182815260200192505050602060405180830381600087803b15156122c957600080fd5b6102c65a03f115156122da57600080fd5b50505060405180519050503360056000846000191660001916815260200190815260200160002060006101000a81548173ffffffffffffffffffffffffffffffffffffffff021916908373ffffffffffffffffffffffffffffffffffffffff16021790555060096000836000191660001916815260200190815260200160002060006101000a81549073ffffffffffffffffffffffffffffffffffffffff0219169055600060076000846000191660001916815260200190815260200160002060006101000a81548160ff021916908360048111156123b557fe5b02179055507f89f67af83d9df74c4ffd7d1b2cbe84847fb0305fed300d6377069e6a4adc55623383604051808373ffffffffffffffffffffffffffffffffffffffff1673ffffffffffffffffffffffffffffffffffffffff16815260200182600019166000191681526020019250505060405180910390a160019050919050565b60008173ffffffffffffffffffffffffffffffffffffffff1660096000856000191660001916815260200190815260200160002060009054906101000a900473ffffffffffffffffffffffffffffffffffffffff1673ffffffffffffffffffffffffffffffffffffffff1614156124b057600190506124b5565b600090505b92915050565b60008015156124c9836115d4565b151514156124da576001905061260a565b600e6000600254600f60008673ffffffffffffffffffffffffffffffffffffffff1673ffffffffffffffffffffffffffffffffffffffff16815260200190815260200160002054604051808360001916600019168152602001807f7469636b657454616b657257686974654c6973740000000000000000000000008152506014018281526020019250505060405180910390206000191660001916815260200190815260200160002060006101000a81549073ffffffffffffffffffffffffffffffffffffffff0219169055600f60008373ffffffffffffffffffffffffffffffffffffffff1673ffffffffffffffffffffffffffffffffffffffff168152602001908152602001600020600090556125ff6001601054612c4d90919063ffffffff16565b601081905550600190505b919050565b600061261a33612bea565b151561262557600080fd5b6001600481111561263257fe5b60076000846000191660001916815260200190815260200160002060009054906101000a900460ff16600481111561266657fe5b14151561267257600080fd5b600073ffffffffffffffffffffffffffffffffffffffff168373ffffffffffffffffffffffffffffffffffffffff16141515156126ae57600080fd5b600073ffffffffffffffffffffffffffffffffffffffff168473ffffffffffffffffffffffffffffffffffffffff16141515156126ea57600080fd5b8373ffffffffffffffffffffffffffffffffffffffff1660056000846000191660001916815260200190815260200160002060009054906101000a900473ffffffffffffffffffffffffffffffffffffffff1673ffffffffffffffffffffffffffffffffffffffff1614151561275f57600080fd5b8273ffffffffffffffffffffffffffffffffffffffff1660096000846000191660001916815260200190815260200160002060009054906101000a900473ffffffffffffffffffffffffffffffffffffffff1673ffffffffffffffffffffffffffffffffffffffff161415156127d457600080fd5b61284160066000846000191660001916815260200190815260200160002054600860008773ffffffffffffffffffffffffffffffffffffffff1673ffffffffffffffffffffffffffffffffffffffff16815260200190815260200160002054612c4d90919063ffffffff16565b600860008673ffffffffffffffffffffffffffffffffffffffff1673ffffffffffffffffffffffffffffffffffffffff168152602001908152602001600020819055506128f160066000846000191660001916815260200190815260200160002054600860008673ffffffffffffffffffffffffffffffffffffffff1673ffffffffffffffffffffffffffffffffffffffff16815260200190815260200160002054612c6690919063ffffffff16565b600860008573ffffffffffffffffffffffffffffffffffffffff1673ffffffffffffffffffffffffffffffffffffffff168152602001908152602001600020819055508260056000846000191660001916815260200190815260200160002060006101000a81548173ffffffffffffffffffffffffffffffffffffffff021916908373ffffffffffffffffffffffffffffffffffffffff16021790555060096000836000191660001916815260200190815260200160002060006101000a81549073ffffffffffffffffffffffffffffffffffffffff0219169055600160009054906101000a900473ffffffffffffffffffffffffffffffffffffffff1673ffffffffffffffffffffffffffffffffffffffff1663969e37568585600660008760001916600019168152602001908152602001600020546000604051602001526040518463ffffffff167c0100000000000000000000000000000000000000000000000000000000028152600401808473ffffffffffffffffffffffffffffffffffffffff1673ffffffffffffffffffffffffffffffffffffffff1681526020018373ffffffffffffffffffffffffffffffffffffffff1673ffffffffffffffffffffffffffffffffffffffff1681526020018281526020019350505050602060405180830381600087803b1515612ae857600080fd5b6102c65a03f11515612af957600080fd5b50505060405180519050507fab207e80265269785321495d72772d01c8e185514f18a3a85268589e93af893133858585604051808573ffffffffffffffffffffffffffffffffffffffff1673ffffffffffffffffffffffffffffffffffffffff1681526020018473ffffffffffffffffffffffffffffffffffffffff1673ffffffffffffffffffffffffffffffffffffffff1681526020018373ffffffffffffffffffffffffffffffffffffffff1673ffffffffffffffffffffffffffffffffffffffff168152602001826000191660001916815260200194505050505060405180910390a1600190509392505050565b600080600c60008473ffffffffffffffffffffffffffffffffffffffff1673ffffffffffffffffffffffffffffffffffffffff168152602001908152602001600020549050600081141515612c425760019150612c47565b600091505b50919050565b6000828211151515612c5b57fe5b818303905092915050565b6000808284019050838110151515612c7a57fe5b80915050929150505600a165627a7a723058208df6112e76260f88abacfa8827cc8900aa20847bfdb79594f809ac723741fe0b0029a165627a7a72305820ef0815aa1ad3d3bcc667e3508451031803a376a58cdfbdd791635251fbcff3b40029",
  "source": "pragma solidity ^0.4.18;\n\nimport './MintableToken.sol';\nimport './NonFungibleTicket.sol';\nimport './SafeMath.sol';\nimport './GeneralUniqueArrayStorage.sol';\nimport './GeneralMappingStorage.sol';\nimport './NamingService.sol';\n\ncontract OrgToken is MintableToken{\n    using SafeMath for uint256;\n    //   mapping(bytes32 => NonFungibleTicket) ticketAddress;\n    //    mapping(address => uint256) ownerStakeValue;//refer to owner's whole ticket stake fortune\n    uint256 totalIssuedValue;\n    NamingService ns;\n    GeneralUniqueArrayStorage guasAddress;\n    GeneralMappingStorage gmsAddress;\n    address supervisor;\n    bytes32 orgSymbol;\n\n    bytes32 TICKET_ADDRESS;\n    bytes32 OWNER_STAKE_VALUE; //,ticket\n    bytes32 ISSUED_STAKE_VALUE;//,ticket\n\n\n    function OrgToken(bytes32 _orgSymbol, address _ns) public {\n\n        require(NamingService(_ns).ping());\n        ns = NamingService(_ns);\n\n        address temp = ns.lookupSafe(\"GeneralUniqueArrayStorage\");\n        guasAddress = GeneralUniqueArrayStorage(temp);\n\n        temp = ns.lookupSafe(\"GeneralMappingStorage\");\n        gmsAddress =  GeneralMappingStorage(temp);\n\n        totalIssuedValue = 0;\n        supervisor=msg.sender;\n        orgSymbol = _orgSymbol;\n        TICKET_ADDRESS = keccak256(_orgSymbol,\"ticketAddress\");\n        OWNER_STAKE_VALUE = keccak256(_orgSymbol,\"ownerStakeValue\");\n        ISSUED_STAKE_VALUE = keccak256(_orgSymbol,\"issuedStakeValue\");\n    }\n    function() payable { }\n    //whiteList of org\n    function addOrgWhite(address _white) public returns (bool){\n        require(msg.sender == supervisor);\n        guasAddress.createAddress(orgSymbol,_white);\n        return true;\n    }\n\n    function removeOrgWhite(address _white) public returns(bool){\n        require(msg.sender == supervisor);\n        guasAddress.deleteAddress(orgSymbol,guasAddress.indexOfAddress(orgSymbol,_white));\n        return true;\n    }\n\n    function isOrgWhite(address _white) public constant returns(bool){\n        uint256 ret = guasAddress.indexOfAddress(orgSymbol,_white);\n        if(ret!=uint256(0)){\n            return true;\n        }\n        return false;\n    }\n\n    function getIssuedStakeValue(bytes32 _ticketSymbol) public constant returns (uint256){\n        return gmsAddress.readBytes32ToUint(ISSUED_STAKE_VALUE, _ticketSymbol);\n    }\n\n    function getOwnerStakeValue(address _owner) public constant returns (uint256){\n        return gmsAddress.readAddressToUint(OWNER_STAKE_VALUE, _owner);\n    }\n\n    function issueTicketPool(bytes32 _ticketSymbol) public returns (address){\n        address temp= new NonFungibleTicket(_ticketSymbol);\n        gmsAddress.createBytes32ToAddress(TICKET_ADDRESS,_ticketSymbol,temp);\n        return temp;\n    }\n\n    function ticketPool(bytes32 _ticketSymbol) public constant returns(address){\n        return gmsAddress.readBytes32ToAddress(TICKET_ADDRESS,_ticketSymbol);\n    }\n\n    //\n    function issue (bytes32 _ticketSymbol, uint256 _value) public returns(bool){\n        uint256 temp = gmsAddress.readBytes32ToUint(ISSUED_STAKE_VALUE, _ticketSymbol);\n        temp = temp.add(_value);\n        gmsAddress.setBytes32ToUint(ISSUED_STAKE_VALUE, _ticketSymbol, temp);\n        return true;\n    }\n\n    //\n    function melt (bytes32 _ticketSymbol, uint256 _value) public returns(bool){\n        uint256 temp = gmsAddress.readBytes32ToUint(ISSUED_STAKE_VALUE, _ticketSymbol);\n        temp = temp.sub(_value);\n        gmsAddress.setBytes32ToUint(ISSUED_STAKE_VALUE, _ticketSymbol, temp);\n        return true;\n    }\n    //\n    function purchase (address _to, uint256 _value) public returns(bool){\n        uint256 temp = gmsAddress.readAddressToUint(OWNER_STAKE_VALUE, _to);\n        temp = temp.add(_value);\n        gmsAddress.setAddressToUint(OWNER_STAKE_VALUE, _to, temp);\n        balances[_to] =balances[_to].sub(_value);\n        return true;\n    }\n    //\n    function redeem (address _to, uint256 _value) public returns(bool){\n        uint256 temp = gmsAddress.readAddressToUint(OWNER_STAKE_VALUE, _to);\n        temp = temp.sub(_value);\n        gmsAddress.setAddressToUint(OWNER_STAKE_VALUE, _to, temp);\n        balances[_to] = balances[_to].add(_value);\n        return true;\n    }\n\n    //\n    function exchange( address _from, address _to, uint256 _value) public returns(bool){\n        uint256 temp = gmsAddress.readAddressToUint(OWNER_STAKE_VALUE, _from);\n        temp = temp.sub(_value);\n        gmsAddress.setAddressToUint(OWNER_STAKE_VALUE, _to, temp);\n        balances[_from] =balances[_from].add(_value);\n\n        temp = gmsAddress.readAddressToUint(OWNER_STAKE_VALUE, _to);\n        temp = temp.add(_value);\n        gmsAddress.setAddressToUint(OWNER_STAKE_VALUE, _to, temp);\n        balances[_to] =balances[_to].add(_value);\n\n        return true;\n    }\n\n}",
  "sourcePath": "/home/lycrus/IdeaProjects/live2/monolith/src/main/resources/truffle/contracts/OrgToken.sol",
  "compiler": {
    "name": "solc",
    "version": "0.4.18+commit.9cf6e910.Emscripten.clang"
  },
  "schemaVersion": "1.0.1",
  "updatedAt": "2017-11-30T07:59:56.466Z"
}