{
  "contractName": "Ticket",
  "abi": [
    {
      "constant": true,
      "inputs": [],
      "name": "getAllowed",
      "outputs": [
        {
          "name": "",
          "type": "address"
        }
      ],
      "payable": false,
      "stateMutability": "view",
      "type": "function"
    },
    {
      "constant": false,
      "inputs": [
        {
          "name": "_bytes32",
          "type": "bytes32"
        }
      ],
      "name": "setHash",
      "outputs": [
        {
          "name": "",
          "type": "bool"
        }
      ],
      "payable": false,
      "stateMutability": "nonpayable",
      "type": "function"
    },
    {
      "constant": true,
      "inputs": [],
      "name": "getOwnerAddress",
      "outputs": [
        {
          "name": "",
          "type": "address"
        }
      ],
      "payable": false,
      "stateMutability": "view",
      "type": "function"
    },
    {
      "constant": true,
      "inputs": [],
      "name": "getValue",
      "outputs": [
        {
          "name": "",
          "type": "uint256"
        }
      ],
      "payable": false,
      "stateMutability": "view",
      "type": "function"
    },
    {
      "constant": false,
      "inputs": [
        {
          "name": "_address",
          "type": "address"
        }
      ],
      "name": "setOwnerAddress",
      "outputs": [
        {
          "name": "",
          "type": "bool"
        }
      ],
      "payable": false,
      "stateMutability": "nonpayable",
      "type": "function"
    },
    {
      "constant": true,
      "inputs": [],
      "name": "getTicketStatus",
      "outputs": [
        {
          "name": "",
          "type": "uint256"
        }
      ],
      "payable": false,
      "stateMutability": "view",
      "type": "function"
    },
    {
      "constant": false,
      "inputs": [
        {
          "name": "_value",
          "type": "uint256"
        }
      ],
      "name": "setValue",
      "outputs": [
        {
          "name": "",
          "type": "bool"
        }
      ],
      "payable": false,
      "stateMutability": "nonpayable",
      "type": "function"
    },
    {
      "constant": false,
      "inputs": [
        {
          "name": "_address",
          "type": "address"
        }
      ],
      "name": "setAllowed",
      "outputs": [
        {
          "name": "",
          "type": "bool"
        }
      ],
      "payable": false,
      "stateMutability": "nonpayable",
      "type": "function"
    },
    {
      "constant": true,
      "inputs": [],
      "name": "getHash",
      "outputs": [
        {
          "name": "",
          "type": "bytes32"
        }
      ],
      "payable": false,
      "stateMutability": "view",
      "type": "function"
    },
    {
      "constant": false,
      "inputs": [
        {
          "name": "_value",
          "type": "uint256"
        }
      ],
      "name": "setTicketStatus",
      "outputs": [
        {
          "name": "",
          "type": "bool"
        }
      ],
      "payable": false,
      "stateMutability": "nonpayable",
      "type": "function"
    },
    {
      "inputs": [
        {
          "name": "_ownerAddress",
          "type": "address"
        },
        {
          "name": "_value",
          "type": "uint256"
        },
        {
          "name": "_ticketStatus",
          "type": "uint256"
        },
        {
          "name": "_allowed",
          "type": "address"
        },
        {
          "name": "_hash",
          "type": "bytes32"
        }
      ],
      "payable": false,
      "stateMutability": "nonpayable",
      "type": "constructor"
    },
    {
      "payable": true,
      "stateMutability": "payable",
      "type": "fallback"
    }
  ],
  "bytecode": "0x6060604052341561000f57600080fd5b60405160a08061067e8339810160405280805190602001909190805190602001909190805190602001909190805190602001909190805190602001909190505084600160006101000a81548173ffffffffffffffffffffffffffffffffffffffff021916908373ffffffffffffffffffffffffffffffffffffffff160217905550836002819055506100b38361012b640100000000026104bc176401000000009004565b600360006101000a81548160ff021916908360068111156100d057fe5b021790555081600360016101000a81548173ffffffffffffffffffffffffffffffffffffffff021916908373ffffffffffffffffffffffffffffffffffffffff16021790555080600481600019169055505050505050610159565b600060068081111561013957fe5b8210151561014657600080fd5b81600681111561015257fe5b9050919050565b610516806101686000396000f3006060604052600436106100a4576000357c0100000000000000000000000000000000000000000000000000000000900463ffffffff16806303fced0c146100a65780630c4c4285146100fb5780630c4f65bd1461013a578063209652551461018f578063331a6bf5146101b85780633bc21fcb146102095780635524107714610232578063c0e79a111461026d578063d13319c4146102be578063f64532b9146102ef575b005b34156100b157600080fd5b6100b961032a565b604051808273ffffffffffffffffffffffffffffffffffffffff1673ffffffffffffffffffffffffffffffffffffffff16815260200191505060405180910390f35b341561010657600080fd5b610120600480803560001916906020019091905050610354565b604051808215151515815260200191505060405180910390f35b341561014557600080fd5b61014d61036a565b604051808273ffffffffffffffffffffffffffffffffffffffff1673ffffffffffffffffffffffffffffffffffffffff16815260200191505060405180910390f35b341561019a57600080fd5b6101a2610394565b6040518082815260200191505060405180910390f35b34156101c357600080fd5b6101ef600480803573ffffffffffffffffffffffffffffffffffffffff1690602001909190505061039e565b604051808215151515815260200191505060405180910390f35b341561021457600080fd5b61021c6103ea565b6040518082815260200191505060405180910390f35b341561023d57600080fd5b6102536004808035906020019091905050610409565b604051808215151515815260200191505060405180910390f35b341561027857600080fd5b6102a4600480803573ffffffffffffffffffffffffffffffffffffffff1690602001909190505061041b565b604051808215151515815260200191505060405180910390f35b34156102c957600080fd5b6102d1610467565b60405180826000191660001916815260200191505060405180910390f35b34156102fa57600080fd5b6103106004808035906020019091905050610471565b604051808215151515815260200191505060405180910390f35b6000600360019054906101000a900473ffffffffffffffffffffffffffffffffffffffff16905090565b6000816004816000191690555060019050919050565b6000600160009054906101000a900473ffffffffffffffffffffffffffffffffffffffff16905090565b6000600254905090565b600081600160006101000a81548173ffffffffffffffffffffffffffffffffffffffff021916908373ffffffffffffffffffffffffffffffffffffffff16021790555060019050919050565b6000610404600360009054906101000a900460ff166104a7565b905090565b60008160028190555060019050919050565b600081600360016101000a81548173ffffffffffffffffffffffffffffffffffffffff021916908373ffffffffffffffffffffffffffffffffffffffff16021790555060019050919050565b6000600454905090565b600061047c826104bc565b600360006101000a81548160ff0219169083600681111561049957fe5b021790555060019050919050565b60008160068111156104b557fe5b9050919050565b60006006808111156104ca57fe5b821015156104d757600080fd5b8160068111156104e357fe5b90509190505600a165627a7a723058203056832bc341b8afebe13796c64acc96502cb7eed450045864a863eed6d3877c0029",
  "source": "pragma solidity ^0.4.18;\n\nimport './SafeMath.sol';\n//import './Org.sol';\nimport './GeneralStorage.sol';\nimport './Lib.sol';\n\n//NonFungibleTicket can be used for ticket pool\n//MintableToken can be used for organization token\ncontract Ticket {\n    using SafeMath for uint256;\n    GeneralStorage gs;\n    //   enum Lifecycle{Init,Normal,Locked,Finished,Void}\n\n    address ownerAddress;\n    uint256 value;\n    Lib.Lifecycle ticketStatus;\n    address allowed;\n    bytes32 hash;\n\n    function Ticket(address _ownerAddress, uint256 _value, uint256 _ticketStatus, address _allowed, bytes32 _hash) public {\n        ownerAddress = _ownerAddress;\n        value = _value;\n        ticketStatus = Lib.explainLifecycle(_ticketStatus);\n        allowed = _allowed;\n        hash = _hash;\n    }\n    function() public payable { }\n\n    function getOwnerAddress() public view returns (address){\n        return ownerAddress;\n    }\n\n    function setOwnerAddress(address _address) public returns (bool){\n        ownerAddress = _address;\n        return true;\n    }\n\n    function getValue() public view returns (uint256){\n        return value;\n    }\n\n    function setValue(uint256 _value) public returns (bool){\n        value = _value;\n        return true;\n    }\n\n    function getTicketStatus() public view returns (uint256){\n        return Lib.interpretLifecycle(ticketStatus);\n    }\n\n    function setTicketStatus(uint256 _value) public returns (bool){\n        ticketStatus = Lib.explainLifecycle(_value);\n        return true;\n    }\n\n    function getAllowed() public view returns (address){\n        return allowed;\n    }\n\n    function setAllowed(address _address) public returns (bool){\n        allowed = _address;\n        return true;\n    }\n\n    function getHash() public view returns (bytes32){\n        return hash;\n    }\n\n    function setHash(bytes32 _bytes32) public returns (bool){\n        hash = _bytes32;\n        return true;\n    }\n}",
  "sourcePath": "/home/lycrus/IdeaProjects/live2/monolith/src/main/resources/truffle/contracts/Ticket.sol",
  "compiler": {
    "name": "solc",
    "version": "0.4.18+commit.9cf6e910.Emscripten.clang"
  },
  "schemaVersion": "1.0.1",
  "updatedAt": "2017-12-07T09:28:47.481Z"
}